S01300002E2E2F46696E616C436F64652E733139F1
S32D0000C00000000020C9F6000025FA000025FA000025FA000025FA000025FA000000000000000000000000000098
S32D0000C0280000000025FA000025FA00000000000025FA000025FA000025FA000025FA000025FA000025FA0000F2
S32D0000C05025FA000025FA000025FA000025FA000025FA000025FA000025FA000025FA000025FA000025FA00008C
S32D0000C07825FA000025FA000025FA000025FA000025FA000025FA000025FA000025FA000025FA000025FA000064
S32D0000C0A025FA000025FA000025FA000025FA000025FA000025FA000025FA000025FA000025FA000025FA00003C
S32D0000C0C825FA000025FA000025FA000025FA000025FA000025FA000025FA000025FA000025FA000025FA000014
S32D0000C0F025FA00007566010025FA000025FA000025FA000025FA000025FA000025FA000025FA000025FA00002F
S32D0000C11825FA000025FA000025FA000025FA000025FA000025FA000025FA000025FA000025FA000025FA0000C3
S32D0000C14025FA000025FA000025FA000025FA0000C52E010025FA000025FA000025FA000025FA000025FA0000C6
S32D0000C16825FA000025FA000025FA000025FA000025FA000025FA000025FA000025FA000025FA000025FA000073
S32D0000C19025FA000025FA000025FA000025290100792701004D28010075FA0000FD29010025FA000025FA0000EA
S32D0000C1B825FA000025FA000025FA000025FA000025FA000025FA000025FA000025FA000025FA000025FA000023
S32D0000C41081F0004102E000BF83F0004330B54FEA41044FEA430594EA050F08BF90EA020F1FBF54EA000C55EAC6
S32D0000C438020C7FEA645C7FEA655C00F0E2804FEA5454D4EB5555B8BF6D420CDD2C4480EA020281EA030382EA0F
S32D0000C460000083EA010180EA020281EA0303362D88BF30BD11F0004F4FEA01314FF4801C4CEA113102D0404263
S32D0000C48861EB410113F0004F4FEA03334CEA133302D0524263EB430394EA050F00F0A780A4F10104D5F1200E8A
S32D0000C4B00DDB02FA0EFC22FA05F2801841F1000103FA0EF2801843FA05F359410EE0A5F120050EF1200E012A2D
S32D0000C4D803FA0EFC28BF4CF0020C43FA05F3C01851EBE37101F0004507D54FF0000EDCF1000C7EEB00006EEB67
S32D0000C5000101B1F5801F1BD3B1F5001F0CD349085FEA30004FEA3C0C04F101044FEA445212F5800F80F09A8000
S32D0000C528BCF1004F08BF5FEA500C50F1000041EB045141EA050130BD5FEA4C0C404141EB010111F4801FA4F114
S32D0000C5500104E9D191F0000F04BF01460020B1FA81F308BF2033A3F10B03B3F120020CDA0C3208DD02F1140C87
S32D0000C578C2F10C0201FA0CF021FA02F10CE002F11402D8BFC2F1200C01FA02F120FA0CFCDCBF41EA0C019040B1
S32D0000C5A0E41AA2BF01EB0451294330BD6FEA04041F3C1CDA0C340EDC04F11404C4F1200220FA04F001FA02F3B6
S32D0000C5C840EA030021FA04F345EA030130BDC4F10C04C4F1200220FA02F001FA04F340EA0300294630BD21FAA8
S32D0000C5F004F0294630BD94F0000F83F4801306BF81F480110134013D4EE77FEA645C18BF7FEA655C29D094EA1C
S32D0000C618050F08BF90EA020F05D054EA000C04BF1946104630BD91EA030F1EBF0021002030BD5FEA545C05D1A3
S32D0000C6404000494128BF41F0004130BD14F580043CBF01F5801130BD01F0004545F0FE4141F470014FF0000031
S32D0000C66830BD7FEA645C1ABF194610467FEA655C1CBF0B46024650EA013406BF52EA033591EA030F41F40021D7
S32D0000C69030BD00BF90F0000F04BF0021704730B54FF4806404F132044FF000054FF0000150E700BF90F0000F66
S32D0000C6B804BF0021704730B54FF4806404F1320410F0004548BF40424FF000013EE700BF42004FEAE2014FEAF9
S32D0000C6E031014FEA02701FBF12F07F4393F07F4F81F06051704792F0000F14BF93F07F4F704730B54FF460741B
S32D0000C70801F0004521F0004120E700BF50EA010208BF704730B54FF000050AE050EA010208BF704730B511F046
S32D0000C730004502D5404261EB41014FF4806404F132045FEA915C3FF4DCAE4FF003025FEADC0C18BF03325FEAA0
S32D0000C758DC0C18BF033202EBDC02C2F1200300FA03FC20FA02F001FA03FE40EA0E0021FA02F11444C1E600BF19
S32D0000C78070B54FF0FF0C4CF4E06C1CEA11541DBF1CEA135594EA0C0F95EA0C0F00F0DEF82C4481EA030621EAF3
S32D0000C7A84C5123EA4C5350EA013518BF52EA033541F4801143F4801338D0A0FB02CE4FF00005E1FB02E506F05F
S32D0000C7D00042E0FB03E54FF00006E1FB03569CF0000F18BF4EF0010EA4F1FF04B6F5007F64F5407404D25FEA0F
S32D0000C7F84E0E6D4146EB060642EAC62141EA55514FEAC52040EA5E504FEACE2EB4F1FD0C88BFBCF5E06F1ED8D2
S32D0000C820BEF1004F08BF5FEA500E50F1000041EB045170BD06F0004646EA010140EA020081EA0301B4EB5C0487
S32D0000C848C2BFD4EB0C0541EA045170BD41F480114FF0000E013C00F3AB8014F1360FDEBF002001F0004170BDF0
S32D0000C870C4F10004203C35DA0C341BDC04F11404C4F1200500FA05F320FA04F001FA05F240EA020001F0004207
S32D0000C89821F0004110EBD37021FA04F642EB06015EEA430E08BF20EAD37070BDC4F10C04C4F1200500FA04F32F
S32D0000C8C020FA05F001FA04F240EA020001F0004110EBD37041F100015EEA430E08BF20EAD37070BDC4F12005C7
S32D0000C8E800FA05F24EEA020E20FA04F301FA05F243EA020321FA04F001F0004121FA04F220EA020000EBD37028
S32D0000C9105EEA430E08BF20EAD37070BD94F0000F0FD101F00046400041EB010111F4801F08BF013CF7D041EA6D
S32D0000C938060195F0000F18BF704703F00046520043EB030313F4801F08BF013DF7D043EA0603704794EA0C0FF1
S32D0000C9600CEA135518BF95EA0C0F0CD050EA410618BF52EA4306D1D181EA030101F000414FF0000070BD50EA38
S32D0000C988410606BF1046194652EA430619D094EA0C0F02D150EA013613D195EA0C0F05D152EA03361CBF10467B
S32D0000C9B019460AD181EA030101F0004141F0FE4141F470014FF0000070BD41F0FE4141F4780170BD70B54FF04D
S32D0000C9D8FF0C4CF4E06C1CEA11541DBF1CEA135594EA0C0F95EA0C0F00F0A7F8A4EB050481EA030E52EA03359B
S32D0000CA004FEA013100F088804FEA03334FF0805545EA131343EA12634FEA022245EA111545EA10654FEA002676
S32D0000CA280EF000419D4208BF964244F1FD0404F5407402D25B084FEA3202B61A65EB03055B084FEA32024FF461
S32D0000CA5080104FF4002CB6EB020E75EB030E22BFB61A754640EA0C005B084FEA3202B6EB020E75EB030E22BF22
S32D0000CA78B61A754640EA5C005B084FEA3202B6EB020E75EB030E22BFB61A754640EA9C005B084FEA3202B6EBEA
S32D0000CAA0020E75EB030E22BFB61A754640EADC0055EA060E18D04FEA051545EA16754FEA06164FEAC30343EAAC
S32D0000CAC852734FEAC2025FEA1C1CC0D111F4801F0BD141EA00014FF000004FF0004CB6E711F4801F04BF0143AE
S32D0000CAF00020B4F1FD0C88BFBCF5E06F3FF6AFAEB5EB030C04BFB6EB020C5FEA500C50F1000041EB045170BDBC
S32D0000CB180EF0004E4EEA113114EB5C04C2BFD4EB0C0541EA045170BD41F480114FF0000E013C90E645EA060EC3
S32D0000CB408DE60CEA135594EA0C0F08BF95EA0C0F3FF43BAF94EA0C0F0AD150EA01347FF434AF95EA0C0F7FF499
S32D0000CB6825AF104619462CE795EA0C0F06D152EA03353FF4FDAE1046194622E750EA410618BF52EA43067FF432
S32D0000CB90C5AE50EA41047FF40DAF52EA43057FF4EBAE12E74FF0FF3C06E000BF4FF0010C02E000BF4FF0010C75
S32D0000CBB84DF804CD4FEA410C7FEA6C5C4FEA430C18BF7FEA6C5C1BD001B050EA410C0CBF52EA430C91EA030FEC
S32D0000CBE002BF90EA020F0020704710F1000F91EA030F58BF994208BF90422CBFD8176FEAE37040F0010070476E
S32D0000CC084FEA410C7FEA6C5C02D150EA013C07D14FEA430C7FEA6C5CD6D152EA033CD3D05DF8040B704700BFCD
S32D0000CC308446104662468C461946634600E000BF01B5FFF7B7FF002848BF10F1000F01BD4DF808EDFFF7F4FF13
S32D0000CC580CBF012000205DF808FB00BF4DF808EDFFF7EAFF34BF012000205DF808FB00BF4DF808EDFFF7E0FF18
S32D0000CC8094BF012000205DF808FB00BF4DF808EDFFF7CEFF94BF012000205DF808FB00BF4DF808EDFFF7C4FF40
S32D0000CCA834BF012000205DF808FB00BF4FEA410212F5001215D211D56FF47873B3EB625212D94FEAC12343F0D6
S32D0000CCD0004343EA505311F0004F23FA02F018BF404270474FF00000704750EA013005D111F0004008BF6FF016
S32D0000CCF8004070474FF00000704700BF4A0011D212F5001211D20DD56FF47873B3EB62520ED44FEAC12343F085
S32D0000CD20004343EA505323FA02F070474FF00000704750EA013002D14FF0FF3070474FF0000070474FEA410241
S32D0000CD48B2F1E04324BFB3F5001CDCF1FE5C0DD901F0004C4FEAC0024CEA5070B2F1004F40EB830008BF20F09E
S32D0000CD700100704711F0804F21D113F13872BCBF01F00040704741F480114FEA5252C2F11802C2F1200C10FAB1
S32D0000CD980CF320FA02F018BF40F001004FEAC1234FEAD32303FA0CFC40EA0C0023FA02F34FEA4303CCE77FEA26
S32D0000CDC0625307D150EA01331EBF4FF0FE4040F44000704701F0004040F0FE4040F40000704700BF80F00040CC
S32D0000CDE802E000BF81F0004142001FBF5FEA410392EA030F7FEA226C7FEA236C6AD04FEA1262D2EB1363C1BF06
S32D0000CE10D218414048404140B8BF5B42192B88BF704710F0004F40F4000020F07F4018BF404211F0004F41F4FA
S32D0000CE38000121F07F4118BF494292EA030F3FD0A2F1010241FA03FC10EB0C00C3F1200301FA03F100F000432B
S32D0000CE6002D5494260EB4000B0F5000F13D3B0F1807F06D340084FEA310102F10102FE2A51D2B1F1004F40EB94
S32D0000CE88C25008BF20F0010040EA03007047490040EB000010F4000FA2F10102EDD1B0FA80FCACF1080CB2EB5F
S32D0000CEB00C0200FA0CF0AABF00EBC25052421843BCBFD0401843704792F0000F81F4000106BF80F400000132EB
S32D0000CED8013BB5E74FEA41037FEA226C18BF7FEA236C21D092EA030F04D092F0000F08BF0846704790EA010FD7
S32D0000CF001CBF0020704712F07F4F04D1400028BF40F00040704712F100723CBF00F50000704700F0004343F0DC
S32D0000CF28FE4040F4000070477FEA226216BF08467FEA23630146420206BF5FEA412390EA010F40F480007047C1
S32D0000CF504FF0000304E000BF10F0004348BF40425FEA000C08BF704743F0964301464FF000001CE050EA010264
S32D0000CF7808BF70474FF000030AE000BF50EA010208BF704711F0004302D5404261EB41015FEA010C02BF84465B
S32D0000CFA00146002043F0B64308BFA3F18053A3F50003BCFA8CF2083AA3EBC25310DB01FA02FC634400FA02FC6B
S32D0000CFC8C2F12002BCF1004F20FA02F243EB020008BF20F00100704702F1200201FA02FCC2F1200250EA4C0034
S32D0000CFF021FA02F243EB020008BF20EADC7070474FF0FF0C1CEAD0521EBF1CEAD15392EA0C0F93EA0C0F6FD019
S32D0000D0181A4480EA010C400218BF5FEA41211ED04FF0006343EA501043EA5111A0FB01310CF00040B1F5000FE7
S32D0000D0403EBF490041EAD3715B0040EA010062F17F02FD2A1DD8B3F1004F40EBC25008BF20F00100704790F058
S32D0000D068000F0CF0004C08BF49024CEA502040EA51207F3AC2BFD2F1FF0340EAC250704740F400004FF0000388
S32D0000D090013A5DDC12F1190FDCBF00F000407047C2F10002410021FA02F1C2F1200200FA02FC5FEA310040F1D5
S32D0000D0B8000053EA4C0308BF20EADC70704792F0000F00F0004C02BF400010F4000F013AF9D040EA0C0093F04C
S32D0000D0E0000F01F0004C02BF490011F4000F013BF9D041EA0C018FE70CEAD15392EA0C0F18BF93EA0C0F0AD00B
S32D0000D10830F0004C18BF31F0004CD8D180EA010000F00040704790F0000F17BF90F0004F084691F0000F91F0BB
S32D0000D130004F14D092EA0C0F01D142020FD193EA0C0F03D14B0218BF084608D180EA010000F0004040F0FE4051
S32D0000D15840F40000704740F0FE4040F4400070474FF0FF0C1CEAD0521EBF1CEAD15392EA0C0F93EA0C0F69D044
S32D0000D180A2EB030280EA010C49024FEA402037D04FF0805343EA111143EA10130CF000408B4238BF5B0042F14E
S32D0000D1A87D024FF4000C8B4224BF5B1A40EA0C00B3EB510F24BFA3EB510340EA5C00B3EB910F24BFA3EB9103A4
S32D0000D1D040EA9C00B3EBD10F24BFA3EBD10340EADC001B0118BF5FEA1C1CE0D1FD2A3FF650AF8B4240EBC25018
S32D0000D1F808BF20F0010070470CF0004C4CEA50207F32C2BFD2F1FF0340EAC250704740F400004FF00003013AF1
S32D0000D22037E792F0000F00F0004C02BF400010F4000F013AF9D040EA0C0093F0000F01F0004C02BF490011F4C9
S32D0000D248000F013BF9D041EA0C0195E70CEAD15392EA0C0F08D142027FF47DAF93EA0C0F7FF470AF084676E7AE
S32D0000D27093EA0C0F04D14B023FF44CAF08466EE730F0004C18BF31F0004CCAD130F000427FF45CAF31F0004376
S32D0000D2987FF43CAF5FE700BF4FF0FF3C06E000BF4FF0010C02E000BF4FF0010C4DF804CD4FEA40024FEA41039F
S32D0000D2C07FEA226C18BF7FEA236C11D001B052EA530C18BF90EA010F58BFB2EB030088BFC81738BF6FEAE1706E
S32D0000D2E818BF40F0010070477FEA226C02D15FEA402C05D17FEA236CE4D15FEA412CE1D05DF8040B704700BF16
S32D0000D310844608466146FFE70FB5FFF7C9FF002848BF10F1000F0FBD4DF808EDFFF7F4FF0CBF012000205DF839
S32D0000D33808FB00BF4DF808EDFFF7EAFF34BF012000205DF808FB00BF4DF808EDFFF7E0FF94BF012000205DF8A9
S32D0000D36008FB00BF4DF808EDFFF7D2FF94BF012000205DF808FB00BF4DF808EDFFF7C8FF34BF012000205DF8B1
S32D0000D38808FB00BF4FEA4002B2F1FE4F0FD34FF09E03B3EB12620DD94FEA002343F0004310F0004F23FA02F060
S32D0000D3B018BF404270474FF00000704712F1610F01D1420205D110F0004008BF6FF0004070474FF00000704797
S32D0000D3D880B584B000AF786078681149FFF70CFE03461846FFF774F902460B461046194609A3D3E90023FFF724
S32D0000D400E9FA02460B4610461946FFF753FC0346FB60FB68184607F11007BD4680BD00BF66129AC95C47214036
S32D0000D42800004042AFF3008080B584B000AF78607868FFF74DF902460B461046194612A3D3E90023FFF798F9BD
S32D0000D45002460B46104619460FA3D3E90023FFF7B9FA02460B4610461946FFF76BFC0346FB60F8680A49FFF72E
S32D0000D478C3FD0346BB60B868FFF7AAFF0346184607F11007BD4680BDF1D4C853FB210940000000000080664042
S32D0000D4A000009040AFF3008080B584B000AF7860396041F23C10C1F6FF7005F01BFB41F24010C1F6FF7005F095
S32D0000D4C815FB4FF0640004F0A3FE3868FFF780FF0346FB607868FFF73BFD034641F24410C1F6FF70194602F0E0
S32D0000D4F09BFB7B68C3F100031846FFF72DFD034641F24C10C1F6FF70194602F08DFB7868FFF722FD034641F218
S32D0000D5185410C1F6FF70194602F082FB7B68C3F100031846FFF714FD034641F25C10C1F6FF70194602F074FBC0
S32D0000D54061E041F24C40C1F6FF7006F089FC41F24C40C1F6FF7049F27001C0F2010106F02BFF41F24C40C1F641
S32D0000D568FF70396806F06CFF41F24C40C1F6FF7049F28001C0F2010106F0E8FF41F24C40C1F6FF7049F2880149
S32D0000D590C0F2010106F010FF41F24C40C1F6FF70F96806F0EBFF41F24C40C1F6FF7049F2A001C0F2010106F023
S32D0000D5B8FFFE41F24010C1F6FF7005F083FA034641F24C40C1F6FF70194606F0D3FF41F24C40C1F6FF7049F2B8
S32D0000D5E0B401C0F2010106F0E7FE41F23C10C1F6FF7005F06BFA034641F24C40C1F6FF70194606F0BBFF41F26A
S32D0000D6083C10C1F6FF7005F05DFA0246FB689A4209DB41F24010C1F6FF7005F053FA0246FB689A4202DA4FF03E
S32D0000D630010301E04FF00003002B82D141F24410C1F6FF7002F0A0FA41F24C10C1F6FF7002F09AFA41F254101C
S32D0000D658C1F6FF7002F094FA41F25C10C1F6FF7002F08EFA07F11007BD4680BD80B584B000AF7860396041F2B4
S32D0000D6803C10C1F6FF7005F035FA41F24010C1F6FF7005F02FFA4FF0640004F0BDFD3868FFF79AFE0346FB60FC
S32D0000D6A87B68C3F100031846FFF752FC034641F24410C1F6FF70194602F0B2FA7868FFF747FC034641F24C1034
S32D0000D6D0C1F6FF70194602F0A7FA7B68C3F100031846FFF739FC034641F25410C1F6FF70194602F099FA786827
S32D0000D6F8FFF72EFC034641F25C10C1F6FF70194602F08EFA61E041F24C40C1F6FF7006F0A3FB41F24C40C1F6CD
S32D0000D720FF7049F27001C0F2010106F045FE41F24C40C1F6FF70396806F086FE41F24C40C1F6FF7049F2800132
S32D0000D748C0F2010106F002FF41F24C40C1F6FF7049F28801C0F2010106F02AFE41F24C40C1F6FF70F96806F051
S32D0000D77005FF41F24C40C1F6FF7049F2A001C0F2010106F019FE41F24010C1F6FF7005F09DF9034641F24C40C9
S32D0000D798C1F6FF70194606F0EDFE41F24C40C1F6FF7049F2B401C0F2010106F001FE41F23C10C1F6FF7005F0E5
S32D0000D7C085F9034641F24C40C1F6FF70194606F0D5FE41F23C10C1F6FF7005F077F90246FB689A4209DB41F2BF
S32D0000D7E84010C1F6FF7005F06DF90246FB689A4202DA4FF0010301E04FF00003002B82D141F24410C1F6FF704E
S32D0000D81002F0BAF941F24C10C1F6FF7002F0B4F941F25410C1F6FF7002F0AEF941F25C10C1F6FF7002F0A8F943
S32D0000D83807F11007BD4680BD80B584B000AF7860396041F23C10C1F6FF7005F04FF941F24010C1F6FF7005F06A
S32D0000D86049F94FF0640004F0D7FC3868FFF7E0FD0346FB607B68C3F100031846FFF76CFB034641F24410C1F6FB
S32D0000D888FF70194602F0CCF97B68C3F100031846FFF75EFB034641F24C10C1F6FF70194602F0BEF97B68C3F109
S32D0000D8B000031846FFF750FB034641F25410C1F6FF70194602F0B0F97B68C3F100031846FFF742FB034641F201
S32D0000D8D85C10C1F6FF70194602F0A2F961E041F24C40C1F6FF7006F0B7FA41F24C40C1F6FF7049F2C801C0F23C
S32D0000D900010106F059FD41F24C40C1F6FF70396806F09AFD41F24C40C1F6FF7049F2D801C0F2010106F016FEE1
S32D0000D92841F24C40C1F6FF7049F28801C0F2010106F03EFD41F24C40C1F6FF70F96806F019FE41F24C40C1F67A
S32D0000D950FF7049F2A001C0F2010106F02DFD41F24010C1F6FF7005F0B1F8034641F24C40C1F6FF70194606F0C0
S32D0000D97801FE41F24C40C1F6FF7049F2B401C0F2010106F015FD41F23C10C1F6FF7005F099F8034641F24C40BE
S32D0000D9A0C1F6FF70194606F0E9FD41F23C10C1F6FF7005F08BF80246FB689A4209DB41F24010C1F6FF7005F0D2
S32D0000D9C881F80246FB689A4202DA4FF0010301E04FF00003002B82D141F24410C1F6FF7002F0CEF841F24C107D
S32D0000D9F0C1F6FF7002F0C8F841F25410C1F6FF7002F0C2F841F25C10C1F6FF7002F0BCF807F11007BD4680BD0E
S32D0000DA1880B584B000AF7860396041F23C10C1F6FF7005F063F841F24010C1F6FF7005F05DF84FF0640004F0D8
S32D0000DA40EBFB3868FFF7F4FC0346FB607868FFF783FA034641F24410C1F6FF70194602F0E3F87868FFF778FAEB
S32D0000DA68034641F24C10C1F6FF70194602F0D8F87868FFF76DFA034641F25410C1F6FF70194602F0CDF8786838
S32D0000DA90FFF762FA034641F25C10C1F6FF70194602F0C2F861E041F24C40C1F6FF7006F0D7F941F24C40C1F69B
S32D0000DAB8FF7049F2E401C0F2010106F079FC41F24C40C1F6FF70396806F0BAFC41F24C40C1F6FF7049F2D80167
S32D0000DAE0C0F2010106F036FD41F24C40C1F6FF7049F28801C0F2010106F05EFC41F24C40C1F6FF70F96806F052
S32D0000DB0839FD41F24C40C1F6FF7049F2A001C0F2010106F04DFC41F24010C1F6FF7004F0D1FF034641F24C4090
S32D0000DB30C1F6FF70194606F021FD41F24C40C1F6FF7049F2B401C0F2010106F035FC41F23C10C1F6FF7004F0E5
S32D0000DB58B9FF034641F24C40C1F6FF70194606F009FD41F23C10C1F6FF7004F0ABFF0246FB689A4209DB41F27D
S32D0000DB804010C1F6FF7004F0A1FF0246FB689A4202DA4FF0010301E04FF00003002B82D141F24410C1F6FF7079
S32D0000DBA801F0EEFF41F24C10C1F6FF7001F0E8FF41F25410C1F6FF7001F0E2FF41F25C10C1F6FF7001F0DCFFC4
S32D0000DBD007F11007BD4680BD2DE9F04383B000AF7860396041F2B440C1F6FF700AF000F803461846FEF770FDF4
S32D0000DBF804460D467868FEF76BFD804689463868FEF766FD02460B4610461946C4A3D3E90023FEF7FDFB0246CF
S32D0000DC200B4640464946FEF7F9FB02460B464FF001010E4620462946FFF714F80346002B02D14FF000031E4695
S32D0000DC48F3B2002B00F0988041F24C40C1F6FF7006F002F941F24C40C1F6FF7049F2F401C0F2010106F072FCD3
S32D0000DC7041F24410C1F6FF70AD4901F0D5FF41F24C10C1F6FF70AB4901F0CEFF41F25410C1F6FF70A64901F01A
S32D0000DC98C7FF41F25C10C1F6FF70A44901F0C0FF35E041F2B440C1F6FF7009F09DFF034641F24C40C1F6FF7011
S32D0000DCC019464FF002024FF00C0306F055FB41F2B440C1F6FF7009F09BFF034641F24C40C1F6FF7019464FF054
S32D0000DCE803024FF00C0306F043FB41F2B440C1F6FF7009F099FF034641F24C40C1F6FF7019464FF004024FF098
S32D0000DD100C0306F031FB41F2B440C1F6FF7009F067FF054678683968FFF762F803464FF001021446284619463A
S32D0000DD38FFF700FB0346002B02D14FF000031C46E3B2002BADD141F24410C1F6FF7001F017FF41F24C10C1F6A9
S32D0000DD60FF7001F011FF41F25410C1F6FF7001F00BFF41F25C10C1F6FF7001F005FFCCE041F2B440C1F6FF70BA
S32D0000DD8809F032FF03461846FEF7A2FC04460D467868FEF79DFC804689463868FEF798FC02460B4610461946F2
S32D0000DDB05DA3D3E90023FEF731FB02460B4640464946FEF72BFB02460B464FF001010E4620462946FEF764FF21
S32D0000DDD80346002B02D14FF000031E46F3B2002B00F0978041F24C40C1F6FF7006F034F841F24C40C1F6FF706D
S32D0000DE0049F20011C0F2010106F0A4FB41F24410C1F6FF70474901F007FF41F24C10C1F6FF70434901F000FFFA
S32D0000DE2841F25410C1F6FF70404901F0F9FE41F25C10C1F6FF703C4901F0F2FE35E041F2B440C1F6FF7009F018
S32D0000DE50CFFE034641F24C40C1F6FF7019464FF002024FF00C0306F087FA41F2B440C1F6FF7009F0CDFE0346E8
S32D0000DE7841F24C40C1F6FF7019464FF003024FF00C0306F075FA41F2B440C1F6FF7009F0CBFE034641F24C402A
S32D0000DEA0C1F6FF7019464FF004024FF00C0306F063FA41F2B440C1F6FF7009F099FE054678683968FEF794FFB8
S32D0000DEC803464FF00102144628461946FFF750FA0346002B02D14FF000031C46E3B2002BADD141F24410C1F6D3
S32D0000DEF0FF7001F049FE41F24C10C1F6FF7001F043FE41F25410C1F6FF7001F03DFE41F25C10C1F6FF7001F0D7
S32D0000DF1837FE07F10C07BD46BDE8F083AFF300809A9999999999C93F0000F0410000F0C12DE9F04383B000AFB2
S32D0000DF407860396041F2B440C1F6FF7009F060FE03461846FEF7C0FB04460D467868FEF7BBFB804689463868EA
S32D0000DF68FEF7B6FB02460B4610461946C4A3D3E90023FEF74DFA02460B4640464946FEF749FA02460B464FF057
S32D0000DF9001010E4620462946FEF764FE0346002B02D14FF000031E46F3B2002B00F0988041F24C40C1F6FF7037
S32D0000DFB805F052FF41F24C40C1F6FF7049F2F401C0F2010106F0C2FA41F24410C1F6FF70AD4901F025FE41F290
S32D0000DFE04C10C1F6FF70AB4901F01EFE41F25410C1F6FF70A64901F017FE41F25C10C1F6FF70A44901F010FE2D
S32D0000E00835E041F2B440C1F6FF7009F0EDFD034641F24C40C1F6FF7019464FF002024FF00C0306F0A5F941F2C0
S32D0000E030B440C1F6FF7009F0EBFD034641F24C40C1F6FF7019464FF003024FF00C0306F093F941F2B440C1F648
S32D0000E058FF7009F0E9FD034641F24C40C1F6FF7019464FF004024FF00C0306F081F941F2B440C1F6FF7009F076
S32D0000E080C7FD054678683968FEF7B2FE03464FF00102144628461946FFF750F90346002B02D14FF000031C4661
S32D0000E0A8E3B2002BADD141F24410C1F6FF7001F067FD41F24C10C1F6FF7001F061FD41F25410C1F6FF7001F058
S32D0000E0D05BFD41F25C10C1F6FF7001F055FDCCE041F2B440C1F6FF7009F092FD03461846FEF7F2FA04460D461C
S32D0000E0F87868FEF7EDFA804689463868FEF7E8FA02460B46104619465DA3D3E90023FEF781F902460B46404677
S32D0000E1204946FEF77BF902460B464FF001010E4620462946FEF7B4FD0346002B02D14FF000031E46F3B2002B73
S32D0000E14800F0978041F24C40C1F6FF7005F084FE41F24C40C1F6FF7049F20011C0F2010106F0F4F941F24410F7
S32D0000E170C1F6FF70474901F057FD41F24C10C1F6FF70434901F050FD41F25410C1F6FF70404901F049FD41F257
S32D0000E1985C10C1F6FF703C4901F042FD35E041F2B440C1F6FF7009F01FFD034641F24C40C1F6FF7019464FF0CF
S32D0000E1C002024FF00C0306F0D7F841F2B440C1F6FF7009F01DFD034641F24C40C1F6FF7019464FF003024FF0AA
S32D0000E1E80C0306F0C5F841F2B440C1F6FF7009F01BFD034641F24C40C1F6FF7019464FF004024FF00C0306F0D3
S32D0000E210B3F841F2B440C1F6FF7009F0F9FC054678683968FEF7E4FD03464FF00102144628461946FFF7A0F818
S32D0000E2380346002B02D14FF000031C46E3B2002BADD141F24410C1F6FF7001F099FC41F24C10C1F6FF7001F0B6
S32D0000E26093FC41F25410C1F6FF7001F08DFC41F25C10C1F6FF7001F087FC07F10C07BD46BDE8F083AFF3008049
S32D0000E2889A9999999999C93F0000F0410000F0C12DE9F04383B000AF7860396041F2B440C1F6FF7009F0B0FC59
S32D0000E2B003461846FEF710FA04460D467868FEF70BFA804689463868FEF706FA02460B4610461946C4A3D3E988
S32D0000E2D80023FEF79FF802460B4640464946FEF797F802460B464FF001010E4620462946FEF7D2FC0346002BFD
S32D0000E30002D14FF000031E46F3B2002B00F0988041F24C40C1F6FF7005F0A2FD41F24C40C1F6FF7049F2F40110
S32D0000E328C0F2010106F012F941F24410C1F6FF70AD4901F075FC41F24C10C1F6FF70AB4901F06EFC41F2541072
S32D0000E350C1F6FF70A64901F067FC41F25C10C1F6FF70A44901F060FC35E041F2B440C1F6FF7009F03DFC03465A
S32D0000E37841F24C40C1F6FF7019464FF002024FF00C0305F0F5FF41F2B440C1F6FF7009F03BFC034641F24C4034
S32D0000E3A0C1F6FF7019464FF003024FF00C0305F0E3FF41F2B440C1F6FF7009F039FC034641F24C40C1F6FF70B8
S32D0000E3C819464FF004024FF00C0305F0D1FF41F2B440C1F6FF7009F017FC054678683968FEF702FD03464FF0CF
S32D0000E3F00102144628461946FEF7BEFF0346002B02D14FF000031C46E3B2002BADD141F24410C1F6FF7001F05C
S32D0000E418B7FB41F24C10C1F6FF7001F0B1FB41F25410C1F6FF7001F0ABFB41F25C10C1F6FF7001F0A5FBCCE07C
S32D0000E44041F2B440C1F6FF7009F0E2FB03461846FEF742F904460D467868FEF73DF9804689463868FEF738F9B1
S32D0000E46802460B46104619465DA3D3E90023FDF7CFFF02460B4640464946FDF7C9FF02460B464FF001010E46FF
S32D0000E49020462946FEF7E6FB0346002B02D14FF000031E46F3B2002B00F0978041F24C40C1F6FF7005F0D4FC45
S32D0000E4B841F24C40C1F6FF7049F20011C0F2010106F044F841F24410C1F6FF70474901F0A7FB41F24C10C1F609
S32D0000E4E0FF70434901F0A0FB41F25410C1F6FF70404901F099FB41F25C10C1F6FF703C4901F092FB35E041F2AC
S32D0000E508B440C1F6FF7009F06FFB034641F24C40C1F6FF7019464FF002024FF00C0305F027FF41F2B440C1F651
S32D0000E530FF7009F06DFB034641F24C40C1F6FF7019464FF003024FF00C0305F015FF41F2B440C1F6FF7009F07F
S32D0000E5586BFB034641F24C40C1F6FF7019464FF004024FF00C0305F003FF41F2B440C1F6FF7009F049FB054643
S32D0000E58078683968FEF734FC03464FF00102144628461946FEF7D2FE0346002B02D14FF000031C46E3B2002BA5
S32D0000E5A8ADD141F24410C1F6FF7001F0E9FA41F24C10C1F6FF7001F0E3FA41F25410C1F6FF7001F0DDFA41F20B
S32D0000E5D05C10C1F6FF7001F0D7FA07F10C07BD46BDE8F083AFF300809A9999999999C93F0000F0410000F0C100
S32D0000E5F8F0B583B000AF78604FF001031C467868DFF81C18FEF7B4FE0346002B02D14FF000031C46E3B2002BB4
S32D0000E62000F05A8241F2B440C1F6FF7009F000FB03461846FEF750F804460D467868FEF74BF802460B46104637
S32D0000E64819464FF000024FF07E5303F5E003FDF7DFFE02460B464FF001010E4620462946FEF7FCFA0346002BE6
S32D0000E67002D14FF000031E46F3B2002B00F0018141F24C40C1F6FF7005F0EAFB41F24C40C1F6FF7049F20C11C5
S32D0000E698C0F2010105F05AFF41F24410C1F6FF70DFF8801701F0BCFA41F24C10C1F6FF70DFF8701701F0B4FADE
S32D0000E6C041F25410C1F6FF70DFF8601701F0ACFA41F25C10C1F6FF70DFF8501701F0A4FA9EE041F2B440C1F69C
S32D0000E6E8FF7009F081FA034641F24C40C1F6FF7019464FF002024FF00C0305F039FE41F2B440C1F6FF7009F091
S32D0000E7107FFA034641F24C40C1F6FF7019464FF003024FF00C0305F027FE41F2B440C1F6FF7009F07DFA034623
S32D0000E73841F24C40C1F6FF7019464FF004024FF00C0305F015FE41F2B440C1F6FF7009F04BFA03464FF00102BE
S32D0000E76014461846DFF8C816FEF7E8FD0346002B02D14FF000031C46E3B2002B50D041F24410C1F6FF7001F0DB
S32D0000E788FFF941F24C10C1F6FF7001F0F9F941F25410C1F6FF7001F0F3F941F25C10C1F6FF7001F0EDF900BFDE
S32D0000E7B041F2B440C1F6FF7009F01AFA03464FF0010214461846DFF86816FEF7B7FD0346002B02D14FF0000317
S32D0000E7D81C46E3B2002BE7D141F24410C1F6FF70DFF8401601F01CFA41F24C10C1F6FF70DFF8301601F014FA87
S32D0000E80041F25410C1F6FF70DFF8201601F00CFA41F25C10C1F6FF70DFF8101601F004FA41F2B440C1F6FF702B
S32D0000E82809F002FA03464FF00102144618467968FEF780FD0346002B02D14FF000031C46E3B2002B7FF449AF21
S32D0000E85041F24410C1F6FF7001F096F941F24C10C1F6FF7001F090F941F25410C1F6FF7001F08AF941F25C106E
S32D0000E878C1F6FF7001F084F9A9E341F2B440C1F6FF7009F0D1F903461846FDF721FF04460D467868FDF71CFFFB
S32D0000E8A002460B46104619464FF000024FF07E5303F5E003FDF7B2FD02460B464FF001010E4620462946FEF735
S32D0000E8C8EBF90346002B02D14FF000031E46F3B2002B00F07C8341F24C40C1F6FF7005F0BBFA41F24C40C1F68D
S32D0000E8F0FF7049F21C11C0F2010105F02BFE41F24410C1F6FF70DFF82C1501F08DF941F24C10C1F6FF70DFF889
S32D0000E9181C1501F085F941F25410C1F6FF70DFF80C1501F07DF941F25C10C1F6FF70DFF8FC1401F075F99AE090
S32D0000E94041F2B440C1F6FF7009F052F9034641F24C40C1F6FF7019464FF002024FF00C0305F00AFD41F2B440D7
S32D0000E968C1F6FF7009F050F9034641F24C40C1F6FF7019464FF003024FF00C0305F0F8FC41F2B440C1F6FF70C4
S32D0000E99009F04EF9034641F24C40C1F6FF7019464FF004024FF00C0305F0E6FC41F2B440C1F6FF7009F01CF9C7
S32D0000E9B803464FF0010214461846DFF86C14FEF7B9FC0346002B02D14FF000031C46E3B2002B4CD041F244109F
S32D0000E9E0C1F6FF7001F0D0F841F24C10C1F6FF7001F0CAF841F25410C1F6FF7001F0C4F841F25C10C1F6FF7093
S32D0000EA0801F0BEF800BF41F2B440C1F6FF7009F0EBF803464FF0010214461846DFF80814FEF788FC0346002B2E
S32D0000EA3002D14FF000031C46E3B2002BE7D141F24410C1F6FF70F94901F0EEF841F24C10C1F6FF70F54901F01F
S32D0000EA58E7F841F25410C1F6FF70F24901F0E0F841F25C10C1F6FF70EE4901F0D9F841F2B440C1F6FF7009F0EC
S32D0000EA80D7F803464FF00102144618467968FEF773FC0346002B02D14FF000031C46E3B2002B7FF44DAF41F2C4
S32D0000EAA84410C1F6FF7001F06BF841F24C10C1F6FF7001F065F841F25410C1F6FF7001F05FF841F25C10C1F614
S32D0000EAD0FF7001F059F87EE241F2B440C1F6FF7009F0A6F803464FF0010214461846D249FEF742FC0346002B1E
S32D0000EAF802D14FF000031C46E3B2002B21D041F2B440C1F6FF7009F08FF803461846FDF7DFFD02460B464FF0AC
S32D0000EB2001010C4610461946BBA3D3E90023FEF799F80346002B02D14FF000031C46E3B2002B02D04FF001033B
S32D0000EB4801E04FF00003002B00F0F78041F24C40C1F6FF7005F080F941F24C40C1F6FF7049F20C11C0F20101A6
S32D0000EB7005F0F0FC41F24410C1F6FF70AB4901F053F841F24C10C1F6FF70A84901F04CF841F25410C1F6FF7021
S32D0000EB98A44901F045F841F25C10C1F6FF70A14901F03EF898E041F2B440C1F6FF7009F01BF8034641F24C4085
S32D0000EBC0C1F6FF7019464FF002024FF00C0305F0D3FB41F2B440C1F6FF7009F019F8034641F24C40C1F6FF70C9
S32D0000EBE819464FF003024FF00C0305F0C1FB41F2B440C1F6FF7009F017F8034641F24C40C1F6FF7019464FF03C
S32D0000EC1004024FF00C0305F0AFFB41F2B440C1F6FF7008F0E5FF03464FF00102144618467F49FEF783FB0346F3
S32D0000EC38002B02D14FF000031C46E3B2002B4BD041F24410C1F6FF7000F09AFF41F24C10C1F6FF7000F094FFC3
S32D0000EC6041F25410C1F6FF7000F08EFF41F25C10C1F6FF7000F088FF00BF41F2B440C1F6FF7008F0B5FF03460F
S32D0000EC884FF00102144618466749FEF753FB0346002B02D14FF000031C46E3B2002BE8D141F24410C1F6FF7060
S32D0000ECB05E4900F0B9FF41F24C10C1F6FF705B4900F0B2FF41F25410C1F6FF70574900F0ABFF41F25C10C1F6A0
S32D0000ECD8FF70544900F0A4FF41F2B440C1F6FF7008F0A2FF03464FF00102144618465149FEF73EFB0346002B0A
S32D0000ED0002D14FF000031C46E3B2002B7FF44FAF41F24410C1F6FF7000F036FF41F24C10C1F6FF7000F030FF97
S32D0000ED2841F25410C1F6FF7000F02AFF41F25C10C1F6FF7000F024FF49E141F2B440C1F6FF7008F071FF0346E7
S32D0000ED504FF00102144618463949FEF7EFFA0346002B02D14FF000031C46E3B2002B21D041F2B440C1F6FF7052
S32D0000ED7808F05AFF03461846FDF7AAFC02460B464FF001010C461046194623A3D3E90023FDF782FF0346002B6C
S32D0000EDA002D14FF000031C46E3B2002B02D04FF0010301E04FF00003002B00F00C8141F24C40C1F6FF7005F054
S32D0000EDC84BF841F24C40C1F6FF7049F21C11C0F2010105F0BBFB41F24410C1F6FF70134900F01EFF41F24C1089
S32D0000EDF0C1F6FF700F4900F017FF41F25410C1F6FF700C4900F010FF41F25C10C1F6FF70084900F009FFAEE0C4
S32D0000EE1866666666667E76409A9999999999B93F0000A0400000F0C1000000000000F04100008743000000403F
S32D0000EE400000B44241F2B440C1F6FF7008F0D0FE034641F24C40C1F6FF7019464FF002024FF00C0305F088FA06
S32D0000EE6841F2B440C1F6FF7008F0CEFE034641F24C40C1F6FF7019464FF003024FF00C0305F076FA41F2B440C0
S32D0000EE90C1F6FF7008F0CCFE034641F24C40C1F6FF7019464FF004024FF00C0305F064FA41F2B440C1F6FF70AC
S32D0000EEB808F09AFE03464FF00102144618464649FEF738FA0346002B02D14FF000031C46E3B2002B4BD041F2AA
S32D0000EEE04410C1F6FF7000F04FFE41F24C10C1F6FF7000F049FE41F25410C1F6FF7000F043FE41F25C10C1F61D
S32D0000EF08FF7000F03DFE00BF41F2B440C1F6FF7008F06AFE03464FF00102144618462E49FEF708FA0346002BB0
S32D0000EF3002D14FF000031C46E3B2002BE8D141F24410C1F6FF70274900F06EFE41F24C10C1F6FF70234900F039
S32D0000EF5867FE41F25410C1F6FF70204900F060FE41F25C10C1F6FF701C4900F059FE41F2B440C1F6FF7008F0FC
S32D0000EF8057FE03464FF00102144618461649FEF7D5F90346002B02D14FF000031C46E3B2002B7FF44FAF41F25A
S32D0000EFA84410C1F6FF7000F0EBFD41F24C10C1F6FF7000F0E5FD41F25410C1F6FF7000F0DFFD41F25C10C1F683
S32D0000EFD0FF7000F0D9FD07F10C07BD46F0BD00BF000000000000F0C10000B343AFF30080B0B582B000AF03F062
S32D0000EFF857F902460B4610461946FDF79FFE03467B601DE041F24C40C1F6FF7004F024FF41F24C40C1F6FF70BA
S32D0000F02049F22811C0F2010105F094FA41F26410C1F6FF7003F084FD034641F24C40C1F6FF70194605F0AEFAAC
S32D0000F04841F26410C1F6FF7003F076FD03461846FDF73EFB02460B464FF001010C46104619461FA3D3E9002311
S32D0000F070FDF716FE0346002B02D14FF000031C46E3B2002B27D003F00FF904460D467868FDF722FB02460B46A6
S32D0000F09820462946FDF7BCF902460B464FF001010C46104619464FF000024FF0804303F57813FDF7D3FD034618
S32D0000F0C0002B02D14FF000031C46E3B2002B02D04FF0010301E04FF00003002B96D107F10807BD46B0BD00BFC0
S32D0000F0E8666666666666E63F80B500AF4FF03200D149FEF7D5F94FF02800D049FEF788FCCF48FFF775FA41F297
S32D0000F110B440C1F6FF7008F06BFD024641F21C13C1F6FF731A6041F2B440C1F6FF7008F06FFD024641F22013AB
S32D0000F138C1F6FF731A604FF03200C249FEF7B0F941F21C13C1F6FF731B681846BE49FEF73FFD41F22410C1F62A
S32D0000F160FF70BC4904F0F0F841F2883003F054F841F22410C1F6FF70B74904F0E5F84FF03200B649FEF776FAD4
S32D0000F1884FF02800B449FEF757FBB348FFF730FA41F2B440C1F6FF7008F026FD024641F21C13C1F6FF731A60DE
S32D0000F1B041F2B440C1F6FF7008F02AFD024641F22013C1F6FF731A604FF03200A349FEF76BF94FF02800A3496B
S32D0000F1D8FEF732FB4FF0640003F01AF8A048FFF707FA41F2B440C1F6FF7008F0FDFC024641F21C13C1F6FF734F
S32D0000F2001A6041F2B440C1F6FF7008F001FD024641F22013C1F6FF731A604FF050009349FEF742F94FF4FA708A
S32D0000F22802F0F6FF9048FFF7E3F94FF032008F49FEF736F941F22013C1F6FF731B6818468B49FEF775FE824844
S32D0000F250FFF7D2F94FF0FA0002F0DEFF4FF032008649FEF7D9FB4FF0FA0002F0D5FF4FF028008349FEF7FEF9A0
S32D0000F2784FF0FA0002F0CCFF4FF032007F49FEF7C7FB4FF01E007E49FEF70AF94FF032007849FEF7BDFB4FF048
S32D0000F2A032007A49FEF700F94FF0FA0002F0B4FF4FF03C007649FEF7F7F84FF47A7002F0ABFF4FF0320073496B
S32D0000F2C8FEF7D4F941F22410C1F6FF70704904F037F841F2B440C1F6FF7008F085FC024641F21C13C1F6FF7354
S32D0000F2F01A6041F2B440C1F6FF7008F089FC024641F22013C1F6FF731A604FF01E006349FEF7B0F941F224104D
S32D0000F318C1F6FF704E4904F013F84FF032005849FEF7BEF841F22410C1F6FF70584904F007F84FF01E00574930
S32D0000F340FEF798F941F22410C1F6FF70424903F0FBFF4FF032004C49FEF7A6F841F22410C1F6FF704C4903F066
S32D0000F368EFFF4FF032004B49FEF780F941F22410C1F6FF70364903F0E3FF4FF028004649FEF746FB4548FFF786
S32D0000F39033F94FF032004449FEF786F84FF028004249FEF739FB4FF032003749FEF77CF84FF028003E49FEF75A
S32D0000F3B82FFB3E48FFF71CF941F2B440C1F6FF7008F012FC024641F21C13C1F6FF731A6041F2B440C1F6FF707F
S32D0000F3E008F016FC024641F22013C1F6FF731A604FF050003049FEF757F84FF4FA7002F00BFF2C48FFF7F8F855
S32D0000F4084FF032001049FEF74BF841F22013C1F6FF731B6818462749FEF73AFF4FF028002549FEF7F5FA2548A0
S32D0000F430FFF7E2F84FF032000249FEF735F880BD3333334000002042000040400000884100009041000020410D
S32D0000F4580000B4420000803F0000A041000082420000B0420000C0410000B2420000B041000042420000F0419F
S32D0000F4800000204000000C420000C03F00006040000000400000003F00002D430000A040000070410080AC4322
S32D0000F4A80000C04000005C420000C841000087430000B84100002CC20000A0420000484380B500AF41F2B44066
S32D0000F4D0C1F6FF7007F0BCFE41F24C40C1F6FF704FF0000104F0A6FC41F24C40C1F6FF706FF07F4104F0FCFC8C
S32D0000F4F841F24C40C1F6FF7049F24411C0F2010105F024F841F22410C1F6FF7040F2D52103F0D8FE41F22410C7
S32D0000F520C1F6FF7040F6A41103F0EEFE41F23010C1F6FF7040F2022103F0C8FE41F23010C1F6FF7040F67E11C8
S32D0000F54803F0DEFE4FF4FA7002F062FE41F22410C1F6FF70114903F0F3FE41F23010C1F6FF700E4903F0ECFE2F
S32D0000F5704FF0640002F050FE41F24C40C1F6FF7004F06EFC41F24C40C1F6FF7049F25411C0F2010104F0DEFF3D
S32D0000F5984FF47A7002F03CFE80BD00BF0000B44280B500AFFFF78CFFFFF71EFDFFF79CFD4FF00003184680BD18
S32D0000F5C080B582B000AF786039607B68012B50D13A684FF6FF739A424BD141F22410C1F6FF704FF0060103F04F
S32D0000F5E853FE41F23010C1F6FF704FF0000103F04BFE41F23C10C1F6FF704FF0090102F0A9FE41F24010C1F6CE
S32D0000F610FF704FF0100102F0A1FE41F24410C1F6FF704FF00001154A00F056FA41F24C10C1F6FF704FF00301F8
S32D0000F638104A00F04DFA41F25410C1F6FF704FF001010C4A00F044FA41F25C10C1F6FF704FF00201074A00F049
S32D0000F6603BFA41F26410C1F6FF704FF0040103F055FA07F10807BD4680BD00BF0000A04080B500AF4FF00100EA
S32D0000F6884FF6FF71FFF798FF80BD00BF80B500AF41F21872C1F6FF7241F21C13C1F6FF73D31A194641F21C1314
S32D0000F6B0C1F6FF731A460B4610464FF000011A4608F04BFC80BD00BF09F0C0FC00F0B0F9FFF7E0FF09F092FC77
S32D0000F6D809F02EFC09F0C6FC00F00CF84FF0000041F26811C1F6FF71FFF75AFF0346184608F00AFC80B500AF48
S32D0000F7004FF4E043C4F204034FF4E042C4F2040202F5805202F13802126842F4785203F5805303F138031A60B3
S32D0000F72800F02EF900F094F841F29833C1F6FF734FF058021A6041F29833C1F6FF731B684FF47A7202FB03F21B
S32D0000F75041F29433C1F6FF731A6041F29433C1F6FF731B681A464FF4E043C4F2040303F5825303F104031B687A
S32D0000F77803F070634FEA136303F10103B2FBF3F31A4641F29C33C1F6FF731A604FF4E043C4F204034FF4E042D6
S32D0000F7A0C4F2040202F5805202F13C02126842F0225203F5805303F13C031A604FF4E043C4F204034FF4E04265
S32D0000F7C8C4F2040202F5805202F13002126842F0006203F5805303F130031A604FF45043C4F203034FF4807228
S32D0000F7F01A614FF0640002F0A3FB4FF45043C4F203034FF45042C4F20302526922F010025A614FF45043C4F2F5
S32D0000F81803034FF000021A604FF45043C4F203034FF010025A6103F0B9FA03F061FB41F29030C1F6FF7002F063
S32D0000F84003FC41F24C40C1F6FF7004F041F941F2883002F0E1FC80BD80B400AF4FF48043C4F206034FF00002A8
S32D0000F8685A704FF48043C4F206034FF098021A704FF48043C4F206039B79DBB203F01003002B0CBF00230123D7
S32D0000F890DBB2002BF0D14FF48043C4F206039B79DBB203F00C034FEA9303022B0CBF00230123DBB2002BEED1E4
S32D0000F8B84FF48043C4F206034FF018021A714FF48043C4F206034FF000025A714FF4E043C4F2040303F58253B8
S32D0000F8E003F104034FF00002C0F213121A604FF48043C4F206034FF054025A7100BF4FF48043C4F206039B79B0
S32D0000F908DBB203F02003002B14BF00230123DBB2002BF0D100BF4FF48043C4F206039B79DBB203F04003002BEA
S32D0000F93014BF00230123DBB2002BF0D14FF48043C4F206034FF48042C4F206021278D2B202F03F02D2B21A703F
S32D0000F9584FF48043C4F206039B79DBB203F00C034FEA9303032B0CBF00230123DBB2002BEED14FF000031846F3
S32D0000F980BD4680BC704700BF80B400AF4FF44043C4F204034FF480725A634FF2C003C4F20F034FF2C002C4F2C7
S32D0000F9A80F02526942F400525A614FF2C003C4F20F034FF2C002C4F20F02126842F400521A604FF44043C4F294
S32D0000F9D0040340F20312C0F20A021A634FF46143CEF200034FF46142CEF20002D2F8882142F08062C3F8882143
S32D0000F9F84FF46143CEF200034FF46142CEF20002926842F080629A60BD4680BC704700BF80B483B000AF7860E4
S32D0000FA20FEE700BF80B400AF00BEBD4680BC704780B400AF4FF0E0224CF20003C0F20003C2F8083D4FF40053CE
S32D0000FA48C4F205034CF22052DA814FF40053C4F205034DF62812DA814FF40053C4F205034FF0D2021A80BD4697
S32D0000FA7080BC704780B500AF4FF44043C4F20403D3F8A03003F48053002B0CBF00230123DBB2002B1FD04FF482
S32D0000FA984043C4F204034FF44042C4F20402D2F8A02022F48052C3F8A02041F2D440C1F6FF7008F0AFF94FF244
S32D0000FAC0C003C4F20F034FF2C002C4F20F02126822F400521A6080BD90B585B000AFF8600B467A60FB72FB68AE
S32D0000FAE8FA7A1A71FB684FF000025A714FF001031C4678682049FDF73BFC0346002B02D14FF000031C46E3B2E9
S32D0000FB10002B02D01A4B7B6011E04FF001031C4678681849FDF714FC0346002B02D14FF000031C46E3B2002B04
S32D0000FB3801D0124B7B607868FCF7CAFD02460B46104619460AA3D3E90023FCF715FE02460B4610461946FDF7DA
S32D0000FB60F1F80246FB681A60FB68184607F11407BD4690BDAFF30080ABAAAAAAAAAA2040000040410000803F86
S32D0000FB8880B582B000AF78607B685B79002B10D07B684FF000025A717B681B7941F29030C1F6FF7019464FF082
S32D0000FBB000024FF01E0302F091FA07F10807BD4680BD00BF80B584B000AF786039603B687F2B03DD4FF07F03CB
S32D0000FBD8FB7309E03B6813F1800F03DA4FF08003FB7301E03B68FB737B685B79FA7B9A420FD07B68FA7B5A7169
S32D0000FC007B681A79FB7B41F29030C1F6FF7011461A464FF01E0302F061FA07F11007BD4680BD00BF000000005F
S32D0000FC28B0B584B000AF786039604FF001031C4638684D49FDF77EFB0346002B02D14FF000031C46E3B2002B02
S32D0000FC5002D0474B3B6011E04FF001031C4638684449FDF789FB0346002B02D14FF000031C46E3B2002B01D0D0
S32D0000FC783E4B3B603868FCF72BFD04460D467B681B681846FCF724FD02460B46104619464FF000024FF0804379
S32D0000FCA003F5B203FCF796FE02460B4620462946FCF766FD02460B4610461946FDF742F803463B604FF001039B
S32D0000FCC81C4638682A49FDF749FB0346002B02D14FF000031C46E3B2002B14D03868FCF7F7FC02460B4610465D
S32D0000FCF019461DA3D3E90023FCF742FD02460B4610461946FCF7D6FF0346FB6022E03868FCF7E2FC02460B46F0
S32D0000FD18104619464FF000024FF0804303F5C003FCF72AFD02460B46104619464FF000024FF0804303F5B203B2
S32D0000FD40FCF748FE02460B4610461946FCF7B2FF0346FB607868F968FFF734FF07F11007BD46B0BDAFF30080BB
S32D0000FD6852B81E85EB51F43F0000C8C20000C84200000000AFF3008080B485B000AF02460B46FA71BB71BB791F
S32D0000FD90002B07D141F26C13C1F6FF734FF000021A7006E041F26C13C1F6FF734FF001021A704FF03803FB7327
S32D0000FDB841F26C13C1F6FF731A78FB7B1343FB734FF4C043C4F206034FF4C042C4F206029278D2B242F010029C
S32D0000FDE0D2B29A704FF4C043C4F206034FF4C042C4F206029278D2B242F02002D2B29A704FF4C043C4F20603EA
S32D0000FE08FA7B1A7107F11407BD4680BC704700BF80B483B000AF4FF001037B6004E000BF7B6803F101037B6077
S32D0000FE307B68312BCCBF00230123DBB2002BF2D107F10C07BD4680BC704700BF80B582B000AF02460B46FA713E
S32D0000FE58BB7141F26D13C1F6FF731B7818464FF00001FFF789FF4FF4C043C4F20603DB78DBB203F00203002BBD
S32D0000FE8014BF00230123DBB2002BF0D14FF4C043C4F206034FF4C042C4F20602D278D2B242F00202D2B2DA70E7
S32D0000FEA84FF4C043C4F20603FA791A714FF4C043C4F20603DB78DBB203F00203002B14BF00230123DBB2002B4F
S32D0000FED0F0D14FF4C043C4F206034FF4C042C4F20602D278D2B242F00202D2B2DA704FF4C043C4F20603BA7931
S32D0000FEF81A714FF4C043C4F20603DB78DBB203F00203002B14BF00230123DBB2002BF0D14FF4C043C4F20603B1
S32D0000FF204FF4C042C4F20602D278D2B242F00202D2B2DA704FF4C043C4F206034FF4C042C4F206029278D2B248
S32D0000FF4822F02002D2B29A704FF4C043C4F206034FF4C042C4F206029278D2B222F01002D2B29A70FFF754FF38
S32D0000FF7007F10807BD4680BD80B582B000AF0346FB71FB79184600F06BF807F10807BD4680BD00BF80B582B0BF
S32D0000FF9800AF02460B46FA71BB7100F039F8FB794FEA4303DBB21846FFF7E2FFBB791846FFF7DEFF00F03EF8FB
S32D0000FFC007F10807BD4680BD80B500AF4FF0FF0000F046F80346184680BD00BF80B584B000AF0346FB7100F01C
S32D0000FFE817F8FB794FEA4303DBB243F00103DBB2DBB21846FFF7BCFFFFF7E2FF0346FB7300F018F8FB7B18469A
S32D0001001007F11007BD4680BD80B400AF4FF24003C4F20F034FF24002C4F20F02926842F480129A60BD4680BCFE
S32D00010038704700BF80B400AF4FF24003C4F20F034FF24002C4F20F02526842F480125A60BD4680BC704700BFB9
S32D0001006080B485B000AF0346FB714FF00003BB7303E0FB7B03F10103FB734FF44043C4F20A03DB6A4FF0000365
S32D00010088002BF2D14FF44043C4F20A034FF44042C4F20A02D26A42F00042DA624FF44043C4F20A03FA795A63A6
S32D000100B000BF4FF44043C4F20A03DB6A03F40033002B14BF00230123DBB2002BF1D14FF44043C4F20A039B6B1C
S32D000100D8BB73BB7B184607F11407BD4680BC704780B582B000AF4FF4E043C4F204034FF4E042C4F2040202F5DD
S32D00010100805202F13002126842F4805203F5805303F130031A604FF42043C4F204034FF480721A654FF2400350
S32D00010128C4F20F034FF24002C4F20F02526942F480125A61FFF77EFF4FF42043C4F204034FF400725A654FF4CB
S32D000101502043C4F204034FF400729A654FF42043C4F204034FF40072DA654FF44043C4F20A034FF44062C8F22D
S32D0001017800021A604FF44043C4F20A034FF00502C3F60062DA604FF000037B6007E04FF0FF00FFF7EDFE7B68B2
S32D000101A003F101037B607B68092BCCBF00230123DBB2002BEFD104A1D1E9000102F048F807F10807BD4680BD23
S32D000101C89A9999999999B93F90B486B000AFF860B9607A60FA684FF42043C4F206039A4214D14FF4E043C4F261
S32D000101F004034FF4E042C4F2040202F5805202F13402126842F4806203F5805303F134031A6083E0FA684FF4BC
S32D000102183043C4F206039A4214D14FF4E043C4F204034FF4E042C4F2040202F5805202F13402126842F400627C
S32D0001024003F5805303F134031A6067E0FA684FF44043C4F206039A4214D14FF4E043C4F204034FF4E042C4F2F2
S32D00010268040202F5805202F13402126842F4805203F5805303F134031A604BE0FA684FF45043C4F206039A427F
S32D0001029014D14FF4E043C4F204034FF4E042C4F2040202F5805202F13402126842F4005203F5805303F134032C
S32D000102B81A602FE0FA684FF42043C4F20E039A4214D14FF4E043C4F204034FF4E042C4F2040202F5805202F1FE
S32D000102E02802126842F4806203F5805303F128031A6013E04FF4E043C4F204034FF4E042C4F2040202F58052CF
S32D0001030802F12802126842F4006203F5805303F128031A60FB68DB78DBB223F00C03DAB2FB68DA70FB684FF0F3
S32D0001033000029A70BB684FF47A7202FB03F27B684FEA031392FBF3F39CB2FB681B78DBB223F01F03FB752346CA
S32D0001035803F4F8534FEA2323DBB203F01F03DAB2FB7D1343DAB2FB681A70E2B2FB685A70BB684FF4FA4202FBE0
S32D0001038003F27B684FEA031392FBF3F39AB2234619464FEAC121CB1A4FEA43139BB2D3189CB2FB689B7ADBB286
S32D000103A823F01F03FB75E3B203F01F03DAB2FB7D1343DAB2FB689A72FB68DB78DBB243F00C03DAB2FB68DA70C4
S32D000103D007F11807BD4690BC704700BF80B483B000AF786000BF7B681B79DBB203F02003002B14BF0023012316
S32D000103F8DBB2002BF3D17B68DB79DBB2184607F10C07BD4680BC704780B483B000AF78600B46FB7000BF7B68EB
S32D000104201B79DBB2DBB26FEA0303DBB24FEAD313DBB2002BF3D17B68FA78DA7107F10C07BD4680BC704700BF18
S32D0001044880B487B000AFF860B9607A60FB687B6107E0BB68DAB27B691A707B6903F101037B617B68002B0CBF4C
S32D0001047000230123DBB27A6802F1FF327A60002BEBD107F11C07BD4680BC704780B584B000AF786039607B6845
S32D000104981B6BFB60FA683B689A4264D07B681B79002B43D07B685A787B6803F1340310461946FA684FF001036D
S32D000104C001F0ACFB0346002B0CBF00230123DBB2002B02D04FF001034BE07B684FF000021A717B685A6A7B68BE
S32D000104E81B6AD218FB689A4220D97B68DB78FB7214E07B681B6AFA68D318FB607B685A787B6803F1340310467E
S32D000105101946FA684FF0010301F080FBFB7A03F1FF33FB72FB7A012B94BF00230123DBB2002BE2D13B68002BD0
S32D0001053819D07B685A787B6803F13403104619463A684FF0010301F057FA0346002B0CBF00230123DBB2002BCE
S32D0001056002D04FF0010304E07B683A681A634FF00003184607F11007BD4680BD80B584B000AF786078684FF073
S32D000105880001FFF77FFF0346FB73FB7B002B40F0AE807B681B78032B40F095807B685B79002B00F090807B686B
S32D000105B04FF000021A637B6803F1340318464FF000014FF40072FFF73FFF7B684FF0550283F832227B684FF05F
S32D000105D8AA0283F833227B684FF0520283F834207B684FF0520283F835207B684FF0610283F836207B684FF075
S32D00010600410283F837207B684FF0720283F818227B684FF0720283F819227B684FF0410283F81A227B684FF0E1
S32D00010628610283F81B227B681B69DAB27B6883F81C227B681B699BB24FEA2323DAB27B6883F81D227B681B6936
S32D000106504FEA1343DAB27B6883F81E227B681B694FEA1363DAB27B6883F81F227B68DB68DAB27B6883F820222F
S32D000106787B68DB689BB24FEA2323DAB27B6883F821227B68DB684FEA1343DAB27B6883F822227B68DB684FEAF2
S32D000106A01363DAB27B6883F823227B6859787B6803F134027B685B69084611461A464FF0010301F0ABFA7B685D
S32D000106C84FF000025A717B685B7818464FF000014FF0000201F084FB0346002B0CBF00230123DBB2002B02D0E2
S32D000106F04FF00103FB73FB7B184607F11007BD4680BD00BF80B582B000AF78600B467B807B68002B08D07B6845
S32D000107181B78002B04D07B68DB887A889A4202D04FF009030FE07B685B78184601F0ECFB034603F00103DBB237
S32D00010740002B02D04FF0030301E04FF00003184607F10807BD4680BD80B586B000AF78607B681A687B689B8823
S32D0001076810461946FFF7CAFF0346FB75FB7D002B40F0C8807B689B7903F02003002B00F0C1807B689B7903F0C7
S32D000107904003002B20D07B681B6859787B6803F128027B689B69084611461A464FF0010301F034FA0346002BE2
S32D000107B80CBF00230123DBB2002B02D04FF00103A1E07B689B7923F04003DAB27B689A717B681A687B68DB695F
S32D000107E010461946FFF752FE0346FB75FB7D002B40F08C807B681B6A3B613B6903F10B033A6902F10B02127880
S32D0001080842F02002D2B21A703B6903F11C037A68D268D2B21A703B6903F11D037A68D26892B24FEA2222D2B265
S32D000108301A703B6903F11E037A68D2684FEA1242D2B21A703B6903F11F037A68D2684FEA1262D2B21A703B696A
S32D0001085803F11A037A681269D2B21A703B6903F11B037A68126992B24FEA2222D2B21A703B6903F114037A6882
S32D0001088012694FEA1242D2B21A703B6903F115037A6812694FEA124292B24FEA2222D2B21A704FF00003FB602D
S32D000108A83B6903F11603FA68D2B21A703B6903F11703FA6892B24FEA2222D2B21A703B6903F11803FA684FEACF
S32D000108D01242D2B21A703B6903F11903FA684FEA1262D2B21A707B689B7923F02003DAB27B689A717B681B68B9
S32D000108F84FF001021A717B681B681846FFF73AFE0346FB75FB7D184607F11807BD4680BD80B584B000AF78603C
S32D000109207868FFF719FF0346FB73FB7B002B03D17B684FF000021A60FB7B184607F11007BD4680BD80B588B060
S32D0001094800AF786039604FF080033B614FF00F03FB604FF0FF337B614FF00203FB612AE04FF00103BB611AE006
S32D00010970FB69BA6902FB03F33A6802FB03F27B68D31ABB60BB68002B09DBBA687B699A4205D2BB687B61FB6911
S32D000109983B61BB69FB60BB6903F10103BB61BB69102B8CBF00230123DBB2002BDCD1FB694FEA4303FB61FB69E4
S32D000109C0B3F5807F8CBF00230123DBB2002BCBD14FF48053C4F20B034FF48052C4F20B02D26A22F00802DA6235
S32D000109E84FF48053C4F20B03DB6A1A464FF00F03CFF6F0731340BB614FF48053C4F20B033A694FEA52024FEA36
S32D00010A1002224FEA02424FEA1242F96801F1FF314FEA0111C9B21143BA690A4342F46022DA6203E04FF00A005C
S32D00010A3801F0EEFB4FF48053C4F20B035B6A03F00803002B14BF00230123DBB2002BEDD14FF48053C4F20B0383
S32D00010A604FF48052C4F20B02D26A42F00802DA624FF48053C4F20B034FF48052C4F20B02126B42F480121A6367
S32D00010A8807F12007BD4680BD80B582B000AF786039607B684FF000021A604FF48053C4F20B034FF40042C0F2AA
S32D00010AB00012DA624FF48053C4F20B03DB6A03F08073002B0CBF00230123DBB2002BF1D14FF48053C4F20B0333
S32D00010AD84FF00002C3F8C0204FF48053C4F20B034FF481325A604FF48053C4F20B034FF028029A624FF4805334
S32D00010B00C4F20B034FF001125A643B689B6818464CF66041C0F20501FFF714FF4FF48053C4F20B035B6A03F0B8
S32D00010B280303002B0CBF00230123DBB2002BF1D14FF45043C4F2040340F243421A604FF45043C4F2040340F258
S32D00010B5043425A604FF45043C4F204034FF488629A604FF45043C4F2040340F24342DA604FF45043C4F2040366
S32D00010B7840F243421A614FF45043C4F2040340F243425A614FF4E043C4F204034FF4E042C4F2040202F580520A
S32D00010BA002F13002126842F4003203F5805303F130031A604FF48053C4F20B034FF6FF721A634FF48053C4F2DA
S32D00010BC80B034FF0B302C0F27F025A634FF48053C4F20B034FF48052C4F20B02D26A42F00062DA624FF4805338
S32D00010BF0C4F20B03DB6A03F00063002B0CBF00230123DBB2002BF1D14FF48053C4F20B035B6A03F48033002B4C
S32D00010C180CBF00230123DBB2002B03D07B684FF001021A604FF48053C4F20B034FF48052C4F20B02126B42F010
S32D00010C4080021A634FF00003184607F10807BD4680BD00BF80B400AF4FF48053C4F20B035B6A1A4640F2073392
S32D00010C681340002B0CBF00230123DBB21846BD4680BC704780B485B000AF78604FF48053C4F20B031B6B1A463C
S32D00010C907B681340FB60FB68002B14BF00230123DBB2002BEED1FB68184607F11407BD4680BC704780B584B052
S32D00010CB800AF78607B681B7803F03F0249F25043C0F2010353F82230FB60FB68002B06D17B681B78002B02D088
S32D00010CE04FF0010330E14FF48053C4F20B034FF48052C4F20B02126B42F080021A634FF48053C4F20B035B6A92
S32D00010D0803F00103DBB2002BF5D14FF48053C4F20B037A6852689A60FB6823F44003FB607B685B784FEA8353FA
S32D00010D3003F44003FA681343FB607B685B78022B03D1FB6843F40013FB607B685B78042B16D1FB6803F44033EF
S32D00010D58B3F5003F08D1FB6823F44033FB60FB6843F44033FB6007E0FB6823F44033FB60FB6843F40033FB60A5
S32D00010D804FF48053C4F20B034FF48052C4F20B0252684FEA02424FEA12425A607B68DB68002B32D0FB6803F467
S32D00010DA84033B3F5403F03D0FB6843F40013FB607B681B7A002B03D0FB6843F01003FB607B68DB68012B03D9FF
S32D00010DD0FB6843F02003FB607B68DB68B3F1FF3F13D04FF48053C4F20B034FF48052C4F20B02526811467A6850
S32D00010DF8D2684FEA02420A435A60FB6843F00203FB604FF48053C4F20B034FF000021A604FF48053C4F20B03A9
S32D00010E20FA68DA604FF00100C0F20E00FFF726FF0346012B0CBF00230123DBB2002B10D04FF48053C4F20B03F3
S32D00010E484FF48052C4F20B02126B42F4702242F001021A634FF0010372E04FF48053C4F20B031B6B03F0800341
S32D00010E70002B0CBF00230123DBB2002B0ED04FF48053C4F20B034FF48052C4F20B02126B42F001121A634FF050
S32D00010E98010355E04FF48053C4F20B031B6B03F48033002B0CBF00230123DBB2002B0ED04FF48053C4F20B033B
S32D00010EC04FF48052C4F20B02126B42F001121A634FF0FF3338E0FB6803F44033002B25D04FF48053C4F20B039C
S32D00010EE81B691A467B681A61FB6803F44033B3F5803F17D14FF48053C4F20B035B691A467B685A614FF48053CB
S32D00010F10C4F20B039B691A467B689A614FF48053C4F20B03DB691A467B68DA614FF48053C4F20B034FF4805221
S32D00010F38C4F20B02126B42F001021A634FF00003184607F11007BD4680BD00BF80B592B000AF786039604FF014
S32D00010F600003FB633B68BB6341F28413C1F6FF737B637B6B002B03D140F6012300F0A0BC41F28833C1F6FF73CD
S32D00010F883B633B6B002B03D140F60B2300F094BC3B6B1B68FB62FB6A002B03D140F60B2300F08ABC7B6841F2B9
S32D00010FB00432934200F0388241F2043293421BD841F20132934238D041F20132934207D8032B00F03D84092BBC
S32D00010FD800F0298400F066BC41F20232934200F0128241F20332934200F0BE8300F05ABC41F20732934200F0D6
S32D000110004B8341F2073293420BD841F20532934200F0348241F20632934200F0108300F045BC41F208329342F4
S32D0001102800F0B68241F20932934200F0C48200F039BC786B49F24441C0F20101FFF724FD0346FB63FB6B002B6D
S32D0001105040F030844FF0000387F847304FF0000387F82B304FF0000387F82A304FF0000387F829304FF00003C2
S32D0001107887F846304FF0000387F828304FF000033B724FF000037B724FF00003FB604FF000033B744FF000034D
S32D000110A07B6107F108031846FFF704FE0346002B0CBF00230123DBB2002B03D04FF00103FB63FCE340F24C409D
S32D000110C801F0A6F84FF008033B724FF000037B724FF4D573FB604FF000033B744FF000037B6107F108031846EE
S32D000110F0FFF7E0FD03463B643B6C002B0BD1BA69FB689A4203D04FF00103FB63D7E34FF0010387F846304FF061
S32D00011118010387F8283097F82830002B00F0C6804FF037033B724FF000037B724FF00003FB604FF000033B74A2
S32D000111404FF000037B6107F108031846FFF7B2FD03463B643B6C002B03D04FF00103FB63ADE34FF069033B7246
S32D000111684FF000037B724FF00003FB604FF000033B744FF000037B6107F108031846FFF795FD0346002B0CBF55
S32D0001119000230123DBB2002B03D04FF00103FB638DE3BB6903F44013002B00F083804FF000033B644FF00A0097
S32D000111B801F02EF83B6C03F101033B644FF037033B724FF000037B724FF00003FB604FF000033B744FF000038E
S32D000111E07B6107F108031846FFF764FD0346002B0CBF00230123DBB2002B03D04FF00103FB6336E04FF06903D9
S32D000112083B724FF000037B7297F84630002B05D04FF00003C4F23003FB6002E04FF44013FB604FF000033B748C
S32D000112304FF000037B6107F108031846FFF73AFD0346002B0CBF00230123DBB2002B03D04FF00103FB630CE045
S32D00011258BB69002B05DB3B6C632B02D84FF0010301E04FF00003002BA0D1FB6B002B40F01F833B6C632B04D9B2
S32D000112804FF0000387F8463014E04FF0010387F8473097F84630002B0CD04FF0000387F84630BB6903F08043BE
S32D000112A8002B03D04FF0010387F8463097F82A30002B03D07B6B4FF007021A6097F82930002B03D07B6B4FF047
S32D000112D008021A6097F82B30002B03D07B6B4FF004021A6097F84730002B0BD07B6B4FF002021A6097F846302A
S32D000112F8002B03D07B6B4FF003021A6097F82B30002B0FD097F84730002B0BD07B6B4FF005021A6097F846307A
S32D00011320002B03D07B6B4FF006021A604FF45043C4F204034FF000021A604FF45043C4F204034FF000025A601D
S32D000113484FF45043C4F204034FF000029A604FF45043C4F204034FF00002DA604FF45043C4F204034FF00002C6
S32D000113701A614FF45043C4F204034FF000025A61FB6A9A68FB6A5B6810461946FFF7DAFA4FF45043C4F20403A3
S32D0001139840F243421A604FF45043C4F2040340F243425A604FF45043C4F204034FF488629A604FF45043C4F2AB
S32D000113C0040340F24342DA604FF45043C4F2040340F243421A614FF45043C4F2040340F243425A614FF4E043D6
S32D000113E8C4F204034FF4E042C4F2040202F5805202F13002126842F4003203F5805303F130031A6057E2B86B60
S32D00011410FFF750FC03463B643B6C002B00F04E824FF00203FB6349E2BB6B002B03D14FF00C03FB6343E24FF4EB
S32D000114388053C4F20B03DB6A03F47F434FEA13234FEA43033B644FF48053C4F20B03DB6A03F0F0034FEA1313FF
S32D0001146003F101023B6C02FB03F33B64FB6A9A683B6CB2FBF3F2BB6B1A6020E2BB6B002B03D14FF00C03FB631A
S32D0001148819E2BB6B1B68002B03D14FF00C03FB6311E2FFF7DBFB0346002B14BF00230123DBB2002B70D04FF45E
S32D000114B05043C4F204034FF000021A604FF45043C4F204034FF000025A604FF45043C4F204034FF000029A60A6
S32D000114D84FF45043C4F204034FF00002DA604FF45043C4F204034FF000021A614FF45043C4F204034FF00002B4
S32D000115005A61FB6A9A68BB6B1B6810461946FFF719FA4FF45043C4F2040340F243421A604FF45043C4F20403DC
S32D0001152840F243425A604FF45043C4F204034FF488629A604FF45043C4F2040340F24342DA604FF45043C4F259
S32D00011550040340F243421A614FF45043C4F2040340F243425A614FF4E043C4F204034FF4E042C4F2040202F5F3
S32D00011578805202F13002126842F4003203F5805303F130031A6096E140F60A23FB6392E1BB6B002B03D14FF0F0
S32D000115A00C03FB638BE14FF48053C4F20B035B684FEAC3434FEAD343BA6B13607FE1BB6B002B03D14FF00C03AD
S32D000115C8FB6378E1FFF742FB0346002B14BF00230123DBB2002B2AD0BB6B1A6840F6FF739A4203D94FF00C0374
S32D000115F0FB6364E14FF48053C4F20B034FF48052C4F20B02526822F4FE5222F03F025A604FF48053C4F20B0370
S32D000116184FF48052C4F20B0252681146BA6B12684FEAC2424FEAD2420A435A6043E140F60A23FB633FE1BB6B5F
S32D00011640002B03D14FF00C03FB6338E14FF48053C4F20B039B6A03F006034FEA53033B643B6C002B04D1BB6BE1
S32D000116684FF000021A6026E13B6C012B04D1BB6B4FF001021A601EE13B6C102B04D1BB6B4FF002021A6016E177
S32D000116904FF00503FB6312E1BB6B002B03D14FF00C03FB630BE1FFF7D5FA0346002B14BF00230123DBB2002BCB
S32D000116B856D0BB6B1B68002B16D14FF48053C4F20B034FF48052C4F20B02926A22F006029A624FF48053C4F292
S32D000116E00B034FF48052C4F20B02926A9A62E6E0BB6B1B68012B18D14FF48053C4F20B034FF48052C4F20B02C7
S32D00011708926A22F006029A624FF48053C4F20B034FF48052C4F20B02926A42F002029A62C9E0BB6B1B68022B41
S32D0001173016D14FF48053C4F20B034FF48052C4F20B02926A22F006029A624FF48053C4F20B034FF48052C4F23A
S32D000117580B02926A9A62AEE04FF00503FB63AAE040F60A23FB63A6E0BB6B002B03D14FF00C03FB639FE04FF4C6
S32D000117808053C4F20B034FF48052C4F20B02D26A42F00062DA624FF48053C4F20B03DB6A03F00063002B0CBF54
S32D000117A800230123DBB2002BF1D14FF48053C4F20B031B6B03F08003002B0CBF00230123DBB2002B0FD04FF464
S32D000117D08053C4F20B034FF48052C4F20B02126B42F080021A637B6B4FF000021A604FF48053C4F20B035B6A8D
S32D000117F803F48033002B0CBF00230123DBB2002B08D07B6B1B68002B08D17B6B4FF001021A6003E07B6B4FF034
S32D0001182000021A607B6B1A68BB6B1A6047E0BB6B4FF01C021A60BB6B03F104034FF004021A60BB6B03F10803EC
S32D000118484FF41E721A6036E04FF00200FFF712FA4FF48053C4F20B031B6B03F4E003002B0CBF00230123DBB2C7
S32D00011870002B0ED04FF48053C4F20B034FF48052C4F20B02126B42F4E0021A634FF00403FB634FF48053C4F20C
S32D000118980B034FF48052C4F20B02126B42F032021A6308E040F60923FB6304E000BF02E000BF00E000BFFB6BEA
S32D000118C0184607F14807BD4680BD00BF80B489B000AF786039607B687B6141F28413C1F6FF733B613B69002BAB
S32D000118E802D14FF0000381E03B691B68022B0BD03B691B68032B07D03B691B68072B03D03B691B68082B0DD19C
S32D000119104FF48053C4F20B035B6A03F00403002B0CBF00230123DBB2002BF1D13B68FB6156E0FB69B3F5007F98
S32D0001193828BF4FF40073FB60FB6803F103034FEA9303BB613CE04FF48053C4F20B031B6B03F4E003002B0CBFF4
S32D0001196000230123DBB2002B10D04FF48053C4F20B034FF48052C4F20B02126B42F4E00242F020021A634FF022
S32D00011988000333E04FF48053C4F20B035B6A03F40063002B14BF00230123DBB2002BF1D14FF48053C4F20B0388
S32D000119B01B6A1A467B691A607B6903F104037B61BB6903F1FF33BB61BB69002B0CBF00230123DBB2002BBAD100
S32D000119D8FA69FB68D31AFB61FB69002B0CBF00230123DBB2002BA0D14FF00103184607F12407BD4680BC70474D
S32D00011A0080B58EB000AFB9607A600246FA73BB7341F27013C1F6FF737B63FB7B002B02D1BB7B002B02D14FF01B
S32D00011A28040381E040F20043C1F6FF731B78DBB203F00103DBB2002B02D04FF0030373E0BB68002B02D14FF0F0
S32D00011A5000036DE07B6B1B7B002B03D17B684FEA43237B60BB7B012B2CD14FF011033B754FF000037B757B68C8
S32D00011A78BB614FF001033B77BB7B3B6207F1140341F202301946FFF761FA0346002B14BF00230123DBB2002BF1
S32D00011AA03ED0B8684FF40071FFF710FF0346002B0CBF00230123DBB2002B31D04FF00003BB732DE04FF0120320
S32D00011AC83B754FF000037B757B68BB614FF001033B77BB7B3B6207F1140341F202301946FFF734FA0346002BDB
S32D00011AF014BF00230123DBB2002B11D0BB7B4FEA4323B8681946FFF7E1FE0346002B0CBF00230123DBB2002BAD
S32D00011B1802D04FF00003BB73BB7B002B02D04FF0010301E04FF00003184607F13807BD4680BD00BF80B487B0C4
S32D00011B4000AF786039607B68FB603B687B6155E07B69B3F5007F28BF4FF400733B617A693B69D31A7B613B692C
S32D00011B6803F103034FEA93033B613BE04FF48053C4F20B031B6B03F4E003002B0CBF00230123DBB2002B10D0BF
S32D00011B904FF48053C4F20B034FF48052C4F20B02126B42F4E00242F010021A634FF0FF332EE04FF48053C4F2D3
S32D00011BB80B035B6A03F48063002B14BF00230123DBB2002BF1D14FF48053C4F20B03FA6812681A62FB6803F109
S32D00011BE00403FB603B6903F1FF333B613B69002B0CBF00230123DBB2002BBBD17B69002B0CBF00230123DBB23B
S32D00011C08002BA1D14FF00103184607F11C07BD4680BC704780B58EB000AFB9607A600246FA73BB7341F27013B0
S32D00011C30C1F6FF737B63FB7B002B02D1BB7B002B02D14FF00403CAE040F20043C1F6FF731B78DBB203F0010331
S32D00011C58DBB2002B02D04FF00303BCE040F20043C1F6FF731B78DBB203F00403002B0CBF00230123DBB2002B45
S32D00011C8002D04FF00203AAE0BB68002B02D14FF00003A4E07B6B1B7B002B03D17B684FEA43237B60BB7B012B74
S32D00011CA82CD14FF018033B754FF000037B757B68BB614FF000033B77BB7B3B6207F1140341F202301946FFF745
S32D00011CD041F90346002B14BF00230123DBB2002B3ED0B8684FF40071FFF728FF0346002B0CBF00230123DBB253
S32D00011CF8002B31D04FF00003BB732DE04FF019033B754FF000037B757B68BB614FF000033B77BB7B3B6207F119
S32D00011D20140341F202301946FFF714F90346002B14BF00230123DBB2002B11D0BB7B4FEA4323B8681946FFF745
S32D00011D48F9FE0346002B0CBF00230123DBB2002B02D04FF00003BB734FF00D033B754FF000037B757B6B1B695A
S32D00011D70BB614FF000033B774FF000033B6207F1140341F202301946FFF7E4F80346002B0CBF00230123DBB29D
S32D00011D98002B02D04FF001031DE07A6A48F20803CFF6D9731340002B02D04FF0010312E07B6A03F4F853B3F551
S32D00011DC0106F0CBF00230123DBB2002BC8D1BB7B002B02D04FF0010301E04FF00003184607F13807BD4680BDA4
S32D00011DE880B58CB000AF0B463A600246FA71BB7141F27013C1F6FF73BB62FB79002B02D04FF004037AE04FF096
S32D00011E10010387F82F3040F20043C1F6FF731B78DBB203F00103DBB2002B02D04FF0030368E0BB79032B5FD85C
S32D00011E3801A252F823F000BF511E01005B1E01006D1E01007F1E01004FF0000387F82F3052E0BB6A9A683B688C
S32D00011E601A604FF0000387F82F3049E03B684FF400721A804FF0000387F82F3040E04FF009033B724FF0000324
S32D00011E887B72BB6A1B69FB604FF000033B744FF000037B6107F1080341F202301946FFF755F80346002B0CBFE2
S32D00011EB000230123DBB2002B02D04FF0010321E07B6A03F44003002B11D13B6A4FEA934303F07F0303F10102A2
S32D00011ED87B6A4FEA132303F0030303F1FF3302FA03F23B681A604FF0000387F82F3003E04FF0040387F82F3033
S32D00011F0097F82F30184607F13007BD4680BD00BF80B483B000AF0346FB71FB79002B02D04FF0010305E040F2A2
S32D00011F280043C1F6FF731B78DBB2184607F10C07BD4680BC704700BF80B483B000AF78604FF4E043C4F20403CF
S32D00011F504FF4E042C4F2040202F5805202F13802126842F0010203F5805303F138031A604FF00003C4F2040329
S32D00011F787A689A604FF00003C4F204034FF005025A604FF00003C4F204034FF00002C4F20402126842F00102B4
S32D00011FA01A6000BF4FF00003C4F204031B6803F08003002B14BF00230123DBB2002BF1D14FF00003C4F2040323
S32D00011FC84FF00002C4F20402126822F001021A6007F10C07BD4680BC704700BF80B582B000AF786039607B68BA
S32D00011FF0012B0AD13A684FF6FF739A4205D141F29030C1F6FF7000F00FF807F10807BD4680BD00BF80B500AFB6
S32D000120184FF001004FF6FF71FFF7E0FF80BD00BF80B483B000AF78607B684FF000021A707B68184607F10C07EB
S32D00012040BD4680BC704700BF80B582B000AF78607B681B7883F00103DBB2002B36D04FF4E043C4F2040303F508
S32D00012068805303F128034FF400621A604FF45043C4F204034FF440721A624FF45043C4F204034FF440725A62F0
S32D0001209041F29433C1F6FF731B684FEAD372D3184FEA63034FF43040C4F20E0019464FF46142FEF78DF84FF0FE
S32D000120B8640000F0ADF87B684FF001021A704FF0010301E04FF00003184607F10807BD4680BD00BF80B582B020
S32D000120E000AF7860F970BA707B704FF43040C4F20E004FF07F01FEF78BF94FF43040C4F20E004FF00801FEF769
S32D0001210883F9FB784FF43040C4F20E001946FEF77BF9BB784FF43040C4F20E001946FEF773F97B784FF430406A
S32D00012130C4F20E001946FEF76BF94FF43040C4F20E004FF0FF01FEF763F907F10807BD4680BD00BF80B487B08C
S32D0001215800AFF860B9607A60FA6844F6D353C1F26203A3FB02134FEA9312BB68D3187B61FA6844F6D353C1F294
S32D000121806203A3FB02134FEA93134FF47A7101FB03F3D31AFB60FB684FEAC33244F6D353C1F26203A3FB021315
S32D000121A84FEA93127B68D3183B613B694FEAD3337A69D3187B613B694FEA43434FEA53433B614FF45043C4F2D9
S32D000121D003031B681A467B699A4211D34FF45043C4F203031B681A467B699A420BD14FF45043C4F203035B68ED
S32D000121F81A463B699A4202D24FF0010301E04FF00003002BDDD107F11C07BD4680BC704780B584B000AF7860C4
S32D000122204FF45043C4F203031B68FB604FF45043C4F203035B68BB607B681846F968BA68FFF788FF07F110075F
S32D00012248BD4680BD0000000080B584B000AFC7E900014FF45043C4F203031B68FB604FF45043C4F203035B6899
S32D00012270BB60D7E900010AA3D3E90023FAF780FA02460B4610461946FAF73CFD03461846F968BA68FFF75EFF77
S32D0001229807F11007BD4680BD0000000000408F4080B584B000AF4FF45043C4F203031B68FB604FF45043C4F2A5
S32D000122C003035B68BB60F868FAF7E4F902460B46C7E90023B868FAF7DDF902460B46104619464FF000024FF0BC
S32D000122E8804303F56003FAF771FB02460B46D7E90001FAF78FF802460B46C7E90023D7E900231046194607F17E
S32D000123101007BD4680BD00BF80B483B000AF4FF45043C4F203031B684FF47A7202FB03F37B604FF45043C4F2D4
S32D0001233803035B684FF47A7202FB03F34FEAD3337A68D3187B607B68184607F10C07BD4680BC704780B584B0F9
S32D0001236000AF78600B46FB704FF00B03FB73FA78FB7B786811461A4600F0ECF87B68184607F11007BD4680BD6D
S32D0001238880B485B000AF78607B68A3F11003002B01DA03F11F034FEA6313FB60FB68012B48D0022B00F08980B9
S32D000123B0002B40F0C9804FF46142CEF200024FF46143CEF20003D3F8803119467B68A3F110004FF01F03C8F28B
S32D000123D800030340002B05DA03F1FF3363F01F0303F101034FF0010000FA03F30B43C2F880314FF46142CEF264
S32D0001240000024FF46143CEF200031B6819467B68A3F110004FF01F03C8F200030340002B05DA03F1FF3363F0B4
S32D000124281F0303F101034FF0010000FA03F30B43136085E04FF46142CEF200024FF46143CEF20003D3F8843143
S32D0001245019467B68A3F110004FF01F03C8F200030340002B05DA03F1FF3363F01F0303F101034FF0010000FA3F
S32D0001247803F30B43C2F884314FF46142CEF200024FF46143CEF200035B6819467B68A3F110004FF01F03C8F26C
S32D000124A000030340002B05DA03F1FF3363F01F0303F101034FF0010000FA03F30B43536042E04FF46142CEF231
S32D000124C800024FF46143CEF20003D3F8883119467B68A3F110004FF01F03C8F200030340002B05DA03F1FF333E
S32D000124F063F01F0303F101034FF0010000FA03F30B43C2F888314FF46142CEF200024FF46143CEF200039B680A
S32D0001251819467B68A3F110004FF01F03C8F200030340002B05DA03F1FF3363F01F0303F101034FF0010000FA76
S32D0001254003F30B43936000BF07F11407BD4680BC704700BF80B584B000AF786013460A46FA70BB707B68FA782B
S32D000125681A70BB78FB737B681B781A4649F25053C0F201039B5C042B00F2F68001A252F823F000BFA12501009B
S32D00012590152601008926010071270100FD2601004FF41043C4F204037A681278114649F29452C0F2010252F83D
S32D000125B82110FA7B4FEA024202F4702242F4887242F0030243F821204FF47043C4F20F034FF47042C4F20F02EC
S32D000125E0526911467A681278104649F29452C0F2010252F8202002F01F024FF0010000FA02F26FEA02020A40B0
S32D000126085A614FF06700FFF7BBFEADE04FF42043C4F204037A681278114649F29452C0F2010252F82110FA7B1A
S32D000126304FEA024202F4702242F4887242F0030243F821204FF24003C4F20F034FF24002C4F20F0252691146EB
S32D000126587A681278104649F29452C0F2010252F8202002F01F024FF0010000FA02F26FEA02020A405A614FF04F
S32D000126806800FFF781FE73E04FF43043C4F204037A681278114649F29452C0F2010252F82110FA7B4FEA024282
S32D000126A802F4702242F4887242F0030243F821204FF28003C4F20F034FF28002C4F20F02526911467A68127804
S32D000126D0104649F29452C0F2010252F8202002F01F024FF0010000FA02F26FEA02020A405A614FF06900FFF7E4
S32D000126F847FE39E04FF45043C4F204037A681278114649F29452C0F2010252F82110FA7B4FEA024202F4702234
S32D0001272042F4887242F0030243F821204FF47143C4F20F034FF47142C4F20F02526911467A681278104649F21C
S32D000127489452C0F2010252F8202002F01F024FF0010000FA02F26FEA02020A405A614FF06B00FFF70DFE00BF30
S32D0001277007F11007BD4680BDB0B48BB000AF49F26013C0F2010307F104041D460FCD0FC495E80F0084E80F0020
S32D000127984FF000037B6248E04FF42043C4F20403D3F8A0301A467B6A4FEA830307F12800C31853F8243C4FF0E4
S32D000127C0010101FA03F31340002B0CBF00230123DBB2002B29D041F2C033C1F6FF737A6A53F8223003F10101F0
S32D000127E841F2C033C1F6FF737A6A43F822104FF42043C4F204034FF42042C4F20402D2F8A02011467A6A4FEA60
S32D00012810820207F12800821852F8242C4FF0010000FA02F20A40C3F8A0207B6A03F101037B627B6A072BCCBF72
S32D0001283800230123DBB2002BAED107F12C07BD46B0BC7047B0B489B000AF49F28013C0F2010307F104041D466F
S32D000128600FCD0FC495E8030084E803004FF00003FB6149E04FF43043C4F20403D3F8A0301A46FB694FEA830353
S32D0001288807F12000C31853F81C3C4FF0010101FA03F31340002B0CBF00230123DBB2002B2AD0FB6903F10802B5
S32D000128B041F2C033C1F6FF7353F8223003F1010141F2C033C1F6FF7343F822104FF43043C4F204034FF4304233
S32D000128D8C4F20402D2F8A0201146FA694FEA820207F12000821852F81C2C4FF0010000FA02F20A40C3F8A020DD
S32D00012900FB6903F10103FB61FB69052BCCBF00230123DBB2002BADD107F12407BD46B0BC704700BFB0B48DB0AB
S32D0001292800AF49F29813C0F201033C461D460FCD0FC40FCD0FC495E8070084E807004FF00003FB6249E04FF4F0
S32D000129501043C4F20403D3F8A0301A46FB6A4FEA830307F13000C31853F8303C4FF0010101FA03F31340002BBF
S32D000129780CBF00230123DBB2002B2AD0FB6A03F10E0241F2C033C1F6FF7353F8223003F1010141F2C033C1F644
S32D000129A0FF7343F822104FF41043C4F204034FF41042C4F20402D2F8A0201146FA6A4FEA820207F130008218C1
S32D000129C852F8302C4FF0010000FA02F20A40C3F8A020FB6A03F10103FB62FB6A0A2BCCBF00230123DBB2002B69
S32D000129F0ADD107F13407BD46B0BC7047B0B487B000AF49F2C413C0F201033C461D460FCD0FC42B6823604FF0E6
S32D00012A1800037B6149E04FF45043C4F20403D3F8A0301A467B694FEA830307F11800C31853F8183C4FF001018B
S32D00012A4001FA03F31340002B0CBF00230123DBB2002B2AD07B6903F1190241F2C033C1F6FF7353F8223003F161
S32D00012A68010141F2C033C1F6FF7343F822104FF45043C4F204034FF45042C4F20402D2F8A02011467A694FEA60
S32D00012A90820207F11800821852F8182C4FF0010000FA02F20A40C3F8A0207B6903F101037B617B69042BCCBF12
S32D00012AB800230123DBB2002BADD107F11C07BD46B0BC704780B483B000AF78607B681B781A4641F2C033C1F690
S32D00012AE0FF7353F82230184607F10C07BD4680BC704700BF80B483B000AF78607B681B781A4641F2C033C1F6F9
S32D00012B08FF734FF0000143F8221007F10C07BD4680BC704780B483B000AF78600B46FB707B68FA781A707B6812
S32D00012B30184607F10C07BD4680BC70470000000080B586B000AF78607B681B781A4649F21463C0F2010353F89C
