S01300002E2E2F46696E616C436F64652E733139F1
S32D0000C0000000002089F30000E5F60000E5F60000E5F60000E5F60000E5F600000000000000000000000000002F
S32D0000C02800000000E5F60000E5F6000000000000E5F60000E5F60000E5F60000E5F60000E5F60000E5F6000012
S32D0000C050E5F60000E5F60000E5F60000E5F60000E5F60000E5F60000E5F60000E5F60000E5F60000E5F6000034
S32D0000C078E5F60000E5F60000E5F60000E5F60000E5F60000E5F60000E5F60000E5F60000E5F60000E5F600000C
S32D0000C0A0E5F60000E5F60000E5F60000E5F60000E5F60000E5F60000E5F60000E5F60000E5F60000E5F60000E4
S32D0000C0C8E5F60000E5F60000E5F60000E5F60000E5F60000E5F60000E5F60000E5F60000E5F60000E5F60000BC
S32D0000C0F0E5F6000035630100E5F60000E5F60000E5F60000E5F60000E5F60000E5F60000E5F60000E5F60000D6
S32D0000C118E5F60000E5F60000E5F60000E5F60000E5F60000E5F60000E5F60000E5F60000E5F60000E5F600006B
S32D0000C140E5F60000E5F60000E5F60000E5F60000852B0100E5F60000E5F60000E5F60000E5F60000E5F600006D
S32D0000C168E5F60000E5F60000E5F60000E5F60000E5F60000E5F60000E5F60000E5F60000E5F60000E5F600001B
S32D0000C190E5F60000E5F60000E5F60000E5250100392401000D25010035F70000BD260100E5F60000E5F600008E
S32D0000C1B8E5F60000E5F60000E5F60000E5F60000E5F60000E5F60000E5F60000E5F60000E5F60000E5F60000CB
S32D0000C41081F0004102E000BF83F0004330B54FEA41044FEA430594EA050F08BF90EA020F1FBF54EA000C55EAC6
S32D0000C438020C7FEA645C7FEA655C00F0E2804FEA5454D4EB5555B8BF6D420CDD2C4480EA020281EA030382EA0F
S32D0000C460000083EA010180EA020281EA0303362D88BF30BD11F0004F4FEA01314FF4801C4CEA113102D0404263
S32D0000C48861EB410113F0004F4FEA03334CEA133302D0524263EB430394EA050F00F0A780A4F10104D5F1200E8A
S32D0000C4B00DDB02FA0EFC22FA05F2801841F1000103FA0EF2801843FA05F359410EE0A5F120050EF1200E012A2D
S32D0000C4D803FA0EFC28BF4CF0020C43FA05F3C01851EBE37101F0004507D54FF0000EDCF1000C7EEB00006EEB67
S32D0000C5000101B1F5801F1BD3B1F5001F0CD349085FEA30004FEA3C0C04F101044FEA445212F5800F80F09A8000
S32D0000C528BCF1004F08BF5FEA500C50F1000041EB045141EA050130BD5FEA4C0C404141EB010111F4801FA4F114
S32D0000C5500104E9D191F0000F04BF01460020B1FA81F308BF2033A3F10B03B3F120020CDA0C3208DD02F1140C87
S32D0000C578C2F10C0201FA0CF021FA02F10CE002F11402D8BFC2F1200C01FA02F120FA0CFCDCBF41EA0C019040B1
S32D0000C5A0E41AA2BF01EB0451294330BD6FEA04041F3C1CDA0C340EDC04F11404C4F1200220FA04F001FA02F3B6
S32D0000C5C840EA030021FA04F345EA030130BDC4F10C04C4F1200220FA02F001FA04F340EA0300294630BD21FAA8
S32D0000C5F004F0294630BD94F0000F83F4801306BF81F480110134013D4EE77FEA645C18BF7FEA655C29D094EA1C
S32D0000C618050F08BF90EA020F05D054EA000C04BF1946104630BD91EA030F1EBF0021002030BD5FEA545C05D1A3
S32D0000C6404000494128BF41F0004130BD14F580043CBF01F5801130BD01F0004545F0FE4141F470014FF0000031
S32D0000C66830BD7FEA645C1ABF194610467FEA655C1CBF0B46024650EA013406BF52EA033591EA030F41F40021D7
S32D0000C69030BD00BF90F0000F04BF0021704730B54FF4806404F132044FF000054FF0000150E700BF90F0000F66
S32D0000C6B804BF0021704730B54FF4806404F1320410F0004548BF40424FF000013EE700BF42004FEAE2014FEAF9
S32D0000C6E031014FEA02701FBF12F07F4393F07F4F81F06051704792F0000F14BF93F07F4F704730B54FF460741B
S32D0000C70801F0004521F0004120E700BF50EA010208BF704730B54FF000050AE050EA010208BF704730B511F046
S32D0000C730004502D5404261EB41014FF4806404F132045FEA915C3FF4DCAE4FF003025FEADC0C18BF03325FEAA0
S32D0000C758DC0C18BF033202EBDC02C2F1200300FA03FC20FA02F001FA03FE40EA0E0021FA02F11444C1E600BF19
S32D0000C78070B54FF0FF0C4CF4E06C1CEA11541DBF1CEA135594EA0C0F95EA0C0F00F0DEF82C4481EA030621EAF3
S32D0000C7A84C5123EA4C5350EA013518BF52EA033541F4801143F4801338D0A0FB02CE4FF00005E1FB02E506F05F
S32D0000C7D00042E0FB03E54FF00006E1FB03569CF0000F18BF4EF0010EA4F1FF04B6F5007F64F5407404D25FEA0F
S32D0000C7F84E0E6D4146EB060642EAC62141EA55514FEAC52040EA5E504FEACE2EB4F1FD0C88BFBCF5E06F1ED8D2
S32D0000C820BEF1004F08BF5FEA500E50F1000041EB045170BD06F0004646EA010140EA020081EA0301B4EB5C0487
S32D0000C848C2BFD4EB0C0541EA045170BD41F480114FF0000E013C00F3AB8014F1360FDEBF002001F0004170BDF0
S32D0000C870C4F10004203C35DA0C341BDC04F11404C4F1200500FA05F320FA04F001FA05F240EA020001F0004207
S32D0000C89821F0004110EBD37021FA04F642EB06015EEA430E08BF20EAD37070BDC4F10C04C4F1200500FA04F32F
S32D0000C8C020FA05F001FA04F240EA020001F0004110EBD37041F100015EEA430E08BF20EAD37070BDC4F12005C7
S32D0000C8E800FA05F24EEA020E20FA04F301FA05F243EA020321FA04F001F0004121FA04F220EA020000EBD37028
S32D0000C9105EEA430E08BF20EAD37070BD94F0000F0FD101F00046400041EB010111F4801F08BF013CF7D041EA6D
S32D0000C938060195F0000F18BF704703F00046520043EB030313F4801F08BF013DF7D043EA0603704794EA0C0FF1
S32D0000C9600CEA135518BF95EA0C0F0CD050EA410618BF52EA4306D1D181EA030101F000414FF0000070BD50EA38
S32D0000C988410606BF1046194652EA430619D094EA0C0F02D150EA013613D195EA0C0F05D152EA03361CBF10467B
S32D0000C9B019460AD181EA030101F0004141F0FE4141F470014FF0000070BD41F0FE4141F4780170BD70B54FF04D
S32D0000C9D8FF0C4CF4E06C1CEA11541DBF1CEA135594EA0C0F95EA0C0F00F0A7F8A4EB050481EA030E52EA03359B
S32D0000CA004FEA013100F088804FEA03334FF0805545EA131343EA12634FEA022245EA111545EA10654FEA002676
S32D0000CA280EF000419D4208BF964244F1FD0404F5407402D25B084FEA3202B61A65EB03055B084FEA32024FF461
S32D0000CA5080104FF4002CB6EB020E75EB030E22BFB61A754640EA0C005B084FEA3202B6EB020E75EB030E22BF22
S32D0000CA78B61A754640EA5C005B084FEA3202B6EB020E75EB030E22BFB61A754640EA9C005B084FEA3202B6EBEA
S32D0000CAA0020E75EB030E22BFB61A754640EADC0055EA060E18D04FEA051545EA16754FEA06164FEAC30343EAAC
S32D0000CAC852734FEAC2025FEA1C1CC0D111F4801F0BD141EA00014FF000004FF0004CB6E711F4801F04BF0143AE
S32D0000CAF00020B4F1FD0C88BFBCF5E06F3FF6AFAEB5EB030C04BFB6EB020C5FEA500C50F1000041EB045170BDBC
S32D0000CB180EF0004E4EEA113114EB5C04C2BFD4EB0C0541EA045170BD41F480114FF0000E013C90E645EA060EC3
S32D0000CB408DE60CEA135594EA0C0F08BF95EA0C0F3FF43BAF94EA0C0F0AD150EA01347FF434AF95EA0C0F7FF499
S32D0000CB6825AF104619462CE795EA0C0F06D152EA03353FF4FDAE1046194622E750EA410618BF52EA43067FF432
S32D0000CB90C5AE50EA41047FF40DAF52EA43057FF4EBAE12E74FF0FF3C06E000BF4FF0010C02E000BF4FF0010C75
S32D0000CBB84DF804CD4FEA410C7FEA6C5C4FEA430C18BF7FEA6C5C1BD001B050EA410C0CBF52EA430C91EA030FEC
S32D0000CBE002BF90EA020F0020704710F1000F91EA030F58BF994208BF90422CBFD8176FEAE37040F0010070476E
S32D0000CC084FEA410C7FEA6C5C02D150EA013C07D14FEA430C7FEA6C5CD6D152EA033CD3D05DF8040B704700BFCD
S32D0000CC308446104662468C461946634600E000BF01B5FFF7B7FF002848BF10F1000F01BD4DF808EDFFF7F4FF13
S32D0000CC580CBF012000205DF808FB00BF4DF808EDFFF7EAFF34BF012000205DF808FB00BF4DF808EDFFF7E0FF18
S32D0000CC8094BF012000205DF808FB00BF4DF808EDFFF7CEFF94BF012000205DF808FB00BF4DF808EDFFF7C4FF40
S32D0000CCA834BF012000205DF808FB00BF4FEA410212F5001215D211D56FF47873B3EB625212D94FEAC12343F0D6
S32D0000CCD0004343EA505311F0004F23FA02F018BF404270474FF00000704750EA013005D111F0004008BF6FF016
S32D0000CCF8004070474FF00000704700BF4A0011D212F5001211D20DD56FF47873B3EB62520ED44FEAC12343F085
S32D0000CD20004343EA505323FA02F070474FF00000704750EA013002D14FF0FF3070474FF0000070474FEA410241
S32D0000CD48B2F1E04324BFB3F5001CDCF1FE5C0DD901F0004C4FEAC0024CEA5070B2F1004F40EB830008BF20F09E
S32D0000CD700100704711F0804F21D113F13872BCBF01F00040704741F480114FEA5252C2F11802C2F1200C10FAB1
S32D0000CD980CF320FA02F018BF40F001004FEAC1234FEAD32303FA0CFC40EA0C0023FA02F34FEA4303CCE77FEA26
S32D0000CDC0625307D150EA01331EBF4FF0FE4040F44000704701F0004040F0FE4040F40000704700BF80F00040CC
S32D0000CDE802E000BF81F0004142001FBF5FEA410392EA030F7FEA226C7FEA236C6AD04FEA1262D2EB1363C1BF06
S32D0000CE10D218414048404140B8BF5B42192B88BF704710F0004F40F4000020F07F4018BF404211F0004F41F4FA
S32D0000CE38000121F07F4118BF494292EA030F3FD0A2F1010241FA03FC10EB0C00C3F1200301FA03F100F000432B
S32D0000CE6002D5494260EB4000B0F5000F13D3B0F1807F06D340084FEA310102F10102FE2A51D2B1F1004F40EB94
S32D0000CE88C25008BF20F0010040EA03007047490040EB000010F4000FA2F10102EDD1B0FA80FCACF1080CB2EB5F
S32D0000CEB00C0200FA0CF0AABF00EBC25052421843BCBFD0401843704792F0000F81F4000106BF80F400000132EB
S32D0000CED8013BB5E74FEA41037FEA226C18BF7FEA236C21D092EA030F04D092F0000F08BF0846704790EA010FD7
S32D0000CF001CBF0020704712F07F4F04D1400028BF40F00040704712F100723CBF00F50000704700F0004343F0DC
S32D0000CF28FE4040F4000070477FEA226216BF08467FEA23630146420206BF5FEA412390EA010F40F480007047C1
S32D0000CF504FF0000304E000BF10F0004348BF40425FEA000C08BF704743F0964301464FF000001CE050EA010264
S32D0000CF7808BF70474FF000030AE000BF50EA010208BF704711F0004302D5404261EB41015FEA010C02BF84465B
S32D0000CFA00146002043F0B64308BFA3F18053A3F50003BCFA8CF2083AA3EBC25310DB01FA02FC634400FA02FC6B
S32D0000CFC8C2F12002BCF1004F20FA02F243EB020008BF20F00100704702F1200201FA02FCC2F1200250EA4C0034
S32D0000CFF021FA02F243EB020008BF20EADC7070474FF0FF0C1CEAD0521EBF1CEAD15392EA0C0F93EA0C0F6FD019
S32D0000D0181A4480EA010C400218BF5FEA41211ED04FF0006343EA501043EA5111A0FB01310CF00040B1F5000FE7
S32D0000D0403EBF490041EAD3715B0040EA010062F17F02FD2A1DD8B3F1004F40EBC25008BF20F00100704790F058
S32D0000D068000F0CF0004C08BF49024CEA502040EA51207F3AC2BFD2F1FF0340EAC250704740F400004FF0000388
S32D0000D090013A5DDC12F1190FDCBF00F000407047C2F10002410021FA02F1C2F1200200FA02FC5FEA310040F1D5
S32D0000D0B8000053EA4C0308BF20EADC70704792F0000F00F0004C02BF400010F4000F013AF9D040EA0C0093F04C
S32D0000D0E0000F01F0004C02BF490011F4000F013BF9D041EA0C018FE70CEAD15392EA0C0F18BF93EA0C0F0AD00B
S32D0000D10830F0004C18BF31F0004CD8D180EA010000F00040704790F0000F17BF90F0004F084691F0000F91F0BB
S32D0000D130004F14D092EA0C0F01D142020FD193EA0C0F03D14B0218BF084608D180EA010000F0004040F0FE4051
S32D0000D15840F40000704740F0FE4040F4400070474FF0FF0C1CEAD0521EBF1CEAD15392EA0C0F93EA0C0F69D044
S32D0000D180A2EB030280EA010C49024FEA402037D04FF0805343EA111143EA10130CF000408B4238BF5B0042F14E
S32D0000D1A87D024FF4000C8B4224BF5B1A40EA0C00B3EB510F24BFA3EB510340EA5C00B3EB910F24BFA3EB9103A4
S32D0000D1D040EA9C00B3EBD10F24BFA3EBD10340EADC001B0118BF5FEA1C1CE0D1FD2A3FF650AF8B4240EBC25018
S32D0000D1F808BF20F0010070470CF0004C4CEA50207F32C2BFD2F1FF0340EAC250704740F400004FF00003013AF1
S32D0000D22037E792F0000F00F0004C02BF400010F4000F013AF9D040EA0C0093F0000F01F0004C02BF490011F4C9
S32D0000D248000F013BF9D041EA0C0195E70CEAD15392EA0C0F08D142027FF47DAF93EA0C0F7FF470AF084676E7AE
S32D0000D27093EA0C0F04D14B023FF44CAF08466EE730F0004C18BF31F0004CCAD130F000427FF45CAF31F0004376
S32D0000D2987FF43CAF5FE700BF4FF0FF3C06E000BF4FF0010C02E000BF4FF0010C4DF804CD4FEA40024FEA41039F
S32D0000D2C07FEA226C18BF7FEA236C11D001B052EA530C18BF90EA010F58BFB2EB030088BFC81738BF6FEAE1706E
S32D0000D2E818BF40F0010070477FEA226C02D15FEA402C05D17FEA236CE4D15FEA412CE1D05DF8040B704700BF16
S32D0000D310844608466146FFE70FB5FFF7C9FF002848BF10F1000F0FBD4DF808EDFFF7F4FF0CBF012000205DF839
S32D0000D33808FB00BF4DF808EDFFF7EAFF34BF012000205DF808FB00BF4DF808EDFFF7E0FF94BF012000205DF8A9
S32D0000D36008FB00BF4DF808EDFFF7D2FF94BF012000205DF808FB00BF4DF808EDFFF7C8FF34BF012000205DF8B1
S32D0000D38808FB00BF4FEA4002B2F1FE4F0FD34FF09E03B3EB12620DD94FEA002343F0004310F0004F23FA02F060
S32D0000D3B018BF404270474FF00000704712F1610F01D1420205D110F0004008BF6FF0004070474FF00000704797
S32D0000D3D880B483B000AF78607B6823F00043184607F10C07BD4680BC704700BF0000000080B584B000AF7860F2
S32D0000D40078681149FFF7FCFD03461846FFF764F902460B461046194609A3D3E90023FFF7D9FA02460B4610464A
S32D0000D4281946FFF743FC0346FB60FB68184607F11007BD4680BD00BFFFBFECC95C47214000004042AFF30080B4
S32D0000D45080B584B000AF78607868FFF73DF902460B46104619461AA3D3E90023FFF788F902460B461046194603
S32D0000D47817A3D3E90023FFF7A9FA02460B4610461946FFF75BFC0346FB60F868FFF720F902460B461046194658
S32D0000D4A00FA3D3E90023FFF76BF902460B4610461946FFF747FC0346BB60B868FFF79CFF0346184607F1100721
S32D0000D4C8BD4680BDAFF3008044174154FB2109400000000000806640CDCCCCCCCCCC124080B584B000AF78604E
S32D0000D4F039604FF0640004F0EFFC41F23C10C1F6FF7005F057F941F24010C1F6FF7005F051F94FF0640004F08A
S32D0000D518DFFC3868FFF76CFF0346FB607868FFF717FD034641F24410C1F6FF70194602F0D7F97B68C3F10003CA
S32D0000D5401846FFF709FD034641F24C10C1F6FF70194602F0C9F97868FFF7FEFC034641F25410C1F6FF7019461D
S32D0000D56802F0BEF97B68C3F100031846FFF7F0FC034641F25C10C1F6FF70194602F0B0F961E041F24C40C1F653
S32D0000D590FF7006F0C5FA41F24C40C1F6FF7048F63051C0F2010106F067FD41F24C40C1F6FF70396806F0A8FD76
S32D0000D5B841F24C40C1F6FF7048F64051C0F2010106F024FE41F24C40C1F6FF7048F64851C0F2010106F04CFD16
S32D0000D5E041F24C40C1F6FF70F96806F027FE41F24C40C1F6FF7048F66051C0F2010106F03BFD41F24010C1F6CC
S32D0000D608FF7005F0BFF8034641F24C40C1F6FF70194606F00FFE41F24C40C1F6FF7048F67451C0F2010106F0B7
S32D0000D63023FD41F23C10C1F6FF7005F0A7F8034641F24C40C1F6FF70194606F0F7FD41F23C10C1F6FF7005F062
S32D0000D65899F80246FB689A4209DB41F24010C1F6FF7005F08FF80246FB689A4202DA4FF0010301E04FF00003BA
S32D0000D680002B82D141F24410C1F6FF7002F0DCF841F24C10C1F6FF7002F0D6F841F25410C1F6FF7002F0D0F89F
S32D0000D6A841F25C10C1F6FF7002F0CAF84FF0640004F00EFC07F11007BD4680BD80B584B000AF786039604FF023
S32D0000D6D0640004F001FC41F23C10C1F6FF7005F069F841F24010C1F6FF7005F063F84FF0640004F0F1FB3868C0
S32D0000D6F8FFF77EFE0346FB607B68C3F100031846FFF726FC034641F24410C1F6FF70194602F0E6F87868FFF7E3
S32D0000D7201BFC034641F24C10C1F6FF70194602F0DBF87B68C3F100031846FFF70DFC034641F25410C1F6FF70A5
S32D0000D748194602F0CDF87868FFF702FC034641F25C10C1F6FF70194602F0C2F861E041F24C40C1F6FF7006F094
S32D0000D770D7F941F24C40C1F6FF7048F63051C0F2010106F079FC41F24C40C1F6FF70396806F0BAFC41F24C4007
S32D0000D798C1F6FF7048F64051C0F2010106F036FD41F24C40C1F6FF7048F64851C0F2010106F05EFC41F24C4012
S32D0000D7C0C1F6FF70F96806F039FD41F24C40C1F6FF7048F66051C0F2010106F04DFC41F24010C1F6FF7004F024
S32D0000D7E8D1FF034641F24C40C1F6FF70194606F021FD41F24C40C1F6FF7048F67451C0F2010106F035FC41F2AC
S32D0000D8103C10C1F6FF7004F0B9FF034641F24C40C1F6FF70194606F009FD41F23C10C1F6FF7004F0ABFF0246B8
S32D0000D838FB689A4209DB41F24010C1F6FF7004F0A1FF0246FB689A4202DA4FF0010301E04FF00003002B82D11B
S32D0000D86041F24410C1F6FF7001F0EEFF41F24C10C1F6FF7001F0E8FF41F25410C1F6FF7001F0E2FF41F25C1054
S32D0000D888C1F6FF7001F0DCFF4FF0640004F020FB07F11007BD4680BD80B584B000AF786039604FF0640004F05F
S32D0000D8B013FB41F23C10C1F6FF7004F07BFF41F24010C1F6FF7004F075FF4FF0640004F003FB3868FFF7BCFD34
S32D0000D8D80346FB607B68C3F100031846FFF738FB034641F24410C1F6FF70194601F0F8FF7B68C3F10003184628
S32D0000D900FFF72AFB034641F24C10C1F6FF70194601F0EAFF7B68C3F100031846FFF71CFB034641F25410C1F60B
S32D0000D928FF70194601F0DCFF7B68C3F100031846FFF70EFB034641F25C10C1F6FF70194601F0CEFF61E041F2A1
S32D0000D9504C40C1F6FF7006F0E3F841F24C40C1F6FF7048F68851C0F2010106F085FB41F24C40C1F6FF7039687A
S32D0000D97806F0C6FB41F24C40C1F6FF7048F69851C0F2010106F042FC41F24C40C1F6FF7048F64851C0F2010166
S32D0000D9A006F06AFB41F24C40C1F6FF70F96806F045FC41F24C40C1F6FF7048F66051C0F2010106F059FB41F27C
S32D0000D9C84010C1F6FF7004F0DDFE034641F24C40C1F6FF70194606F02DFC41F24C40C1F6FF7048F67451C0F2A6
S32D0000D9F0010106F041FB41F23C10C1F6FF7004F0C5FE034641F24C40C1F6FF70194606F015FC41F23C10C1F6AF
S32D0000DA18FF7004F0B7FE0246FB689A4209DB41F24010C1F6FF7004F0ADFE0246FB689A4202DA4FF0010301E08E
S32D0000DA404FF00003002B82D141F24410C1F6FF7001F0FAFE41F24C10C1F6FF7001F0F4FE41F25410C1F6FF700D
S32D0000DA6801F0EEFE41F25C10C1F6FF7001F0E8FE4FF0640004F02CFA07F11007BD4680BD80B584B000AF78601B
S32D0000DA9039604FF0640004F01FFA41F23C10C1F6FF7004F087FE41F24010C1F6FF7004F081FE4FF0640004F04E
S32D0000DAB80FFA3868FFF7C8FC0346FB607868FFF747FA034641F24410C1F6FF70194601F007FF7868FFF73CFACA
S32D0000DAE0034641F24C10C1F6FF70194601F0FCFE7868FFF731FA034641F25410C1F6FF70194601F0F1FE7868AA
S32D0000DB08FFF726FA034641F25C10C1F6FF70194601F0E6FE61E041F24C40C1F6FF7005F0FBFF41F24C40C1F60C
S32D0000DB30FF7048F6A451C0F2010106F09DFA41F24C40C1F6FF70396806F0DEFA41F24C40C1F6FF7048F6985184
S32D0000DB58C0F2010106F05AFB41F24C40C1F6FF7048F64851C0F2010106F082FA41F24C40C1F6FF70F96806F082
S32D0000DB805DFB41F24C40C1F6FF7048F66051C0F2010106F071FA41F24010C1F6FF7004F0F5FD034641F24C409F
S32D0000DBA8C1F6FF70194606F045FB41F24C40C1F6FF7048F67451C0F2010106F059FA41F23C10C1F6FF7004F016
S32D0000DBD0DDFD034641F24C40C1F6FF70194606F02DFB41F23C10C1F6FF7004F0CFFD0246FB689A4209DB41F29F
S32D0000DBF84010C1F6FF7004F0C5FD0246FB689A4202DA4FF0010301E04FF00003002B82D141F24410C1F6FF70DF
S32D0000DC2001F012FE41F24C10C1F6FF7001F00CFE41F25410C1F6FF7001F006FE41F25C10C1F6FF7001F000FEBF
S32D0000DC484FF0640004F044F907F11007BD4680BD90B583B000AF78604FF0C80004F038F977E241F2B440C1F629
S32D0000DC70FF7009F03DFE034678681946FFF7B6F803464FF0010214461846DFF85015FFF773FB0346002B02D18D
S32D0000DC984FF000031C46E3B2002B64D041F24C40C1F6FF7005F038FF41F24C40C1F6FF7048F6CC51C0F20101C1
S32D0000DCC006F0A8FA41F24C40C1F6FF7048F6D851C0F2010106F0D0F941F2B440C1F6FF7009F006FE034641F219
S32D0000DCE84C40C1F6FF70194606F00AFA41F24410C1F6FF70DFF8E01401F0F2FD41F24C10C1F6FF70DFF8D0143B
S32D0000DD1001F0EAFD41F25410C1F6FF70DFF8C01401F0E2FD41F25C10C1F6FF70DFF8B01401F0DAFD4FF064000A
S32D0000DD3804F0CEF841F24410C1F6FF7001F080FD41F24C10C1F6FF7001F07AFD41F25410C1F6FF7001F074FDAC
S32D0000DD6041F25C10C1F6FF7001F06EFDF5E141F2B440C1F6FF7009F0BBFD034678681946FFF734F803464FF06E
S32D0000DD88010214461846DFF85414FFF7D3FA0346002B02D14FF000031C46E3B2002B60D041F24C40C1F6FF70F0
S32D0000DDB005F0B6FE41F24C40C1F6FF7048F6E051C0F2010106F026FA41F24C40C1F6FF7048F6D851C0F201017E
S32D0000DDD806F04EF941F2B440C1F6FF7009F084FD034641F24C40C1F6FF70194606F088F941F24410C1F6FF7068
S32D0000DE00F94901F071FD41F24C10C1F6FF70F64901F06AFD41F25410C1F6FF70F24901F063FD41F25C10C1F668
S32D0000DE28FF70EF4901F05CFD4FF0640004F050F841F24410C1F6FF7001F002FD41F24C10C1F6FF7001F0FCFCC1
S32D0000DE5041F25410C1F6FF7001F0F6FC41F25C10C1F6FF7001F0F0FC77E141F2B440C1F6FF7009F03DFD034641
S32D0000DE7878681946FEF7B6FF03464FF0010214461846D649FFF774FA0346002B02D14FF000031C46E3B2002B22
S32D0000DEA01ED041F2B440C1F6FF7009F021FD034678681946FEF79AFF03464FF0010214461846CA49FFF73AFA6C
S32D0000DEC80346002B02D14FF000031C46E3B2002B02D04FF0010301E04FF00003002B60D041F24C40C1F6FF7009
S32D0000DEF005F016FE41F24C40C1F6FF7048F6CC51C0F2010106F086F941F24C40C1F6FF7048F6D851C0F2010192
S32D0000DF1806F0AEF841F2B440C1F6FF7009F0E4FC034641F24C40C1F6FF70194606F0E8F841F24410C1F6FF7009
S32D0000DF40A74901F0D1FC41F24C10C1F6FF70A44901F0CAFC41F25410C1F6FF70A04901F0C3FC41F25C10C1F600
S32D0000DF68FF709D4901F0BCFC4FF0640003F0B0FF41F24410C1F6FF7001F062FC41F24C10C1F6FF7001F05CFC4E
S32D0000DF9041F25410C1F6FF7001F056FC41F25C10C1F6FF7001F050FCD7E041F2B440C1F6FF7009F09DFC034682
S32D0000DFB878681946FEF716FF03464FF00102144618468849FFF7D4F90346002B02D14FF000031C46E3B2002B70
S32D0000DFE01ED041F2B440C1F6FF7009F081FC034678681946FEF7FAFE03464FF00102144618467649FFF79AF962
S32D0000E0080346002B02D14FF000031C46E3B2002B02D04FF0010301E04FF00003002B60D041F24C40C1F6FF70C7
S32D0000E03005F076FD41F24C40C1F6FF7048F6E051C0F2010106F0E6F841F24C40C1F6FF7048F6D851C0F201017E
S32D0000E05806F00EF841F2B440C1F6FF7009F044FC034641F24C40C1F6FF70194606F048F841F24410C1F6FF70A8
S32D0000E080594901F031FC41F24C10C1F6FF70564901F02AFC41F25410C1F6FF70524901F023FC41F25C10C1F689
S32D0000E0A8FF704F4901F01CFC4FF0640003F010FF41F24410C1F6FF7001F0C2FB41F24C10C1F6FF7001F0BCFBDD
S32D0000E0D041F25410C1F6FF7001F0B6FB41F25C10C1F6FF7001F0B0FB37E041F24410C1F6FF703D4901F0F8FB34
S32D0000E0F841F24C10C1F6FF70394901F0F1FB41F25410C1F6FF70364901F0EAFB41F25C10C1F6FF70324901F0A3
S32D0000E120E3FB4FF0640003F0D7FE41F24410C1F6FF7001F089FB41F24C10C1F6FF7001F083FB41F25410C1F6F4
S32D0000E148FF7001F07DFB41F25C10C1F6FF7001F077FB41F2B440C1F6FF7009F0C5FB034678681946FEF73EFEEA
S32D0000E17003461846FFF730F903464FF00102144618461B49FFF7F8F80346002B02D14FF000031C46E3B2002B83
S32D0000E1987FF467AD41F24410C1F6FF7001F050FB41F24C10C1F6FF7001F04AFB41F25410C1F6FF7001F044FB11
S32D0000E1C041F25C10C1F6FF7001F03EFB4FF0C80003F082FE07F10C07BD4690BD000034430000F041000034C3CE
S32D0000E1E80000F0C1000000000000803F00000000F0B583B000AF78604FF0640003F068FE41F2B440C1F6FF70F1
S32D0000E21009F04EFB03461846FEF75EFA04460D467868FEF759FA02460B4610461946B8A3D3E90023FEF7F0F880
S32D0000E23802460B464FF001010E4620462946FEF70DFD0346002B02D14FF000031E46F3B2002B00F0938041F2C3
S32D0000E2604C40C1F6FF7005F05BFC41F24C40C1F6FF7048F6B451C0F2010105F0CBFF41F24410C1F6FF70A4495D
S32D0000E28801F02EFB41F24C10C1F6FF70A14901F027FB41F25410C1F6FF709D4901F020FB41F25C10C1F6FF7028
S32D0000E2B09A4901F019FB35E041F2B440C1F6FF7009F0F6FA034641F24C40C1F6FF7019464FF002024FF00C03EF
S32D0000E2D805F0AEFE41F2B440C1F6FF7009F0F4FA034641F24C40C1F6FF7019464FF003024FF00C0305F09CFE95
S32D0000E30041F2B440C1F6FF7009F0F2FA034641F24C40C1F6FF7019464FF004024FF00C0305F08AFE41F2B440F9
S32D0000E328C1F6FF7009F0C0FA03464FF00102144618467968FEF7FEFF0346002B02D14FF000031C46E3B2002B2D
S32D0000E350B2D141F24410C1F6FF7001F075FA41F24C10C1F6FF7001F06FFA41F25410C1F6FF7001F069FA41F2BC
S32D0000E3785C10C1F6FF7001F063FABCE041F2B440C1F6FF7009F090FA03461846FEF7A0F904460D467868FEF784
S32D0000E3A09BF902460B461046194659A3D3E90023FEF734F802460B464FF001010E4620462946FEF76DFC0346C7
S32D0000E3C8002B02D14FF000031E46F3B2002B00F0928041F24C40C1F6FF7005F09DFB41F24C40C1F6FF7048F61C
S32D0000E3F0C051C0F2010105F00DFF41F24410C1F6FF70464901F070FA41F24C10C1F6FF70414901F069FA41F2DC
S32D0000E4185410C1F6FF703F4901F062FA41F25C10C1F6FF703A4901F05BFA35E041F2B440C1F6FF7009F038FA5C
S32D0000E440034641F24C40C1F6FF7019464FF002024FF00C0305F0F0FD41F2B440C1F6FF7009F036FA034641F2BC
S32D0000E4684C40C1F6FF7019464FF003024FF00C0305F0DEFD41F2B440C1F6FF7009F034FA034641F24C40C1F6E0
S32D0000E490FF7019464FF004024FF00C0305F0CCFD41F2B440C1F6FF7009F002FA03464FF00102144618467968D9
S32D0000E4B8FEF75EFF0346002B02D14FF000031C46E3B2002BB2D141F24410C1F6FF7001F0B7F941F24C10C1F622
S32D0000E4E0FF7001F0B1F941F25410C1F6FF7001F0ABF941F25C10C1F6FF7001F0A5F94FF0640003F0E9FC07F1EB
S32D0000E5080C07BD46F0BD00BF9A9999999999C93F0000F0410000F0C1F0B583B000AF78604FF0640003F0D4FC1D
S32D0000E53041F2B440C1F6FF7009F0CAF903461846FEF7CAF804460D467868FEF7C5F802460B4610461946B8A37E
S32D0000E558D3E90023FDF75CFF02460B464FF001010E4620462946FEF779FB0346002B02D14FF000031E46F3B269
S32D0000E580002B00F0938041F24C40C1F6FF7005F0C7FA41F24C40C1F6FF7048F6B451C0F2010105F037FE41F26B
S32D0000E5A84410C1F6FF70A44901F09AF941F24C10C1F6FF70A14901F093F941F25410C1F6FF709D4901F08CF925
S32D0000E5D041F25C10C1F6FF709A4901F085F935E041F2B440C1F6FF7009F062F9034641F24C40C1F6FF701946C3
S32D0000E5F84FF002024FF00C0305F01AFD41F2B440C1F6FF7009F060F9034641F24C40C1F6FF7019464FF00302E8
S32D0000E6204FF00C0305F008FD41F2B440C1F6FF7009F05EF9034641F24C40C1F6FF7019464FF004024FF00C03C7
S32D0000E64805F0F6FC41F2B440C1F6FF7009F03CF903464FF00102144618467968FEF76AFE0346002B02D14FF03B
S32D0000E67000031C46E3B2002BB2D141F24410C1F6FF7001F0E1F841F24C10C1F6FF7001F0DBF841F25410C1F696
S32D0000E698FF7001F0D5F841F25C10C1F6FF7001F0CFF8BCE041F2B440C1F6FF7009F00CF903461846FEF70CF823
S32D0000E6C004460D467868FEF707F802460B461046194659A3D3E90023FDF7A0FE02460B464FF001010E4620466C
S32D0000E6E82946FEF7D9FA0346002B02D14FF000031E46F3B2002B00F0928041F24C40C1F6FF7005F009FA41F2FE
S32D0000E7104C40C1F6FF7048F6C051C0F2010105F079FD41F24410C1F6FF70464901F0DCF841F24C10C1F6FF7005
S32D0000E738414901F0D5F841F25410C1F6FF703F4901F0CEF841F25C10C1F6FF703A4901F0C7F835E041F2B4403B
S32D0000E760C1F6FF7009F0A4F8034641F24C40C1F6FF7019464FF002024FF00C0305F05CFC41F2B440C1F6FF7018
S32D0000E78809F0A2F8034641F24C40C1F6FF7019464FF003024FF00C0305F04AFC41F2B440C1F6FF7009F0A0F898
S32D0000E7B0034641F24C40C1F6FF7019464FF004024FF00C0305F038FC41F2B440C1F6FF7009F07EF803464FF0AE
S32D0000E7D80102144618467968FEF7CAFD0346002B02D14FF000031C46E3B2002BB2D141F24410C1F6FF7001F0EF
S32D0000E80023F841F24C10C1F6FF7001F01DF841F25410C1F6FF7001F017F841F25C10C1F6FF7001F011F84FF059
S32D0000E828640003F055FB07F10C07BD46F0BD00BF9A9999999999C93F0000F0410000F0C1B0B582B000AF03F0E7
S32D0000E8508BFB02460B4610461946FEF773FA03467B601DE041F24C40C1F6FF7005F058F941F24C40C1F6FF7033
S32D0000E87848F6EC51C0F2010105F0C8FC41F26410C1F6FF7003F0B8FF034641F24C40C1F6FF70194605F0E2FCB3
S32D0000E8A041F26410C1F6FF7003F0AAFF03461846FDF712FF02460B464FF001010C46104619461FA3D3E90023B3
S32D0000E8C8FEF7EAF90346002B02D14FF000031C46E3B2002B27D003F043FB04460D467868FDF7F6FE02460B4679
S32D0000E8F020462946FDF790FD02460B464FF001010C46104619464FF000024FF0804303F57813FEF7A7F903461F
S32D0000E918002B02D14FF000031C46E3B2002B02D04FF0010301E04FF00003002B96D107F10807BD46B0BD00BF6F
S32D0000E940666666666666E63F90B585B000AF78604FF0640003F0C0FA7868FEF7FDFA034641F24410C1F6FF700D
S32D0000E968194600F0BDFF7B68C3F100031846FEF7EFFA034641F24C10C1F6FF70194600F0AFFF7868FEF7E4FAF2
S32D0000E990034641F25410C1F6FF70194600F0A4FF7B68C3F100031846FEF7D6FA034641F25C10C1F6FF70194637
S32D0000E9B800F096FF4FF00003FB73A0E041F26410C1F6FF7003F018FF03461846FDF780FE02460B464FF00101B2
S32D0000E9E00C46104619464EA3D3E90023FEF744F90346002B02D14FF000031C46E3B2002B1ED041F24410C1F629
S32D0000EA08FF7000F01DFF41F24C10C1F6FF7000F017FF41F25410C1F6FF7000F011FF41F25C10C1F6FF7000F038
S32D0000EA300BFF4FF00103FB734FF00103BB7362E041F26410C1F6FF7003F0DAFE03461846FDF742FE02460B463E
S32D0000EA584FF001010C46104619462FA3D3E90023FEF71AF90346002B02D14FF000031C46E3B2002B21D041F2C0
S32D0000EA806410C1F6FF7003F0BBFE03461846FDF723FE02460B464FF001010C461046194621A3D3E90023FEF7ED
S32D0000EAA8E7F80346002B02D14FF000031C46E3B2002B02D04FF0010301E04FF00003002B1DD041F24410C1F628
S32D0000EAD0FF7000F0B9FE41F24C10C1F6FF7000F0B3FE41F25410C1F6FF7000F0ADFE41F25C10C1F6FF7000F09F
S32D0000EAF8A7FE4FF00103FB734FF00003BB73FB7B83F00103DBB2002B7FF458AFBB7B184607F11407BD4690BD14
S32D0000EB20666666666666E63F333333333333F33F80B582B000AFAA48FFF78EF8A948FFF7EFFC4FF02800A6492E
S32D0000EB48FEF79EFFA648FFF783F84FF04600A549FEF7C6FCA448FFF77BF84FF04600A149FEF7BEFCA148FFF732
S32D0000EB7073F84FF04600A049FEF7B6FC4FF01400FFF7E2FE0346FB71FB79002B73D041F24C40C1F6FF704FF40F
S32D0000EB987F0104F0E1FF41F24C40C1F6FF7004F0BBFF41F26410C1F6FF7003F025FE034641F24C40C1F6FF7057
S32D0000EBC0194605F0A1FA4FF47A7003F085F94FF028008A49FEF758FF4FF046008849FEF771FD4FF02800874924
S32D0000EBE8FEF74EFF4FF046008549FEF779FC4FF028008449FEF744FF8348FFF729F84FF046007849FEF76CFC0F
S32D0000EC1041F24410C1F6FF707E4900F065FE41F25410C1F6FF707B4900F05EFE41F6641003F052F941F24410D2
S32D0000EC38C1F6FF7000F004FE41F25410C1F6FF7000F0FEFD4FF046006649FEF737FD4FF028006F49FEF720FE5F
S32D0000EC604FF0640003F038F95F48FEF7F5FF6B48FFF7C2FA80E041F24C40C1F6FF704FF0FF0104F06DFF41F2B3
S32D0000EC884C40C1F6FF7004F047FF41F26410C1F6FF7003F0B1FD034641F24C40C1F6FF70194605F02DFA4FF418
S32D0000ECB07A7003F011F94C48FEF7CEFF4FF046005749FEF711FC4FF028005649FEF7DCFE4F48FEF7C1FF41F27E
S32D0000ECD84410C1F6FF704D4900F002FE41F24C10C1F6FF704E4900F0FBFD41F25410C1F6FF70464900F0F4FDAD
S32D0000ED0041F25C10C1F6FF70474900F0EDFD41F6641003F0E1F841F24410C1F6FF7000F093FD41F24C10C1F6CC
S32D0000ED28FF7000F08DFD41F25410C1F6FF7000F087FD41F25C10C1F6FF7000F081FD4FF046002849FEF7BAFCCF
S32D0000ED504FF028003049FEF7A3FD4FF0640003F0BBF82148FEF778FF4FF046002F49FEF7A9FC2A48FFF740FAC9
S32D0000ED781B48FEF76DFF41F22410C1F6FF70184904F03EF941F27C5003F0A2F841F22410C1F6FF70214904F019
S32D0000EDA033F94FF032001649FEF78CFC4FF028001249FEF775FD1148FEF74EFF4FF032000F49FEF791FB4FF07F
S32D0000EDC828001949FEF768FD1848FEF741FF07F10807BD4680BD00BF00003442CDCC6C41000000000000404062
S32D0000EDF00000B2430080B043000060400000A0410000803F0000F0410000C03F00002042000087430000484267
S32D0000EE180000A0420000F4410000E0400000B442000048C200008040000082420000B04280B500AF41F2B44014
S32D0000EE40C1F6FF7008F034FD024641F21C13C1F6FF731A6041F2B440C1F6FF7008F038FD024641F22013C1F629
S32D0000EE68FF731A604FF050005049FEF739FB4FF4967003F02DF84E48FEF7EAFE4FF046004C49FEF72DFB4C48A0
S32D0000EE90FEF7E2FE4FF046004A49FEF725FB4A48FFF73EFB4448FEF7D7FE4FF032004749FEF7EAFD4FF02800F7
S32D0000EEB84549FEF703FC4FF032004449FEF7E0FD4FF01E004249FEF70BFB4FF032003749FEF7D6FD4FF03200CD
S32D0000EEE03D49FEF701FB4FF032003C49FEF7CCFD4FF032003649FEF7F7FA4FF0FA0002F0EBFF4FF03C003249F8
S32D0000EF08FEF7EEFA4FF47A7002F0E2FF4FF032003149FEF7D3FB41F22410C1F6FF702F4904F06EF841F2B440CA
S32D0000EF30C1F6FF7008F0BCFC024641F21C13C1F6FF731A6041F2B440C1F6FF7008F0C0FC024641F22013C1F62A
S32D0000EF58FF731A604FF01E002149FEF7AFFB41F22410C1F6FF70124904F04AF81D48FEF76FFE4FF032001C497E
S32D0000EF80FEF7B2FA41F22410C1F6FF70154904F03BF84FF01E001749FEF794FB41F22410C1F6FF70044904F0A1
S32D0000EFA82FF81348FEF754FE80BD00BF0000C8410000B442000040410000B04200005041000084420000A041CC
S32D0000EFD0000000400000F0410000C03F000020410000003F000028430000A0400000B343000020400000B04072
S32D0000EFF80000000080B500AF4FF032001E49FEF75DFB4FF028001D49FEF73AFD4FF032001B49FEF753FB41F29E
S32D0000F0202410C1F6FF70194903F0EEFF4FF4FA6002F052FF41F22410C1F6FF70144903F0E3FF4FF4FA7002F0E8
S32D0000F04847FF4FF032001149FEF74AFA4FF032000F49FEF715FD4FF046000E49FEF740FA4FF028000C49FEF7C4
S32D0000F07017FC4FF046000B49FEF736FA80BD00BF00000041000070420000A040000020410000B44200004040BB
S32D0000F098000002430000C04000008C420000904180B500AF4FF028001149FEF7E9FC4FF032001049FEF702FB2B
S32D0000F0C04FF47A7002F008FF41F23010C1F6FF700B4903F099FF4FF47A7002F0FDFE41F23010C1F6FF70044984
S32D0000F0E803F08EFF4FF4FA7002F0F2FE80BD00BF0000B442000020410000274380B500AF4FF046001649FEF771
S32D0000F110EBF94FF028001549FEF7C2FB4FF032001149FEF7E1F91248FEF796FD41F24410C1F6FF700D4900F007
S32D0000F138D7FB41F24C10C1F6FF700C4900F0D0FB41F25410C1F6FF70064900F0C9FB41F25C10C1F6FF7005493F
S32D0000F16000F0C2FB80BD00BF000020410000B442000087430000B4C280B500AF41F2B440C1F6FF7007F0C4FE57
S32D0000F18841F24C40C1F6FF704FF0000104F0AEFC41F24C40C1F6FF706FF07F4104F004FD41F24C40C1F6FF70B8
S32D0000F1B048F60861C0F2010105F02CF841F22410C1F6FF7040F2D52103F0E0FE41F22410C1F6FF7040F6A411BF
S32D0000F1D803F0F6FE41F23010C1F6FF7040F2022103F0D0FE41F23010C1F6FF7040F67E1103F0E6FE4FF4FA7091
S32D0000F20002F06AFE41F22410C1F6FF70114903F0FBFE41F23010C1F6FF700E4903F0F4FE4FF47A7002F058FE69
S32D0000F22841F24C40C1F6FF7004F076FC41F24C40C1F6FF7048F61861C0F2010104F0E6FF4FF4FA7002F044FE63
S32D0000F25080BD00BF0000B44280B500AFFFF78CFFFFF7F2FAFFF764FCFFF7E6FDFFF7C6FEFFF71AFFFFF746FF24
S32D0000F2784FF00003184680BD80B582B000AF786039607B68012B50D13A684FF6FF739A424BD141F22410C1F665
S32D0000F2A0FF704FF0060103F053FE41F23010C1F6FF704FF0000103F04BFE41F23C10C1F6FF704FF0090102F052
S32D0000F2C8A9FE41F24010C1F6FF704FF0100102F0A1FE41F24410C1F6FF704FF00001154A00F056FA41F24C10CC
S32D0000F2F0C1F6FF704FF00301104A00F04DFA41F25410C1F6FF704FF001010C4A00F044FA41F25C10C1F6FF70AF
S32D0000F3184FF00201074A00F03BFA41F26410C1F6FF704FF0040103F055FA07F10807BD4680BD00BF0000A040D6
S32D0000F34080B500AF4FF001004FF6FF71FFF798FF80BD00BF80B500AF41F21872C1F6FF7241F21C13C1F6FF73E9
S32D0000F368D31A194641F21C13C1F6FF731A460B4610464FF000011A4608F04BFC80BD00BF09F0C0FC00F0B0F970
S32D0000F390FFF7E0FF09F092FC09F02EFC09F0C6FC00F00CF84FF0000041F26811C1F6FF71FFF752FF0346184621
S32D0000F3B808F00AFC80B500AF4FF4E043C4F204034FF4E042C4F2040202F5805202F13802126842F4785203F599
S32D0000F3E0805303F138031A6000F02EF900F094F841F29833C1F6FF734FF058021A6041F29833C1F6FF731B680C
S32D0000F4084FF47A7202FB03F241F29433C1F6FF731A6041F29433C1F6FF731B681A464FF4E043C4F2040303F5F7
S32D0000F430825303F104031B6803F070634FEA136303F10103B2FBF3F31A4641F29C33C1F6FF731A604FF4E043F0
S32D0000F458C4F204034FF4E042C4F2040202F5805202F13C02126842F0225203F5805303F13C031A604FF4E043B0
S32D0000F480C4F204034FF4E042C4F2040202F5805202F13002126842F0006203F5805303F130031A604FF4504342
S32D0000F4A8C4F203034FF480721A614FF0640002F0A3FB4FF45043C4F203034FF45042C4F20302526922F0100296
S32D0000F4D05A614FF45043C4F203034FF000021A604FF45043C4F203034FF010025A6103F0B9FA03F061FB41F240
S32D0000F4F89030C1F6FF7002F003FC41F24C40C1F6FF7004F041F941F2883002F0E1FC80BD80B400AF4FF480431C
S32D0000F520C4F206034FF000025A704FF48043C4F206034FF098021A704FF48043C4F206039B79DBB203F010035F
S32D0000F548002B0CBF00230123DBB2002BF0D14FF48043C4F206039B79DBB203F00C034FEA9303022B0CBF00238D
S32D0000F5700123DBB2002BEED14FF48043C4F206034FF018021A714FF48043C4F206034FF000025A714FF4E043F2
S32D0000F598C4F2040303F5825303F104034FF00002C0F213121A604FF48043C4F206034FF054025A7100BF4FF407
S32D0000F5C08043C4F206039B79DBB203F02003002B14BF00230123DBB2002BF0D100BF4FF48043C4F206039B798E
S32D0000F5E8DBB203F04003002B14BF00230123DBB2002BF0D14FF48043C4F206034FF48042C4F206021278D2B2DE
S32D0000F61002F03F02D2B21A704FF48043C4F206039B79DBB203F00C034FEA9303032B0CBF00230123DBB2002B5C
S32D0000F638EED14FF000031846BD4680BC704700BF80B400AF4FF44043C4F204034FF480725A634FF2C003C4F27E
S32D0000F6600F034FF2C002C4F20F02526942F400525A614FF2C003C4F20F034FF2C002C4F20F02126842F400520A
S32D0000F6881A604FF44043C4F2040340F20312C0F20A021A634FF46143CEF200034FF46142CEF20002D2F8882110
S32D0000F6B042F08062C3F888214FF46143CEF200034FF46142CEF20002926842F080629A60BD4680BC704700BFA5
S32D0000F6D880B483B000AF7860FEE700BF80B400AF00BEBD4680BC704780B400AF4FF0E0224CF20003C0F20003C1
S32D0000F700C2F8083D4FF40053C4F205034CF22052DA814FF40053C4F205034DF62812DA814FF40053C4F20503FD
S32D0000F7284FF0D2021A80BD4680BC704780B500AF4FF44043C4F20403D3F8A03003F48053002B0CBF0023012307
S32D0000F750DBB2002B1FD04FF44043C4F204034FF44042C4F20402D2F8A02022F48052C3F8A02041F2D440C1F6F5
S32D0000F778FF7008F0AFF94FF2C003C4F20F034FF2C002C4F20F02126822F400521A6080BD90B585B000AFF860A4
S32D0000F7A00B467A60FB72FB68FA7A1A71FB684FF000025A714FF001031C4678682049FDF7DBFD0346002B02D1D1
S32D0000F7C84FF000031C46E3B2002B02D01A4B7B6011E04FF001031C4678681849FDF7B4FD0346002B02D14FF09B
S32D0000F7F000031C46E3B2002B01D0124B7B607868FCF76AFF02460B46104619460AA3D3E90023FCF7B5FF0246B8
S32D0000F8180B4610461946FDF791FA0246FB681A60FB68184607F11407BD4690BDAFF30080ABAAAAAAAAAA204075
S32D0000F840000040410000803F80B582B000AF78607B685B79002B10D07B684FF000025A717B681B7941F2903051
S32D0000F868C1F6FF7019464FF000024FF01E0302F091FA07F10807BD4680BD00BF80B584B000AF786039603B689D
S32D0000F8907F2B03DD4FF07F03FB7309E03B6813F1800F03DA4FF08003FB7301E03B68FB737B685B79FA7B9A426B
S32D0000F8B80FD07B68FA7B5A717B681A79FB7B41F29030C1F6FF7011461A464FF01E0302F061FA07F11007BD46A5
S32D0000F8E080BD00BF00000000B0B584B000AF786039604FF001031C4638684D49FDF71EFD0346002B02D14FF0D5
S32D0000F90800031C46E3B2002B02D0474B3B6011E04FF001031C4638684449FDF729FD0346002B02D14FF0000347
S32D0000F9301C46E3B2002B01D03E4B3B603868FCF7CBFE04460D467B681B681846FCF7C4FE02460B4610461946D2
S32D0000F9584FF000024FF0804303F5B203FDF736F802460B4620462946FCF706FF02460B4610461946FDF7E2F9EC
S32D0000F98003463B604FF001031C4638682A49FDF7E9FC0346002B02D14FF000031C46E3B2002B14D03868FCF7C2
S32D0000F9A897FE02460B46104619461DA3D3E90023FCF7E2FE02460B4610461946FDF776F90346FB6022E03868E5
S32D0000F9D0FCF782FE02460B46104619464FF000024FF0804303F5C003FCF7CAFE02460B46104619464FF0000200
S32D0000F9F84FF0804303F5B203FCF7E8FF02460B4610461946FDF752F90346FB607868F968FFF734FF07F11007AE
S32D0000FA20BD46B0BDAFF3008052B81E85EB51F43F0000C8C20000C84200000000AFF3008080B485B000AF0246F4
S32D0000FA480B46FA71BB71BB79002B07D141F26C13C1F6FF734FF000021A7006E041F26C13C1F6FF734FF00102C8
S32D0000FA701A704FF03803FB7341F26C13C1F6FF731A78FB7B1343FB734FF4C043C4F206034FF4C042C4F2060247
S32D0000FA989278D2B242F01002D2B29A704FF4C043C4F206034FF4C042C4F206029278D2B242F02002D2B29A7068
S32D0000FAC04FF4C043C4F20603FA7B1A7107F11407BD4680BC704700BF80B483B000AF4FF001037B6004E000BF74
S32D0000FAE87B6803F101037B607B68312BCCBF00230123DBB2002BF2D107F10C07BD4680BC704700BF80B582B087
S32D0000FB1000AF02460B46FA71BB7141F26D13C1F6FF731B7818464FF00001FFF789FF4FF4C043C4F20603DB7805
S32D0000FB38DBB203F00203002B14BF00230123DBB2002BF0D14FF4C043C4F206034FF4C042C4F20602D278D2B286
S32D0000FB6042F00202D2B2DA704FF4C043C4F20603FA791A714FF4C043C4F20603DB78DBB203F00203002B14BF95
S32D0000FB8800230123DBB2002BF0D14FF4C043C4F206034FF4C042C4F20602D278D2B242F00202D2B2DA704FF472
S32D0000FBB0C043C4F20603BA791A714FF4C043C4F20603DB78DBB203F00203002B14BF00230123DBB2002BF0D10C
S32D0000FBD84FF4C043C4F206034FF4C042C4F20602D278D2B242F00202D2B2DA704FF4C043C4F206034FF4C042DB
S32D0000FC00C4F206029278D2B222F02002D2B29A704FF4C043C4F206034FF4C042C4F206029278D2B222F010020E
S32D0000FC28D2B29A70FFF754FF07F10807BD4680BD80B582B000AF0346FB71FB79184600F06BF807F10807BD4696
S32D0000FC5080BD00BF80B582B000AF02460B46FA71BB7100F039F8FB794FEA4303DBB21846FFF7E2FFBB791846DC
S32D0000FC78FFF7DEFF00F03EF807F10807BD4680BD80B500AF4FF0FF0000F046F80346184680BD00BF80B584B0C2
S32D0000FCA000AF0346FB7100F017F8FB794FEA4303DBB243F00103DBB2DBB21846FFF7BCFFFFF7E2FF0346FB7365
S32D0000FCC800F018F8FB7B184607F11007BD4680BD80B400AF4FF24003C4F20F034FF24002C4F20F02926842F442
S32D0000FCF080129A60BD4680BC704700BF80B400AF4FF24003C4F20F034FF24002C4F20F02526842F480125A60F0
S32D0000FD18BD4680BC704700BF80B485B000AF0346FB714FF00003BB7303E0FB7B03F10103FB734FF44043C4F290
S32D0000FD400A03DB6A4FF00003002BF2D14FF44043C4F20A034FF44042C4F20A02D26A42F00042DA624FF4404351
S32D0000FD68C4F20A03FA795A6300BF4FF44043C4F20A03DB6A03F40033002B14BF00230123DBB2002BF1D14FF4C1
S32D0000FD904043C4F20A039B6BBB73BB7B184607F11407BD4680BC704780B582B000AF4FF4E043C4F204034FF4B2
S32D0000FDB8E042C4F2040202F5805202F13002126842F4805203F5805303F130031A604FF42043C4F204034FF4BD
S32D0000FDE080721A654FF24003C4F20F034FF24002C4F20F02526942F480125A61FFF77EFF4FF42043C4F20403DA
S32D0000FE084FF400725A654FF42043C4F204034FF400729A654FF42043C4F204034FF40072DA654FF44043C4F26E
S32D0000FE300A034FF44062C8F200021A604FF44043C4F20A034FF00502C3F60062DA604FF000037B6007E04FF015
S32D0000FE58FF00FFF7EDFE7B6803F101037B607B68092BCCBF00230123DBB2002BEFD104A1D1E9000102F048F8F3
S32D0000FE8007F10807BD4680BD9A9999999999B93F90B486B000AFF860B9607A60FA684FF42043C4F206039A4267
S32D0000FEA814D14FF4E043C4F204034FF4E042C4F2040202F5805202F13402126842F4806203F5805303F1340389
S32D0000FED01A6083E0FA684FF43043C4F206039A4214D14FF4E043C4F204034FF4E042C4F2040202F5805202F18F
S32D0000FEF83402126842F4006203F5805303F134031A6067E0FA684FF44043C4F206039A4214D14FF4E043C4F219
S32D0000FF2004034FF4E042C4F2040202F5805202F13402126842F4805203F5805303F134031A604BE0FA684FF4D7
S32D0000FF485043C4F206039A4214D14FF4E043C4F204034FF4E042C4F2040202F5805202F13402126842F4005240
S32D0000FF7003F5805303F134031A602FE0FA684FF42043C4F20E039A4214D14FF4E043C4F204034FF4E042C4F216
S32D0000FF98040202F5805202F12802126842F4806203F5805303F128031A6013E04FF4E043C4F204034FF4E042DE
S32D0000FFC0C4F2040202F5805202F12802126842F4006203F5805303F128031A60FB68DB78DBB223F00C03DAB20A
S32D0000FFE8FB68DA70FB684FF000029A70BB684FF47A7202FB03F27B684FEA031392FBF3F39CB2FB681B78DBB2D6
S32D0001001023F01F03FB75234603F4F8534FEA2323DBB203F01F03DAB2FB7D1343DAB2FB681A70E2B2FB685A70BC
S32D00010038BB684FF4FA4202FB03F27B684FEA031392FBF3F39AB2234619464FEAC121CB1A4FEA43139BB2D31885
S32D000100609CB2FB689B7ADBB223F01F03FB75E3B203F01F03DAB2FB7D1343DAB2FB689A72FB68DB78DBB243F004
S32D000100880C03DAB2FB68DA7007F11807BD4690BC704700BF80B483B000AF786000BF7B681B79DBB203F020035E
S32D000100B0002B14BF00230123DBB2002BF3D17B68DB79DBB2184607F10C07BD4680BC704780B483B000AF78604F
S32D000100D80B46FB7000BF7B681B79DBB2DBB26FEA0303DBB24FEAD313DBB2002BF3D17B68FA78DA7107F10C07BB
S32D00010100BD4680BC704700BF80B487B000AFF860B9607A60FB687B6107E0BB68DAB27B691A707B6903F1010397
S32D000101287B617B68002B0CBF00230123DBB27A6802F1FF327A60002BEBD107F11C07BD4680BC704780B584B0DE
S32D0001015000AF786039607B681B6BFB60FA683B689A4264D07B681B79002B43D07B685A787B6803F134031046B9
S32D000101781946FA684FF0010301F0ACFB0346002B0CBF00230123DBB2002B02D04FF001034BE07B684FF000021A
S32D000101A01A717B685A6A7B681B6AD218FB689A4220D97B68DB78FB7214E07B681B6AFA68D318FB607B685A7818
S32D000101C87B6803F1340310461946FA684FF0010301F080FBFB7A03F1FF33FB72FB7A012B94BF00230123DBB264
S32D000101F0002BE2D13B68002B19D07B685A787B6803F13403104619463A684FF0010301F057FA0346002B0CBF6D
S32D0001021800230123DBB2002B02D04FF0010304E07B683A681A634FF00003184607F11007BD4680BD80B584B065
S32D0001024000AF786078684FF00001FFF77FFF0346FB73FB7B002B40F0AE807B681B78032B40F095807B685B791E
S32D00010268002B00F090807B684FF000021A637B6803F1340318464FF000014FF40072FFF73FFF7B684FF055028D
S32D0001029083F832227B684FF0AA0283F833227B684FF0520283F834207B684FF0520283F835207B684FF06102C2
S32D000102B883F836207B684FF0410283F837207B684FF0720283F818227B684FF0720283F819227B684FF0410213
S32D000102E083F81A227B684FF0610283F81B227B681B69DAB27B6883F81C227B681B699BB24FEA2323DAB27B68CA
S32D0001030883F81D227B681B694FEA1343DAB27B6883F81E227B681B694FEA1363DAB27B6883F81F227B68DB6885
S32D00010330DAB27B6883F820227B68DB689BB24FEA2323DAB27B6883F821227B68DB684FEA1343DAB27B6883F8B4
S32D0001035822227B68DB684FEA1363DAB27B6883F823227B6859787B6803F134027B685B69084611461A464FF082
S32D00010380010301F0ABFA7B684FF000025A717B685B7818464FF000014FF0000201F084FB0346002B0CBF00235E
S32D000103A80123DBB2002B02D04FF00103FB73FB7B184607F11007BD4680BD00BF80B582B000AF78600B467B80AB
S32D000103D07B68002B08D07B681B78002B04D07B68DB887A889A4202D04FF009030FE07B685B78184601F0ECFB87
S32D000103F8034603F00103DBB2002B02D04FF0030301E04FF00003184607F10807BD4680BD80B586B000AF78600D
S32D000104207B681A687B689B8810461946FFF7CAFF0346FB75FB7D002B40F0C8807B689B7903F02003002B00F0D2
S32D00010448C1807B689B7903F04003002B20D07B681B6859787B6803F128027B689B69084611461A464FF0010395
S32D0001047001F034FA0346002B0CBF00230123DBB2002B02D04FF00103A1E07B689B7923F04003DAB27B689A71A3
S32D000104987B681A687B68DB6910461946FFF752FE0346FB75FB7D002B40F08C807B681B6A3B613B6903F10B036C
S32D000104C03A6902F10B02127842F02002D2B21A703B6903F11C037A68D268D2B21A703B6903F11D037A68D268C9
S32D000104E892B24FEA2222D2B21A703B6903F11E037A68D2684FEA1242D2B21A703B6903F11F037A68D2684FEA97
S32D000105101262D2B21A703B6903F11A037A681269D2B21A703B6903F11B037A68126992B24FEA2222D2B21A7038
S32D000105383B6903F114037A6812694FEA1242D2B21A703B6903F115037A6812694FEA124292B24FEA2222D2B20E
S32D000105601A704FF00003FB603B6903F11603FA68D2B21A703B6903F11703FA6892B24FEA2222D2B21A703B699D
S32D0001058803F11803FA684FEA1242D2B21A703B6903F11903FA684FEA1262D2B21A707B689B7923F02003DAB2AE
S32D000105B07B689A717B681B684FF001021A717B681B681846FFF73AFE0346FB75FB7D184607F11807BD4680BD23
S32D000105D880B584B000AF78607868FFF719FF0346FB73FB7B002B03D17B684FF000021A60FB7B184607F1100769
S32D00010600BD4680BD80B588B000AF786039604FF080033B614FF00F03FB604FF0FF337B614FF00203FB612AE0FD
S32D000106284FF00103BB611AE0FB69BA6902FB03F33A6802FB03F27B68D31ABB60BB68002B09DBBA687B699A423D
S32D0001065005D2BB687B61FB693B61BB69FB60BB6903F10103BB61BB69102B8CBF00230123DBB2002BDCD1FB6934
S32D000106784FEA4303FB61FB69B3F5807F8CBF00230123DBB2002BCBD14FF48053C4F20B034FF48052C4F20B02D5
S32D000106A0D26A22F00802DA624FF48053C4F20B03DB6A1A464FF00F03CFF6F0731340BB614FF48053C4F20B0356
S32D000106C83A694FEA52024FEA02224FEA02424FEA1242F96801F1FF314FEA0111C9B21143BA690A4342F46022A7
S32D000106F0DA6203E04FF00A0001F0EEFB4FF48053C4F20B035B6A03F00803002B14BF00230123DBB2002BEDD141
S32D000107184FF48053C4F20B034FF48052C4F20B02D26A42F00802DA624FF48053C4F20B034FF48052C4F20B029A
S32D00010740126B42F480121A6307F12007BD4680BD80B582B000AF786039607B684FF000021A604FF48053C4F278
S32D000107680B034FF40042C0F20012DA624FF48053C4F20B03DB6A03F08073002B0CBF00230123DBB2002BF1D113
S32D000107904FF48053C4F20B034FF00002C3F8C0204FF48053C4F20B034FF481325A604FF48053C4F20B034FF0E1
S32D000107B828029A624FF48053C4F20B034FF001125A643B689B6818464CF66041C0F20501FFF714FF4FF4805344
S32D000107E0C4F20B035B6A03F00303002B0CBF00230123DBB2002BF1D14FF45043C4F2040340F243421A604FF4AA
S32D000108085043C4F2040340F243425A604FF45043C4F204034FF488629A604FF45043C4F2040340F24342DA60C2
S32D000108304FF45043C4F2040340F243421A614FF45043C4F2040340F243425A614FF4E043C4F204034FF4E04247
S32D00010858C4F2040202F5805202F13002126842F4003203F5805303F130031A604FF48053C4F20B034FF6FF72E9
S32D000108801A634FF48053C4F20B034FF0B302C0F27F025A634FF48053C4F20B034FF48052C4F20B02D26A42F0EE
S32D000108A80062DA624FF48053C4F20B03DB6A03F00063002B0CBF00230123DBB2002BF1D14FF48053C4F20B037D
S32D000108D05B6A03F48033002B0CBF00230123DBB2002B03D07B684FF001021A604FF48053C4F20B034FF4805234
S32D000108F8C4F20B02126B42F080021A634FF00003184607F10807BD4680BD00BF80B400AF4FF48053C4F20B03FD
S32D000109205B6A1A4640F207331340002B0CBF00230123DBB21846BD4680BC704780B485B000AF78604FF48053A0
S32D00010948C4F20B031B6B1A467B681340FB60FB68002B14BF00230123DBB2002BEED1FB68184607F11407BD464F
S32D0001097080BC704780B584B000AF78607B681B7803F03F0249F21413C0F2010353F82230FB60FB68002B06D156
S32D000109987B681B78002B02D04FF0010330E14FF48053C4F20B034FF48052C4F20B02126B42F080021A634FF4C6
S32D000109C08053C4F20B035B6A03F00103DBB2002BF5D14FF48053C4F20B037A6852689A60FB6823F44003FB60AF
S32D000109E87B685B784FEA835303F44003FA681343FB607B685B78022B03D1FB6843F40013FB607B685B78042B2A
S32D00010A1016D1FB6803F44033B3F5003F08D1FB6823F44033FB60FB6843F44033FB6007E0FB6823F44033FB6064
S32D00010A38FB6843F40033FB604FF48053C4F20B034FF48052C4F20B0252684FEA02424FEA12425A607B68DB6811
S32D00010A60002B32D0FB6803F44033B3F5403F03D0FB6843F40013FB607B681B7A002B03D0FB6843F01003FB60F1
S32D00010A887B68DB68012B03D9FB6843F02003FB607B68DB68B3F1FF3F13D04FF48053C4F20B034FF48052C4F26D
S32D00010AB00B02526811467A68D2684FEA02420A435A60FB6843F00203FB604FF48053C4F20B034FF000021A60CE
S32D00010AD84FF48053C4F20B03FA68DA604FF00100C0F20E00FFF726FF0346012B0CBF00230123DBB2002B10D03F
S32D00010B004FF48053C4F20B034FF48052C4F20B02126B42F4702242F001021A634FF0010372E04FF48053C4F2BC
S32D00010B280B031B6B03F08003002B0CBF00230123DBB2002B0ED04FF48053C4F20B034FF48052C4F20B02126B92
S32D00010B5042F001121A634FF0010355E04FF48053C4F20B031B6B03F48033002B0CBF00230123DBB2002B0ED05F
S32D00010B784FF48053C4F20B034FF48052C4F20B02126B42F001121A634FF0FF3338E0FB6803F44033002B25D0E7
S32D00010BA04FF48053C4F20B031B691A467B681A61FB6803F44033B3F5803F17D14FF48053C4F20B035B691A46F0
S32D00010BC87B685A614FF48053C4F20B039B691A467B689A614FF48053C4F20B03DB691A467B68DA614FF4805392
S32D00010BF0C4F20B034FF48052C4F20B02126B42F001021A634FF00003184607F11007BD4680BD00BF80B592B0E6
S32D00010C1800AF786039604FF00003FB633B68BB6341F28413C1F6FF737B637B6B002B03D140F6012300F0A0BCD0
S32D00010C4041F28833C1F6FF733B633B6B002B03D140F60B2300F094BC3B6B1B68FB62FB6A002B03D140F60B2339
S32D00010C6800F08ABC7B6841F20432934200F0388241F2043293421BD841F20132934238D041F20132934207D8CE
S32D00010C90032B00F03D84092B00F0298400F066BC41F20232934200F0128241F20332934200F0BE8300F05ABC3F
S32D00010CB841F20732934200F04B8341F2073293420BD841F20532934200F0348241F20632934200F0108300F052
S32D00010CE045BC41F20832934200F0B68241F20932934200F0C48200F039BC786B49F20811C0F20101FFF724FD1A
S32D00010D080346FB63FB6B002B40F030844FF0000387F847304FF0000387F82B304FF0000387F82A304FF00003EF
S32D00010D3087F829304FF0000387F846304FF0000387F828304FF000033B724FF000037B724FF00003FB604FF072
S32D00010D5800033B744FF000037B6107F108031846FFF704FE0346002B0CBF00230123DBB2002B03D04FF00103EF
S32D00010D80FB63FCE340F24C4001F0A6F84FF008033B724FF000037B724FF4D573FB604FF000033B744FF000037B
S32D00010DA87B6107F108031846FFF7E0FD03463B643B6C002B0BD1BA69FB689A4203D04FF00103FB63D7E34FF0A7
S32D00010DD0010387F846304FF0010387F8283097F82830002B00F0C6804FF037033B724FF000037B724FF0000302
S32D00010DF8FB604FF000033B744FF000037B6107F108031846FFF7B2FD03463B643B6C002B03D04FF00103FB632E
S32D00010E20ADE34FF069033B724FF000037B724FF00003FB604FF000033B744FF000037B6107F108031846FFF789
S32D00010E4895FD0346002B0CBF00230123DBB2002B03D04FF00103FB638DE3BB6903F44013002B00F083804FF0FC
S32D00010E7000033B644FF00A0001F02EF83B6C03F101033B644FF037033B724FF000037B724FF00003FB604FF0E2
S32D00010E9800033B744FF000037B6107F108031846FFF764FD0346002B0CBF00230123DBB2002B03D04FF001034F
S32D00010EC0FB6336E04FF069033B724FF000037B7297F84630002B05D04FF00003C4F23003FB6002E04FF4401305
S32D00010EE8FB604FF000033B744FF000037B6107F108031846FFF73AFD0346002B0CBF00230123DBB2002B03D0D2
S32D00010F104FF00103FB630CE0BB69002B05DB3B6C632B02D84FF0010301E04FF00003002BA0D1FB6B002B40F024
S32D00010F381F833B6C632B04D94FF0000387F8463014E04FF0010387F8473097F84630002B0CD04FF0000387F8A5
S32D00010F604630BB6903F08043002B03D04FF0010387F8463097F82A30002B03D07B6B4FF007021A6097F8293065
S32D00010F88002B03D07B6B4FF008021A6097F82B30002B03D07B6B4FF004021A6097F84730002B0BD07B6B4FF0D5
S32D00010FB002021A6097F84630002B03D07B6B4FF003021A6097F82B30002B0FD097F84730002B0BD07B6B4FF0C8
S32D00010FD805021A6097F84630002B03D07B6B4FF006021A604FF45043C4F204034FF000021A604FF45043C4F2E5
S32D0001100004034FF000025A604FF45043C4F204034FF000029A604FF45043C4F204034FF00002DA604FF450430D
S32D00011028C4F204034FF000021A614FF45043C4F204034FF000025A61FB6A9A68FB6A5B6810461946FFF7DAFA83
S32D000110504FF45043C4F2040340F243421A604FF45043C4F2040340F243425A604FF45043C4F204034FF48862E9
S32D000110789A604FF45043C4F2040340F24342DA604FF45043C4F2040340F243421A614FF45043C4F2040340F241
S32D000110A043425A614FF4E043C4F204034FF4E042C4F2040202F5805202F13002126842F4003203F5805303F10E
S32D000110C830031A6057E2B86BFFF750FC03463B643B6C002B00F04E824FF00203FB6349E2BB6B002B03D14FF003
S32D000110F00C03FB6343E24FF48053C4F20B03DB6A03F47F434FEA13234FEA43033B644FF48053C4F20B03DB6ABB
S32D0001111803F0F0034FEA131303F101023B6C02FB03F33B64FB6A9A683B6CB2FBF3F2BB6B1A6020E2BB6B002BA0
S32D0001114003D14FF00C03FB6319E2BB6B1B68002B03D14FF00C03FB6311E2FFF7DBFB0346002B14BF0023012364
S32D00011168DBB2002B70D04FF45043C4F204034FF000021A604FF45043C4F204034FF000025A604FF45043C4F2F8
S32D0001119004034FF000029A604FF45043C4F204034FF00002DA604FF45043C4F204034FF000021A614FF45043BB
S32D000111B8C4F204034FF000025A61FB6A9A68BB6B1B6810461946FFF719FA4FF45043C4F2040340F243421A60BD
S32D000111E04FF45043C4F2040340F243425A604FF45043C4F204034FF488629A604FF45043C4F2040340F24342D8
S32D00011208DA604FF45043C4F2040340F243421A614FF45043C4F2040340F243425A614FF4E043C4F204034FF44D
S32D00011230E042C4F2040202F5805202F13002126842F4003203F5805303F130031A6096E140F60A23FB6392E1CA
S32D00011258BB6B002B03D14FF00C03FB638BE14FF48053C4F20B035B684FEAC3434FEAD343BA6B13607FE1BB6BE1
S32D00011280002B03D14FF00C03FB6378E1FFF742FB0346002B14BF00230123DBB2002B2AD0BB6B1A6840F6FF7378
S32D000112A89A4203D94FF00C03FB6364E14FF48053C4F20B034FF48052C4F20B02526822F4FE5222F03F025A608F
S32D000112D04FF48053C4F20B034FF48052C4F20B0252681146BA6B12684FEAC2424FEAD2420A435A6043E140F6A2
S32D000112F80A23FB633FE1BB6B002B03D14FF00C03FB6338E14FF48053C4F20B039B6A03F006034FEA53033B6429
S32D000113203B6C002B04D1BB6B4FF000021A6026E13B6C012B04D1BB6B4FF001021A601EE13B6C102B04D1BB6BA9
S32D000113484FF002021A6016E14FF00503FB6312E1BB6B002B03D14FF00C03FB630BE1FFF7D5FA0346002B14BF61
S32D0001137000230123DBB2002B56D0BB6B1B68002B16D14FF48053C4F20B034FF48052C4F20B02926A22F00602A6
S32D000113989A624FF48053C4F20B034FF48052C4F20B02926A9A62E6E0BB6B1B68012B18D14FF48053C4F20B0322
S32D000113C04FF48052C4F20B02926A22F006029A624FF48053C4F20B034FF48052C4F20B02926A42F002029A6234
S32D000113E8C9E0BB6B1B68022B16D14FF48053C4F20B034FF48052C4F20B02926A22F006029A624FF48053C4F2E0
S32D000114100B034FF48052C4F20B02926A9A62AEE04FF00503FB63AAE040F60A23FB63A6E0BB6B002B03D14FF067
S32D000114380C03FB639FE04FF48053C4F20B034FF48052C4F20B02D26A42F00062DA624FF48053C4F20B03DB6ABC
S32D0001146003F00063002B0CBF00230123DBB2002BF1D14FF48053C4F20B031B6B03F08003002B0CBF002301233D
S32D00011488DBB2002B0FD04FF48053C4F20B034FF48052C4F20B02126B42F080021A637B6B4FF000021A604FF45A
S32D000114B08053C4F20B035B6A03F48033002B0CBF00230123DBB2002B08D07B6B1B68002B08D17B6B4FF00102A5
S32D000114D81A6003E07B6B4FF000021A607B6B1A68BB6B1A6047E0BB6B4FF01C021A60BB6B03F104034FF0040255
S32D000115001A60BB6B03F108034FF41E721A6036E04FF00200FFF712FA4FF48053C4F20B031B6B03F4E003002B12
S32D000115280CBF00230123DBB2002B0ED04FF48053C4F20B034FF48052C4F20B02126B42F4E0021A634FF00403E2
S32D00011550FB634FF48053C4F20B034FF48052C4F20B02126B42F032021A6308E040F60923FB6304E000BF02E0CF
S32D0001157800BF00E000BFFB6B184607F14807BD4680BD00BF80B489B000AF786039607B687B6141F28413C1F60F
S32D000115A0FF733B613B69002B02D14FF0000381E03B691B68022B0BD03B691B68032B07D03B691B68072B03D042
S32D000115C83B691B68082B0DD14FF48053C4F20B035B6A03F00403002B0CBF00230123DBB2002BF1D13B68FB616D
S32D000115F056E0FB69B3F5007F28BF4FF40073FB60FB6803F103034FEA9303BB613CE04FF48053C4F20B031B6B4F
S32D0001161803F4E003002B0CBF00230123DBB2002B10D04FF48053C4F20B034FF48052C4F20B02126B42F4E002AD
S32D0001164042F020021A634FF0000333E04FF48053C4F20B035B6A03F40063002B14BF00230123DBB2002BF1D19D
S32D000116684FF48053C4F20B031B6A1A467B691A607B6903F104037B61BB6903F1FF33BB61BB69002B0CBF0023D8
S32D000116900123DBB2002BBAD1FA69FB68D31AFB61FB69002B0CBF00230123DBB2002BA0D14FF00103184607F152
S32D000116B82407BD4680BC704780B58EB000AFB9607A600246FA73BB7341F27013C1F6FF737B63FB7B002B02D1B9
S32D000116E0BB7B002B02D14FF0040381E040F20043C1F6FF731B78DBB203F00103DBB2002B02D04FF0030373E029
S32D00011708BB68002B02D14FF000036DE07B6B1B7B002B03D17B684FEA43237B60BB7B012B2CD14FF011033B75C8
S32D000117304FF000037B757B68BB614FF001033B77BB7B3B6207F1140341F202301946FFF761FA0346002B14BF26
S32D0001175800230123DBB2002B3ED0B8684FF40071FFF710FF0346002B0CBF00230123DBB2002B31D04FF00003FB
S32D00011780BB732DE04FF012033B754FF000037B757B68BB614FF001033B77BB7B3B6207F1140341F2023019462F
S32D000117A8FFF734FA0346002B14BF00230123DBB2002B11D0BB7B4FEA4323B8681946FFF7E1FE0346002B0CBF5F
S32D000117D000230123DBB2002B02D04FF00003BB73BB7B002B02D04FF0010301E04FF00003184607F13807BD4678
S32D000117F880BD00BF80B487B000AF786039607B68FB603B687B6155E07B69B3F5007F28BF4FF400733B617A6922
S32D000118203B69D31A7B613B6903F103034FEA93033B613BE04FF48053C4F20B031B6B03F4E003002B0CBF0023B5
S32D000118480123DBB2002B10D04FF48053C4F20B034FF48052C4F20B02126B42F4E00242F010021A634FF0FF333C
S32D000118702EE04FF48053C4F20B035B6A03F48063002B14BF00230123DBB2002BF1D14FF48053C4F20B03FA68C7
S32D0001189812681A62FB6803F10403FB603B6903F1FF333B613B69002B0CBF00230123DBB2002BBBD17B69002BD8
S32D000118C00CBF00230123DBB2002BA1D14FF00103184607F11C07BD4680BC704780B58EB000AFB9607A600246AE
S32D000118E8FA73BB7341F27013C1F6FF737B63FB7B002B02D1BB7B002B02D14FF00403CAE040F20043C1F6FF7343
S32D000119101B78DBB203F00103DBB2002B02D04FF00303BCE040F20043C1F6FF731B78DBB203F00403002B0CBF78
S32D0001193800230123DBB2002B02D04FF00203AAE0BB68002B02D14FF00003A4E07B6B1B7B002B03D17B684FEA63
S32D0001196043237B60BB7B012B2CD14FF018033B754FF000037B757B68BB614FF000033B77BB7B3B6207F11403A7
S32D0001198841F202301946FFF741F90346002B14BF00230123DBB2002B3ED0B8684FF40071FFF728FF0346002B83
S32D000119B00CBF00230123DBB2002B31D04FF00003BB732DE04FF019033B754FF000037B757B68BB614FF0000342
S32D000119D83B77BB7B3B6207F1140341F202301946FFF714F90346002B14BF00230123DBB2002B11D0BB7B4FEAEF
S32D00011A004323B8681946FFF7F9FE0346002B0CBF00230123DBB2002B02D04FF00003BB734FF00D033B754FF027
S32D00011A2800037B757B6B1B69BB614FF000033B774FF000033B6207F1140341F202301946FFF7E4F80346002B2A
S32D00011A500CBF00230123DBB2002B02D04FF001031DE07A6A48F20803CFF6D9731340002B02D04FF0010312E0CC
S32D00011A787B6A03F4F853B3F5106F0CBF00230123DBB2002BC8D1BB7B002B02D04FF0010301E04FF00003184697
S32D00011AA007F13807BD4680BD80B58CB000AF0B463A600246FA71BB7141F27013C1F6FF73BB62FB79002B02D049
S32D00011AC84FF004037AE04FF0010387F82F3040F20043C1F6FF731B78DBB203F00103DBB2002B02D04FF00303AA
S32D00011AF068E0BB79032B5FD801A252F823F000BF111B01001B1B01002D1B01003F1B01004FF0000387F82F30FF
S32D00011B1852E0BB6A9A683B681A604FF0000387F82F3049E03B684FF400721A804FF0000387F82F3040E04FF06E
S32D00011B4009033B724FF000037B72BB6A1B69FB604FF000033B744FF000037B6107F1080341F202301946FFF7BE
S32D00011B6855F80346002B0CBF00230123DBB2002B02D04FF0010321E07B6A03F44003002B11D13B6A4FEA9343CD
S32D00011B9003F07F0303F101027B6A4FEA132303F0030303F1FF3302FA03F23B681A604FF0000387F82F3003E036
S32D00011BB84FF0040387F82F3097F82F30184607F13007BD4680BD00BF80B483B000AF0346FB71FB79002B02D024
S32D00011BE04FF0010305E040F20043C1F6FF731B78DBB2184607F10C07BD4680BC704700BF80B483B000AF7860E4
S32D00011C084FF4E043C4F204034FF4E042C4F2040202F5805202F13802126842F0010203F5805303F138031A6050
S32D00011C304FF00003C4F204037A689A604FF00003C4F204034FF005025A604FF00003C4F204034FF00002C4F2B5
S32D00011C580402126842F001021A6000BF4FF00003C4F204031B6803F08003002B14BF00230123DBB2002BF1D1B8
S32D00011C804FF00003C4F204034FF00002C4F20402126822F001021A6007F10C07BD4680BC704700BF80B582B009
S32D00011CA800AF786039607B68012B0AD13A684FF6FF739A4205D141F29030C1F6FF7000F00FF807F10807BD46DE
S32D00011CD080BD00BF80B500AF4FF001004FF6FF71FFF7E0FF80BD00BF80B483B000AF78607B684FF000021A70A3
S32D00011CF87B68184607F10C07BD4680BC704700BF80B582B000AF78607B681B7883F00103DBB2002B36D04FF4E0
S32D00011D20E043C4F2040303F5805303F128034FF400621A604FF45043C4F204034FF440721A624FF45043C4F21B
S32D00011D4804034FF440725A6241F29433C1F6FF731B684FEAD372D3184FEA63034FF43040C4F20E0019464FF4ED
S32D00011D706142FEF78DF84FF0640000F0ADF87B684FF001021A704FF0010301E04FF00003184607F10807BD4672
S32D00011D9880BD00BF80B582B000AF7860F970BA707B704FF43040C4F20E004FF07F01FEF78BF94FF43040C4F29C
S32D00011DC00E004FF00801FEF783F9FB784FF43040C4F20E001946FEF77BF9BB784FF43040C4F20E001946FEF77D
S32D00011DE873F97B784FF43040C4F20E001946FEF76BF94FF43040C4F20E004FF0FF01FEF763F907F10807BD462D
S32D00011E1080BD00BF80B487B000AFF860B9607A60FA6844F6D353C1F26203A3FB02134FEA9312BB68D3187B61ED
S32D00011E38FA6844F6D353C1F26203A3FB02134FEA93134FF47A7101FB03F3D31AFB60FB684FEAC33244F6D353B6
S32D00011E60C1F26203A3FB02134FEA93127B68D3183B613B694FEAD3337A69D3187B613B694FEA43434FEA534381
S32D00011E883B614FF45043C4F203031B681A467B699A4211D34FF45043C4F203031B681A467B699A420BD14FF422
S32D00011EB05043C4F203035B681A463B699A4202D24FF0010301E04FF00003002BDDD107F11C07BD4680BC7047ED
S32D00011ED880B584B000AF78604FF45043C4F203031B68FB604FF45043C4F203035B68BB607B681846F968BA6847
S32D00011F00FFF788FF07F11007BD4680BD0000000080B584B000AFC7E900014FF45043C4F203031B68FB604FF46A
S32D00011F285043C4F203035B68BB60D7E900010AA3D3E90023FAF720FC02460B4610461946FAF7DCFE0346184643
S32D00011F50F968BA68FFF75EFF07F11007BD4680BD0000000000408F4080B584B000AF4FF45043C4F203031B6801
S32D00011F78FB604FF45043C4F203035B68BB60F868FAF784FB02460B46C7E90023B868FAF77DFB02460B461046BB
S32D00011FA019464FF000024FF0804303F56003FAF711FD02460B46D7E90001FAF72FFA02460B46C7E90023D7E976
S32D00011FC800231046194607F11007BD4680BD00BF80B483B000AF4FF45043C4F203031B684FF47A7202FB03F3B7
S32D00011FF07B604FF45043C4F203035B684FF47A7202FB03F34FEAD3337A68D3187B607B68184607F10C07BD463A
S32D0001201880BC704780B584B000AF78600B46FB704FF00B03FB73FA78FB7B786811461A4600F0ECF87B681846AB
S32D0001204007F11007BD4680BD80B485B000AF78607B68A3F11003002B01DA03F11F034FEA6313FB60FB68012BF3
S32D0001206848D0022B00F08980002B40F0C9804FF46142CEF200024FF46143CEF20003D3F8803119467B68A3F1C3
S32D0001209010004FF01F03C8F200030340002B05DA03F1FF3363F01F0303F101034FF0010000FA03F30B43C2F8DB
S32D000120B880314FF46142CEF200024FF46143CEF200031B6819467B68A3F110004FF01F03C8F200030340002B01
S32D000120E005DA03F1FF3363F01F0303F101034FF0010000FA03F30B43136085E04FF46142CEF200024FF461437A
S32D00012108CEF20003D3F8843119467B68A3F110004FF01F03C8F200030340002B05DA03F1FF3363F01F0303F185
S32D0001213001034FF0010000FA03F30B43C2F884314FF46142CEF200024FF46143CEF200035B6819467B68A3F1A4
S32D0001215810004FF01F03C8F200030340002B05DA03F1FF3363F01F0303F101034FF0010000FA03F30B43536019
S32D0001218042E04FF46142CEF200024FF46143CEF20003D3F8883119467B68A3F110004FF01F03C8F200030340F1
S32D000121A8002B05DA03F1FF3363F01F0303F101034FF0010000FA03F30B43C2F888314FF46142CEF200024FF48F
S32D000121D06143CEF200039B6819467B68A3F110004FF01F03C8F200030340002B05DA03F1FF3363F01F0303F196
S32D000121F801034FF0010000FA03F30B43936000BF07F11407BD4680BC704700BF80B584B000AF786013460A4623
S32D00012220FA70BB707B68FA781A70BB78FB737B681B781A4649F21423C0F201039B5C042B00F2F68001A252F801
S32D0001224823F000BF61220100D52201004923010031240100BD2301004FF41043C4F204037A681278114649F224
S32D000122705822C0F2010252F82110FA7B4FEA024202F4702242F4887242F0030243F821204FF47043C4F20F037A
S32D000122984FF47042C4F20F02526911467A681278104649F25822C0F2010252F8202002F01F024FF0010000FA46
S32D000122C002F26FEA02020A405A614FF06700FFF7BBFEADE04FF42043C4F204037A681278114649F25822C0F22A
S32D000122E8010252F82110FA7B4FEA024202F4702242F4887242F0030243F821204FF24003C4F20F034FF240021D
S32D00012310C4F20F02526911467A681278104649F25822C0F2010252F8202002F01F024FF0010000FA02F26FEA75
S32D0001233802020A405A614FF06800FFF781FE73E04FF43043C4F204037A681278114649F25822C0F2010252F814
S32D000123602110FA7B4FEA024202F4702242F4887242F0030243F821204FF28003C4F20F034FF28002C4F20F02AA
S32D00012388526911467A681278104649F25822C0F2010252F8202002F01F024FF0010000FA02F26FEA02020A4076
S32D000123B05A614FF06900FFF747FE39E04FF45043C4F204037A681278114649F25822C0F2010252F82110FA7B97
S32D000123D84FEA024202F4702242F4887242F0030243F821204FF47143C4F20F034FF47142C4F20F025269114660
S32D000124007A681278104649F25822C0F2010252F8202002F01F024FF0010000FA02F26FEA02020A405A614FF015
S32D000124286B00FFF70DFE00BF07F11007BD4680BDB0B48BB000AF48F62463C0F2010307F104041D460FCD0FC430
S32D0001245095E80F0084E80F004FF000037B6248E04FF42043C4F20403D3F8A0301A467B6A4FEA830307F12800ED
S32D00012478C31853F8243C4FF0010101FA03F31340002B0CBF00230123DBB2002B29D041F2C033C1F6FF737A6A09
S32D000124A053F8223003F1010141F2C033C1F6FF737A6A43F822104FF42043C4F204034FF42042C4F20402D2F84C
S32D000124C8A02011467A6A4FEA820207F12800821852F8242C4FF0010000FA02F20A40C3F8A0207B6A03F1010309
S32D000124F07B627B6A072BCCBF00230123DBB2002BAED107F12C07BD46B0BC7047B0B489B000AF48F64463C0F28C
S32D00012518010307F104041D460FCD0FC495E8030084E803004FF00003FB6149E04FF43043C4F20403D3F8A030BA
S32D000125401A46FB694FEA830307F12000C31853F81C3C4FF0010101FA03F31340002B0CBF00230123DBB2002BD9
S32D000125682AD0FB6903F1080241F2C033C1F6FF7353F8223003F1010141F2C033C1F6FF7343F822104FF4304394
S32D00012590C4F204034FF43042C4F20402D2F8A0201146FA694FEA820207F12000821852F81C2C4FF0010000FA6F
S32D000125B802F20A40C3F8A020FB6903F10103FB61FB69052BCCBF00230123DBB2002BADD107F12407BD46B0BC55
S32D000125E0704700BFB0B48DB000AF48F65C63C0F201033C461D460FCD0FC40FCD0FC495E8070084E807004FF0DA
S32D000126080003FB6249E04FF41043C4F20403D3F8A0301A46FB6A4FEA830307F13000C31853F8303C4FF00101AD
S32D0001263001FA03F31340002B0CBF00230123DBB2002B2AD0FB6A03F10E0241F2C033C1F6FF7353F8223003F1FF
S32D00012658010141F2C033C1F6FF7343F822104FF41043C4F204034FF41042C4F20402D2F8A0201146FA6A4FEA73
S32D00012680820207F13000821852F8302C4FF0010000FA02F20A40C3F8A020FB6A03F10103FB62FB6A0A2BCCBF6D
S32D000126A800230123DBB2002BADD107F13407BD46B0BC7047B0B487B000AF48F68863C0F201033C461D460FCD43
S32D000126D00FC42B6823604FF000037B6149E04FF45043C4F20403D3F8A0301A467B694FEA830307F11800C3188F
S32D000126F853F8183C4FF0010101FA03F31340002B0CBF00230123DBB2002B2AD07B6903F1190241F2C033C1F6D0
S32D00012720FF7353F8223003F1010141F2C033C1F6FF7343F822104FF45043C4F204034FF45042C4F20402D2F8DB
S32D00012748A02011467A694FEA820207F11800821852F8182C4FF0010000FA02F20A40C3F8A0207B6903F10103A4
S32D000127707B617B69042BCCBF00230123DBB2002BADD107F11C07BD46B0BC704780B483B000AF78607B681B789E
S32D000127981A4641F2C033C1F6FF7353F82230184607F10C07BD4680BC704700BF80B483B000AF78607B681B7844
S32D000127C01A4641F2C033C1F6FF734FF0000143F8221007F10C07BD4680BC704780B483B000AF78600B46FB70E3
S32D000127E87B68FA781A707B68184607F10C07BD4680BC70470000000080B586B000AF78607B681B781A4649F29E
S32D00012810D823C0F2010353F822303B617B681B781A4649F23423C0F201039B5CFB733B69DBB203F01F03DAB25A
S32D0001283841F2A033C1F6FF731A723B69DBB203F01F03DAB241F2A033C1F6FF735A724FF46143CEF200034FF000
S32D000128601002C3F88820FB7B002B1ED14FF43040C4F2030041F2A031C1F6FF7100F004FB4FF43043C4F203034C
S32D000128881B6803F08003002B14BF00230123DBB2002BF1D14FF43043C4F203031B697B611DE04FF43040C4F231
S32D000128B00B0041F2A031C1F6FF7100F0E5FA4FF43043C4F20B031B6803F08003002B14BF00230123DBB2002B84
S32D000128D8F1D14FF43043C4F20B031B697B614FF46143CEF200034FF46142CEF20002D2F8882142F01002C3F871
S32D0001290088214FF46143CEF200034FF46142CEF20002926842F010029A607B694FEA03434FEA13431846F9F735
S32D00012928B5FE02460B46104619460FA3D3E90023F9F722FF02460B46104619460CA3D3E90023FAF743F802468D
S32D000129500B4610461946FAF7F5F90346BB60BB68184607F11807BD4680BD00BFAFF30080A4703D0AD7A30A4037
S32D0001297800000000E0FFEF4080B586B000AF78607B681B781A4649F2D823C0F2010353F822303B617B681B78BF
S32D000129A01A4649F23423C0F201039B5CFB733B69DBB203F01F03DAB241F2B033C1F6FF731A723B69DBB203F03A
S32D000129C81F03DAB241F2B033C1F6FF735A72FB7B002B1ED14FF43040C4F2030041F2B031C1F6FF7100F04CFABA
S32D000129F04FF43043C4F203031B6803F08003002B14BF00230123DBB2002BF1D14FF43043C4F203031B697B61BC
S32D00012A181DE04FF43040C4F20B0041F2B031C1F6FF7100F02DFA4FF43043C4F20B031B6803F08003002B14BF5B
S32D00012A4000230123DBB2002BF1D14FF43043C4F20B031B697B617B69184607F11807BD4680BD00BF98B500AF78
S32D00012A6841F2A033C1F6FF734FF05C021A7041F2A033C1F6FF734FF010025A7041F2A033C1F6FF7341F23422E7
S32D00012A905A8041F2A033C1F6FF7345F278629A8041F2A033C1F6FF734FF010029A7141F2A033C1F6FF734FF0EA
S32D00012AB80702DA7141F2A033C1F6FF734FF4C022DA6041F2A033C1F6FF734FF01F021A7241F2A033C1F6FF73C3
S32D00012AE04FF01F025A724FF43040C4F2030041F2A031C1F6FF7100F0C7F94FF43040C4F20B0041F2A031C1F625
S32D00012B08FF7100F0BDF94FF43040C4F20B0000F011F94FF43040C4F2030000F00BF94FF43040C4F20B0041F213
S32D00012B30A031C1F6FF7100F0A7F94FF43040C4F2030041F2A031C1F6FF7100F09DF941F2B032C1F6FF7241F261
