S01300002E2E2F46696E616C436F64652E733139F1
S32D0000C0000000002031FE00008D0101008D0101008D0101008D0101008D010100000000000000000000000000F8
S32D0000C028000000008D0101008D010100000000008D0101008D0101008D0101008D0101008D0101008D01010072
S32D0000C0508D0101008D0101008D0101008D0101008D0101008D0101008D0101008D0101008D0101008D0101002C
S32D0000C0788D0101008D0101008D0101008D0101008D0101008D0101008D0101008D0101008D0101008D01010004
S32D0000C0A08D0101008D0101008D0101008D0101008D0101008D0101008D0101008D0101008D0101008D010100DC
S32D0000C0C88D0101008D0101008D0101008D0101008D0101008D0101008D0101008D0101008D0101008D010100B4
S32D0000C0F08D010100DD6D01008D0101008D0101008D0101008D0101008D0101008D0101008D0101008D010100D0
S32D0000C1188D0101008D0101008D0101008D0101008D0101008D0101008D0101008D0101008D0101008D01010063
S32D0000C1408D0101008D0101008D0101008D0101002D3601008D0101008D0101008D0101008D0101008D01010066
S32D0000C1688D0101008D0101008D0101008D0101008D0101008D0101008D0101008D0101008D0101008D01010013
S32D0000C1908D0101008D0101008D0101008D300100E12E0100B52F0100DD010100653101008D0101008D0101008D
S32D0000C1B88D0101008D0101008D0101008D0101008D0101008D0101008D0101008D0101008D0101008D010100C3
S32D0000C41081F0004102E000BF83F0004330B54FEA41044FEA430594EA050F08BF90EA020F1FBF54EA000C55EAC6
S32D0000C438020C7FEA645C7FEA655C00F0E2804FEA5454D4EB5555B8BF6D420CDD2C4480EA020281EA030382EA0F
S32D0000C460000083EA010180EA020281EA0303362D88BF30BD11F0004F4FEA01314FF4801C4CEA113102D0404263
S32D0000C48861EB410113F0004F4FEA03334CEA133302D0524263EB430394EA050F00F0A780A4F10104D5F1200E8A
S32D0000C4B00DDB02FA0EFC22FA05F2801841F1000103FA0EF2801843FA05F359410EE0A5F120050EF1200E012A2D
S32D0000C4D803FA0EFC28BF4CF0020C43FA05F3C01851EBE37101F0004507D54FF0000EDCF1000C7EEB00006EEB67
S32D0000C5000101B1F5801F1BD3B1F5001F0CD349085FEA30004FEA3C0C04F101044FEA445212F5800F80F09A8000
S32D0000C528BCF1004F08BF5FEA500C50F1000041EB045141EA050130BD5FEA4C0C404141EB010111F4801FA4F114
S32D0000C5500104E9D191F0000F04BF01460020B1FA81F308BF2033A3F10B03B3F120020CDA0C3208DD02F1140C87
S32D0000C578C2F10C0201FA0CF021FA02F10CE002F11402D8BFC2F1200C01FA02F120FA0CFCDCBF41EA0C019040B1
S32D0000C5A0E41AA2BF01EB0451294330BD6FEA04041F3C1CDA0C340EDC04F11404C4F1200220FA04F001FA02F3B6
S32D0000C5C840EA030021FA04F345EA030130BDC4F10C04C4F1200220FA02F001FA04F340EA0300294630BD21FAA8
S32D0000C5F004F0294630BD94F0000F83F4801306BF81F480110134013D4EE77FEA645C18BF7FEA655C29D094EA1C
S32D0000C618050F08BF90EA020F05D054EA000C04BF1946104630BD91EA030F1EBF0021002030BD5FEA545C05D1A3
S32D0000C6404000494128BF41F0004130BD14F580043CBF01F5801130BD01F0004545F0FE4141F470014FF0000031
S32D0000C66830BD7FEA645C1ABF194610467FEA655C1CBF0B46024650EA013406BF52EA033591EA030F41F40021D7
S32D0000C69030BD00BF90F0000F04BF0021704730B54FF4806404F132044FF000054FF0000150E700BF90F0000F66
S32D0000C6B804BF0021704730B54FF4806404F1320410F0004548BF40424FF000013EE700BF42004FEAE2014FEAF9
S32D0000C6E031014FEA02701FBF12F07F4393F07F4F81F06051704792F0000F14BF93F07F4F704730B54FF460741B
S32D0000C70801F0004521F0004120E700BF50EA010208BF704730B54FF000050AE050EA010208BF704730B511F046
S32D0000C730004502D5404261EB41014FF4806404F132045FEA915C3FF4DCAE4FF003025FEADC0C18BF03325FEAA0
S32D0000C758DC0C18BF033202EBDC02C2F1200300FA03FC20FA02F001FA03FE40EA0E0021FA02F11444C1E600BF19
S32D0000C78070B54FF0FF0C4CF4E06C1CEA11541DBF1CEA135594EA0C0F95EA0C0F00F0DEF82C4481EA030621EAF3
S32D0000C7A84C5123EA4C5350EA013518BF52EA033541F4801143F4801338D0A0FB02CE4FF00005E1FB02E506F05F
S32D0000C7D00042E0FB03E54FF00006E1FB03569CF0000F18BF4EF0010EA4F1FF04B6F5007F64F5407404D25FEA0F
S32D0000C7F84E0E6D4146EB060642EAC62141EA55514FEAC52040EA5E504FEACE2EB4F1FD0C88BFBCF5E06F1ED8D2
S32D0000C820BEF1004F08BF5FEA500E50F1000041EB045170BD06F0004646EA010140EA020081EA0301B4EB5C0487
S32D0000C848C2BFD4EB0C0541EA045170BD41F480114FF0000E013C00F3AB8014F1360FDEBF002001F0004170BDF0
S32D0000C870C4F10004203C35DA0C341BDC04F11404C4F1200500FA05F320FA04F001FA05F240EA020001F0004207
S32D0000C89821F0004110EBD37021FA04F642EB06015EEA430E08BF20EAD37070BDC4F10C04C4F1200500FA04F32F
S32D0000C8C020FA05F001FA04F240EA020001F0004110EBD37041F100015EEA430E08BF20EAD37070BDC4F12005C7
S32D0000C8E800FA05F24EEA020E20FA04F301FA05F243EA020321FA04F001F0004121FA04F220EA020000EBD37028
S32D0000C9105EEA430E08BF20EAD37070BD94F0000F0FD101F00046400041EB010111F4801F08BF013CF7D041EA6D
S32D0000C938060195F0000F18BF704703F00046520043EB030313F4801F08BF013DF7D043EA0603704794EA0C0FF1
S32D0000C9600CEA135518BF95EA0C0F0CD050EA410618BF52EA4306D1D181EA030101F000414FF0000070BD50EA38
S32D0000C988410606BF1046194652EA430619D094EA0C0F02D150EA013613D195EA0C0F05D152EA03361CBF10467B
S32D0000C9B019460AD181EA030101F0004141F0FE4141F470014FF0000070BD41F0FE4141F4780170BD70B54FF04D
S32D0000C9D8FF0C4CF4E06C1CEA11541DBF1CEA135594EA0C0F95EA0C0F00F0A7F8A4EB050481EA030E52EA03359B
S32D0000CA004FEA013100F088804FEA03334FF0805545EA131343EA12634FEA022245EA111545EA10654FEA002676
S32D0000CA280EF000419D4208BF964244F1FD0404F5407402D25B084FEA3202B61A65EB03055B084FEA32024FF461
S32D0000CA5080104FF4002CB6EB020E75EB030E22BFB61A754640EA0C005B084FEA3202B6EB020E75EB030E22BF22
S32D0000CA78B61A754640EA5C005B084FEA3202B6EB020E75EB030E22BFB61A754640EA9C005B084FEA3202B6EBEA
S32D0000CAA0020E75EB030E22BFB61A754640EADC0055EA060E18D04FEA051545EA16754FEA06164FEAC30343EAAC
S32D0000CAC852734FEAC2025FEA1C1CC0D111F4801F0BD141EA00014FF000004FF0004CB6E711F4801F04BF0143AE
S32D0000CAF00020B4F1FD0C88BFBCF5E06F3FF6AFAEB5EB030C04BFB6EB020C5FEA500C50F1000041EB045170BDBC
S32D0000CB180EF0004E4EEA113114EB5C04C2BFD4EB0C0541EA045170BD41F480114FF0000E013C90E645EA060EC3
S32D0000CB408DE60CEA135594EA0C0F08BF95EA0C0F3FF43BAF94EA0C0F0AD150EA01347FF434AF95EA0C0F7FF499
S32D0000CB6825AF104619462CE795EA0C0F06D152EA03353FF4FDAE1046194622E750EA410618BF52EA43067FF432
S32D0000CB90C5AE50EA41047FF40DAF52EA43057FF4EBAE12E74FF0FF3C06E000BF4FF0010C02E000BF4FF0010C75
S32D0000CBB84DF804CD4FEA410C7FEA6C5C4FEA430C18BF7FEA6C5C1BD001B050EA410C0CBF52EA430C91EA030FEC
S32D0000CBE002BF90EA020F0020704710F1000F91EA030F58BF994208BF90422CBFD8176FEAE37040F0010070476E
S32D0000CC084FEA410C7FEA6C5C02D150EA013C07D14FEA430C7FEA6C5CD6D152EA033CD3D05DF8040B704700BFCD
S32D0000CC308446104662468C461946634600E000BF01B5FFF7B7FF002848BF10F1000F01BD4DF808EDFFF7F4FF13
S32D0000CC580CBF012000205DF808FB00BF4DF808EDFFF7EAFF34BF012000205DF808FB00BF4DF808EDFFF7E0FF18
S32D0000CC8094BF012000205DF808FB00BF4DF808EDFFF7CEFF94BF012000205DF808FB00BF4DF808EDFFF7C4FF40
S32D0000CCA834BF012000205DF808FB00BF4FEA410212F5001215D211D56FF47873B3EB625212D94FEAC12343F0D6
S32D0000CCD0004343EA505311F0004F23FA02F018BF404270474FF00000704750EA013005D111F0004008BF6FF016
S32D0000CCF8004070474FF00000704700BF4A0011D212F5001211D20DD56FF47873B3EB62520ED44FEAC12343F085
S32D0000CD20004343EA505323FA02F070474FF00000704750EA013002D14FF0FF3070474FF0000070474FEA410241
S32D0000CD48B2F1E04324BFB3F5001CDCF1FE5C0DD901F0004C4FEAC0024CEA5070B2F1004F40EB830008BF20F09E
S32D0000CD700100704711F0804F21D113F13872BCBF01F00040704741F480114FEA5252C2F11802C2F1200C10FAB1
S32D0000CD980CF320FA02F018BF40F001004FEAC1234FEAD32303FA0CFC40EA0C0023FA02F34FEA4303CCE77FEA26
S32D0000CDC0625307D150EA01331EBF4FF0FE4040F44000704701F0004040F0FE4040F40000704700BF80F00040CC
S32D0000CDE802E000BF81F0004142001FBF5FEA410392EA030F7FEA226C7FEA236C6AD04FEA1262D2EB1363C1BF06
S32D0000CE10D218414048404140B8BF5B42192B88BF704710F0004F40F4000020F07F4018BF404211F0004F41F4FA
S32D0000CE38000121F07F4118BF494292EA030F3FD0A2F1010241FA03FC10EB0C00C3F1200301FA03F100F000432B
S32D0000CE6002D5494260EB4000B0F5000F13D3B0F1807F06D340084FEA310102F10102FE2A51D2B1F1004F40EB94
S32D0000CE88C25008BF20F0010040EA03007047490040EB000010F4000FA2F10102EDD1B0FA80FCACF1080CB2EB5F
S32D0000CEB00C0200FA0CF0AABF00EBC25052421843BCBFD0401843704792F0000F81F4000106BF80F400000132EB
S32D0000CED8013BB5E74FEA41037FEA226C18BF7FEA236C21D092EA030F04D092F0000F08BF0846704790EA010FD7
S32D0000CF001CBF0020704712F07F4F04D1400028BF40F00040704712F100723CBF00F50000704700F0004343F0DC
S32D0000CF28FE4040F4000070477FEA226216BF08467FEA23630146420206BF5FEA412390EA010F40F480007047C1
S32D0000CF504FF0000304E000BF10F0004348BF40425FEA000C08BF704743F0964301464FF000001CE050EA010264
S32D0000CF7808BF70474FF000030AE000BF50EA010208BF704711F0004302D5404261EB41015FEA010C02BF84465B
S32D0000CFA00146002043F0B64308BFA3F18053A3F50003BCFA8CF2083AA3EBC25310DB01FA02FC634400FA02FC6B
S32D0000CFC8C2F12002BCF1004F20FA02F243EB020008BF20F00100704702F1200201FA02FCC2F1200250EA4C0034
S32D0000CFF021FA02F243EB020008BF20EADC7070474FF0FF0C1CEAD0521EBF1CEAD15392EA0C0F93EA0C0F6FD019
S32D0000D0181A4480EA010C400218BF5FEA41211ED04FF0006343EA501043EA5111A0FB01310CF00040B1F5000FE7
S32D0000D0403EBF490041EAD3715B0040EA010062F17F02FD2A1DD8B3F1004F40EBC25008BF20F00100704790F058
S32D0000D068000F0CF0004C08BF49024CEA502040EA51207F3AC2BFD2F1FF0340EAC250704740F400004FF0000388
S32D0000D090013A5DDC12F1190FDCBF00F000407047C2F10002410021FA02F1C2F1200200FA02FC5FEA310040F1D5
S32D0000D0B8000053EA4C0308BF20EADC70704792F0000F00F0004C02BF400010F4000F013AF9D040EA0C0093F04C
S32D0000D0E0000F01F0004C02BF490011F4000F013BF9D041EA0C018FE70CEAD15392EA0C0F18BF93EA0C0F0AD00B
S32D0000D10830F0004C18BF31F0004CD8D180EA010000F00040704790F0000F17BF90F0004F084691F0000F91F0BB
S32D0000D130004F14D092EA0C0F01D142020FD193EA0C0F03D14B0218BF084608D180EA010000F0004040F0FE4051
S32D0000D15840F40000704740F0FE4040F4400070474FF0FF0C1CEAD0521EBF1CEAD15392EA0C0F93EA0C0F69D044
S32D0000D180A2EB030280EA010C49024FEA402037D04FF0805343EA111143EA10130CF000408B4238BF5B0042F14E
S32D0000D1A87D024FF4000C8B4224BF5B1A40EA0C00B3EB510F24BFA3EB510340EA5C00B3EB910F24BFA3EB9103A4
S32D0000D1D040EA9C00B3EBD10F24BFA3EBD10340EADC001B0118BF5FEA1C1CE0D1FD2A3FF650AF8B4240EBC25018
S32D0000D1F808BF20F0010070470CF0004C4CEA50207F32C2BFD2F1FF0340EAC250704740F400004FF00003013AF1
S32D0000D22037E792F0000F00F0004C02BF400010F4000F013AF9D040EA0C0093F0000F01F0004C02BF490011F4C9
S32D0000D248000F013BF9D041EA0C0195E70CEAD15392EA0C0F08D142027FF47DAF93EA0C0F7FF470AF084676E7AE
S32D0000D27093EA0C0F04D14B023FF44CAF08466EE730F0004C18BF31F0004CCAD130F000427FF45CAF31F0004376
S32D0000D2987FF43CAF5FE700BF4FF0FF3C06E000BF4FF0010C02E000BF4FF0010C4DF804CD4FEA40024FEA41039F
S32D0000D2C07FEA226C18BF7FEA236C11D001B052EA530C18BF90EA010F58BFB2EB030088BFC81738BF6FEAE1706E
S32D0000D2E818BF40F0010070477FEA226C02D15FEA402C05D17FEA236CE4D15FEA412CE1D05DF8040B704700BF16
S32D0000D310844608466146FFE70FB5FFF7C9FF002848BF10F1000F0FBD4DF808EDFFF7F4FF0CBF012000205DF839
S32D0000D33808FB00BF4DF808EDFFF7EAFF34BF012000205DF808FB00BF4DF808EDFFF7E0FF94BF012000205DF8A9
S32D0000D36008FB00BF4DF808EDFFF7D2FF94BF012000205DF808FB00BF4DF808EDFFF7C8FF34BF012000205DF8B1
S32D0000D38808FB00BF4FEA4002B2F1FE4F0FD34FF09E03B3EB12620DD94FEA002343F0004310F0004F23FA02F060
S32D0000D3B018BF404270474FF00000704712F1610F01D1420205D110F0004008BF6FF0004070474FF00000704797
S32D0000D3D880B483B000AF78607B6823F00043184607F10C07BD4680BC704700BF0000000080B584B000AF7860F2
S32D0000D40078681149FFF7FCFD03461846FFF764F902460B461046194609A3D3E90023FFF7D9FA02460B4610464A
S32D0000D4281946FFF743FC0346FB60FB68184607F11007BD4680BD00BFFFBFECC95C47214000004042AFF30080B4
S32D0000D45080B584B000AF78607868FFF73DF902460B46104619461AA3D3E90023FFF788F902460B461046194603
S32D0000D47817A3D3E90023FFF7A9FA02460B4610461946FFF75BFC0346FB60F868FFF720F902460B461046194658
S32D0000D4A00FA3D3E90023FFF76BF902460B4610461946FFF747FC0346BB60B868FFF79CFF0346184607F1100721
S32D0000D4C8BD4680BDAFF3008044174154FB2109400000000000806640CDCCCCCCCCCC124080B584B000AF78604E
S32D0000D4F0396041F23C10C1F6FF7005F0AFFE41F24010C1F6FF7005F0A9FE3868FFF774FF0346FB607868FFF766
S32D0000D5181FFD034641F24410C1F6FF70194602F033FF7B68C3F100031846FFF711FD034641F24C10C1F6FF7056
S32D0000D540194602F025FF7868FFF706FD034641F25410C1F6FF70194602F01AFF7B68C3F100031846FFF7F8FC1D
S32D0000D568034641F25C10C1F6FF70194602F00CFF61E041F25840C1F6FF7007F021F841F25840C1F6FF7049F2BD
S32D0000D590D871C0F2010107F0C3FA41F25840C1F6FF70396807F004FB41F25840C1F6FF7049F2E871C0F20101FB
S32D0000D5B807F080FB41F25840C1F6FF7049F2F071C0F2010107F0A8FA41F25840C1F6FF70F96807F083FB41F2FF
S32D0000D5E05840C1F6FF7049F60801C0F2010107F097FA41F24010C1F6FF7005F01BFE034641F25840C1F6FF70EA
S32D0000D608194607F06BFB41F25840C1F6FF7049F61C01C0F2010107F07FFA41F23C10C1F6FF7005F003FE0346E3
S32D0000D63041F25840C1F6FF70194607F053FB41F23C10C1F6FF7005F0F5FD0246FB689A4209DB41F24010C1F606
S32D0000D658FF7005F0EBFD0246FB689A4202DA4FF0010301E04FF00003002B82D141F24410C1F6FF7002F038FE3C
S32D0000D68041F24C10C1F6FF7002F032FE41F25410C1F6FF7002F02CFE41F25C10C1F6FF7002F026FE07F11007E2
S32D0000D6A8BD4680BD80B584B000AF7860396041F23C10C1F6FF7005F0CDFD41F24010C1F6FF7005F0C7FD386825
S32D0000D6D0FFF792FE0346FB607B68C3F100031846FFF73AFC034641F24410C1F6FF70194602F04EFE7868FFF775
S32D0000D6F82FFC034641F24C10C1F6FF70194602F043FE7B68C3F100031846FFF721FC034641F25410C1F6FF7038
S32D0000D720194602F035FE7868FFF716FC034641F25C10C1F6FF70194602F02AFE61E041F25840C1F6FF7006F0C0
S32D0000D7483FFF41F25840C1F6FF7049F2D871C0F2010107F0E1F941F25840C1F6FF70396807F022FA41F258400B
S32D0000D770C1F6FF7049F2E871C0F2010107F09EFA41F25840C1F6FF7049F2F071C0F2010107F0C6F941F25840CC
S32D0000D798C1F6FF70F96807F0A1FA41F25840C1F6FF7049F60801C0F2010107F0B5F941F24010C1F6FF7005F01A
S32D0000D7C039FD034641F25840C1F6FF70194607F089FA41F25840C1F6FF7049F61C01C0F2010107F09DF941F231
S32D0000D7E83C10C1F6FF7005F021FD034641F25840C1F6FF70194607F071FA41F23C10C1F6FF7005F013FD0246A1
S32D0000D810FB689A4209DB41F24010C1F6FF7005F009FD0246FB689A4202DA4FF0010301E04FF00003002B82D1DC
S32D0000D83841F24410C1F6FF7002F056FD41F24C10C1F6FF7002F050FD41F25410C1F6FF7002F04AFD41F25C1047
S32D0000D860C1F6FF7002F044FD07F11007BD4680BD80B584B000AF7860396041F23C10C1F6FF7005F0EBFC41F2B5
S32D0000D8884010C1F6FF7005F0E5FC3868FFF7DCFD0346FB607B68C3F100031846FFF758FB034641F24410C1F64B
S32D0000D8B0FF70194602F06CFD7B68C3F100031846FFF74AFB034641F24C10C1F6FF70194602F05EFD7B68C3F1AD
S32D0000D8D800031846FFF73CFB034641F25410C1F6FF70194602F050FD7B68C3F100031846FFF72EFB034641F25D
S32D0000D9005C10C1F6FF70194602F042FD61E041F25840C1F6FF7006F057FE41F25840C1F6FF7049F63001C0F247
S32D0000D928010107F0F9F841F25840C1F6FF70396807F03AF941F25840C1F6FF7049F64001C0F2010107F0B6F960
S32D0000D95041F25840C1F6FF7049F2F071C0F2010107F0DEF841F25840C1F6FF70F96807F0B9F941F25840C1F61E
S32D0000D978FF7049F60801C0F2010107F0CDF841F24010C1F6FF7005F051FC034641F25840C1F6FF70194607F0DF
S32D0000D9A0A1F941F25840C1F6FF7049F61C01C0F2010107F0B5F841F23C10C1F6FF7005F039FC034641F2584037
S32D0000D9C8C1F6FF70194607F089F941F23C10C1F6FF7005F02BFC0246FB689A4209DB41F24010C1F6FF7005F069
S32D0000D9F021FC0246FB689A4202DA4FF0010301E04FF00003002B82D141F24410C1F6FF7002F06EFC41F24C100D
S32D0000DA18C1F6FF7002F068FC41F25410C1F6FF7002F062FC41F25C10C1F6FF7002F05CFC07F11007BD4680BDF9
S32D0000DA4080B584B000AF7860396041F23C10C1F6FF7005F003FC41F24010C1F6FF7005F0FDFB3868FFF7F4FC7A
S32D0000DA680346FB607868FFF773FA034641F24410C1F6FF70194602F087FC7868FFF768FA034641F24C10C1F618
S32D0000DA90FF70194602F07CFC7868FFF75DFA034641F25410C1F6FF70194602F071FC7868FFF752FA034641F2A1
S32D0000DAB85C10C1F6FF70194602F066FC61E041F25840C1F6FF7006F07BFD41F25840C1F6FF7049F64C01C0F22C
S32D0000DAE0010107F01DF841F25840C1F6FF70396807F05EF841F25840C1F6FF7049F64001C0F2010107F0DAF83D
S32D0000DB0841F25840C1F6FF7049F2F071C0F2010107F002F841F25840C1F6FF70F96807F0DDF841F25840C1F61D
S32D0000DB30FF7049F60801C0F2010106F0F1FF41F24010C1F6FF7005F075FB034641F25840C1F6FF70194607F0D8
S32D0000DB58C5F841F25840C1F6FF7049F61C01C0F2010106F0D9FF41F23C10C1F6FF7005F05DFB034641F258400D
S32D0000DB80C1F6FF70194607F0ADF841F23C10C1F6FF7005F04FFB0246FB689A4209DB41F24010C1F6FF7005F069
S32D0000DBA845FB0246FB689A4202DA4FF0010301E04FF00003002B82D141F24410C1F6FF7002F092FB41F24C100D
S32D0000DBD0C1F6FF7002F08CFB41F25410C1F6FF7002F086FB41F25C10C1F6FF7002F080FB07F11007BD4680BDD7
S32D0000DBF82DE9F04383B000AF786039604FF0640004F0BAFE41F2C040C1F6FF700AF0A0FB03461846FEF75CFD31
S32D0000DC2004460D467868FEF757FD804689463868FEF752FD02460B46104619468CA3D3E90023FEF7E9FB02461A
S32D0000DC480B4640464946FEF7E5FB02460B464FF001010E4620462946FFF700F80346002B02D14FF000031E4695
S32D0000DC70F3B2002B00F0988041F25840C1F6FF7006F0A2FC41F25840C1F6FF7049F65C01C0F2010107F012F8E7
S32D0000DC9841F24410C1F6FF70754902F075FB41F24C10C1F6FF70734902F06EFB41F25410C1F6FF706E4902F05F
S32D0000DCC067FB41F25C10C1F6FF706C4902F060FB35E041F2C040C1F6FF700AF03DFB034641F25840C1F6FF7033
S32D0000DCE819464FF002024FF00C0306F0F5FE41F2C040C1F6FF700AF03BFB034641F25840C1F6FF7019464FF0D4
S32D0000DD1003024FF00C0306F0E3FE41F2C040C1F6FF700AF039FB034641F25840C1F6FF7019464FF004024FF017
S32D0000DD380C0306F0D1FE41F2C040C1F6FF700AF007FB054678683968FFF74EF803464FF00102144628461946DA
S32D0000DD60FFF7ECFA0346002B02D14FF000031C46E3B2002BADD141F24410C1F6FF7002F0B7FA41F24C10C1F6FA
S32D0000DD88FF7002F0B1FA41F25410C1F6FF7002F0ABFA41F25C10C1F6FF7002F0A5FAD5E041F2C040C1F6FF70A9
S32D0000DDB00AF0D2FA03461846FEF78EFC04460D467868FEF789FC804689463868FEF784FC02460B46104619466A
S32D0000DDD825A3D3E90023FEF71DFB02460B4640464946FEF717FB02460B464FF001010E4620462946FEF750FF6D
S32D0000DE000346002B02D14FF000031E46F3B2002B00F0A08041F25840C1F6FF7006F0D4FB41F25840C1F6FF7080
S32D0000DE2849F66801C0F2010106F044FF41F24410C1F6FF700F4902F0A7FA41F24C10C1F6FF700B4902F0A0FA0A
S32D0000DE5041F25410C1F6FF70084902F099FA41F25C10C1F6FF70044902F092FA3EE000BF9A9999999999C93F05
S32D0000DE780000F0C10000F04141F2C040C1F6FF700AF066FA034641F25840C1F6FF7019464FF002024FF00C03BD
S32D0000DEA006F01EFE41F2C040C1F6FF700AF064FA034641F25840C1F6FF7019464FF003024FF00C0306F00CFE66
S32D0000DEC841F2C040C1F6FF700AF062FA034641F25840C1F6FF7019464FF004024FF00C0306F0FAFD41F2C04031
S32D0000DEF0C1F6FF700AF030FA054678683968FEF777FF03464FF00102144628461946FFF733FA0346002B02D167
S32D0000DF184FF000031C46E3B2002BADD141F24410C1F6FF7002F0E0F941F24C10C1F6FF7002F0DAF941F2541070
S32D0000DF40C1F6FF7002F0D4F941F25C10C1F6FF7002F0CEF94FF0640004F012FD07F10C07BD46BDE8F08300BFC5
S32D0000DF6890B583B000AF78604FF0C80004F004FD77E241F2C040C1F6FF700AF009FA034678681946FEF72EFF37
S32D0000DF9003464FF0010214461846DFF85015FFF7EBF90346002B02D14FF000031C46E3B2002B64D041F2584060
S32D0000DFB8C1F6FF7006F004FB41F25840C1F6FF7049F67401C0F2010106F074FE41F25840C1F6FF7049F68001AE
S32D0000DFE0C0F2010106F09CFD41F2C040C1F6FF700AF0D2F9034641F25840C1F6FF70194606F0D6FD41F24410C9
S32D0000E008C1F6FF70DFF8E01402F0BEF941F24C10C1F6FF70DFF8D01402F0B6F941F25410C1F6FF70DFF8C014D7
S32D0000E03002F0AEF941F25C10C1F6FF70DFF8B01402F0A6F94FF04B0004F09AFC41F24410C1F6FF7002F04CF940
S32D0000E05841F24C10C1F6FF7002F046F941F25410C1F6FF7002F040F941F25C10C1F6FF7002F03AF9F5E141F2D9
S32D0000E080C040C1F6FF700AF087F9034678681946FEF7ACFE03464FF0010214461846DFF85414FFF74BF90346A6
S32D0000E0A8002B02D14FF000031C46E3B2002B60D041F25840C1F6FF7006F082FA41F25840C1F6FF7049F688019C
S32D0000E0D0C0F2010106F0F2FD41F25840C1F6FF7049F68001C0F2010106F01AFD41F2C040C1F6FF700AF050F97B
S32D0000E0F8034641F25840C1F6FF70194606F054FD41F24410C1F6FF70F94902F03DF941F24C10C1F6FF70F6490F
S32D0000E12002F036F941F25410C1F6FF70F24902F02FF941F25C10C1F6FF70EF4902F028F94FF04B0004F01CFCF8
S32D0000E14841F24410C1F6FF7002F0CEF841F24C10C1F6FF7002F0C8F841F25410C1F6FF7002F0C2F841F25C10D5
S32D0000E170C1F6FF7002F0BCF877E141F2C040C1F6FF700AF009F9034678681946FEF72EFE03464FF0010214467A
S32D0000E1981846D649FFF7ECF80346002B02D14FF000031C46E3B2002B1ED041F2C040C1F6FF700AF0EDF80346E8
S32D0000E1C078681946FEF712FE03464FF0010214461846CA49FFF7B2F80346002B02D14FF000031C46E3B2002B4C
S32D0000E1E802D04FF0010301E04FF00003002B60D041F25840C1F6FF7006F0E2F941F25840C1F6FF7049F674010F
S32D0000E210C0F2010106F052FD41F25840C1F6FF7049F68001C0F2010106F07AFC41F2C040C1F6FF700AF0B0F81B
S32D0000E238034641F25840C1F6FF70194606F0B4FC41F24410C1F6FF70A74902F09DF841F24C10C1F6FF70A449B3
S32D0000E26002F096F841F25410C1F6FF70A04902F08FF841F25C10C1F6FF709D4902F088F84FF04B0004F07CFBDF
S32D0000E28841F24410C1F6FF7002F02EF841F24C10C1F6FF7002F028F841F25410C1F6FF7002F022F841F25C1074
S32D0000E2B0C1F6FF7002F01CF8D7E041F2C040C1F6FF700AF069F8034678681946FEF78EFD03464FF001021446BC
S32D0000E2D818468849FFF74CF80346002B02D14FF000031C46E3B2002B1ED041F2C040C1F6FF700AF04DF8034635
S32D0000E30078681946FEF772FD03464FF00102144618467649FFF712F80346002B02D14FF000031C46E3B2002B9F
S32D0000E32802D04FF0010301E04FF00003002B60D041F25840C1F6FF7006F042F941F25840C1F6FF7049F6880159
S32D0000E350C0F2010106F0B2FC41F25840C1F6FF7049F68001C0F2010106F0DAFB41F2C040C1F6FF700AF010F8BC
S32D0000E378034641F25840C1F6FF70194606F014FC41F24410C1F6FF70594901F0FDFF41F24C10C1F6FF70564948
S32D0000E3A001F0F6FF41F25410C1F6FF70524901F0EFFF41F25C10C1F6FF704F4901F0E8FF4FF04B0004F0DCFAA9
S32D0000E3C841F24410C1F6FF7001F08EFF41F24C10C1F6FF7001F088FF41F25410C1F6FF7001F082FF41F25C1001
S32D0000E3F0C1F6FF7001F07CFF37E041F24410C1F6FF703D4901F0C4FF41F24C10C1F6FF70394901F0BDFF41F258
S32D0000E4185410C1F6FF70364901F0B6FF41F25C10C1F6FF70324901F0AFFF4FF04B0004F0A3FA41F24410C1F6EF
S32D0000E440FF7001F055FF41F24C10C1F6FF7001F04FFF41F25410C1F6FF7001F049FF41F25C10C1F6FF7001F05A
S32D0000E46843FF41F2C040C1F6FF7009F091FF034678681946FEF7B6FC03461846FEF7A8FF03464FF0010214460B
S32D0000E49018461B49FEF770FF0346002B02D14FF000031C46E3B2002B7FF467AD41F24410C1F6FF7001F01CFF4D
S32D0000E4B841F24C10C1F6FF7001F016FF41F25410C1F6FF7001F010FF41F25C10C1F6FF7001F00AFF4FF0C800F8
S32D0000E4E004F04EFA07F10C07BD4690BD000034430000F041000034C30000F0C1000000000000803F0000000068
S32D0000E508F0B583B000AF78604FF0640004F034FA41F2C040C1F6FF7009F01AFF03461846FEF7D6F804460D464F
S32D0000E5307868FEF7D1F802460B4610461946B8A3D3E90023FDF768FF02460B464FF001010E4620462946FEF744
S32D0000E55885FB0346002B02D14FF000031E46F3B2002B00F0938041F25840C1F6FF7006F027F841F25840C1F6CD
S32D0000E580FF7049F65C01C0F2010106F097FB41F24410C1F6FF70A44901F0FAFE41F24C10C1F6FF70A14901F013
S32D0000E5A8F3FE41F25410C1F6FF709D4901F0ECFE41F25C10C1F6FF709A4901F0E5FE35E041F2C040C1F6FF70EC
S32D0000E5D009F0C2FE034641F25840C1F6FF7019464FF002024FF00C0306F07AFA41F2C040C1F6FF7009F0C0FEC0
S32D0000E5F8034641F25840C1F6FF7019464FF003024FF00C0306F068FA41F2C040C1F6FF7009F0BEFE034641F2E8
S32D0000E6205840C1F6FF7019464FF004024FF00C0306F056FA41F2C040C1F6FF7009F08CFE03464FF00102144615
S32D0000E64818467968FEF776FE0346002B02D14FF000031C46E3B2002BB2D141F24410C1F6FF7001F041FE41F2BE
S32D0000E6704C10C1F6FF7001F03BFE41F25410C1F6FF7001F035FE41F25C10C1F6FF7001F02FFEBCE041F2C0403D
S32D0000E698C1F6FF7009F05CFE03461846FEF718F804460D467868FEF713F802460B461046194659A3D3E9002389
S32D0000E6C0FDF7ACFE02460B464FF001010E4620462946FEF7E5FA0346002B02D14FF000031E46F3B2002B00F00A
S32D0000E6E8928041F25840C1F6FF7005F069FF41F25840C1F6FF7049F66801C0F2010106F0D9FA41F24410C1F650
S32D0000E710FF70464901F03CFE41F24C10C1F6FF70414901F035FE41F25410C1F6FF703F4901F02EFE41F25C104E
S32D0000E738C1F6FF703A4901F027FE35E041F2C040C1F6FF7009F004FE034641F25840C1F6FF7019464FF00202AF
S32D0000E7604FF00C0306F0BCF941F2C040C1F6FF7009F002FE034641F25840C1F6FF7019464FF003024FF00C0315
S32D0000E78806F0AAF941F2C040C1F6FF7009F000FE034641F25840C1F6FF7019464FF004024FF00C0306F098F9C7
S32D0000E7B041F2C040C1F6FF7009F0CEFD03464FF00102144618467968FEF7D6FD0346002B02D14FF000031C4647
S32D0000E7D8E3B2002BB2D141F24410C1F6FF7001F083FD41F24C10C1F6FF7001F07DFD41F25410C1F6FF7001F0E4
S32D0000E80077FD41F25C10C1F6FF7001F071FD4FF0640004F0B5F807F10C07BD46F0BD00BF9A9999999999C93FF5
S32D0000E8280000F0410000F0C1F0B583B000AF78604FF0640004F0A0F841F2C040C1F6FF7009F096FD03461846C6
S32D0000E850FDF742FF04460D467868FDF73DFF02460B4610461946B8A3D3E90023FDF7D4FD02460B464FF0010191
S32D0000E8780E4620462946FEF7F1F90346002B02D14FF000031E46F3B2002B00F0938041F25840C1F6FF7005F0C4
S32D0000E8A093FE41F25840C1F6FF7049F65C01C0F2010106F003FA41F24410C1F6FF70A44901F066FD41F24C1008
S32D0000E8C8C1F6FF70A14901F05FFD41F25410C1F6FF709D4901F058FD41F25C10C1F6FF709A4901F051FD35E0E0
S32D0000E8F041F2C040C1F6FF7009F02EFD034641F25840C1F6FF7019464FF002024FF00C0306F0E6F841F2C0404C
S32D0000E918C1F6FF7009F02CFD034641F25840C1F6FF7019464FF003024FF00C0306F0D4F841F2C040C1F6FF7043
S32D0000E94009F02AFD034641F25840C1F6FF7019464FF004024FF00C0306F0C2F841F2C040C1F6FF7009F008FD56
S32D0000E96803464FF00102144618467968FEF7E2FC0346002B02D14FF000031C46E3B2002BB2D141F24410C1F61E
S32D0000E990FF7001F0ADFC41F24C10C1F6FF7001F0A7FC41F25410C1F6FF7001F0A1FC41F25C10C1F6FF7001F006
S32D0000E9B89BFCBCE041F2C040C1F6FF7009F0D8FC03461846FDF784FE04460D467868FDF77FFE02460B461046DE
S32D0000E9E0194659A3D3E90023FDF718FD02460B464FF001010E4620462946FEF751F90346002B02D14FF00003FB
S32D0000EA081E46F3B2002B00F0928041F25840C1F6FF7005F0D5FD41F25840C1F6FF7049F66801C0F2010106F0AF
S32D0000EA3045F941F24410C1F6FF70464901F0A8FC41F24C10C1F6FF70414901F0A1FC41F25410C1F6FF703F4997
S32D0000EA5801F09AFC41F25C10C1F6FF703A4901F093FC35E041F2C040C1F6FF7009F070FC034641F25840C1F6A3
S32D0000EA80FF7019464FF002024FF00C0306F028F841F2C040C1F6FF7009F06EFC034641F25840C1F6FF7019469E
S32D0000EAA84FF003024FF00C0306F016F841F2C040C1F6FF7009F06CFC034641F25840C1F6FF7019464FF0040212
S32D0000EAD04FF00C0306F004F841F2C040C1F6FF7009F04AFC03464FF00102144618467968FEF742FC0346002B75
S32D0000EAF802D14FF000031C46E3B2002BB2D141F24410C1F6FF7001F0EFFB41F24C10C1F6FF7001F0E9FB41F2F1
S32D0000EB205410C1F6FF7001F0E3FB41F25C10C1F6FF7001F0DDFB4FF0640003F021FF07F10C07BD46F0BD00BFB0
S32D0000EB489A9999999999C93F0000F0410000F0C1B0B582B000AF03F057FF02460B4610461946FEF7EBF8034620
S32D0000EB707B601DE041F25840C1F6FF7005F024FD41F25840C1F6FF7049F69401C0F2010106F094F841F26410F6
S32D0000EB98C1F6FF7004F084FB034641F25840C1F6FF70194606F0AEF841F26410C1F6FF7004F076FB03461846A8
S32D0000EBC0FDF78AFD02460B464FF001010C46104619461FA3D3E90023FEF762F80346002B02D14FF000031C46F0
S32D0000EBE8E3B2002B27D003F00FFF04460D467868FDF76EFD02460B4620462946FDF708FC02460B464FF001012B
S32D0000EC100C46104619464FF000024FF0804303F57813FEF71FF80346002B02D14FF000031C46E3B2002B02D080
S32D0000EC384FF0010301E04FF00003002B96D107F10807BD46B0BD00BF666666666666E63F90B585B000AF7860F6
S32D0000EC604FF0640003F08CFE7868FEF775F9034641F24410C1F6FF70194601F089FB7B68C3F100031846FEF76C
S32D0000EC8867F9034641F24C10C1F6FF70194601F07BFB7868FEF75CF9034641F25410C1F6FF70194601F070FB4F
S32D0000ECB07B68C3F100031846FEF74EF9034641F25C10C1F6FF70194601F062FB4FF00003FB734FF00003BB603A
S32D0000ECD8A5E041F26410C1F6FF7004F0E1FA03461846FDF7F5FC02460B464FF001010C461046194658A3D3E9C9
S32D0000ED000023FDF7B9FF0346002B02D14FF000031C46E3B2002B1ED041F24410C1F6FF7001F0E6FA41F24C1070
S32D0000ED28C1F6FF7001F0E0FA41F25410C1F6FF7001F0DAFA41F25C10C1F6FF7001F0D4FA4FF00103FB734FF0D6
S32D0000ED500103BB7367E041F26410C1F6FF7004F0A3FA03461846FDF7B7FC02460B464FF001010C46104619468F
S32D0000ED7839A3D3E90023FDF78FFF0346002B02D14FF000031C46E3B2002B21D041F26410C1F6FF7004F084FA55
S32D0000EDA003461846FDF798FC02460B464FF001010C46104619462CA3D3E90023FDF75CFF0346002B02D14FF0B2
S32D0000EDC800031C46E3B2002B02D04FF0010301E04FF00003002B1ED041F24410C1F6FF7001F082FA41F24C10FE
S32D0000EDF0C1F6FF7001F07CFA41F25410C1F6FF7001F076FA41F25C10C1F6FF7001F070FA4FF00103FB734FF03A
S32D0000EE180003BB7303E0BB6803F10103BB60FB7B83F00103DBB2002B05D0BB68092B02DC4FF0010301E04FF070
S32D0000EE400003002B7FF449AFBB680A2B02D14FF00003BB73BB7B184607F11407BD4690BD666666666666E63FF0
S32D0000EE68333333333333F33F80B582B000AFAE48FFF776F841F26813C1F6FF731B681846FFF7D2FC4FF02800C5
S32D0000EE90A849FEF7D5FDA848FFF766F84FF04600A649FEF721FBA648FFF75EF84FF04600A449FEF719FBA44832
S32D0000EEB8FFF756F841F26C13C1F6FF731B681846FFF71EFB4FF01400FFF7C2FE0346FB71FB79002B73D041F24A
S32D0000EEE05840C1F6FF704FF47F0105F08DFB41F25840C1F6FF7005F067FB41F26410C1F6FF7004F0D1F90346EA
S32D0000EF0841F25840C1F6FF70194605F04DFE4FF47A7003F031FD4FF028008A49FEF78CFD4FF046008849FEF7FA
S32D0000EF30BDFB4FF028008749FEF782FD4FF046008549FEF7D1FA4FF028007A49FEF778FD8248FFF709F84FF0A9
S32D0000EF5846007849FEF7C4FA41F24410C1F6FF707D4901F011FA41F25410C1F6FF707A4901F00AFA41F6641042
S32D0000EF8003F0FEFC41F24410C1F6FF7001F0B0F941F25410C1F6FF7001F0AAF94FF046007049FEF783FB4FF0EE
S32D0000EFA828006F49FEF760FC4FF0640003F0E4FC5F48FEF7D5FF6B48FFF7A2FA80E041F25840C1F6FF704FF04F
S32D0000EFD0FF0105F019FB41F25840C1F6FF7005F0F3FA41F26410C1F6FF7004F05DF9034641F25840C1F6FF70E6
S32D0000EFF8194605F0D9FD4FF47A7003F0BDFC4C48FEF7AEFF4FF046005749FEF769FA4FF028005649FEF710FD2D
S32D0000F0204E48FEF7A1FF41F24410C1F6FF704C4901F0AEF941F24C10C1F6FF704E4901F0A7F941F25410C1F692
S32D0000F048FF70454901F0A0F941F25C10C1F6FF70474901F099F941F6641003F08DFC41F24410C1F6FF7001F076
S32D0000F0703FF941F24C10C1F6FF7001F039F941F25410C1F6FF7001F033F941F25C10C1F6FF7001F02DF94FF06D
S32D0000F09846003249FEF706FB4FF028003049FEF7E3FB4FF0640003F067FC2148FEF758FF4FF046002F49FEF740
S32D0000F0C0F5FA2A48FFF720FA1B48FEF74DFF41F22410C1F6FF70184904F0EAFC41F27C5003F04EFC41F22410A2
S32D0000F0E8C1F6FF70244904F0DFFC4FF032001649FEF7D8FA4FF028001249FEF7B5FB1148FEF72EFF4FF03200AE
S32D0000F1101149FEF7E9F94FF028001A49FEF7A8FB1948FEF721FF07F10807BD4680BD00BF0000344200002042EA
S32D0000F13800000000000040400000B243000060400080AF430000A0410000803F0000F0410000C03F0000874388
S32D0000F16000004842000020400000A0420000F4410000E0400000C842000048C2000080400000B44200008242D2
S32D0000F1880000B04280B500AF41F2C040C1F6FF7009F0DEF8024641F21C13C1F6FF731A6041F2C040C1F6FF70B5
S32D0000F1B009F0E2F8024641F22013C1F6FF731A604FF050007049FEF78FF97048FEF7CCFE4FF046006E49FEF7A0
S32D0000F1D887F96E48FEF7C4FE4FF046006C49FEF77FF941F27013C1F6FF731B681846FFF71BFB6448FEF7B4FE56
S32D0000F2004FF032006549FEF71BFC4FF028006449FEF74CFA4FF032006249FEF711FC4FF01E006149FEF760F9F3
S32D0000F2284FF032005F49FEF707FC4FF032005C49FEF756F94FF032005B49FEF7FDFB41F24410C1F6FF705949FC
S32D0000F25001F09EF841F24C10C1F6FF70564901F097F841F25410C1F6FF70524901F090F841F25C10C1F6FF709F
S32D0000F2784F4901F089F840F2DC5003F07DFB41F24410C1F6FF7001F02FF841F24C10C1F6FF7001F029F841F2D6
S32D0000F2A05410C1F6FF7001F023F841F25C10C1F6FF7001F01DF84FF032004049FEF7F6F941F22410C1F6FF7074
S32D0000F2C83D4904F0F1FB41F2C040C1F6FF7009F03FF8024641F21C13C1F6FF731A6041F2C040C1F6FF7009F08A
S32D0000F2F043F8024641F22013C1F6FF731A604FF01E003049FEF7D2F941F22410C1F6FF701E4904F0CDFB2C48AA
S32D0000F318FEF726FE4FF032002A49FEF7E1F841F22410C1F6FF70244904F0BEFB4FF028002249FEF7B7F941F2AB
S32D0000F3402410C1F6FF70224904F0B2FB4FF0C80003F016FB4FF032001E49FEF7C5F84FF0C80003F00DFB41F26F
S32D0000F3682410C1F6FF70074904F09EFB1848FEF7F7FD4FF032001549FEF794F980BD00BF0000C8410000B442AB
S32D0000F390000040410000B0420000484100002042000000400000A0410000C03F00007041000020410000484235
S32D0000F3B8000048C20000003F000028430000C0400000B34300002040000016430000803F0000000080B500AF21
S32D0000F3E04FF032002149FEF761F94FF028002049FEF726FB1F48FEF7B7FD4FF050001E49FEF754F941F2241040
S32D0000F408C1F6FF701B4904F04FFB4FF4FA7003F0B3FA41F22410C1F6FF70174904F044FB4FF4FA7003F0A8FA5F
S32D0000F4304FF032001349FEF757F84FF032001249FEF7FEFA4FF046001049FEF74DF84FF028000F49FEF70CFA12
S32D0000F4580E48FEF785FD4FF046000D49FEF740F880BD00BF9A99D9400000824200809D430000B0400000A04075
S32D0000F4800000B442CDCC6C400000F042000070410000C841000087430000104180B500AF4FF046004949FEF72C
S32D0000F4A801F94FF028004849FEF7C6FA4748FEF757FD41F24410C1F6FF70454900F064FF41F24C10C1F6FF7074
S32D0000F4D0424900F05DFF41F25410C1F6FF703E4900F056FF41F25C10C1F6FF703B4900F04FFF40F6B83003F016
S32D0000F4F843FA41F24410C1F6FF7000F0F5FE41F24C10C1F6FF7000F0EFFE41F25410C1F6FF7000F0E9FE41F2C0
S32D0000F5205C10C1F6FF7000F0E3FE41F2C040C1F6FF7008F011FF024641F21C13C1F6FF731A6041F2C040C1F6C2
S32D0000F548FF7008F015FF024641F22013C1F6FF731A604FF032002049FEF7A4F84FF028001E49FEF769FA4FF0F9
S32D0000F57028001D49FEF79AF84FF028001949FEF777F94FF032001949FEF790F841F21C13C1F6FF731B6818466E
S32D0000F5981549FEF72DFB41F23010C1F6FF70134904F082FA4FF47A7003F0E6F941F23010C1F6FF700E4904F082
S32D0000F5C077FA4FF4FA7003F0DBF980BD000000400000C8420000344300004842000048C2000080400000704135
S32D0000F5E80000C03F0000204000000041000027430000B44280B500AF4FF046001649FDF76FFF4FF02800154906
S32D0000F610FEF72EF94FF050001349FDF765FF1348FEF7A2FC41F24410C1F6FF700D4900F0AFFE41F24C10C1F699
S32D0000F638FF700D4900F0A8FE41F25410C1F6FF70064900F0A1FE41F25C10C1F6FF70064900F09AFE80BD00BF16
S32D0000F660000020410000B4420000A041000087430000B4C290B587B002AF4FF00103FB60D5E04FF09603009319
S32D0000F68841F25840C1F6FF704FF037014FF02D024FF0C80305F056FF41F25840C1F6FF7049F6B001C0F2010195
S32D0000F6B04FF064024FF07E0304F0E2FF07F1080207F1040341F25840C1F6FF7011461A4605F0D2F83FE041F238
S32D0000F6D85840C1F6FF7049F6BC01C0F201014FF00A024FF0D20304F0C7FF41F2C040C1F6FF7008F02DFE0346B8
S32D0000F70041F25840C1F6FF7019464FF046024FF0D20304F0E1FF41F25840C1F6FF7049F6C401C0F201014FF034
S32D0000F72882024FF0D20304F0A7FF41F2C040C1F6FF7008F01DFE034641F25840C1F6FF7019464FF0BE024FF03E
S32D0000F750D20304F0C1FF07F1080207F1040341F25840C1F6FF7011461A4605F085F8034683F00103DBB2002B6F
S32D0000F778ADD14FF4FA7003F0FFF87B684FF0010214461846DFF83014FDF7F2FD0346002B02D14FF000031C4688
S32D0000F7A0E3B2002B43D07B684FF0010214461846DFF81014FDF7C2FD0346002B02D14FF000031C46E3B2002B32
S32D0000F7C831D0BB684FF0010214461846FC49FDF7CFFD0346002B02D14FF000031C46E3B2002B20D0BB684FF0F3
S32D0000F7F0010214461846F549FDF7A0FD0346002B02D14FF000031C46E3B2002B0FD041F2C040C1F6FF7008F086
S32D0000F818AFFD024641F26813C1F6FF731A60FB6803F10103FB60FB68012B14BF00230123DBB2002B7FF421AF23
S32D0000F840D3E04FF09603009341F25840C1F6FF704FF037014FF02D024FF0C80305F076FE41F25840C1F6FF7042
S32D0000F86849F6CC01C0F201014FF064024FF07E0304F002FF07F1080207F1040341F25840C1F6FF7011461A46AF
S32D0000F89004F0F2FF3FE041F25840C1F6FF7049F6BC01C0F201014FF00A024FF0D20304F0E7FE41F2C040C1F683
S32D0000F8B8FF7008F04DFD034641F25840C1F6FF7019464FF046024FF0D20304F001FF41F25840C1F6FF7049F619
S32D0000F8E0C401C0F201014FF082024FF0D20304F0C7FE41F2C040C1F6FF7008F03DFD034641F25840C1F6FF702C
S32D0000F90819464FF0BE024FF0D20304F0E1FE07F1080207F1040341F25840C1F6FF7011461A4604F0A5FF034602
S32D0000F93083F00103DBB2002BADD14FF4FA7003F01FF87B684FF00102144618469C49FDF713FD0346002B02D138
S32D0000F9584FF000031C46E3B2002B42D07B684FF00102144618469549FDF7E4FC0346002B02D14FF000031C4691
S32D0000F980E3B2002B31D0BB684FF00102144618468D49FDF7F1FC0346002B02D14FF000031C46E3B2002B20D029
S32D0000F9A8BB684FF00102144618468649FDF7C2FC0346002B02D14FF000031C46E3B2002B0FD041F2C040C1F61F
S32D0000F9D0FF7008F0C1FC024641F26C13C1F6FF731A60FB6803F10103FB60FB68022B14BF00230123DBB2002B30
S32D0000F9F87FF423AFD3E04FF09603009341F25840C1F6FF704FF037014FF02D024FF0C80305F098FD41F2584049
S32D0000FA20C1F6FF7049F6D801C0F201014FF064024FF07E0304F024FE07F1080207F1040341F25840C1F6FF7059
S32D0000FA4811461A4604F014FF3FE041F25840C1F6FF7049F6BC01C0F201014FF00A024FF0D20304F009FE41F285
S32D0000FA70C040C1F6FF7008F06FFC034641F25840C1F6FF7019464FF046024FF0D20304F023FE41F25840C1F614
S32D0000FA98FF7049F6C401C0F201014FF082024FF0D20304F0E9FD41F2C040C1F6FF7008F05FFC034641F25840A8
S32D0000FAC0C1F6FF7019464FF0BE024FF0D20304F003FE07F1080207F1040341F25840C1F6FF7011461A4604F0EE
S32D0000FAE8C7FE034683F00103DBB2002BADD14FF4FA7002F041FF7B684FF00102144618462D49FDF735FC034695
S32D0000FB10002B02D14FF000031C46E3B2002B42D07B684FF00102144618462649FDF706FC0346002B02D14FF08B
S32D0000FB3800031C46E3B2002B31D0BB684FF00102144618461E49FDF713FC0346002B02D14FF000031C46E3B272
S32D0000FB60002B20D0BB684FF00102144618461749FDF7E4FB0346002B02D14FF000031C46E3B2002B0FD041F24F
S32D0000FB88C040C1F6FF7008F0F3FB024641F27013C1F6FF731A60FB6803F10103FB60FB68032B14BF0023012341
S32D0000FBB0DBB2002B7FF423AF07F11407BD4690BD000034420000434300005C4200007F4380B582B000AF41F222
S32D0000FBD8C040C1F6FF7007F0EBFE41F25840C1F6FF704FF0000104F0D5FC41F25840C1F6FF706FF07F4104F0FF
S32D0000FC002BFD41F25840C1F6FF7049F6E401C0F2010105F053F841F22410C1F6FF7040F2D52103F007FF41F2C4
S32D0000FC282410C1F6FF7040F6A41103F01DFF41F23010C1F6FF7040F2022103F0F7FE41F23010C1F6FF7040F6B5
S32D0000FC507E1103F00DFF4FF4FA7002F091FE41F22410C1F6FF70254903F022FF41F23010C1F6FF70214903F0C5
S32D0000FC781BFF4FF47A7002F07FFE41F25840C1F6FF7004F09DFC41F25840C1F6FF7049F6F401C0F2010105F05C
S32D0000FCA00DF8FFF7E7FC4FF4FA7002F069FE41F25840C1F6FF7004F087FC41F25840C1F6FF7049F60811C0F2EF
S32D0000FCC8010104F029FF00BF07F104023B4641F25840C1F6FF7011461A4604F0C9FD034683F00103DBB2002BD8
S32D0000FCF0EED107F10807BD4680BD00BF0000B44280B500AFFFF764FFFEF726FFFFF7B0F8FFF73CFAFFF762FBB7
S32D0000FD18FFF7C0FBFFF76EFC4FF00003184680BD80B582B000AF786039607B68012B50D13A684FF6FF739A42E3
S32D0000FD404BD141F22410C1F6FF704FF0060103F053FE41F23010C1F6FF704FF0000103F04BFE41F23C10C1F617
S32D0000FD68FF704FF0090102F0A9FE41F24010C1F6FF704FF0100102F0A1FE41F24410C1F6FF704FF00001154A46
S32D0000FD9000F056FA41F24C10C1F6FF704FF00301104A00F04DFA41F25410C1F6FF704FF001010C4A00F044FAFA
S32D0000FDB841F25C10C1F6FF704FF00201074A00F03BFA41F26410C1F6FF704FF0040103F055FA07F10807BD4643
S32D0000FDE080BD00BF0000A04080B500AF4FF001004FF6FF71FFF798FF80BD00BF80B500AF41F22472C1F6FF72E2
S32D0000FE0841F21C13C1F6FF73D31A194641F21C13C1F6FF731A460B4610464FF000011A4608F04BFC80BD00BF88
S32D0000FE3009F0C0FC00F0B0F9FFF7E0FF09F092FC09F02EFC09F0C6FC00F00CF84FF0000041F27411C1F6FF710A
S32D0000FE58FFF752FF0346184608F00AFC80B500AF4FF4E043C4F204034FF4E042C4F2040202F5805202F1380272
S32D0000FE80126842F4785203F5805303F138031A6000F02EF900F094F841F2A433C1F6FF734FF058021A6041F25A
S32D0000FEA8A433C1F6FF731B684FF47A7202FB03F241F2A033C1F6FF731A6041F2A033C1F6FF731B681A464FF48A
S32D0000FED0E043C4F2040303F5825303F104031B6803F070634FEA136303F10103B2FBF3F31A4641F2A833C1F6B4
S32D0000FEF8FF731A604FF4E043C4F204034FF4E042C4F2040202F5805202F13C02126842F0225203F5805303F1D3
S32D0000FF203C031A604FF4E043C4F204034FF4E042C4F2040202F5805202F13002126842F0006203F5805303F1FB
S32D0000FF4830031A604FF45043C4F203034FF480721A614FF0640002F0A3FB4FF45043C4F203034FF45042C4F24C
S32D0000FF700302526922F010025A614FF45043C4F203034FF000021A604FF45043C4F203034FF010025A6103F0E6
S32D0000FF98B9FA03F061FB41F29C30C1F6FF7002F003FC41F25840C1F6FF7004F041F941F2883002F0E1FC80BD0D
S32D0000FFC080B400AF4FF48043C4F206034FF000025A704FF48043C4F206034FF098021A704FF48043C4F2060373
S32D0000FFE89B79DBB203F01003002B0CBF00230123DBB2002BF0D14FF48043C4F206039B79DBB203F00C034FEAED
S32D000100109303022B0CBF00230123DBB2002BEED14FF48043C4F206034FF018021A714FF48043C4F206034FF0C8
S32D0001003800025A714FF4E043C4F2040303F5825303F104034FF00002C0F213121A604FF48043C4F206034FF04B
S32D0001006054025A7100BF4FF48043C4F206039B79DBB203F02003002B14BF00230123DBB2002BF0D100BF4FF455
S32D000100888043C4F206039B79DBB203F04003002B14BF00230123DBB2002BF0D14FF48043C4F206034FF4804268
S32D000100B0C4F206021278D2B202F03F02D2B21A704FF48043C4F206039B79DBB203F00C034FEA9303032B0CBFE4
S32D000100D800230123DBB2002BEED14FF000031846BD4680BC704700BF80B400AF4FF44043C4F204034FF480724B
S32D000101005A634FF2C003C4F20F034FF2C002C4F20F02526942F400525A614FF2C003C4F20F034FF2C002C4F2FA
S32D000101280F02126842F400521A604FF44043C4F2040340F20312C0F20A021A634FF46143CEF200034FF4614286
S32D00010150CEF20002D2F8882142F08062C3F888214FF46143CEF200034FF46142CEF20002926842F080629A6079
S32D00010178BD4680BC704700BF80B483B000AF7860FEE700BF80B400AF00BEBD4680BC704780B400AF4FF0E02256
S32D000101A04CF20003C0F20003C2F8083D4FF40053C4F205034CF22052DA814FF40053C4F205034DF62812DA81B0
S32D000101C84FF40053C4F205034FF0D2021A80BD4680BC704780B500AF4FF44043C4F20403D3F8A03003F4805345
S32D000101F0002B0CBF00230123DBB2002B1FD04FF44043C4F204034FF44042C4F20402D2F8A02022F48052C3F8CB
S32D00010218A02041F2E040C1F6FF7008F0AFF94FF2C003C4F20F034FF2C002C4F20F02126822F400521A6080BDAF
S32D0001024090B585B000AFF8600B467A60FB72FB68FA7A1A71FB684FF000025A714FF001031C4678682049FDF7C3
S32D0001026887F80346002B02D14FF000031C46E3B2002B02D01A4B7B6011E04FF001031C4678681849FDF760F808
S32D000102900346002B02D14FF000031C46E3B2002B01D0124B7B607868FCF716FA02460B46104619460AA3D3E9F1
S32D000102B80023FCF761FA02460B4610461946FCF73DFD0246FB681A60FB68184607F11407BD4690BDAFF30080C0
S32D000102E0ABAAAAAAAAAA2040000040410000803F80B582B000AF78607B685B79002B10D07B684FF000025A71B3
S32D000103087B681B7941F29C30C1F6FF7019464FF000024FF01E0302F091FA07F10807BD4680BD00BF80B584B03E
S32D0001033000AF786039603B687F2B03DD4FF07F03FB7309E03B6813F1800F03DA4FF08003FB7301E03B68FB7304
S32D000103587B685B79FA7B9A420FD07B68FA7B5A717B681A79FB7B41F29C30C1F6FF7011461A464FF01E0302F052
S32D0001038061FA07F11007BD4680BD00BF00000000B0B584B000AF786039604FF001031C4638684D49FCF7CAFF95
S32D000103A80346002B02D14FF000031C46E3B2002B02D0474B3B6011E04FF001031C4638684449FCF7D5FF0346A9
S32D000103D0002B02D14FF000031C46E3B2002B01D03E4B3B603868FCF777F904460D467B681B681846FCF770F9E7
S32D000103F802460B46104619464FF000024FF0804303F5B203FCF7E2FA02460B4620462946FCF7B2F902460B4624
S32D0001042010461946FCF78EFC03463B604FF001031C4638682A49FCF795FF0346002B02D14FF000031C46E3B2D8
S32D00010448002B14D03868FCF743F902460B46104619461DA3D3E90023FCF78EF902460B4610461946FCF722FCE1
S32D000104700346FB6022E03868FCF72EF902460B46104619464FF000024FF0804303F5C003FCF776F902460B46B6
S32D00010498104619464FF000024FF0804303F5B203FCF794FA02460B4610461946FCF7FEFB0346FB607868F968F0
S32D000104C0FFF734FF07F11007BD46B0BDAFF3008052B81E85EB51F43F0000C8C20000C84200000000AFF3008071
S32D000104E880B485B000AF02460B46FA71BB71BB79002B07D141F27813C1F6FF734FF000021A7006E041F2781310
S32D00010510C1F6FF734FF001021A704FF03803FB7341F27813C1F6FF731A78FB7B1343FB734FF4C043C4F2060327
S32D000105384FF4C042C4F206029278D2B242F01002D2B29A704FF4C043C4F206034FF4C042C4F206029278D2B29B
S32D0001056042F02002D2B29A704FF4C043C4F20603FA7B1A7107F11407BD4680BC704700BF80B483B000AF4FF068
S32D0001058801037B6004E000BF7B6803F101037B607B68312BCCBF00230123DBB2002BF2D107F10C07BD4680BC36
S32D000105B0704700BF80B582B000AF02460B46FA71BB7141F27913C1F6FF731B7818464FF00001FFF789FF4FF486
S32D000105D8C043C4F20603DB78DBB203F00203002B14BF00230123DBB2002BF0D14FF4C043C4F206034FF4C04252
S32D00010600C4F20602D278D2B242F00202D2B2DA704FF4C043C4F20603FA791A714FF4C043C4F20603DB78DBB253
S32D0001062803F00203002B14BF00230123DBB2002BF0D14FF4C043C4F206034FF4C042C4F20602D278D2B242F0E5
S32D000106500202D2B2DA704FF4C043C4F20603BA791A714FF4C043C4F20603DB78DBB203F00203002B14BF0023E8
S32D000106780123DBB2002BF0D14FF4C043C4F206034FF4C042C4F20602D278D2B242F00202D2B2DA704FF4C04396
S32D000106A0C4F206034FF4C042C4F206029278D2B222F02002D2B29A704FF4C043C4F206034FF4C042C4F2060211
S32D000106C89278D2B222F01002D2B29A70FFF754FF07F10807BD4680BD80B582B000AF0346FB71FB79184600F0A6
S32D000106F06BF807F10807BD4680BD00BF80B582B000AF02460B46FA71BB7100F039F8FB794FEA4303DBB218462D
S32D00010718FFF7E2FFBB791846FFF7DEFF00F03EF807F10807BD4680BD80B500AF4FF0FF0000F046F80346184612
S32D0001074080BD00BF80B584B000AF0346FB7100F017F8FB794FEA4303DBB243F00103DBB2DBB21846FFF7BCFFE2
S32D00010768FFF7E2FF0346FB7300F018F8FB7B184607F11007BD4680BD80B400AF4FF24003C4F20F034FF24002FF
S32D00010790C4F20F02926842F480129A60BD4680BC704700BF80B400AF4FF24003C4F20F034FF24002C4F20F0289
S32D000107B8526842F480125A60BD4680BC704700BF80B485B000AF0346FB714FF00003BB7303E0FB7B03F1010393
S32D000107E0FB734FF44043C4F20A03DB6A4FF00003002BF2D14FF44043C4F20A034FF44042C4F20A02D26A42F000
S32D000108080042DA624FF44043C4F20A03FA795A6300BF4FF44043C4F20A03DB6A03F40033002B14BF002301238E
S32D00010830DBB2002BF1D14FF44043C4F20A039B6BBB73BB7B184607F11407BD4680BC704780B582B000AF4FF46C
S32D00010858E043C4F204034FF4E042C4F2040202F5805202F13002126842F4805203F5805303F130031A604FF451
S32D000108802043C4F204034FF480721A654FF24003C4F20F034FF24002C4F20F02526942F480125A61FFF77EFF2E
S32D000108A84FF42043C4F204034FF400725A654FF42043C4F204034FF400729A654FF42043C4F204034FF400721B
S32D000108D0DA654FF44043C4F20A034FF44062C8F200021A604FF44043C4F20A034FF00502C3F60062DA604FF0B3
S32D000108F800037B6007E04FF0FF00FFF7EDFE7B6803F101037B607B68092BCCBF00230123DBB2002BEFD104A131
S32D00010920D1E9000102F048F807F10807BD4680BD9A9999999999B93F90B486B000AFF860B9607A60FA684FF4CC
S32D000109482043C4F206039A4214D14FF4E043C4F204034FF4E042C4F2040202F5805202F13402126842F48062D5
S32D0001097003F5805303F134031A6083E0FA684FF43043C4F206039A4214D14FF4E043C4F204034FF4E042C4F2AF
S32D00010998040202F5805202F13402126842F4006203F5805303F134031A6067E0FA684FF44043C4F206039A42AC
S32D000109C014D14FF4E043C4F204034FF4E042C4F2040202F5805202F13402126842F4805203F5805303F1340375
S32D000109E81A604BE0FA684FF45043C4F206039A4214D14FF4E043C4F204034FF4E042C4F2040202F5805202F183
S32D00010A103402126842F4005203F5805303F134031A602FE0FA684FF42043C4F20E039A4214D14FF4E043C4F254
S32D00010A3804034FF4E042C4F2040202F5805202F12802126842F4806203F5805303F128031A6013E04FF4E04332
S32D00010A60C4F204034FF4E042C4F2040202F5805202F12802126842F4006203F5805303F128031A60FB68DB7877
S32D00010A88DBB223F00C03DAB2FB68DA70FB684FF000029A70BB684FF47A7202FB03F27B684FEA031392FBF3F3C0
S32D00010AB09CB2FB681B78DBB223F01F03FB75234603F4F8534FEA2323DBB203F01F03DAB2FB7D1343DAB2FB688C
S32D00010AD81A70E2B2FB685A70BB684FF4FA4202FB03F27B684FEA031392FBF3F39AB2234619464FEAC121CB1A57
S32D00010B004FEA43139BB2D3189CB2FB689B7ADBB223F01F03FB75E3B203F01F03DAB2FB7D1343DAB2FB689A7208
S32D00010B28FB68DB78DBB243F00C03DAB2FB68DA7007F11807BD4690BC704700BF80B483B000AF786000BF7B6874
S32D00010B501B79DBB203F02003002B14BF00230123DBB2002BF3D17B68DB79DBB2184607F10C07BD4680BC70475B
S32D00010B7880B483B000AF78600B46FB7000BF7B681B79DBB2DBB26FEA0303DBB24FEAD313DBB2002BF3D17B68EA
S32D00010BA0FA78DA7107F10C07BD4680BC704700BF80B487B000AFF860B9607A60FB687B6107E0BB68DAB27B698B
S32D00010BC81A707B6903F101037B617B68002B0CBF00230123DBB27A6802F1FF327A60002BEBD107F11C07BD462A
S32D00010BF080BC704780B584B000AF786039607B681B6BFB60FA683B689A4264D07B681B79002B43D07B685A7817
S32D00010C187B6803F1340310461946FA684FF0010301F0ACFB0346002B0CBF00230123DBB2002B02D04FF001035A
S32D00010C404BE07B684FF000021A717B685A6A7B681B6AD218FB689A4220D97B68DB78FB7214E07B681B6AFA6819
S32D00010C68D318FB607B685A787B6803F1340310461946FA684FF0010301F080FBFB7A03F1FF33FB72FB7A012BE5
S32D00010C9094BF00230123DBB2002BE2D13B68002B19D07B685A787B6803F13403104619463A684FF0010301F02B
S32D00010CB857FA0346002B0CBF00230123DBB2002B02D04FF0010304E07B683A681A634FF00003184607F11007D4
S32D00010CE0BD4680BD80B584B000AF786078684FF00001FFF77FFF0346FB73FB7B002B40F0AE807B681B78032BC7
S32D00010D0840F095807B685B79002B00F090807B684FF000021A637B6803F1340318464FF000014FF40072FFF79D
S32D00010D303FFF7B684FF0550283F832227B684FF0AA0283F833227B684FF0520283F834207B684FF0520283F83A
S32D00010D5835207B684FF0610283F836207B684FF0410283F837207B684FF0720283F818227B684FF0720283F82E
S32D00010D8019227B684FF0410283F81A227B684FF0610283F81B227B681B69DAB27B6883F81C227B681B699BB26D
S32D00010DA84FEA2323DAB27B6883F81D227B681B694FEA1343DAB27B6883F81E227B681B694FEA1363DAB27B68CF
S32D00010DD083F81F227B68DB68DAB27B6883F820227B68DB689BB24FEA2323DAB27B6883F821227B68DB684FEA68
S32D00010DF81343DAB27B6883F822227B68DB684FEA1363DAB27B6883F823227B6859787B6803F134027B685B69DC
S32D00010E20084611461A464FF0010301F0ABFA7B684FF000025A717B685B7818464FF000014FF0000201F084FBD1
S32D00010E480346002B0CBF00230123DBB2002B02D04FF00103FB73FB7B184607F11007BD4680BD00BF80B582B071
S32D00010E7000AF78600B467B807B68002B08D07B681B78002B04D07B68DB887A889A4202D04FF009030FE07B6812
S32D00010E985B78184601F0ECFB034603F00103DBB2002B02D04FF0030301E04FF00003184607F10807BD4680BD4B
S32D00010EC080B586B000AF78607B681A687B689B8810461946FFF7CAFF0346FB75FB7D002B40F0C8807B689B7967
S32D00010EE803F02003002B00F0C1807B689B7903F04003002B20D07B681B6859787B6803F128027B689B690846B4
S32D00010F1011461A464FF0010301F034FA0346002B0CBF00230123DBB2002B02D04FF00103A1E07B689B7923F0BB
S32D00010F384003DAB27B689A717B681A687B68DB6910461946FFF752FE0346FB75FB7D002B40F08C807B681B6A46
S32D00010F603B613B6903F10B033A6902F10B02127842F02002D2B21A703B6903F11C037A68D268D2B21A703B690C
S32D00010F8803F11D037A68D26892B24FEA2222D2B21A703B6903F11E037A68D2684FEA1242D2B21A703B6903F133
S32D00010FB01F037A68D2684FEA1262D2B21A703B6903F11A037A681269D2B21A703B6903F11B037A68126992B2A2
S32D00010FD84FEA2222D2B21A703B6903F114037A6812694FEA1242D2B21A703B6903F115037A6812694FEA12421E
S32D0001100092B24FEA2222D2B21A704FF00003FB603B6903F11603FA68D2B21A703B6903F11703FA6892B24FEAA3
S32D000110282222D2B21A703B6903F11803FA684FEA1242D2B21A703B6903F11903FA684FEA1262D2B21A707B68E3
S32D000110509B7923F02003DAB27B689A717B681B684FF001021A717B681B681846FFF73AFE0346FB75FB7D1846F9
S32D0001107807F11807BD4680BD80B584B000AF78607868FFF719FF0346FB73FB7B002B03D17B684FF000021A604A
S32D000110A0FB7B184607F11007BD4680BD80B588B000AF786039604FF080033B614FF00F03FB604FF0FF337B611A
S32D000110C84FF00203FB612AE04FF00103BB611AE0FB69BA6902FB03F33A6802FB03F27B68D31ABB60BB68002BAF
S32D000110F009DBBA687B699A4205D2BB687B61FB693B61BB69FB60BB6903F10103BB61BB69102B8CBF002301238D
S32D00011118DBB2002BDCD1FB694FEA4303FB61FB69B3F5807F8CBF00230123DBB2002BCBD14FF48053C4F20B0339
S32D000111404FF48052C4F20B02D26A22F00802DA624FF48053C4F20B03DB6A1A464FF00F03CFF6F0731340BB61AD
S32D000111684FF48053C4F20B033A694FEA52024FEA02224FEA02424FEA1242F96801F1FF314FEA0111C9B211434A
S32D00011190BA690A4342F46022DA6203E04FF00A0001F0EEFB4FF48053C4F20B035B6A03F00803002B14BF002308
S32D000111B80123DBB2002BEDD14FF48053C4F20B034FF48052C4F20B02D26A42F00802DA624FF48053C4F20B032E
S32D000111E04FF48052C4F20B02126B42F480121A6307F12007BD4680BD80B582B000AF786039607B684FF000023C
S32D000112081A604FF48053C4F20B034FF40042C0F20012DA624FF48053C4F20B03DB6A03F08073002B0CBF0023C0
S32D000112300123DBB2002BF1D14FF48053C4F20B034FF00002C3F8C0204FF48053C4F20B034FF481325A604FF46E
S32D000112588053C4F20B034FF028029A624FF48053C4F20B034FF001125A643B689B6818464CF66041C0F20501E2
S32D00011280FFF714FF4FF48053C4F20B035B6A03F00303002B0CBF00230123DBB2002BF1D14FF45043C4F2040354
S32D000112A840F243421A604FF45043C4F2040340F243425A604FF45043C4F204034FF488629A604FF45043C4F29C
S32D000112D0040340F24342DA604FF45043C4F2040340F243421A614FF45043C4F2040340F243425A614FF4E043C7
S32D000112F8C4F204034FF4E042C4F2040202F5805202F13002126842F4003203F5805303F130031A604FF4805397
S32D00011320C4F20B034FF6FF721A634FF48053C4F20B034FF0B302C0F27F025A634FF48053C4F20B034FF48052FA
S32D00011348C4F20B02D26A42F00062DA624FF48053C4F20B03DB6A03F00063002B0CBF00230123DBB2002BF1D17B
S32D000113704FF48053C4F20B035B6A03F48033002B0CBF00230123DBB2002B03D07B684FF001021A604FF4805388
S32D00011398C4F20B034FF48052C4F20B02126B42F080021A634FF00003184607F10807BD4680BD00BF80B400AF53
S32D000113C04FF48053C4F20B035B6A1A4640F207331340002B0CBF00230123DBB21846BD4680BC704780B485B0B9
S32D000113E800AF78604FF48053C4F20B031B6B1A467B681340FB60FB68002B14BF00230123DBB2002BEED1FB687C
S32D00011410184607F11407BD4680BC704780B584B000AF78607B681B7803F03F0249F61043C0F2010353F82230C7
S32D00011438FB60FB68002B06D17B681B78002B02D04FF0010330E14FF48053C4F20B034FF48052C4F20B02126BCF
S32D0001146042F080021A634FF48053C4F20B035B6A03F00103DBB2002BF5D14FF48053C4F20B037A6852689A60A8
S32D00011488FB6823F44003FB607B685B784FEA835303F44003FA681343FB607B685B78022B03D1FB6843F40013A7
S32D000114B0FB607B685B78042B16D1FB6803F44033B3F5003F08D1FB6823F44033FB60FB6843F44033FB6007E0C2
S32D000114D8FB6823F44033FB60FB6843F40033FB604FF48053C4F20B034FF48052C4F20B0252684FEA02424FEA53
S32D0001150012425A607B68DB68002B32D0FB6803F44033B3F5403F03D0FB6843F40013FB607B681B7A002B03D016
S32D00011528FB6843F01003FB607B68DB68012B03D9FB6843F02003FB607B68DB68B3F1FF3F13D04FF48053C4F297
S32D000115500B034FF48052C4F20B02526811467A68D2684FEA02420A435A60FB6843F00203FB604FF48053C4F213
S32D000115780B034FF000021A604FF48053C4F20B03FA68DA604FF00100C0F20E00FFF726FF0346012B0CBF002387
S32D000115A00123DBB2002B10D04FF48053C4F20B034FF48052C4F20B02126B42F4702242F001021A634FF0010374
S32D000115C872E04FF48053C4F20B031B6B03F08003002B0CBF00230123DBB2002B0ED04FF48053C4F20B034FF4DC
S32D000115F08052C4F20B02126B42F001121A634FF0010355E04FF48053C4F20B031B6B03F48033002B0CBF00235D
S32D000116180123DBB2002B0ED04FF48053C4F20B034FF48052C4F20B02126B42F001121A634FF0FF3338E0FB680C
S32D0001164003F44033002B25D04FF48053C4F20B031B691A467B681A61FB6803F44033B3F5803F17D14FF48053A3
S32D00011668C4F20B035B691A467B685A614FF48053C4F20B039B691A467B689A614FF48053C4F20B03DB691A4633
S32D000116907B68DA614FF48053C4F20B034FF48052C4F20B02126B42F001021A634FF00003184607F11007BD467A
S32D000116B880BD00BF80B592B000AF786039604FF00003FB633B68BB6341F29013C1F6FF737B637B6B002B03D14D
S32D000116E040F6012300F0A0BC41F29433C1F6FF733B633B6B002B03D140F60B2300F094BC3B6B1B68FB62FB6A40
S32D00011708002B03D140F60B2300F08ABC7B6841F20432934200F0388241F2043293421BD841F20132934238D0DA
S32D0001173041F20132934207D8032B00F03D84092B00F0298400F066BC41F20232934200F0128241F203329342B1
S32D0001175800F0BE8300F05ABC41F20732934200F04B8341F2073293420BD841F20532934200F0348241F20632B8
S32D00011780934200F0108300F045BC41F20832934200F0B68241F20932934200F0C48200F039BC786B49F60441C2
S32D000117A8C0F20101FFF724FD0346FB63FB6B002B40F030844FF0000387F847304FF0000387F82B304FF0000395
S32D000117D087F82A304FF0000387F829304FF0000387F846304FF0000387F828304FF000033B724FF000037B7289
S32D000117F84FF00003FB604FF000033B744FF000037B6107F108031846FFF704FE0346002B0CBF00230123DBB2AA
S32D00011820002B03D04FF00103FB63FCE340F24C4001F0A6F84FF008033B724FF000037B724FF4D573FB604FF083
S32D0001184800033B744FF000037B6107F108031846FFF7E0FD03463B643B6C002B0BD1BA69FB689A4203D04FF063
S32D000118700103FB63D7E34FF0010387F846304FF0010387F8283097F82830002B00F0C6804FF037033B724FF02E
S32D0001189800037B724FF00003FB604FF000033B744FF000037B6107F108031846FFF7B2FD03463B643B6C002BC5
S32D000118C003D04FF00103FB63ADE34FF069033B724FF000037B724FF00003FB604FF000033B744FF000037B61C2
S32D000118E807F108031846FFF795FD0346002B0CBF00230123DBB2002B03D04FF00103FB638DE3BB6903F4401358
S32D00011910002B00F083804FF000033B644FF00A0001F02EF83B6C03F101033B644FF037033B724FF000037B72B6
S32D000119384FF00003FB604FF000033B744FF000037B6107F108031846FFF764FD0346002B0CBF00230123DBB209
S32D00011960002B03D04FF00103FB6336E04FF069033B724FF000037B7297F84630002B05D04FF00003C4F23003EC
S32D00011988FB6002E04FF44013FB604FF000033B744FF000037B6107F108031846FFF73AFD0346002B0CBF002303
S32D000119B00123DBB2002B03D04FF00103FB630CE0BB69002B05DB3B6C632B02D84FF0010301E04FF00003002BFD
S32D000119D8A0D1FB6B002B40F01F833B6C632B04D94FF0000387F8463014E04FF0010387F8473097F84630002B66
S32D00011A000CD04FF0000387F84630BB6903F08043002B03D04FF0010387F8463097F82A30002B03D07B6B4FF088
S32D00011A2807021A6097F82930002B03D07B6B4FF008021A6097F82B30002B03D07B6B4FF004021A6097F84730EA
S32D00011A50002B0BD07B6B4FF002021A6097F84630002B03D07B6B4FF003021A6097F82B30002B0FD097F847301D
S32D00011A78002B0BD07B6B4FF005021A6097F84630002B03D07B6B4FF006021A604FF45043C4F204034FF0000215
S32D00011AA01A604FF45043C4F204034FF000025A604FF45043C4F204034FF000029A604FF45043C4F204034FF06F
S32D00011AC80002DA604FF45043C4F204034FF000021A614FF45043C4F204034FF000025A61FB6A9A68FB6A5B6846
S32D00011AF010461946FFF7DAFA4FF45043C4F2040340F243421A604FF45043C4F2040340F243425A604FF45043AA
S32D00011B18C4F204034FF488629A604FF45043C4F2040340F24342DA604FF45043C4F2040340F243421A614FF42E
S32D00011B405043C4F2040340F243425A614FF4E043C4F204034FF4E042C4F2040202F5805202F13002126842F4D2
S32D00011B68003203F5805303F130031A6057E2B86BFFF750FC03463B643B6C002B00F04E824FF00203FB6349E2CB
S32D00011B90BB6B002B03D14FF00C03FB6343E24FF48053C4F20B03DB6A03F47F434FEA13234FEA43033B644FF488
S32D00011BB88053C4F20B03DB6A03F0F0034FEA131303F101023B6C02FB03F33B64FB6A9A683B6CB2FBF3F2BB6BE7
S32D00011BE01A6020E2BB6B002B03D14FF00C03FB6319E2BB6B1B68002B03D14FF00C03FB6311E2FFF7DBFB034632
S32D00011C08002B14BF00230123DBB2002B70D04FF45043C4F204034FF000021A604FF45043C4F204034FF000024E
S32D00011C305A604FF45043C4F204034FF000029A604FF45043C4F204034FF00002DA604FF45043C4F204034FF01D
S32D00011C5800021A614FF45043C4F204034FF000025A61FB6A9A68BB6B1B6810461946FFF719FA4FF45043C4F2F7
S32D00011C80040340F243421A604FF45043C4F2040340F243425A604FF45043C4F204034FF488629A604FF4504369
S32D00011CA8C4F2040340F24342DA604FF45043C4F2040340F243421A614FF45043C4F2040340F243425A614FF452
S32D00011CD0E043C4F204034FF4E042C4F2040202F5805202F13002126842F4003203F5805303F130031A6096E131
S32D00011CF840F60A23FB6392E1BB6B002B03D14FF00C03FB638BE14FF48053C4F20B035B684FEAC3434FEAD34321
S32D00011D20BA6B13607FE1BB6B002B03D14FF00C03FB6378E1FFF742FB0346002B14BF00230123DBB2002B2AD0FF
S32D00011D48BB6B1A6840F6FF739A4203D94FF00C03FB6364E14FF48053C4F20B034FF48052C4F20B02526822F4F1
S32D00011D70FE5222F03F025A604FF48053C4F20B034FF48052C4F20B0252681146BA6B12684FEAC2424FEAD242FB
S32D00011D980A435A6043E140F60A23FB633FE1BB6B002B03D14FF00C03FB6338E14FF48053C4F20B039B6A03F054
S32D00011DC006034FEA53033B643B6C002B04D1BB6B4FF000021A6026E13B6C012B04D1BB6B4FF001021A601EE1A5
S32D00011DE83B6C102B04D1BB6B4FF002021A6016E14FF00503FB6312E1BB6B002B03D14FF00C03FB630BE1FFF7F0
S32D00011E10D5FA0346002B14BF00230123DBB2002B56D0BB6B1B68002B16D14FF48053C4F20B034FF48052C4F208
S32D00011E380B02926A22F006029A624FF48053C4F20B034FF48052C4F20B02926A9A62E6E0BB6B1B68012B18D12E
S32D00011E604FF48053C4F20B034FF48052C4F20B02926A22F006029A624FF48053C4F20B034FF48052C4F20B02DD
S32D00011E88926A42F002029A62C9E0BB6B1B68022B16D14FF48053C4F20B034FF48052C4F20B02926A22F00602CF
S32D00011EB09A624FF48053C4F20B034FF48052C4F20B02926A9A62AEE04FF00503FB63AAE040F60A23FB63A6E059
S32D00011ED8BB6B002B03D14FF00C03FB639FE04FF48053C4F20B034FF48052C4F20B02D26A42F00062DA624FF48A
S32D00011F008053C4F20B03DB6A03F00063002B0CBF00230123DBB2002BF1D14FF48053C4F20B031B6B03F08003F3
S32D00011F28002B0CBF00230123DBB2002B0FD04FF48053C4F20B034FF48052C4F20B02126B42F080021A637B6B70
S32D00011F504FF000021A604FF48053C4F20B035B6A03F48033002B0CBF00230123DBB2002B08D07B6B1B68002BFD
S32D00011F7808D17B6B4FF001021A6003E07B6B4FF000021A607B6B1A68BB6B1A6047E0BB6B4FF01C021A60BB6BE9
S32D00011FA003F104034FF004021A60BB6B03F108034FF41E721A6036E04FF00200FFF712FA4FF48053C4F20B03B3
S32D00011FC81B6B03F4E003002B0CBF00230123DBB2002B0ED04FF48053C4F20B034FF48052C4F20B02126B42F452
S32D00011FF0E0021A634FF00403FB634FF48053C4F20B034FF48052C4F20B02126B42F032021A6308E040F6092363
S32D00012018FB6304E000BF02E000BF00E000BFFB6B184607F14807BD4680BD00BF80B489B000AF786039607B68DE
S32D000120407B6141F29013C1F6FF733B613B69002B02D14FF0000381E03B691B68022B0BD03B691B68032B07D05A
S32D000120683B691B68072B03D03B691B68082B0DD14FF48053C4F20B035B6A03F00403002B0CBF00230123DBB282
S32D00012090002BF1D13B68FB6156E0FB69B3F5007F28BF4FF40073FB60FB6803F103034FEA9303BB613CE04FF4D5
S32D000120B88053C4F20B031B6B03F4E003002B0CBF00230123DBB2002B10D04FF48053C4F20B034FF48052C4F288
S32D000120E00B02126B42F4E00242F020021A634FF0000333E04FF48053C4F20B035B6A03F40063002B14BF0023EF
S32D000121080123DBB2002BF1D14FF48053C4F20B031B6A1A467B691A607B6903F104037B61BB6903F1FF33BB61CC
S32D00012130BB69002B0CBF00230123DBB2002BBAD1FA69FB68D31AFB61FB69002B0CBF00230123DBB2002BA0D103
S32D000121584FF00103184607F12407BD4680BC704780B58EB000AFB9607A600246FA73BB7341F27C13C1F6FF73BB
S32D000121807B63FB7B002B02D1BB7B002B02D14FF0040381E040F20043C1F6FF731B78DBB203F00103DBB2002B96
S32D000121A802D04FF0030373E0BB68002B02D14FF000036DE07B6B1B7B002B03D17B684FEA43237B60BB7B012BB4
S32D000121D02CD14FF011033B754FF000037B757B68BB614FF001033B77BB7B3B6207F1140341F202301946FFF71E
S32D000121F861FA0346002B14BF00230123DBB2002B3ED0B8684FF40071FFF710FF0346002B0CBF00230123DBB21D
S32D00012220002B31D04FF00003BB732DE04FF012033B754FF000037B757B68BB614FF001033B77BB7B3B6207F1F1
S32D00012248140341F202301946FFF734FA0346002B14BF00230123DBB2002B11D0BB7B4FEA4323B8681946FFF7F7
S32D00012270E1FE0346002B0CBF00230123DBB2002B02D04FF00003BB73BB7B002B02D04FF0010301E04FF0000347
S32D00012298184607F13807BD4680BD00BF80B487B000AF786039607B68FB603B687B6155E07B69B3F5007F28BF14
S32D000122C04FF400733B617A693B69D31A7B613B6903F103034FEA93033B613BE04FF48053C4F20B031B6B03F4D2
S32D000122E8E003002B0CBF00230123DBB2002B10D04FF48053C4F20B034FF48052C4F20B02126B42F4E00242F096
S32D0001231010021A634FF0FF332EE04FF48053C4F20B035B6A03F48063002B14BF00230123DBB2002BF1D14FF415
S32D000123388053C4F20B03FA6812681A62FB6803F10403FB603B6903F1FF333B613B69002B0CBF00230123DBB2FA
S32D00012360002BBBD17B69002B0CBF00230123DBB2002BA1D14FF00103184607F11C07BD4680BC704780B58EB027
S32D0001238800AFB9607A600246FA73BB7341F27C13C1F6FF737B63FB7B002B02D1BB7B002B02D14FF00403CAE040
S32D000123B040F20043C1F6FF731B78DBB203F00103DBB2002B02D04FF00303BCE040F20043C1F6FF731B78DBB220
S32D000123D803F00403002B0CBF00230123DBB2002B02D04FF00203AAE0BB68002B02D14FF00003A4E07B6B1B7BE4
S32D00012400002B03D17B684FEA43237B60BB7B012B2CD14FF018033B754FF000037B757B68BB614FF000033B77C3
S32D00012428BB7B3B6207F1140341F202301946FFF741F90346002B14BF00230123DBB2002B3ED0B8684FF4007187
S32D00012450FFF728FF0346002B0CBF00230123DBB2002B31D04FF00003BB732DE04FF019033B754FF000037B7547
S32D000124787B68BB614FF000033B77BB7B3B6207F1140341F202301946FFF714F90346002B14BF00230123DBB27E
S32D000124A0002B11D0BB7B4FEA4323B8681946FFF7F9FE0346002B0CBF00230123DBB2002B02D04FF00003BB7340
S32D000124C84FF00D033B754FF000037B757B6B1B69BB614FF000033B774FF000033B6207F1140341F20230194688
S32D000124F0FFF7E4F80346002B0CBF00230123DBB2002B02D04FF001031DE07A6A48F20803CFF6D9731340002BE3
S32D0001251802D04FF0010312E07B6A03F4F853B3F5106F0CBF00230123DBB2002BC8D1BB7B002B02D04FF0010366
S32D0001254001E04FF00003184607F13807BD4680BD80B58CB000AF0B463A600246FA71BB7141F27C13C1F6FF739F
S32D00012568BB62FB79002B02D04FF004037AE04FF0010387F82F3040F20043C1F6FF731B78DBB203F00103DBB2B3
S32D00012590002B02D04FF0030368E0BB79032B5FD801A252F823F000BFB9250100C3250100D5250100E72501006A
S32D000125B84FF0000387F82F3052E0BB6A9A683B681A604FF0000387F82F3049E03B684FF400721A804FF00003E1
S32D000125E087F82F3040E04FF009033B724FF000037B72BB6A1B69FB604FF000033B744FF000037B6107F1080391
S32D0001260841F202301946FFF755F80346002B0CBF00230123DBB2002B02D04FF0010321E07B6A03F44003002BFE
S32D0001263011D13B6A4FEA934303F07F0303F101027B6A4FEA132303F0030303F1FF3302FA03F23B681A604FF0B9
S32D00012658000387F82F3003E04FF0040387F82F3097F82F30184607F13007BD4680BD00BF80B483B000AF034692
S32D00012680FB71FB79002B02D04FF0010305E040F20043C1F6FF731B78DBB2184607F10C07BD4680BC704700BF4A
S32D000126A880B483B000AF78604FF4E043C4F204034FF4E042C4F2040202F5805202F13802126842F0010203F534
S32D000126D0805303F138031A604FF00003C4F204037A689A604FF00003C4F204034FF005025A604FF00003C4F28D
S32D000126F804034FF00002C4F20402126842F001021A6000BF4FF00003C4F204031B6803F08003002B14BF0023AE
S32D000127200123DBB2002BF1D14FF00003C4F204034FF00002C4F20402126822F001021A6007F10C07BD4680BC9D
S32D00012748704700BF80B582B000AF786039607B68012B0AD13A684FF6FF739A4205D141F29C30C1F6FF7000F05B
S32D000127700FF807F10807BD4680BD00BF80B500AF4FF001004FF6FF71FFF7E0FF80BD00BF80B483B000AF786095
S32D000127987B684FF000021A707B68184607F10C07BD4680BC704700BF80B582B000AF78607B681B7883F0010388
S32D000127C0DBB2002B36D04FF4E043C4F2040303F5805303F128034FF400621A604FF45043C4F204034FF4407278
S32D000127E81A624FF45043C4F204034FF440725A6241F2A033C1F6FF731B684FEAD372D3184FEA63034FF4304095
S32D00012810C4F20E0019464FF46142FEF78DF84FF0640000F0ADF87B684FF001021A704FF0010301E04FF00003C9
S32D00012838184607F10807BD4680BD00BF80B582B000AF7860F970BA707B704FF43040C4F20E004FF07F01FEF776
S32D000128608BF94FF43040C4F20E004FF00801FEF783F9FB784FF43040C4F20E001946FEF77BF9BB784FF43040FD
S32D00012888C4F20E001946FEF773F97B784FF43040C4F20E001946FEF76BF94FF43040C4F20E004FF0FF01FEF7D0
S32D000128B063F907F10807BD4680BD00BF80B487B000AFF860B9607A60FA6844F6D353C1F26203A3FB02134FEA6C
S32D000128D89312BB68D3187B61FA6844F6D353C1F26203A3FB02134FEA93134FF47A7101FB03F3D31AFB60FB680B
S32D000129004FEAC33244F6D353C1F26203A3FB02134FEA93127B68D3183B613B694FEAD3337A69D3187B613B69D6
S32D000129284FEA43434FEA53433B614FF45043C4F203031B681A467B699A4211D34FF45043C4F203031B681A46C8
S32D000129507B699A420BD14FF45043C4F203035B681A463B699A4202D24FF0010301E04FF00003002BDDD107F17C
S32D000129781C07BD4680BC704780B584B000AF78604FF45043C4F203031B68FB604FF45043C4F203035B68BB6047
S32D000129A07B681846F968BA68FFF788FF07F11007BD4680BD0000000080B584B000AFC7E900014FF45043C4F223
S32D000129C803031B68FB604FF45043C4F203035B68BB60D7E900010AA3D3E90023F9F7CCFE02460B461046194637
S32D000129F0FAF788F903461846F968BA68FFF75EFF07F11007BD4680BD0000000000408F4080B584B000AF4FF410
S32D00012A185043C4F203031B68FB604FF45043C4F203035B68BB60F868F9F730FE02460B46C7E90023B868F9F7F8
S32D00012A4029FE02460B46104619464FF000024FF0804303F56003F9F7BDFF02460B46D7E90001F9F7DBFC02463F
S32D00012A680B46C7E90023D7E900231046194607F11007BD4680BD00BF80B483B000AF4FF45043C4F203031B684A
S32D00012A904FF47A7202FB03F37B604FF45043C4F203035B684FF47A7202FB03F34FEAD3337A68D3187B607B68D9
S32D00012AB8184607F10C07BD4680BC704780B584B000AF78600B46FB704FF00B03FB73FA78FB7B786811461A46AA
S32D00012AE000F0ECF87B68184607F11007BD4680BD80B485B000AF78607B68A3F11003002B01DA03F11F034FEA94
S32D00012B086313FB60FB68012B48D0022B00F08980002B40F0C9804FF46142CEF200024FF46143CEF20003D3F83F
S32D00012B30803119467B68A3F110004FF01F03C8F200030340002B05DA03F1FF3363F01F0303F101034FF00100A1
