S01300002E2E2F46696E616C436F64652E733139F1
S32D0000C00000000020A1F60000FDF90000FDF90000FDF90000FDF90000FDF900000000000000000000000000008D
S32D0000C02800000000FDF90000FDF9000000000000FDF90000FDF90000FDF90000FDF90000FDF90000FDF900003A
S32D0000C050FDF90000FDF90000FDF90000FDF90000FDF90000FDF90000FDF90000FDF90000FDF90000FDF9000026
S32D0000C078FDF90000FDF90000FDF90000FDF90000FDF90000FDF90000FDF90000FDF90000FDF90000FDF90000FE
S32D0000C0A0FDF90000FDF90000FDF90000FDF90000FDF90000FDF90000FDF90000FDF90000FDF90000FDF90000D6
S32D0000C0C8FDF90000FDF90000FDF90000FDF90000FDF90000FDF90000FDF90000FDF90000FDF90000FDF90000AE
S32D0000C0F0FDF900004D660100FDF90000FDF90000FDF90000FDF90000FDF90000FDF90000FDF90000FDF90000C8
S32D0000C118FDF90000FDF90000FDF90000FDF90000FDF90000FDF90000FDF90000FDF90000FDF90000FDF900005D
S32D0000C140FDF90000FDF90000FDF90000FDF900009D2E0100FDF90000FDF90000FDF90000FDF90000FDF900005F
S32D0000C168FDF90000FDF90000FDF90000FDF90000FDF90000FDF90000FDF90000FDF90000FDF90000FDF900000D
S32D0000C190FDF90000FDF90000FDF90000FD28010051270100252801004DFA0000D5290100FDF90000FDF9000080
S32D0000C1B8FDF90000FDF90000FDF90000FDF90000FDF90000FDF90000FDF90000FDF90000FDF90000FDF90000BD
S32D0000C41081F0004102E000BF83F0004330B54FEA41044FEA430594EA050F08BF90EA020F1FBF54EA000C55EAC6
S32D0000C438020C7FEA645C7FEA655C00F0E2804FEA5454D4EB5555B8BF6D420CDD2C4480EA020281EA030382EA0F
S32D0000C460000083EA010180EA020281EA0303362D88BF30BD11F0004F4FEA01314FF4801C4CEA113102D0404263
S32D0000C48861EB410113F0004F4FEA03334CEA133302D0524263EB430394EA050F00F0A780A4F10104D5F1200E8A
S32D0000C4B00DDB02FA0EFC22FA05F2801841F1000103FA0EF2801843FA05F359410EE0A5F120050EF1200E012A2D
S32D0000C4D803FA0EFC28BF4CF0020C43FA05F3C01851EBE37101F0004507D54FF0000EDCF1000C7EEB00006EEB67
S32D0000C5000101B1F5801F1BD3B1F5001F0CD349085FEA30004FEA3C0C04F101044FEA445212F5800F80F09A8000
S32D0000C528BCF1004F08BF5FEA500C50F1000041EB045141EA050130BD5FEA4C0C404141EB010111F4801FA4F114
S32D0000C5500104E9D191F0000F04BF01460020B1FA81F308BF2033A3F10B03B3F120020CDA0C3208DD02F1140C87
S32D0000C578C2F10C0201FA0CF021FA02F10CE002F11402D8BFC2F1200C01FA02F120FA0CFCDCBF41EA0C019040B1
S32D0000C5A0E41AA2BF01EB0451294330BD6FEA04041F3C1CDA0C340EDC04F11404C4F1200220FA04F001FA02F3B6
S32D0000C5C840EA030021FA04F345EA030130BDC4F10C04C4F1200220FA02F001FA04F340EA0300294630BD21FAA8
S32D0000C5F004F0294630BD94F0000F83F4801306BF81F480110134013D4EE77FEA645C18BF7FEA655C29D094EA1C
S32D0000C618050F08BF90EA020F05D054EA000C04BF1946104630BD91EA030F1EBF0021002030BD5FEA545C05D1A3
S32D0000C6404000494128BF41F0004130BD14F580043CBF01F5801130BD01F0004545F0FE4141F470014FF0000031
S32D0000C66830BD7FEA645C1ABF194610467FEA655C1CBF0B46024650EA013406BF52EA033591EA030F41F40021D7
S32D0000C69030BD00BF90F0000F04BF0021704730B54FF4806404F132044FF000054FF0000150E700BF90F0000F66
S32D0000C6B804BF0021704730B54FF4806404F1320410F0004548BF40424FF000013EE700BF42004FEAE2014FEAF9
S32D0000C6E031014FEA02701FBF12F07F4393F07F4F81F06051704792F0000F14BF93F07F4F704730B54FF460741B
S32D0000C70801F0004521F0004120E700BF50EA010208BF704730B54FF000050AE050EA010208BF704730B511F046
S32D0000C730004502D5404261EB41014FF4806404F132045FEA915C3FF4DCAE4FF003025FEADC0C18BF03325FEAA0
S32D0000C758DC0C18BF033202EBDC02C2F1200300FA03FC20FA02F001FA03FE40EA0E0021FA02F11444C1E600BF19
S32D0000C78070B54FF0FF0C4CF4E06C1CEA11541DBF1CEA135594EA0C0F95EA0C0F00F0DEF82C4481EA030621EAF3
S32D0000C7A84C5123EA4C5350EA013518BF52EA033541F4801143F4801338D0A0FB02CE4FF00005E1FB02E506F05F
S32D0000C7D00042E0FB03E54FF00006E1FB03569CF0000F18BF4EF0010EA4F1FF04B6F5007F64F5407404D25FEA0F
S32D0000C7F84E0E6D4146EB060642EAC62141EA55514FEAC52040EA5E504FEACE2EB4F1FD0C88BFBCF5E06F1ED8D2
S32D0000C820BEF1004F08BF5FEA500E50F1000041EB045170BD06F0004646EA010140EA020081EA0301B4EB5C0487
S32D0000C848C2BFD4EB0C0541EA045170BD41F480114FF0000E013C00F3AB8014F1360FDEBF002001F0004170BDF0
S32D0000C870C4F10004203C35DA0C341BDC04F11404C4F1200500FA05F320FA04F001FA05F240EA020001F0004207
S32D0000C89821F0004110EBD37021FA04F642EB06015EEA430E08BF20EAD37070BDC4F10C04C4F1200500FA04F32F
S32D0000C8C020FA05F001FA04F240EA020001F0004110EBD37041F100015EEA430E08BF20EAD37070BDC4F12005C7
S32D0000C8E800FA05F24EEA020E20FA04F301FA05F243EA020321FA04F001F0004121FA04F220EA020000EBD37028
S32D0000C9105EEA430E08BF20EAD37070BD94F0000F0FD101F00046400041EB010111F4801F08BF013CF7D041EA6D
S32D0000C938060195F0000F18BF704703F00046520043EB030313F4801F08BF013DF7D043EA0603704794EA0C0FF1
S32D0000C9600CEA135518BF95EA0C0F0CD050EA410618BF52EA4306D1D181EA030101F000414FF0000070BD50EA38
S32D0000C988410606BF1046194652EA430619D094EA0C0F02D150EA013613D195EA0C0F05D152EA03361CBF10467B
S32D0000C9B019460AD181EA030101F0004141F0FE4141F470014FF0000070BD41F0FE4141F4780170BD70B54FF04D
S32D0000C9D8FF0C4CF4E06C1CEA11541DBF1CEA135594EA0C0F95EA0C0F00F0A7F8A4EB050481EA030E52EA03359B
S32D0000CA004FEA013100F088804FEA03334FF0805545EA131343EA12634FEA022245EA111545EA10654FEA002676
S32D0000CA280EF000419D4208BF964244F1FD0404F5407402D25B084FEA3202B61A65EB03055B084FEA32024FF461
S32D0000CA5080104FF4002CB6EB020E75EB030E22BFB61A754640EA0C005B084FEA3202B6EB020E75EB030E22BF22
S32D0000CA78B61A754640EA5C005B084FEA3202B6EB020E75EB030E22BFB61A754640EA9C005B084FEA3202B6EBEA
S32D0000CAA0020E75EB030E22BFB61A754640EADC0055EA060E18D04FEA051545EA16754FEA06164FEAC30343EAAC
S32D0000CAC852734FEAC2025FEA1C1CC0D111F4801F0BD141EA00014FF000004FF0004CB6E711F4801F04BF0143AE
S32D0000CAF00020B4F1FD0C88BFBCF5E06F3FF6AFAEB5EB030C04BFB6EB020C5FEA500C50F1000041EB045170BDBC
S32D0000CB180EF0004E4EEA113114EB5C04C2BFD4EB0C0541EA045170BD41F480114FF0000E013C90E645EA060EC3
S32D0000CB408DE60CEA135594EA0C0F08BF95EA0C0F3FF43BAF94EA0C0F0AD150EA01347FF434AF95EA0C0F7FF499
S32D0000CB6825AF104619462CE795EA0C0F06D152EA03353FF4FDAE1046194622E750EA410618BF52EA43067FF432
S32D0000CB90C5AE50EA41047FF40DAF52EA43057FF4EBAE12E74FF0FF3C06E000BF4FF0010C02E000BF4FF0010C75
S32D0000CBB84DF804CD4FEA410C7FEA6C5C4FEA430C18BF7FEA6C5C1BD001B050EA410C0CBF52EA430C91EA030FEC
S32D0000CBE002BF90EA020F0020704710F1000F91EA030F58BF994208BF90422CBFD8176FEAE37040F0010070476E
S32D0000CC084FEA410C7FEA6C5C02D150EA013C07D14FEA430C7FEA6C5CD6D152EA033CD3D05DF8040B704700BFCD
S32D0000CC308446104662468C461946634600E000BF01B5FFF7B7FF002848BF10F1000F01BD4DF808EDFFF7F4FF13
S32D0000CC580CBF012000205DF808FB00BF4DF808EDFFF7EAFF34BF012000205DF808FB00BF4DF808EDFFF7E0FF18
S32D0000CC8094BF012000205DF808FB00BF4DF808EDFFF7CEFF94BF012000205DF808FB00BF4DF808EDFFF7C4FF40
S32D0000CCA834BF012000205DF808FB00BF4FEA410212F5001215D211D56FF47873B3EB625212D94FEAC12343F0D6
S32D0000CCD0004343EA505311F0004F23FA02F018BF404270474FF00000704750EA013005D111F0004008BF6FF016
S32D0000CCF8004070474FF00000704700BF4A0011D212F5001211D20DD56FF47873B3EB62520ED44FEAC12343F085
S32D0000CD20004343EA505323FA02F070474FF00000704750EA013002D14FF0FF3070474FF0000070474FEA410241
S32D0000CD48B2F1E04324BFB3F5001CDCF1FE5C0DD901F0004C4FEAC0024CEA5070B2F1004F40EB830008BF20F09E
S32D0000CD700100704711F0804F21D113F13872BCBF01F00040704741F480114FEA5252C2F11802C2F1200C10FAB1
S32D0000CD980CF320FA02F018BF40F001004FEAC1234FEAD32303FA0CFC40EA0C0023FA02F34FEA4303CCE77FEA26
S32D0000CDC0625307D150EA01331EBF4FF0FE4040F44000704701F0004040F0FE4040F40000704700BF80F00040CC
S32D0000CDE802E000BF81F0004142001FBF5FEA410392EA030F7FEA226C7FEA236C6AD04FEA1262D2EB1363C1BF06
S32D0000CE10D218414048404140B8BF5B42192B88BF704710F0004F40F4000020F07F4018BF404211F0004F41F4FA
S32D0000CE38000121F07F4118BF494292EA030F3FD0A2F1010241FA03FC10EB0C00C3F1200301FA03F100F000432B
S32D0000CE6002D5494260EB4000B0F5000F13D3B0F1807F06D340084FEA310102F10102FE2A51D2B1F1004F40EB94
S32D0000CE88C25008BF20F0010040EA03007047490040EB000010F4000FA2F10102EDD1B0FA80FCACF1080CB2EB5F
S32D0000CEB00C0200FA0CF0AABF00EBC25052421843BCBFD0401843704792F0000F81F4000106BF80F400000132EB
S32D0000CED8013BB5E74FEA41037FEA226C18BF7FEA236C21D092EA030F04D092F0000F08BF0846704790EA010FD7
S32D0000CF001CBF0020704712F07F4F04D1400028BF40F00040704712F100723CBF00F50000704700F0004343F0DC
S32D0000CF28FE4040F4000070477FEA226216BF08467FEA23630146420206BF5FEA412390EA010F40F480007047C1
S32D0000CF504FF0000304E000BF10F0004348BF40425FEA000C08BF704743F0964301464FF000001CE050EA010264
S32D0000CF7808BF70474FF000030AE000BF50EA010208BF704711F0004302D5404261EB41015FEA010C02BF84465B
S32D0000CFA00146002043F0B64308BFA3F18053A3F50003BCFA8CF2083AA3EBC25310DB01FA02FC634400FA02FC6B
S32D0000CFC8C2F12002BCF1004F20FA02F243EB020008BF20F00100704702F1200201FA02FCC2F1200250EA4C0034
S32D0000CFF021FA02F243EB020008BF20EADC7070474FF0FF0C1CEAD0521EBF1CEAD15392EA0C0F93EA0C0F6FD019
S32D0000D0181A4480EA010C400218BF5FEA41211ED04FF0006343EA501043EA5111A0FB01310CF00040B1F5000FE7
S32D0000D0403EBF490041EAD3715B0040EA010062F17F02FD2A1DD8B3F1004F40EBC25008BF20F00100704790F058
S32D0000D068000F0CF0004C08BF49024CEA502040EA51207F3AC2BFD2F1FF0340EAC250704740F400004FF0000388
S32D0000D090013A5DDC12F1190FDCBF00F000407047C2F10002410021FA02F1C2F1200200FA02FC5FEA310040F1D5
S32D0000D0B8000053EA4C0308BF20EADC70704792F0000F00F0004C02BF400010F4000F013AF9D040EA0C0093F04C
S32D0000D0E0000F01F0004C02BF490011F4000F013BF9D041EA0C018FE70CEAD15392EA0C0F18BF93EA0C0F0AD00B
S32D0000D10830F0004C18BF31F0004CD8D180EA010000F00040704790F0000F17BF90F0004F084691F0000F91F0BB
S32D0000D130004F14D092EA0C0F01D142020FD193EA0C0F03D14B0218BF084608D180EA010000F0004040F0FE4051
S32D0000D15840F40000704740F0FE4040F4400070474FF0FF0C1CEAD0521EBF1CEAD15392EA0C0F93EA0C0F69D044
S32D0000D180A2EB030280EA010C49024FEA402037D04FF0805343EA111143EA10130CF000408B4238BF5B0042F14E
S32D0000D1A87D024FF4000C8B4224BF5B1A40EA0C00B3EB510F24BFA3EB510340EA5C00B3EB910F24BFA3EB9103A4
S32D0000D1D040EA9C00B3EBD10F24BFA3EBD10340EADC001B0118BF5FEA1C1CE0D1FD2A3FF650AF8B4240EBC25018
S32D0000D1F808BF20F0010070470CF0004C4CEA50207F32C2BFD2F1FF0340EAC250704740F400004FF00003013AF1
S32D0000D22037E792F0000F00F0004C02BF400010F4000F013AF9D040EA0C0093F0000F01F0004C02BF490011F4C9
S32D0000D248000F013BF9D041EA0C0195E70CEAD15392EA0C0F08D142027FF47DAF93EA0C0F7FF470AF084676E7AE
S32D0000D27093EA0C0F04D14B023FF44CAF08466EE730F0004C18BF31F0004CCAD130F000427FF45CAF31F0004376
S32D0000D2987FF43CAF5FE700BF4FF0FF3C06E000BF4FF0010C02E000BF4FF0010C4DF804CD4FEA40024FEA41039F
S32D0000D2C07FEA226C18BF7FEA236C11D001B052EA530C18BF90EA010F58BFB2EB030088BFC81738BF6FEAE1706E
S32D0000D2E818BF40F0010070477FEA226C02D15FEA402C05D17FEA236CE4D15FEA412CE1D05DF8040B704700BF16
S32D0000D310844608466146FFE70FB5FFF7C9FF002848BF10F1000F0FBD4DF808EDFFF7F4FF0CBF012000205DF839
S32D0000D33808FB00BF4DF808EDFFF7EAFF34BF012000205DF808FB00BF4DF808EDFFF7E0FF94BF012000205DF8A9
S32D0000D36008FB00BF4DF808EDFFF7D2FF94BF012000205DF808FB00BF4DF808EDFFF7C8FF34BF012000205DF8B1
S32D0000D38808FB00BF4FEA4002B2F1FE4F0FD34FF09E03B3EB12620DD94FEA002343F0004310F0004F23FA02F060
S32D0000D3B018BF404270474FF00000704712F1610F01D1420205D110F0004008BF6FF0004070474FF00000704797
S32D0000D3D880B483B000AF78607B6823F00043184607F10C07BD4680BC704700BF0000000080B584B000AF7860F2
S32D0000D40078681149FFF7FCFD03461846FFF764F902460B461046194609A3D3E90023FFF7D9FA02460B4610464A
S32D0000D4281946FFF743FC0346FB60FB68184607F11007BD4680BD00BF66129AC95C47214000004042AFF300804C
S32D0000D45080B584B000AF78607868FFF73DF902460B461046194612A3D3E90023FFF788F902460B46104619460B
S32D0000D4780FA3D3E90023FFF7A9FA02460B4610461946FFF75BFC0346FB60F8680A49FFF7B3FD0346BB60B86840
S32D0000D4A0FFF7AAFF0346184607F11007BD4680BDF1D4C853FB210940000000000080664000009040AFF300806C
S32D0000D4C880B584B000AF786039604FF0640004F08BFE41F23C10C1F6FF7005F0F3FA41F24010C1F6FF7005F068
S32D0000D4F0EDFA4FF0640004F07BFE3868FFF77CFF0346FB607868FFF727FD034641F24410C1F6FF70194602F021
S32D0000D51873FB7B68C3F100031846FFF719FD034641F24C10C1F6FF70194602F065FB7868FFF70EFD034641F267
S32D0000D5405410C1F6FF70194602F05AFB7B68C3F100031846FFF700FD034641F25C10C1F6FF70194602F04CFBFC
S32D0000D56861E041F24C40C1F6FF7006F061FC41F24C40C1F6FF7049F24801C0F2010106F003FF41F24C40C1F691
S32D0000D590FF70396806F044FF41F24C40C1F6FF7049F25801C0F2010106F0C0FF41F24C40C1F6FF7049F26001C1
S32D0000D5B8C0F2010106F0E8FE41F24C40C1F6FF70F96806F0C3FF41F24C40C1F6FF7049F27801C0F2010106F074
S32D0000D5E0D7FE41F24010C1F6FF7005F05BFA034641F24C40C1F6FF70194606F0ABFF41F24C40C1F6FF7049F208
S32D0000D6088C01C0F2010106F0BFFE41F23C10C1F6FF7005F043FA034641F24C40C1F6FF70194606F093FF41F2E1
S32D0000D6303C10C1F6FF7005F035FA0246FB689A4209DB41F24010C1F6FF7005F02BFA0246FB689A4202DA4FF066
S32D0000D658010301E04FF00003002B82D141F24410C1F6FF7002F078FA41F24C10C1F6FF7002F072FA41F2541044
S32D0000D680C1F6FF7002F06CFA41F25C10C1F6FF7002F066FA4FF0640004F0AAFD07F11007BD4680BD80B584B0F1
S32D0000D6A800AF786039604FF0640004F09DFD41F23C10C1F6FF7005F005FA41F24010C1F6FF7005F0FFF94FF095
S32D0000D6D0640004F08DFD3868FFF78EFE0346FB607B68C3F100031846FFF736FC034641F24410C1F6FF7019460F
S32D0000D6F802F082FA7868FFF72BFC034641F24C10C1F6FF70194602F077FA7B68C3F100031846FFF71DFC034689
S32D0000D72041F25410C1F6FF70194602F069FA7868FFF712FC034641F25C10C1F6FF70194602F05EFA61E041F25B
S32D0000D7484C40C1F6FF7006F073FB41F24C40C1F6FF7049F24801C0F2010106F015FE41F24C40C1F6FF703968F1
S32D0000D77006F056FE41F24C40C1F6FF7049F25801C0F2010106F0D2FE41F24C40C1F6FF7049F26001C0F2010119
S32D0000D79806F0FAFD41F24C40C1F6FF70F96806F0D5FE41F24C40C1F6FF7049F27801C0F2010106F0E9FD41F20B
S32D0000D7C04010C1F6FF7005F06DF9034641F24C40C1F6FF70194606F0BDFE41F24C40C1F6FF7049F28C01C0F2CD
S32D0000D7E8010106F0D1FD41F23C10C1F6FF7005F055F9034641F24C40C1F6FF70194606F0A5FE41F23C10C1F609
S32D0000D810FF7005F047F90246FB689A4209DB41F24010C1F6FF7005F03DF90246FB689A4202DA4FF0010301E080
S32D0000D8384FF00003002B82D141F24410C1F6FF7002F08AF941F24C10C1F6FF7002F084F941F25410C1F6FF70FF
S32D0000D86002F07EF941F25C10C1F6FF7002F078F94FF0640004F0BCFC07F11007BD4680BD80B584B000AF78607B
S32D0000D88839604FF0640004F0AFFC41F23C10C1F6FF7005F017F941F24010C1F6FF7005F011F94FF0640004F0AE
S32D0000D8B09FFC3868FFF7CCFD0346FB607B68C3F100031846FFF748FB034641F24410C1F6FF70194602F094F9A7
S32D0000D8D87B68C3F100031846FFF73AFB034641F24C10C1F6FF70194602F086F97B68C3F100031846FFF72CFB1C
S32D0000D900034641F25410C1F6FF70194602F078F97B68C3F100031846FFF71EFB034641F25C10C1F6FF701946BD
S32D0000D92802F06AF961E041F24C40C1F6FF7006F07FFA41F24C40C1F6FF7049F2A001C0F2010106F021FD41F22B
S32D0000D9504C40C1F6FF70396806F062FD41F24C40C1F6FF7049F2B001C0F2010106F0DEFD41F24C40C1F6FF70C6
S32D0000D97849F26001C0F2010106F006FD41F24C40C1F6FF70F96806F0E1FD41F24C40C1F6FF7049F27801C0F2D3
S32D0000D9A0010106F0F5FC41F24010C1F6FF7005F079F8034641F24C40C1F6FF70194606F0C9FD41F24C40C1F6A2
S32D0000D9C8FF7049F28C01C0F2010106F0DDFC41F23C10C1F6FF7005F061F8034641F24C40C1F6FF70194606F001
S32D0000D9F0B1FD41F23C10C1F6FF7005F053F80246FB689A4209DB41F24010C1F6FF7005F049F80246FB689A42A5
S32D0000DA1802DA4FF0010301E04FF00003002B82D141F24410C1F6FF7002F096F841F24C10C1F6FF7002F090F8C4
S32D0000DA4041F25410C1F6FF7002F08AF841F25C10C1F6FF7002F084F84FF0640004F0C8FB07F11007BD4680BDAB
S32D0000DA6880B584B000AF786039604FF0640004F0BBFB41F23C10C1F6FF7005F023F841F24010C1F6FF7005F067
S32D0000DA901DF84FF0640004F0ABFB3868FFF7D8FC0346FB607868FFF757FA034641F24410C1F6FF70194602F09A
S32D0000DAB8A3F87868FFF74CFA034641F24C10C1F6FF70194602F098F87868FFF741FA034641F25410C1F6FF7093
S32D0000DAE0194602F08DF87868FFF736FA034641F25C10C1F6FF70194602F082F861E041F24C40C1F6FF7006F047
S32D0000DB0897F941F24C40C1F6FF7049F2BC01C0F2010106F039FC41F24C40C1F6FF70396806F07AFC41F24C40F2
S32D0000DB30C1F6FF7049F2B001C0F2010106F0F6FC41F24C40C1F6FF7049F26001C0F2010106F01EFC41F24C4015
S32D0000DB58C1F6FF70F96806F0F9FC41F24C40C1F6FF7049F27801C0F2010106F00DFC41F24010C1F6FF7004F044
S32D0000DB8091FF034641F24C40C1F6FF70194606F0E1FC41F24C40C1F6FF7049F28C01C0F2010106F0F5FB41F20D
S32D0000DBA83C10C1F6FF7004F079FF034641F24C40C1F6FF70194606F0C9FC41F23C10C1F6FF7004F06BFF0246DE
S32D0000DBD0FB689A4209DB41F24010C1F6FF7004F061FF0246FB689A4202DA4FF0010301E04FF00003002B82D1C0
S32D0000DBF841F24410C1F6FF7001F0AEFF41F24C10C1F6FF7001F0A8FF41F25410C1F6FF7001F0A2FF41F25C1079
S32D0000DC20C1F6FF7001F09CFF4FF0640004F0E0FA07F11007BD4680BD2DE9F04383B000AF786039604FF0640025
S32D0000DC4804F0D2FA41F2B440C1F6FF7009F0C8FF03461846FEF73CFD04460D467868FEF737FD80468946386831
S32D0000DC70FEF732FD02460B46104619468CA3D3E90023FEF7C9FB02460B4640464946FEF7C5FB02460B464FF012
S32D0000DC9801010E4620462946FEF7E0FF0346002B02D14FF000031E46F3B2002B00F0988041F24C40C1F6FF70B5
S32D0000DCC006F0BAF841F24C40C1F6FF7049F2CC01C0F2010106F02AFC41F24410C1F6FF70754901F08DFF41F2B6
S32D0000DCE84C10C1F6FF70734901F086FF41F25410C1F6FF706E4901F07FFF41F25C10C1F6FF706C4901F078FF95
S32D0000DD1035E041F2B440C1F6FF7009F055FF034641F24C40C1F6FF7019464FF002024FF00C0306F00DFB41F2E7
S32D0000DD38B440C1F6FF7009F053FF034641F24C40C1F6FF7019464FF003024FF00C0306F0FBFA41F2B440C1F670
S32D0000DD60FF7009F051FF034641F24C40C1F6FF7019464FF004024FF00C0306F0E9FA41F2B440C1F6FF7009F09E
S32D0000DD882FFF054678683968FFF72EF803464FF00102144628461946FFF7CCFA0346002B02D14FF000031C46FE
S32D0000DDB0E3B2002BADD141F24410C1F6FF7001F0CFFE41F24C10C1F6FF7001F0C9FE41F25410C1F6FF7001F081
S32D0000DDD8C3FE41F25C10C1F6FF7001F0BDFED5E041F2B440C1F6FF7009F0FAFE03461846FEF76EFC04460D4655
S32D0000DE007868FEF769FC804689463868FEF764FC02460B461046194625A3D3E90023FEF7FDFA02460B46404630
S32D0000DE284946FEF7F7FA02460B464FF001010E4620462946FEF730FF0346002B02D14FF000031E46F3B2002B73
S32D0000DE5000F0A08041F24C40C1F6FF7005F0ECFF41F24C40C1F6FF7049F2D801C0F2010106F05CFB41F244104E
S32D0000DE78C1F6FF700F4901F0BFFE41F24C10C1F6FF700B4901F0B8FE41F25410C1F6FF70084901F0B1FE41F2BF
S32D0000DEA05C10C1F6FF70044901F0AAFE3EE000BF9A9999999999C93F0000F0410000F0C141F2B440C1F6FF7031
S32D0000DEC809F07EFE034641F24C40C1F6FF7019464FF002024FF00C0306F036FA41F2B440C1F6FF7009F07CFEB3
S32D0000DEF0034641F24C40C1F6FF7019464FF003024FF00C0306F024FA41F2B440C1F6FF7009F07AFE034641F297
S32D0000DF184C40C1F6FF7019464FF004024FF00C0306F012FA41F2B440C1F6FF7009F058FE054678683968FEF7D8
S32D0000DF4057FF03464FF00102144628461946FFF713FA0346002B02D14FF000031C46E3B2002BADD141F24410F8
S32D0000DF68C1F6FF7001F0F8FD41F24C10C1F6FF7001F0F2FD41F25410C1F6FF7001F0ECFD41F25C10C1F6FF708E
S32D0000DF9001F0E6FD4FF0640004F02AF907F10C07BD46BDE8F08300BF90B583B000AF786077E241F2B440C1F6BA
S32D0000DFB8FF7009F025FE034678681946FEF712FF03464FF0010214461846DFF84815FFF7CFF90346002B02D1A6
S32D0000DFE04FF000031C46E3B2002B64D041F24C40C1F6FF7005F020FF41F24C40C1F6FF7049F2E401C0F20101C9
S32D0000E00806F090FA41F24C40C1F6FF7049F2F001C0F2010106F0B8F941F2B440C1F6FF7009F0EEFD034641F251
S32D0000E0304C40C1F6FF70194606F0F2F941F24410C1F6FF70DFF8D81401F0DAFD41F24C10C1F6FF70DFF8C81430
S32D0000E05801F0D2FD41F25410C1F6FF70DFF8B81401F0CAFD41F25C10C1F6FF70DFF8A81401F0C2FD4FF0640017
S32D0000E08004F0B6F841F24410C1F6FF7001F068FD41F24C10C1F6FF7001F062FD41F25410C1F6FF7001F05CFDC1
S32D0000E0A841F25C10C1F6FF7001F056FDF5E141F2B440C1F6FF7009F0A3FD034678681946FEF790FE03464FF0F2
S32D0000E0D0010214461846DFF84C14FFF72FF90346002B02D14FF000031C46E3B2002B60D041F24C40C1F6FF7052
S32D0000E0F805F09EFE41F24C40C1F6FF7049F2F801C0F2010106F00EFA41F24C40C1F6FF7049F2F001C0F20101D9
S32D0000E12006F036F941F2B440C1F6FF7009F06CFD034641F24C40C1F6FF70194606F070F941F24410C1F6FF7064
S32D0000E148F74901F059FD41F24C10C1F6FF70F44901F052FD41F25410C1F6FF70F04901F04BFD41F25C10C1F66B
S32D0000E170FF70ED4901F044FD4FF0640004F038F841F24410C1F6FF7001F0EAFC41F24C10C1F6FF7001F0E4FCD9
S32D0000E19841F25410C1F6FF7001F0DEFC41F25C10C1F6FF7001F0D8FC77E141F2B440C1F6FF7009F025FD03463E
S32D0000E1C078681946FEF712FE03464FF0010214461846D449FFF7D0F80346002B02D14FF000031C46E3B2002B24
S32D0000E1E81ED041F2B440C1F6FF7009F009FD034678681946FEF7F6FD03464FF0010214461846C849FFF796F887
S32D0000E2100346002B02D14FF000031C46E3B2002B02D04FF0010301E04FF00003002B60D041F24C40C1F6FF70BD
S32D0000E23805F0FEFD41F24C40C1F6FF7049F2E401C0F2010106F06EF941F24C40C1F6FF7049F2F001C0F20101ED
S32D0000E26006F096F841F2B440C1F6FF7009F0CCFC034641F24C40C1F6FF70194606F0D0F841F24410C1F6FF7006
S32D0000E288A54901F0B9FC41F24C10C1F6FF70A24901F0B2FC41F25410C1F6FF709E4901F0ABFC41F25C10C1F603
S32D0000E2B0FF709B4901F0A4FC4FF0640003F098FF41F24410C1F6FF7001F04AFC41F24C10C1F6FF7001F044FC65
S32D0000E2D841F25410C1F6FF7001F03EFC41F25C10C1F6FF7001F038FCD7E041F2B440C1F6FF7009F085FC03467F
S32D0000E30078681946FEF772FD03464FF00102144618468649FFF730F80346002B02D14FF000031C46E3B2002B71
S32D0000E3281ED041F2B440C1F6FF7009F069FC034678681946FEF756FD03464FF00102144618467449FEF7F6FF74
S32D0000E3500346002B02D14FF000031C46E3B2002B02D04FF0010301E04FF00003002B60D041F24C40C1F6FF707C
S32D0000E37805F05EFD41F24C40C1F6FF7049F2F801C0F2010106F0CEF841F24C40C1F6FF7049F2F001C0F20101D9
S32D0000E3A005F0F6FF41F2B440C1F6FF7009F02CFC034641F24C40C1F6FF70194606F030F841F24410C1F6FF709F
S32D0000E3C8574901F019FC41F24C10C1F6FF70544901F012FC41F25410C1F6FF70504901F00BFC41F25C10C1F68C
S32D0000E3F0FF704D4901F004FC4FF0640003F0F8FE41F24410C1F6FF7001F0AAFB41F24C10C1F6FF7001F0A4FBF5
S32D0000E41841F25410C1F6FF7001F09EFB41F25C10C1F6FF7001F098FB37E041F24410C1F6FF703B4901F0E0FB32
S32D0000E44041F24C10C1F6FF70374901F0D9FB41F25410C1F6FF70344901F0D2FB41F25C10C1F6FF70304901F08D
S32D0000E468CBFB4FF0640003F0BFFE41F24410C1F6FF7001F071FB41F24C10C1F6FF7001F06BFB41F25410C1F609
S32D0000E490FF7001F065FB41F25C10C1F6FF7001F05FFB41F2B440C1F6FF7009F0ADFB034678681946FEF79AFC8D
S32D0000E4B803461846FEF78CFF03464FF00102144618461949FEF754FF0346002B02D14FF000031C46E3B2002B77
S32D0000E4E07FF467AD41F24410C1F6FF7001F038FB41F24C10C1F6FF7001F032FB41F25410C1F6FF7001F02CFB0E
S32D0000E50841F25C10C1F6FF7001F026FB07F10C07BD4690BD000034430000F041000034C30000F0C10000000063
S32D0000E5300000803F00000000F0B583B000AF78604FF0640003F054FE41F2B440C1F6FF7009F03AFB0346184695
S32D0000E558FEF7BEF804460D467868FEF7B9F802460B4610461946B8A3D3E90023FDF750FF02460B464FF0010122
S32D0000E5800E4620462946FEF78BFB0346002B02D14FF000031E46F3B2002B00F0938041F24C40C1F6FF7005F02F
S32D0000E5A847FC41F24C40C1F6FF7049F2CC01C0F2010105F0B7FF41F24410C1F6FF70A44901F01AFB41F24C1087
S32D0000E5D0C1F6FF70A14901F013FB41F25410C1F6FF709D4901F00CFB41F25C10C1F6FF709A4901F005FB35E0C5
S32D0000E5F841F2B440C1F6FF7009F0E2FA034641F24C40C1F6FF7019464FF002024FF00C0305F09AFE41F2B44001
S32D0000E620C1F6FF7009F0E0FA034641F24C40C1F6FF7019464FF003024FF00C0305F088FE41F2B440C1F6FF70EC
S32D0000E64809F0DEFA034641F24C40C1F6FF7019464FF004024FF00C0305F076FE41F2B440C1F6FF7009F0ACFA5E
S32D0000E67003464FF00102144618467968FEF77CFE0346002B02D14FF000031C46E3B2002BB2D141F24410C1F67D
S32D0000E698FF7001F061FA41F24C10C1F6FF7001F05BFA41F25410C1F6FF7001F055FA41F25C10C1F6FF7001F0EB
S32D0000E6C04FFABCE041F2B440C1F6FF7009F07CFA03461846FEF700F804460D467868FDF7FBFF02460B4610469D
S32D0000E6E8194659A3D3E90023FDF794FE02460B464FF001010E4620462946FEF7AFFA0346002B02D14FF000031A
S32D0000E7101E46F3B2002B00F0928041F24C40C1F6FF7005F089FB41F24C40C1F6FF7049F2D801C0F2010105F0A5
S32D0000E738F9FE41F24410C1F6FF70464901F05CFA41F24C10C1F6FF70414901F055FA41F25410C1F6FF703F4975
S32D0000E76001F04EFA41F25C10C1F6FF703A4901F047FA35E041F2B440C1F6FF7009F024FA034641F24C40C1F6A0
S32D0000E788FF7019464FF002024FF00C0305F0DCFD41F2B440C1F6FF7009F022FA034641F24C40C1F6FF70194647
S32D0000E7B04FF003024FF00C0305F0CAFD41F2B440C1F6FF7009F020FA034641F24C40C1F6FF7019464FF00402BB
S32D0000E7D84FF00C0305F0B8FD41F2B440C1F6FF7009F0EEF903464FF00102144618467968FEF7A0FD0346002BC4
S32D0000E80002D14FF000031C46E3B2002BB2D141F24410C1F6FF7001F0A3F941F24C10C1F6FF7001F09DF941F287
S32D0000E8285410C1F6FF7001F097F941F25C10C1F6FF7001F091F94FF0640003F0D5FC07F10C07BD46F0BD00BF96
S32D0000E8509A9999999999C93F0000F0410000F0C1F0B583B000AF78604FF0640003F0C0FC41F2B440C1F6FF701B
S32D0000E87809F0A6F903461846FDF72AFF04460D467868FDF725FF02460B4610461946B8A3D3E90023FDF7BCFD4C
S32D0000E8A002460B464FF001010E4620462946FEF7D9F90346002B02D14FF000031E46F3B2002B00F0938041F28D
S32D0000E8C84C40C1F6FF7005F0B3FA41F24C40C1F6FF7049F2CC01C0F2010105F023FE41F24410C1F6FF70A4497D
S32D0000E8F001F086F941F24C10C1F6FF70A14901F07FF941F25410C1F6FF709D4901F078F941F25C10C1F6FF70B8
S32D0000E9189A4901F071F935E041F2B440C1F6FF7009F04EF9034641F24C40C1F6FF7019464FF002024FF00C03D3
S32D0000E94005F006FD41F2B440C1F6FF7009F04CF9034641F24C40C1F6FF7019464FF003024FF00C0305F0F4FC22
S32D0000E96841F2B440C1F6FF7009F04AF9034641F24C40C1F6FF7019464FF004024FF00C0305F0E2FC41F2B440DE
S32D0000E990C1F6FF7009F018F903464FF00102144618467968FEF7CAFC0346002B02D14FF000031C46E3B2002B9F
S32D0000E9B8B2D141F24410C1F6FF7001F0CDF841F24C10C1F6FF7001F0C7F841F25410C1F6FF7001F0C1F841F24C
S32D0000E9E05C10C1F6FF7001F0BBF8BCE041F2B440C1F6FF7009F0E8F803461846FDF76CFE04460D467868FDF79B
S32D0000EA0867FE02460B461046194659A3D3E90023FDF700FD02460B464FF001010E4620462946FEF739F90346EE
S32D0000EA30002B02D14FF000031E46F3B2002B00F0928041F24C40C1F6FF7005F0F5F941F24C40C1F6FF7049F25A
S32D0000EA58D801C0F2010105F065FD41F24410C1F6FF70464901F0C8F841F24C10C1F6FF70414901F0C1F841F2A3
S32D0000EA805410C1F6FF703F4901F0BAF841F25C10C1F6FF703A4901F0B3F835E041F2B440C1F6FF7009F090F8EC
S32D0000EAA8034641F24C40C1F6FF7019464FF002024FF00C0305F048FC41F2B440C1F6FF7009F08EF8034641F2A1
S32D0000EAD04C40C1F6FF7019464FF003024FF00C0305F036FC41F2B440C1F6FF7009F08CF8034641F24C40C1F6C5
S32D0000EAF8FF7019464FF004024FF00C0305F024FC41F2B440C1F6FF7009F05AF803464FF00102144618467968BE
S32D0000EB20FEF72AFC0346002B02D14FF000031C46E3B2002BB2D141F24410C1F6FF7001F00FF841F24C10C1F693
S32D0000EB48FF7001F009F841F25410C1F6FF7001F003F841F25C10C1F6FF7000F0FDFF4FF0640003F041FB07F11A
S32D0000EB700C07BD46F0BD00BF9A9999999999C93F0000F0410000F0C1B0B582B000AF03F077FB02460B461046DA
S32D0000EB981946FEF7D3F803467B601DE041F24C40C1F6FF7005F044F941F24C40C1F6FF7049F20411C0F201010F
S32D0000EBC005F0B4FC41F26410C1F6FF7003F0A4FF034641F24C40C1F6FF70194605F0CEFC41F26410C1F6FF7006
S32D0000EBE803F096FF03461846FDF772FD02460B464FF001010C46104619461FA3D3E90023FEF74AF80346002B40
S32D0000EC1002D14FF000031C46E3B2002B27D003F02FFB04460D467868FDF756FD02460B4620462946FDF7F0FB7A
S32D0000EC3802460B464FF001010C46104619464FF000024FF0804303F57813FEF707F80346002B02D14FF000038A
S32D0000EC601C46E3B2002B02D04FF0010301E04FF00003002B96D107F10807BD46B0BD00BF666666666666E63FDB
S32D0000EC8890B585B000AF78604FF0640003F0ACFA7868FEF75DF9034641F24410C1F6FF70194600F0A9FF7B6826
S32D0000ECB0C3F100031846FEF74FF9034641F24C10C1F6FF70194600F09BFF7868FEF744F9034641F25410C1F654
S32D0000ECD8FF70194600F090FF7B68C3F100031846FEF736F9034641F25C10C1F6FF70194600F082FF4FF0000385
S32D0000ED00FB7398E041F26410C1F6FF7003F004FF03461846FDF7E0FC02460B464FF001010C46104619464AA3F7
S32D0000ED28D3E90023FDF7A4FF0346002B02D14FF000031C46E3B2002B1ED041F24410C1F6FF7000F009FF41F2D6
S32D0000ED504C10C1F6FF7000F003FF41F25410C1F6FF7000F0FDFE41F25C10C1F6FF7000F0F7FE4FF00103FB731E
S32D0000ED784FF00103BB735AE041F26410C1F6FF7003F0C6FE03461846FDF7A2FC02460B464FF001010C46104683
S32D0000EDA019462BA3D3E90023FDF77AFF0346002B02D14FF000031C46E3B2002B19D041F26410C1F6FF7003F078
S32D0000EDC8A7FE03464FF00102144618462049FEF7BBFA0346002B02D14FF000031C46E3B2002B02D04FF0010362
S32D0000EDF001E04FF00003002B1DD041F24410C1F6FF7000F0ADFE41F24C10C1F6FF7000F0A7FE41F25410C1F6DA
S32D0000EE18FF7000F0A1FE41F25C10C1F6FF7000F09BFE4FF00103FB734FF00003BB73FB7B83F00103DBB2002BBA
S32D0000EE407FF460AFBB7B184607F11407BD4690BD666666666666E63F0000803FAFF3008080B582B000AF41F278
S32D0000EE68B440C1F6FF7008F0BBFE024641F22013C1F6FF731A604FF03200A649FEF720FB41F22013C1F6FF7361
S32D0000EE901B681846A249FEF7CFFE4FF02800A149FEF7E2FDA048FFF77FF84FF032009B49FEF70AFB4FF01400AA
S32D0000EEB8FFF7E6FE0346FB71FB79002B74D041F24C40C1F6FF704FF47F0104F0D1FF41F24C40C1F6FF7004F075
S32D0000EEE0ABFF41F26410C1F6FF7003F015FE034641F24C40C1F6FF70194605F091FA40F6B83003F075F94FF0BC
S32D0000EF0828008849FEF7ACFD8748FFF749F841F24410C1F6FF70854900F06EFE41F24C10C1F6FF70824900F0F7
S32D0000EF3067FE41F25410C1F6FF707E4900F060FE41F25C10C1F6FF707B4900F059FE41F2707003F04DF941F22D
S32D0000EF584410C1F6FF7000F0FFFD41F24C10C1F6FF7000F0F9FD41F25410C1F6FF7000F0F3FD41F25C10C1F697
S32D0000EF80FF7000F0EDFD4FF032006C49FEF78AFB4FF028006A49FEF773FC4FF0640003F027F96848FFF700F8A8
S32D0000EFA86748FFF759FC85E041F24C40C1F6FF704FF0FF0104F05CFF41F24C40C1F6FF7004F036FF41F26410B4
S32D0000EFD0C1F6FF7003F0A0FD034641F24C40C1F6FF70194605F01CFA40F6B83003F000F94FF028004D49FEF7C9
S32D0000EFF843FC5248FEF7D4FF4FF032005149FEF75FFA4FF028005049FEF72AFD4648FEF7C7FF41F24410C1F64E
S32D0000F020FF70444900F0ECFD41F24C10C1F6FF70414900F0E5FD41F25410C1F6FF703D4900F0DEFD41F25C102F
S32D0000F048C1F6FF703A4900F0D7FD41F2707003F0CBF841F24410C1F6FF7000F07DFD41F24C10C1F6FF7000F0A8
S32D0000F07077FD41F25410C1F6FF7000F071FD41F25C10C1F6FF7000F06BFD4FF032002B49FEF708FB4FF0280082
S32D0000F0982949FEF7F1FB4FF0640003F0A5F82748FEF77EFF4FF032002849FEF7F7FA2448FFF7D2FB41F2241085
S32D0000F0C0C1F6FF70244904F02BF941F2883003F08FF841F22410C1F6FF701D4904F020F94FF032001D49FEF746
S32D0000F0E8DDFA4FF028001C49FEF7C6FB1A48FEF757FF4FF032001749FEF7E2F94FF028001649FEF7B9FB164886
S32D0000F110FEF74AFF07F10807BD4680BD00001041000000410000C84200C09D4300003442000087430000484246
S32D0000F138000048C2000040400000A042000000000000F8410000E0400000B44200008040000020410000803F0E
S32D0000F1600000A041000082420000B04280B500AF41F2B440C1F6FF7008F026FD024641F21C13C1F6FF731A6051
S32D0000F18841F2B440C1F6FF7008F02AFD024641F22013C1F6FF731A604FF050005049FEF78FF94FF4967003F0BB
S32D0000F1B01FF84E48FEF7F8FE4FF032004C49FEF783F941F22013C1F6FF731B6818464949FEF732FD4848FEF777
S32D0000F1D8E7FE4FF032004749FEF742FC4FF028004549FEF75BFA4FF032004449FEF738FC4FF01E004249FEF7AD
S32D0000F20063F94FF032003849FEF72EFC4FF032003D49FEF759F94FF032003C49FEF724FC4FF032003A49FEF741
S32D0000F2284FF94FF0FA0002F0DFFF4FF03C003749FEF746F94FF47A7002F0D6FF4FF032003349FEF72BFA41F20A
S32D0000F2502410C1F6FF70314904F062F841F2B440C1F6FF7008F0B0FC024641F21C13C1F6FF731A6041F2B44009
S32D0000F278C1F6FF7008F0B4FC024641F22013C1F6FF731A604FF01E002349FEF707FA2348FEF786FE41F224103F
S32D0000F2A0C1F6FF70144904F03BF81E48FEF77CFE4FF032001249FEF707F941F22410C1F6FF70164904F02CF8FC
S32D0000F2C84FF01E001449FEF7E9F941F22410C1F6FF70074904F020F81048FEF761FE80BD0000C8410000B242B8
S32D0000F2F00000B841000046420000B4420000A041000020400000F0410000C03F00002041000000400000803FA8
S32D0000F3180000003F00002D430000C0400000000080B500AF4FF032001349FEF7B7F94FF028001249FEF794FB7C
S32D0000F34041F22410C1F6FF700F4903F0E9FF4FF4FA6002F04DFF41F22410C1F6FF700B4903F0DEFF4FF4FA70A6
S32D0000F36802F042FF4FF032000749FEF785FA0748FEF716FE80BD00BF0000A0400000704200002C430000B442C4
S32D0000F390000002430000874380B500AF4FF032001449FEF791F84FF032001349FEF75CFB1248FEF7F9FD124858
S32D0000F3B8FFF7BEF84FF47A7002F016FF41F23010C1F6FF700D4903F0A7FF4FF47A7002F00BFF41F23010C1F66C
S32D0000F3E0FF70054903F09CFF4FF4FA7002F000FF80BD00BF000020410000B44200003443000030410000274371
S32D0000F40880B500AF4FF028001849FEF729FB4FF032001749FEF754F84FF032001549FEF72BFA1548FEF7BCFD0B
S32D0000F4304FF028001349FEF747F841F24410C1F6FF70114900F0DCFB41F24C10C1F6FF700E4900F0D5FB41F2EA
S32D0000F4585410C1F6FF700A4900F0CEFB41F25C10C1F6FF70074900F0C7FB80BD0000A0410000C0400000DC42ED
S32D0000F480000087430000A0400000B4420000B4C280B500AF41F2B440C1F6FF7007F0C4FE41F24C40C1F6FF7079
S32D0000F4A84FF0000104F0AEFC41F24C40C1F6FF706FF07F4104F004FD41F24C40C1F6FF7049F22011C0F201015A
S32D0000F4D005F02CF841F22410C1F6FF7040F2D52103F0E0FE41F22410C1F6FF7040F6A41103F0F6FE41F230109D
S32D0000F4F8C1F6FF7040F2022103F0D0FE41F23010C1F6FF7040F67E1103F0E6FE4FF4FA7002F06AFE41F2241007
S32D0000F520C1F6FF70114903F0FBFE41F23010C1F6FF700E4903F0F4FE4FF47A7002F058FE41F24C40C1F6FF7022
S32D0000F54804F076FC41F24C40C1F6FF7049F23011C0F2010104F0E6FF4FF4FA7002F044FE80BD00BF0000B4426E
S32D0000F57080B500AFFFF78CFFFFF706FBFFF770FCFFF7F4FDFFF7D0FEFFF706FFFFF73CFF4FF00003184680BDFB
S32D0000F59880B582B000AF786039607B68012B50D13A684FF6FF739A424BD141F22410C1F6FF704FF0060103F077
S32D0000F5C053FE41F23010C1F6FF704FF0000103F04BFE41F23C10C1F6FF704FF0090102F0A9FE41F24010C1F6F6
S32D0000F5E8FF704FF0100102F0A1FE41F24410C1F6FF704FF00001154A00F056FA41F24C10C1F6FF704FF0030121
S32D0000F610104A00F04DFA41F25410C1F6FF704FF001010C4A00F044FA41F25C10C1F6FF704FF00201074A00F071
S32D0000F6383BFA41F26410C1F6FF704FF0040103F055FA07F10807BD4680BD00BF0000A04080B500AF4FF0010012
S32D0000F6604FF6FF71FFF798FF80BD00BF80B500AF41F21872C1F6FF7241F21C13C1F6FF73D31A194641F21C133C
S32D0000F688C1F6FF731A460B4610464FF000011A4608F04BFC80BD00BF09F0C0FC00F0B0F9FFF7E0FF09F092FC9F
S32D0000F6B009F02EFC09F0C6FC00F00CF84FF0000041F26811C1F6FF71FFF752FF0346184608F00AFC80B500AF78
S32D0000F6D84FF4E043C4F204034FF4E042C4F2040202F5805202F13802126842F4785203F5805303F138031A60DC
S32D0000F70000F02EF900F094F841F29833C1F6FF734FF058021A6041F29833C1F6FF731B684FF47A7202FB03F243
S32D0000F72841F29433C1F6FF731A6041F29433C1F6FF731B681A464FF4E043C4F2040303F5825303F104031B68A2
S32D0000F75003F070634FEA136303F10103B2FBF3F31A4641F29C33C1F6FF731A604FF4E043C4F204034FF4E042FE
S32D0000F778C4F2040202F5805202F13C02126842F0225203F5805303F13C031A604FF4E043C4F204034FF4E0428D
S32D0000F7A0C4F2040202F5805202F13002126842F0006203F5805303F130031A604FF45043C4F203034FF4807250
S32D0000F7C81A614FF0640002F0A3FB4FF45043C4F203034FF45042C4F20302526922F010025A614FF45043C4F21D
S32D0000F7F003034FF000021A604FF45043C4F203034FF010025A6103F0B9FA03F061FB41F29030C1F6FF7002F08C
S32D0000F81803FC41F24C40C1F6FF7004F041F941F2883002F0E1FC80BD80B400AF4FF48043C4F206034FF00002D0
S32D0000F8405A704FF48043C4F206034FF098021A704FF48043C4F206039B79DBB203F01003002B0CBF00230123FF
S32D0000F868DBB2002BF0D14FF48043C4F206039B79DBB203F00C034FEA9303022B0CBF00230123DBB2002BEED10C
S32D0000F8904FF48043C4F206034FF018021A714FF48043C4F206034FF000025A714FF4E043C4F2040303F58253E0
S32D0000F8B803F104034FF00002C0F213121A604FF48043C4F206034FF054025A7100BF4FF48043C4F206039B79D8
S32D0000F8E0DBB203F02003002B14BF00230123DBB2002BF0D100BF4FF48043C4F206039B79DBB203F04003002B13
S32D0000F90814BF00230123DBB2002BF0D14FF48043C4F206034FF48042C4F206021278D2B202F03F02D2B21A7067
S32D0000F9304FF48043C4F206039B79DBB203F00C034FEA9303032B0CBF00230123DBB2002BEED14FF0000318461B
S32D0000F958BD4680BC704700BF80B400AF4FF44043C4F204034FF480725A634FF2C003C4F20F034FF2C002C4F2EF
S32D0000F9800F02526942F400525A614FF2C003C4F20F034FF2C002C4F20F02126842F400521A604FF44043C4F2BC
S32D0000F9A8040340F20312C0F20A021A634FF46143CEF200034FF46142CEF20002D2F8882142F08062C3F888216B
S32D0000F9D04FF46143CEF200034FF46142CEF20002926842F080629A60BD4680BC704700BF80B483B000AF78600C
S32D0000F9F8FEE700BF80B400AF00BEBD4680BC704780B400AF4FF0E0224CF20003C0F20003C2F8083D4FF40053F7
S32D0000FA20C4F205034CF22052DA814FF40053C4F205034DF62812DA814FF40053C4F205034FF0D2021A80BD46BF
S32D0000FA4880BC704780B500AF4FF44043C4F20403D3F8A03003F48053002B0CBF00230123DBB2002B1FD04FF4AA
S32D0000FA704043C4F204034FF44042C4F20402D2F8A02022F48052C3F8A02041F2D440C1F6FF7008F0AFF94FF26C
S32D0000FA98C003C4F20F034FF2C002C4F20F02126822F400521A6080BD90B585B000AFF8600B467A60FB72FB68D6
S32D0000FAC0FA7A1A71FB684FF000025A714FF001031C4678682049FDF74FFC0346002B02D14FF000031C46E3B2FD
S32D0000FAE8002B02D01A4B7B6011E04FF001031C4678681849FDF728FC0346002B02D14FF000031C46E3B2002B19
S32D0000FB1001D0124B7B607868FCF7DEFD02460B46104619460AA3D3E90023FCF729FE02460B4610461946FDF7DA
S32D0000FB3805F90246FB681A60FB68184607F11407BD4690BDAFF30080ABAAAAAAAAAA2040000040410000803F99
S32D0000FB6080B582B000AF78607B685B79002B10D07B684FF000025A717B681B7941F29030C1F6FF7019464FF0AA
S32D0000FB8800024FF01E0302F091FA07F10807BD4680BD00BF80B584B000AF786039603B687F2B03DD4FF07F03F3
S32D0000FBB0FB7309E03B6813F1800F03DA4FF08003FB7301E03B68FB737B685B79FA7B9A420FD07B68FA7B5A7191
S32D0000FBD87B681A79FB7B41F29030C1F6FF7011461A464FF01E0302F061FA07F11007BD4680BD00BF0000000088
S32D0000FC00B0B584B000AF786039604FF001031C4638684D49FDF792FB0346002B02D14FF000031C46E3B2002B16
S32D0000FC2802D0474B3B6011E04FF001031C4638684449FDF79DFB0346002B02D14FF000031C46E3B2002B01D0E4
S32D0000FC503E4B3B603868FCF73FFD04460D467B681B681846FCF738FD02460B46104619464FF000024FF0804379
S32D0000FC7803F5B203FCF7AAFE02460B4620462946FCF77AFD02460B4610461946FDF756F803463B604FF0010387
S32D0000FCA01C4638682A49FDF75DFB0346002B02D14FF000031C46E3B2002B14D03868FCF70BFD02460B4610465C
S32D0000FCC819461DA3D3E90023FCF756FD02460B4610461946FCF7EAFF0346FB6022E03868FCF7F6FC02460B46DC
S32D0000FCF0104619464FF000024FF0804303F5C003FCF73EFD02460B46104619464FF000024FF0804303F5B203C7
S32D0000FD18FCF75CFE02460B4610461946FCF7C6FF0346FB607868F968FFF734FF07F11007BD46B0BDAFF30080BB
S32D0000FD4052B81E85EB51F43F0000C8C20000C84200000000AFF3008080B485B000AF02460B46FA71BB71BB7947
S32D0000FD68002B07D141F26C13C1F6FF734FF000021A7006E041F26C13C1F6FF734FF001021A704FF03803FB734F
S32D0000FD9041F26C13C1F6FF731A78FB7B1343FB734FF4C043C4F206034FF4C042C4F206029278D2B242F01002C4
S32D0000FDB8D2B29A704FF4C043C4F206034FF4C042C4F206029278D2B242F02002D2B29A704FF4C043C4F2060312
S32D0000FDE0FA7B1A7107F11407BD4680BC704700BF80B483B000AF4FF001037B6004E000BF7B6803F101037B60A0
S32D0000FE087B68312BCCBF00230123DBB2002BF2D107F10C07BD4680BC704700BF80B582B000AF02460B46FA7166
S32D0000FE30BB7141F26D13C1F6FF731B7818464FF00001FFF789FF4FF4C043C4F20603DB78DBB203F00203002BE5
S32D0000FE5814BF00230123DBB2002BF0D14FF4C043C4F206034FF4C042C4F20602D278D2B242F00202D2B2DA700F
S32D0000FE804FF4C043C4F20603FA791A714FF4C043C4F20603DB78DBB203F00203002B14BF00230123DBB2002B77
S32D0000FEA8F0D14FF4C043C4F206034FF4C042C4F20602D278D2B242F00202D2B2DA704FF4C043C4F20603BA7959
S32D0000FED01A714FF4C043C4F20603DB78DBB203F00203002B14BF00230123DBB2002BF0D14FF4C043C4F20603D9
S32D0000FEF84FF4C042C4F20602D278D2B242F00202D2B2DA704FF4C043C4F206034FF4C042C4F206029278D2B271
S32D0000FF2022F02002D2B29A704FF4C043C4F206034FF4C042C4F206029278D2B222F01002D2B29A70FFF754FF60
S32D0000FF4807F10807BD4680BD80B582B000AF0346FB71FB79184600F06BF807F10807BD4680BD00BF80B582B0E7
S32D0000FF7000AF02460B46FA71BB7100F039F8FB794FEA4303DBB21846FFF7E2FFBB791846FFF7DEFF00F03EF823
S32D0000FF9807F10807BD4680BD80B500AF4FF0FF0000F046F80346184680BD00BF80B584B000AF0346FB7100F044
S32D0000FFC017F8FB794FEA4303DBB243F00103DBB2DBB21846FFF7BCFFFFF7E2FF0346FB7300F018F8FB7B1846C2
S32D0000FFE807F11007BD4680BD80B400AF4FF24003C4F20F034FF24002C4F20F02926842F480129A60BD4680BC28
S32D00010010704700BF80B400AF4FF24003C4F20F034FF24002C4F20F02526842F480125A60BD4680BC704700BFE1
S32D0001003880B485B000AF0346FB714FF00003BB7303E0FB7B03F10103FB734FF44043C4F20A03DB6A4FF000038D
S32D00010060002BF2D14FF44043C4F20A034FF44042C4F20A02D26A42F00042DA624FF44043C4F20A03FA795A63CE
S32D0001008800BF4FF44043C4F20A03DB6A03F40033002B14BF00230123DBB2002BF1D14FF44043C4F20A039B6B44
S32D000100B0BB73BB7B184607F11407BD4680BC704780B582B000AF4FF4E043C4F204034FF4E042C4F2040202F505
S32D000100D8805202F13002126842F4805203F5805303F130031A604FF42043C4F204034FF480721A654FF2400379
S32D00010100C4F20F034FF24002C4F20F02526942F480125A61FFF77EFF4FF42043C4F204034FF400725A654FF4F3
S32D000101282043C4F204034FF400729A654FF42043C4F204034FF40072DA654FF44043C4F20A034FF44062C8F255
S32D0001015000021A604FF44043C4F20A034FF00502C3F60062DA604FF000037B6007E04FF0FF00FFF7EDFE7B68DA
S32D0001017803F101037B607B68092BCCBF00230123DBB2002BEFD104A1D1E9000102F048F807F10807BD4680BD4B
S32D000101A09A9999999999B93F90B486B000AFF860B9607A60FA684FF42043C4F206039A4214D14FF4E043C4F289
S32D000101C804034FF4E042C4F2040202F5805202F13402126842F4806203F5805303F134031A6083E0FA684FF4E4
S32D000101F03043C4F206039A4214D14FF4E043C4F204034FF4E042C4F2040202F5805202F13402126842F40062A5
S32D0001021803F5805303F134031A6067E0FA684FF44043C4F206039A4214D14FF4E043C4F204034FF4E042C4F21A
S32D00010240040202F5805202F13402126842F4805203F5805303F134031A604BE0FA684FF45043C4F206039A42A7
S32D0001026814D14FF4E043C4F204034FF4E042C4F2040202F5805202F13402126842F4005203F5805303F1340354
S32D000102901A602FE0FA684FF42043C4F20E039A4214D14FF4E043C4F204034FF4E042C4F2040202F5805202F126
S32D000102B82802126842F4806203F5805303F128031A6013E04FF4E043C4F204034FF4E042C4F2040202F58052F7
S32D000102E002F12802126842F4006203F5805303F128031A60FB68DB78DBB223F00C03DAB2FB68DA70FB684FF01C
S32D0001030800029A70BB684FF47A7202FB03F27B684FEA031392FBF3F39CB2FB681B78DBB223F01F03FB752346F2
S32D0001033003F4F8534FEA2323DBB203F01F03DAB2FB7D1343DAB2FB681A70E2B2FB685A70BB684FF4FA4202FB08
S32D0001035803F27B684FEA031392FBF3F39AB2234619464FEAC121CB1A4FEA43139BB2D3189CB2FB689B7ADBB2AE
S32D0001038023F01F03FB75E3B203F01F03DAB2FB7D1343DAB2FB689A72FB68DB78DBB243F00C03DAB2FB68DA70EC
S32D000103A807F11807BD4690BC704700BF80B483B000AF786000BF7B681B79DBB203F02003002B14BF002301233E
S32D000103D0DBB2002BF3D17B68DB79DBB2184607F10C07BD4680BC704780B483B000AF78600B46FB7000BF7B6813
S32D000103F81B79DBB2DBB26FEA0303DBB24FEAD313DBB2002BF3D17B68FA78DA7107F10C07BD4680BC704700BF41
S32D0001042080B487B000AFF860B9607A60FB687B6107E0BB68DAB27B691A707B6903F101037B617B68002B0CBF74
S32D0001044800230123DBB27A6802F1FF327A60002BEBD107F11C07BD4680BC704780B584B000AF786039607B686D
S32D000104701B6BFB60FA683B689A4264D07B681B79002B43D07B685A787B6803F1340310461946FA684FF0010395
S32D0001049801F0ACFB0346002B0CBF00230123DBB2002B02D04FF001034BE07B684FF000021A717B685A6A7B68E6
S32D000104C01B6AD218FB689A4220D97B68DB78FB7214E07B681B6AFA68D318FB607B685A787B6803F134031046A6
S32D000104E81946FA684FF0010301F080FBFB7A03F1FF33FB72FB7A012B94BF00230123DBB2002BE2D13B68002BF9
S32D0001051019D07B685A787B6803F13403104619463A684FF0010301F057FA0346002B0CBF00230123DBB2002BF6
S32D0001053802D04FF0010304E07B683A681A634FF00003184607F11007BD4680BD80B584B000AF786078684FF09B
S32D000105600001FFF77FFF0346FB73FB7B002B40F0AE807B681B78032B40F095807B685B79002B00F090807B6893
S32D000105884FF000021A637B6803F1340318464FF000014FF40072FFF73FFF7B684FF0550283F832227B684FF087
S32D000105B0AA0283F833227B684FF0520283F834207B684FF0520283F835207B684FF0610283F836207B684FF09D
S32D000105D8410283F837207B684FF0720283F818227B684FF0720283F819227B684FF0410283F81A227B684FF00A
S32D00010600610283F81B227B681B69DAB27B6883F81C227B681B699BB24FEA2323DAB27B6883F81D227B681B695E
S32D000106284FEA1343DAB27B6883F81E227B681B694FEA1363DAB27B6883F81F227B68DB68DAB27B6883F8202257
S32D000106507B68DB689BB24FEA2323DAB27B6883F821227B68DB684FEA1343DAB27B6883F822227B68DB684FEA1A
S32D000106781363DAB27B6883F823227B6859787B6803F134027B685B69084611461A464FF0010301F0ABFA7B6885
S32D000106A04FF000025A717B685B7818464FF000014FF0000201F084FB0346002B0CBF00230123DBB2002B02D00A
S32D000106C84FF00103FB73FB7B184607F11007BD4680BD00BF80B582B000AF78600B467B807B68002B08D07B686D
S32D000106F01B78002B04D07B68DB887A889A4202D04FF009030FE07B685B78184601F0ECFB034603F00103DBB260
S32D00010718002B02D04FF0030301E04FF00003184607F10807BD4680BD80B586B000AF78607B681A687B689B884B
S32D0001074010461946FFF7CAFF0346FB75FB7D002B40F0C8807B689B7903F02003002B00F0C1807B689B7903F0EF
S32D000107684003002B20D07B681B6859787B6803F128027B689B69084611461A464FF0010301F034FA0346002B0A
S32D000107900CBF00230123DBB2002B02D04FF00103A1E07B689B7923F04003DAB27B689A717B681A687B68DB6987
S32D000107B810461946FFF752FE0346FB75FB7D002B40F08C807B681B6A3B613B6903F10B033A6902F10B021278A8
S32D000107E042F02002D2B21A703B6903F11C037A68D268D2B21A703B6903F11D037A68D26892B24FEA2222D2B28E
S32D000108081A703B6903F11E037A68D2684FEA1242D2B21A703B6903F11F037A68D2684FEA1262D2B21A703B6992
S32D0001083003F11A037A681269D2B21A703B6903F11B037A68126992B24FEA2222D2B21A703B6903F114037A68AA
S32D0001085812694FEA1242D2B21A703B6903F115037A6812694FEA124292B24FEA2222D2B21A704FF00003FB6055
S32D000108803B6903F11603FA68D2B21A703B6903F11703FA6892B24FEA2222D2B21A703B6903F11803FA684FEAF7
S32D000108A81242D2B21A703B6903F11903FA684FEA1262D2B21A707B689B7923F02003DAB27B689A717B681B68E1
S32D000108D04FF001021A717B681B681846FFF73AFE0346FB75FB7D184607F11807BD4680BD80B584B000AF786064
S32D000108F87868FFF719FF0346FB73FB7B002B03D17B684FF000021A60FB7B184607F11007BD4680BD80B588B089
S32D0001092000AF786039604FF080033B614FF00F03FB604FF0FF337B614FF00203FB612AE04FF00103BB611AE02E
S32D00010948FB69BA6902FB03F33A6802FB03F27B68D31ABB60BB68002B09DBBA687B699A4205D2BB687B61FB6939
S32D000109703B61BB69FB60BB6903F10103BB61BB69102B8CBF00230123DBB2002BDCD1FB694FEA4303FB61FB690C
S32D00010998B3F5807F8CBF00230123DBB2002BCBD14FF48053C4F20B034FF48052C4F20B02D26A22F00802DA625D
S32D000109C04FF48053C4F20B03DB6A1A464FF00F03CFF6F0731340BB614FF48053C4F20B033A694FEA52024FEA5E
S32D000109E802224FEA02424FEA1242F96801F1FF314FEA0111C9B21143BA690A4342F46022DA6203E04FF00A0085
S32D00010A1001F0EEFB4FF48053C4F20B035B6A03F00803002B14BF00230123DBB2002BEDD14FF48053C4F20B03AB
S32D00010A384FF48052C4F20B02D26A42F00802DA624FF48053C4F20B034FF48052C4F20B02126B42F480121A638F
S32D00010A6007F12007BD4680BD80B582B000AF786039607B684FF000021A604FF48053C4F20B034FF40042C0F2D2
S32D00010A880012DA624FF48053C4F20B03DB6A03F08073002B0CBF00230123DBB2002BF1D14FF48053C4F20B035B
S32D00010AB04FF00002C3F8C0204FF48053C4F20B034FF481325A604FF48053C4F20B034FF028029A624FF480535C
S32D00010AD8C4F20B034FF001125A643B689B6818464CF66041C0F20501FFF714FF4FF48053C4F20B035B6A03F0E1
S32D00010B000303002B0CBF00230123DBB2002BF1D14FF45043C4F2040340F243421A604FF45043C4F2040340F280
S32D00010B2843425A604FF45043C4F204034FF488629A604FF45043C4F2040340F24342DA604FF45043C4F204038E
S32D00010B5040F243421A614FF45043C4F2040340F243425A614FF4E043C4F204034FF4E042C4F2040202F5805232
S32D00010B7802F13002126842F4003203F5805303F130031A604FF48053C4F20B034FF6FF721A634FF48053C4F202
S32D00010BA00B034FF0B302C0F27F025A634FF48053C4F20B034FF48052C4F20B02D26A42F00062DA624FF4805360
S32D00010BC8C4F20B03DB6A03F00063002B0CBF00230123DBB2002BF1D14FF48053C4F20B035B6A03F48033002B74
S32D00010BF00CBF00230123DBB2002B03D07B684FF001021A604FF48053C4F20B034FF48052C4F20B02126B42F039
S32D00010C1880021A634FF00003184607F10807BD4680BD00BF80B400AF4FF48053C4F20B035B6A1A4640F20733BA
S32D00010C401340002B0CBF00230123DBB21846BD4680BC704780B485B000AF78604FF48053C4F20B031B6B1A4664
S32D00010C687B681340FB60FB68002B14BF00230123DBB2002BEED1FB68184607F11407BD4680BC704780B584B07A
S32D00010C9000AF78607B681B7803F03F0249F22C43C0F2010353F82230FB60FB68002B06D17B681B78002B02D0D4
S32D00010CB84FF0010330E14FF48053C4F20B034FF48052C4F20B02126B42F080021A634FF48053C4F20B035B6ABA
S32D00010CE003F00103DBB2002BF5D14FF48053C4F20B037A6852689A60FB6823F44003FB607B685B784FEA835323
S32D00010D0803F44003FA681343FB607B685B78022B03D1FB6843F40013FB607B685B78042B16D1FB6803F4403317
S32D00010D30B3F5003F08D1FB6823F44033FB60FB6843F44033FB6007E0FB6823F44033FB60FB6843F40033FB60CD
S32D00010D584FF48053C4F20B034FF48052C4F20B0252684FEA02424FEA12425A607B68DB68002B32D0FB6803F48F
S32D00010D804033B3F5403F03D0FB6843F40013FB607B681B7A002B03D0FB6843F01003FB607B68DB68012B03D927
S32D00010DA8FB6843F02003FB607B68DB68B3F1FF3F13D04FF48053C4F20B034FF48052C4F20B02526811467A6878
S32D00010DD0D2684FEA02420A435A60FB6843F00203FB604FF48053C4F20B034FF000021A604FF48053C4F20B03D1
S32D00010DF8FA68DA604FF00100C0F20E00FFF726FF0346012B0CBF00230123DBB2002B10D04FF48053C4F20B031C
S32D00010E204FF48052C4F20B02126B42F4702242F001021A634FF0010372E04FF48053C4F20B031B6B03F0800369
S32D00010E48002B0CBF00230123DBB2002B0ED04FF48053C4F20B034FF48052C4F20B02126B42F001121A634FF078
S32D00010E70010355E04FF48053C4F20B031B6B03F48033002B0CBF00230123DBB2002B0ED04FF48053C4F20B0363
S32D00010E984FF48052C4F20B02126B42F001121A634FF0FF3338E0FB6803F44033002B25D04FF48053C4F20B03C4
S32D00010EC01B691A467B681A61FB6803F44033B3F5803F17D14FF48053C4F20B035B691A467B685A614FF48053F3
S32D00010EE8C4F20B039B691A467B689A614FF48053C4F20B03DB691A467B68DA614FF48053C4F20B034FF480524A
S32D00010F10C4F20B02126B42F001021A634FF00003184607F11007BD4680BD00BF80B592B000AF786039604FF03C
S32D00010F380003FB633B68BB6341F28413C1F6FF737B637B6B002B03D140F6012300F0A0BC41F28833C1F6FF73F5
S32D00010F603B633B6B002B03D140F60B2300F094BC3B6B1B68FB62FB6A002B03D140F60B2300F08ABC7B6841F2E1
S32D00010F880432934200F0388241F2043293421BD841F20132934238D041F20132934207D8032B00F03D84092BE4
S32D00010FB000F0298400F066BC41F20232934200F0128241F20332934200F0BE8300F05ABC41F20732934200F0FE
S32D00010FD84B8341F2073293420BD841F20532934200F0348241F20632934200F0108300F045BC41F2083293421D
S32D0001100000F0B68241F20932934200F0C48200F039BC786B49F22041C0F20101FFF724FD0346FB63FB6B002BB9
S32D0001102840F030844FF0000387F847304FF0000387F82B304FF0000387F82A304FF0000387F829304FF00003EA
S32D0001105087F846304FF0000387F828304FF000033B724FF000037B724FF00003FB604FF000033B744FF0000375
S32D000110787B6107F108031846FFF704FE0346002B0CBF00230123DBB2002B03D04FF00103FB63FCE340F24C40C5
S32D000110A001F0A6F84FF008033B724FF000037B724FF4D573FB604FF000033B744FF000037B6107F10803184616
S32D000110C8FFF7E0FD03463B643B6C002B0BD1BA69FB689A4203D04FF00103FB63D7E34FF0010387F846304FF089
S32D000110F0010387F8283097F82830002B00F0C6804FF037033B724FF000037B724FF00003FB604FF000033B74CB
S32D000111184FF000037B6107F108031846FFF7B2FD03463B643B6C002B03D04FF00103FB63ADE34FF069033B726E
S32D000111404FF000037B724FF00003FB604FF000033B744FF000037B6107F108031846FFF795FD0346002B0CBF7D
S32D0001116800230123DBB2002B03D04FF00103FB638DE3BB6903F44013002B00F083804FF000033B644FF00A00BF
S32D0001119001F02EF83B6C03F101033B644FF037033B724FF000037B724FF00003FB604FF000033B744FF00003B6
S32D000111B87B6107F108031846FFF764FD0346002B0CBF00230123DBB2002B03D04FF00103FB6336E04FF0690301
S32D000111E03B724FF000037B7297F84630002B05D04FF00003C4F23003FB6002E04FF44013FB604FF000033B74B5
S32D000112084FF000037B6107F108031846FFF73AFD0346002B0CBF00230123DBB2002B03D04FF00103FB630CE06D
S32D00011230BB69002B05DB3B6C632B02D84FF0010301E04FF00003002BA0D1FB6B002B40F01F833B6C632B04D9DA
S32D000112584FF0000387F8463014E04FF0010387F8473097F84630002B0CD04FF0000387F84630BB6903F08043E6
S32D00011280002B03D04FF0010387F8463097F82A30002B03D07B6B4FF007021A6097F82930002B03D07B6B4FF06F
S32D000112A808021A6097F82B30002B03D07B6B4FF004021A6097F84730002B0BD07B6B4FF002021A6097F8463052
S32D000112D0002B03D07B6B4FF003021A6097F82B30002B0FD097F84730002B0BD07B6B4FF005021A6097F84630A2
S32D000112F8002B03D07B6B4FF006021A604FF45043C4F204034FF000021A604FF45043C4F204034FF000025A6046
S32D000113204FF45043C4F204034FF000029A604FF45043C4F204034FF00002DA604FF45043C4F204034FF00002EE
S32D000113481A614FF45043C4F204034FF000025A61FB6A9A68FB6A5B6810461946FFF7DAFA4FF45043C4F20403CB
S32D0001137040F243421A604FF45043C4F2040340F243425A604FF45043C4F204034FF488629A604FF45043C4F2D3
S32D00011398040340F24342DA604FF45043C4F2040340F243421A614FF45043C4F2040340F243425A614FF4E043FE
S32D000113C0C4F204034FF4E042C4F2040202F5805202F13002126842F4003203F5805303F130031A6057E2B86B88
S32D000113E8FFF750FC03463B643B6C002B00F04E824FF00203FB6349E2BB6B002B03D14FF00C03FB6343E24FF414
S32D000114108053C4F20B03DB6A03F47F434FEA13234FEA43033B644FF48053C4F20B03DB6A03F0F0034FEA131327
S32D0001143803F101023B6C02FB03F33B64FB6A9A683B6CB2FBF3F2BB6B1A6020E2BB6B002B03D14FF00C03FB6342
S32D0001146019E2BB6B1B68002B03D14FF00C03FB6311E2FFF7DBFB0346002B14BF00230123DBB2002B70D04FF486
S32D000114885043C4F204034FF000021A604FF45043C4F204034FF000025A604FF45043C4F204034FF000029A60CE
S32D000114B04FF45043C4F204034FF00002DA604FF45043C4F204034FF000021A614FF45043C4F204034FF00002DC
S32D000114D85A61FB6A9A68BB6B1B6810461946FFF719FA4FF45043C4F2040340F243421A604FF45043C4F2040305
S32D0001150040F243425A604FF45043C4F204034FF488629A604FF45043C4F2040340F24342DA604FF45043C4F281
S32D00011528040340F243421A614FF45043C4F2040340F243425A614FF4E043C4F204034FF4E042C4F2040202F51B
S32D00011550805202F13002126842F4003203F5805303F130031A6096E140F60A23FB6392E1BB6B002B03D14FF018
S32D000115780C03FB638BE14FF48053C4F20B035B684FEAC3434FEAD343BA6B13607FE1BB6B002B03D14FF00C03D5
S32D000115A0FB6378E1FFF742FB0346002B14BF00230123DBB2002B2AD0BB6B1A6840F6FF739A4203D94FF00C039C
S32D000115C8FB6364E14FF48053C4F20B034FF48052C4F20B02526822F4FE5222F03F025A604FF48053C4F20B0398
S32D000115F04FF48052C4F20B0252681146BA6B12684FEAC2424FEAD2420A435A6043E140F60A23FB633FE1BB6B88
S32D00011618002B03D14FF00C03FB6338E14FF48053C4F20B039B6A03F006034FEA53033B643B6C002B04D1BB6B09
S32D000116404FF000021A6026E13B6C012B04D1BB6B4FF001021A601EE13B6C102B04D1BB6B4FF002021A6016E19F
S32D000116684FF00503FB6312E1BB6B002B03D14FF00C03FB630BE1FFF7D5FA0346002B14BF00230123DBB2002BF3
S32D0001169056D0BB6B1B68002B16D14FF48053C4F20B034FF48052C4F20B02926A22F006029A624FF48053C4F2BA
S32D000116B80B034FF48052C4F20B02926A9A62E6E0BB6B1B68012B18D14FF48053C4F20B034FF48052C4F20B02EF
S32D000116E0926A22F006029A624FF48053C4F20B034FF48052C4F20B02926A42F002029A62C9E0BB6B1B68022B6A
S32D0001170816D14FF48053C4F20B034FF48052C4F20B02926A22F006029A624FF48053C4F20B034FF48052C4F262
S32D000117300B02926A9A62AEE04FF00503FB63AAE040F60A23FB63A6E0BB6B002B03D14FF00C03FB639FE04FF4EE
S32D000117588053C4F20B034FF48052C4F20B02D26A42F00062DA624FF48053C4F20B03DB6A03F00063002B0CBF7C
S32D0001178000230123DBB2002BF1D14FF48053C4F20B031B6B03F08003002B0CBF00230123DBB2002B0FD04FF48C
S32D000117A88053C4F20B034FF48052C4F20B02126B42F080021A637B6B4FF000021A604FF48053C4F20B035B6AB5
S32D000117D003F48033002B0CBF00230123DBB2002B08D07B6B1B68002B08D17B6B4FF001021A6003E07B6B4FF05C
S32D000117F800021A607B6B1A68BB6B1A6047E0BB6B4FF01C021A60BB6B03F104034FF004021A60BB6B03F1080315
S32D000118204FF41E721A6036E04FF00200FFF712FA4FF48053C4F20B031B6B03F4E003002B0CBF00230123DBB2EF
S32D00011848002B0ED04FF48053C4F20B034FF48052C4F20B02126B42F4E0021A634FF00403FB634FF48053C4F234
S32D000118700B034FF48052C4F20B02126B42F032021A6308E040F60923FB6304E000BF02E000BF00E000BFFB6B12
S32D00011898184607F14807BD4680BD00BF80B489B000AF786039607B687B6141F28413C1F6FF733B613B69002BD3
S32D000118C002D14FF0000381E03B691B68022B0BD03B691B68032B07D03B691B68072B03D03B691B68082B0DD1C4
S32D000118E84FF48053C4F20B035B6A03F00403002B0CBF00230123DBB2002BF1D13B68FB6156E0FB69B3F5007FC1
S32D0001191028BF4FF40073FB60FB6803F103034FEA9303BB613CE04FF48053C4F20B031B6B03F4E003002B0CBF1C
S32D0001193800230123DBB2002B10D04FF48053C4F20B034FF48052C4F20B02126B42F4E00242F020021A634FF04A
S32D00011960000333E04FF48053C4F20B035B6A03F40063002B14BF00230123DBB2002BF1D14FF48053C4F20B03B0
S32D000119881B6A1A467B691A607B6903F104037B61BB6903F1FF33BB61BB69002B0CBF00230123DBB2002BBAD128
S32D000119B0FA69FB68D31AFB61FB69002B0CBF00230123DBB2002BA0D14FF00103184607F12407BD4680BC704775
S32D000119D880B58EB000AFB9607A600246FA73BB7341F27013C1F6FF737B63FB7B002B02D1BB7B002B02D14FF044
S32D00011A00040381E040F20043C1F6FF731B78DBB203F00103DBB2002B02D04FF0030373E0BB68002B02D14FF018
S32D00011A2800036DE07B6B1B7B002B03D17B684FEA43237B60BB7B012B2CD14FF011033B754FF000037B757B68F0
S32D00011A50BB614FF001033B77BB7B3B6207F1140341F202301946FFF761FA0346002B14BF00230123DBB2002B19
S32D00011A783ED0B8684FF40071FFF710FF0346002B0CBF00230123DBB2002B31D04FF00003BB732DE04FF0120348
S32D00011AA03B754FF000037B757B68BB614FF001033B77BB7B3B6207F1140341F202301946FFF734FA0346002B03
S32D00011AC814BF00230123DBB2002B11D0BB7B4FEA4323B8681946FFF7E1FE0346002B0CBF00230123DBB2002BD5
S32D00011AF002D04FF00003BB73BB7B002B02D04FF0010301E04FF00003184607F13807BD4680BD00BF80B487B0ED
S32D00011B1800AF786039607B68FB603B687B6155E07B69B3F5007F28BF4FF400733B617A693B69D31A7B613B6954
S32D00011B4003F103034FEA93033B613BE04FF48053C4F20B031B6B03F4E003002B0CBF00230123DBB2002B10D0E7
S32D00011B684FF48053C4F20B034FF48052C4F20B02126B42F4E00242F010021A634FF0FF332EE04FF48053C4F2FB
S32D00011B900B035B6A03F48063002B14BF00230123DBB2002BF1D14FF48053C4F20B03FA6812681A62FB6803F131
S32D00011BB80403FB603B6903F1FF333B613B69002B0CBF00230123DBB2002BBBD17B69002B0CBF00230123DBB263
S32D00011BE0002BA1D14FF00103184607F11C07BD4680BC704780B58EB000AFB9607A600246FA73BB7341F27013D9
S32D00011C08C1F6FF737B63FB7B002B02D1BB7B002B02D14FF00403CAE040F20043C1F6FF731B78DBB203F0010359
S32D00011C30DBB2002B02D04FF00303BCE040F20043C1F6FF731B78DBB203F00403002B0CBF00230123DBB2002B6D
S32D00011C5802D04FF00203AAE0BB68002B02D14FF00003A4E07B6B1B7B002B03D17B684FEA43237B60BB7B012B9C
S32D00011C802CD14FF018033B754FF000037B757B68BB614FF000033B77BB7B3B6207F1140341F202301946FFF76D
S32D00011CA841F90346002B14BF00230123DBB2002B3ED0B8684FF40071FFF728FF0346002B0CBF00230123DBB27B
S32D00011CD0002B31D04FF00003BB732DE04FF019033B754FF000037B757B68BB614FF000033B77BB7B3B6207F141
S32D00011CF8140341F202301946FFF714F90346002B14BF00230123DBB2002B11D0BB7B4FEA4323B8681946FFF76E
S32D00011D20F9FE0346002B0CBF00230123DBB2002B02D04FF00003BB734FF00D033B754FF000037B757B6B1B6982
S32D00011D48BB614FF000033B774FF000033B6207F1140341F202301946FFF7E4F80346002B0CBF00230123DBB2C5
S32D00011D70002B02D04FF001031DE07A6A48F20803CFF6D9731340002B02D04FF0010312E07B6A03F4F853B3F579
S32D00011D98106F0CBF00230123DBB2002BC8D1BB7B002B02D04FF0010301E04FF00003184607F13807BD4680BDCC
S32D00011DC080B58CB000AF0B463A600246FA71BB7141F27013C1F6FF73BB62FB79002B02D04FF004037AE04FF0BE
S32D00011DE8010387F82F3040F20043C1F6FF731B78DBB203F00103DBB2002B02D04FF0030368E0BB79032B5FD885
S32D00011E1001A252F823F000BF291E0100331E0100451E0100571E01004FF0000387F82F3052E0BB6A9A683B6854
S32D00011E381A604FF0000387F82F3049E03B684FF400721A804FF0000387F82F3040E04FF009033B724FF000034C
S32D00011E607B72BB6A1B69FB604FF000033B744FF000037B6107F1080341F202301946FFF755F80346002B0CBF0A
S32D00011E8800230123DBB2002B02D04FF0010321E07B6A03F44003002B11D13B6A4FEA934303F07F0303F10102CA
S32D00011EB07B6A4FEA132303F0030303F1FF3302FA03F23B681A604FF0000387F82F3003E04FF0040387F82F305B
S32D00011ED897F82F30184607F13007BD4680BD00BF80B483B000AF0346FB71FB79002B02D04FF0010305E040F2CB
S32D00011F000043C1F6FF731B78DBB2184607F10C07BD4680BC704700BF80B483B000AF78604FF4E043C4F20403F7
S32D00011F284FF4E042C4F2040202F5805202F13802126842F0010203F5805303F138031A604FF00003C4F2040351
S32D00011F507A689A604FF00003C4F204034FF005025A604FF00003C4F204034FF00002C4F20402126842F00102DC
S32D00011F781A6000BF4FF00003C4F204031B6803F08003002B14BF00230123DBB2002BF1D14FF00003C4F204034B
S32D00011FA04FF00002C4F20402126822F001021A6007F10C07BD4680BC704700BF80B582B000AF786039607B68E2
S32D00011FC8012B0AD13A684FF6FF739A4205D141F29030C1F6FF7000F00FF807F10807BD4680BD00BF80B500AFDE
S32D00011FF04FF001004FF6FF71FFF7E0FF80BD00BF80B483B000AF78607B684FF000021A707B68184607F10C0714
S32D00012018BD4680BC704700BF80B582B000AF78607B681B7883F00103DBB2002B36D04FF4E043C4F2040303F530
S32D00012040805303F128034FF400621A604FF45043C4F204034FF440721A624FF45043C4F204034FF440725A6218
S32D0001206841F29433C1F6FF731B684FEAD372D3184FEA63034FF43040C4F20E0019464FF46142FEF78DF84FF026
S32D00012090640000F0ADF87B684FF001021A704FF0010301E04FF00003184607F10807BD4680BD00BF80B582B048
S32D000120B800AF7860F970BA707B704FF43040C4F20E004FF07F01FEF78BF94FF43040C4F20E004FF00801FEF791
S32D000120E083F9FB784FF43040C4F20E001946FEF77BF9BB784FF43040C4F20E001946FEF773F97B784FF4304093
S32D00012108C4F20E001946FEF76BF94FF43040C4F20E004FF0FF01FEF763F907F10807BD4680BD00BF80B487B0B4
S32D0001213000AFF860B9607A60FA6844F6D353C1F26203A3FB02134FEA9312BB68D3187B61FA6844F6D353C1F2BC
S32D000121586203A3FB02134FEA93134FF47A7101FB03F3D31AFB60FB684FEAC33244F6D353C1F26203A3FB02133D
S32D000121804FEA93127B68D3183B613B694FEAD3337A69D3187B613B694FEA43434FEA53433B614FF45043C4F201
S32D000121A803031B681A467B699A4211D34FF45043C4F203031B681A467B699A420BD14FF45043C4F203035B6815
S32D000121D01A463B699A4202D24FF0010301E04FF00003002BDDD107F11C07BD4680BC704780B584B000AF7860EC
S32D000121F84FF45043C4F203031B68FB604FF45043C4F203035B68BB607B681846F968BA68FFF788FF07F1100788
S32D00012220BD4680BD0000000080B584B000AFC7E900014FF45043C4F203031B68FB604FF45043C4F203035B68C1
S32D00012248BB60D7E900010AA3D3E90023FAF794FA02460B4610461946FAF750FD03461846F968BA68FFF75EFF77
S32D0001227007F11007BD4680BD0000000000408F4080B584B000AF4FF45043C4F203031B68FB604FF45043C4F2CD
S32D0001229803035B68BB60F868FAF7F8F902460B46C7E90023B868FAF7F1F902460B46104619464FF000024FF0BC
S32D000122C0804303F56003FAF785FB02460B46D7E90001FAF7A3F802460B46C7E90023D7E900231046194607F17E
S32D000122E81007BD4680BD00BF80B483B000AF4FF45043C4F203031B684FF47A7202FB03F37B604FF45043C4F2FD
S32D0001231003035B684FF47A7202FB03F34FEAD3337A68D3187B607B68184607F10C07BD4680BC704780B584B021
S32D0001233800AF78600B46FB704FF00B03FB73FA78FB7B786811461A4600F0ECF87B68184607F11007BD4680BD95
S32D0001236080B485B000AF78607B68A3F11003002B01DA03F11F034FEA6313FB60FB68012B48D0022B00F08980E1
S32D00012388002B40F0C9804FF46142CEF200024FF46143CEF20003D3F8803119467B68A3F110004FF01F03C8F2B3
S32D000123B000030340002B05DA03F1FF3363F01F0303F101034FF0010000FA03F30B43C2F880314FF46142CEF28C
S32D000123D800024FF46143CEF200031B6819467B68A3F110004FF01F03C8F200030340002B05DA03F1FF3363F0DD
S32D000124001F0303F101034FF0010000FA03F30B43136085E04FF46142CEF200024FF46143CEF20003D3F884316B
S32D0001242819467B68A3F110004FF01F03C8F200030340002B05DA03F1FF3363F01F0303F101034FF0010000FA67
S32D0001245003F30B43C2F884314FF46142CEF200024FF46143CEF200035B6819467B68A3F110004FF01F03C8F294
S32D0001247800030340002B05DA03F1FF3363F01F0303F101034FF0010000FA03F30B43536042E04FF46142CEF259
S32D000124A000024FF46143CEF20003D3F8883119467B68A3F110004FF01F03C8F200030340002B05DA03F1FF3366
S32D000124C863F01F0303F101034FF0010000FA03F30B43C2F888314FF46142CEF200024FF46143CEF200039B6832
S32D000124F019467B68A3F110004FF01F03C8F200030340002B05DA03F1FF3363F01F0303F101034FF0010000FA9F
S32D0001251803F30B43936000BF07F11407BD4680BC704700BF80B584B000AF786013460A46FA70BB707B68FA7853
S32D000125401A70BB78FB737B681B781A4649F22C53C0F201039B5C042B00F2F68001A252F823F000BF792501000F
S32D00012568ED2501006126010049270100D52601004FF41043C4F204037A681278114649F27052C0F2010252F82A
S32D000125902110FA7B4FEA024202F4702242F4887242F0030243F821204FF47043C4F20F034FF47042C4F20F0214
S32D000125B8526911467A681278104649F27052C0F2010252F8202002F01F024FF0010000FA02F26FEA02020A40FC
S32D000125E05A614FF06700FFF7BBFEADE04FF42043C4F204037A681278114649F27052C0F2010252F82110FA7B67
S32D000126084FEA024202F4702242F4887242F0030243F821204FF24003C4F20F034FF24002C4F20F025269114613
S32D000126307A681278104649F27052C0F2010252F8202002F01F024FF0010000FA02F26FEA02020A405A614FF09B
S32D000126586800FFF781FE73E04FF43043C4F204037A681278114649F27052C0F2010252F82110FA7B4FEA0242CE
S32D0001268002F4702242F4887242F0030243F821204FF28003C4F20F034FF28002C4F20F02526911467A6812782C
S32D000126A8104649F27052C0F2010252F8202002F01F024FF0010000FA02F26FEA02020A405A614FF06900FFF730
S32D000126D047FE39E04FF45043C4F204037A681278114649F27052C0F2010252F82110FA7B4FEA024202F4702280
S32D000126F842F4887242F0030243F821204FF47143C4F20F034FF47142C4F20F02526911467A681278104649F245
S32D000127207052C0F2010252F8202002F01F024FF0010000FA02F26FEA02020A405A614FF06B00FFF70DFE00BF7C
S32D0001274807F11007BD4680BDB0B48BB000AF49F23C13C0F2010307F104041D460FCD0FC495E80F0084E80F006C
S32D000127704FF000037B6248E04FF42043C4F20403D3F8A0301A467B6A4FEA830307F12800C31853F8243C4FF00C
S32D00012798010101FA03F31340002B0CBF00230123DBB2002B29D041F2C033C1F6FF737A6A53F8223003F1010118
S32D000127C041F2C033C1F6FF737A6A43F822104FF42043C4F204034FF42042C4F20402D2F8A02011467A6A4FEA88
S32D000127E8820207F12800821852F8242C4FF0010000FA02F20A40C3F8A0207B6A03F101037B627B6A072BCCBF9B
S32D0001281000230123DBB2002BAED107F12C07BD46B0BC7047B0B489B000AF49F25C13C0F2010307F104041D46BB
S32D000128380FCD0FC495E8030084E803004FF00003FB6149E04FF43043C4F20403D3F8A0301A46FB694FEA83037B
S32D0001286007F12000C31853F81C3C4FF0010101FA03F31340002B0CBF00230123DBB2002B2AD0FB6903F10802DD
S32D0001288841F2C033C1F6FF7353F8223003F1010141F2C033C1F6FF7343F822104FF43043C4F204034FF430425B
S32D000128B0C4F20402D2F8A0201146FA694FEA820207F12000821852F81C2C4FF0010000FA02F20A40C3F8A02005
S32D000128D8FB6903F10103FB61FB69052BCCBF00230123DBB2002BADD107F12407BD46B0BC704700BFB0B48DB0D4
S32D0001290000AF49F27413C0F201033C461D460FCD0FC40FCD0FC495E8070084E807004FF00003FB6249E04FF43C
S32D000129281043C4F20403D3F8A0301A46FB6A4FEA830307F13000C31853F8303C4FF0010101FA03F31340002BE7
S32D000129500CBF00230123DBB2002B2AD0FB6A03F10E0241F2C033C1F6FF7353F8223003F1010141F2C033C1F66C
S32D00012978FF7343F822104FF41043C4F204034FF41042C4F20402D2F8A0201146FA6A4FEA820207F130008218E9
S32D000129A052F8302C4FF0010000FA02F20A40C3F8A020FB6A03F10103FB62FB6A0A2BCCBF00230123DBB2002B91
S32D000129C8ADD107F13407BD46B0BC7047B0B487B000AF49F2A013C0F201033C461D460FCD0FC42B6823604FF032
S32D000129F000037B6149E04FF45043C4F20403D3F8A0301A467B694FEA830307F11800C31853F8183C4FF00101B4
S32D00012A1801FA03F31340002B0CBF00230123DBB2002B2AD07B6903F1190241F2C033C1F6FF7353F8223003F189
S32D00012A40010141F2C033C1F6FF7343F822104FF45043C4F204034FF45042C4F20402D2F8A02011467A694FEA88
S32D00012A68820207F11800821852F8182C4FF0010000FA02F20A40C3F8A0207B6903F101037B617B69042BCCBF3A
S32D00012A9000230123DBB2002BADD107F11C07BD46B0BC704780B483B000AF78607B681B781A4641F2C033C1F6B8
S32D00012AB8FF7353F82230184607F10C07BD4680BC704700BF80B483B000AF78607B681B781A4641F2C033C1F621
S32D00012AE0FF734FF0000143F8221007F10C07BD4680BC704780B483B000AF78600B46FB707B68FA781A707B683B
S32D00012B08184607F10C07BD4680BC70470000000080B586B000AF78607B681B781A4649F2F053C0F2010353F8F8
S32D00012B3022303B617B681B781A4649F24C53C0F201039B5CFB733B69DBB203F01F03DAB241F2A033C1F6FF73BC
