S01300002E2E2F46696E616C436F64652E733139F1
S32D0000C00000000020210801007D0B01007D0B01007D0B01007D0B01007D0B01000000000000000000000000001B
S32D0000C028000000007D0B01007D0B0100000000007D0B01007D0B01007D0B01007D0B01007D0B01007D0B0100A2
S32D0000C0507D0B01007D0B01007D0B01007D0B01007D0B01007D0B01007D0B01007D0B01007D0B01007D0B010068
S32D0000C0787D0B01007D0B01007D0B01007D0B01007D0B01007D0B01007D0B01007D0B01007D0B01007D0B010040
S32D0000C0A07D0B01007D0B01007D0B01007D0B01007D0B01007D0B01007D0B01007D0B01007D0B01007D0B010018
S32D0000C0C87D0B01007D0B01007D0B01007D0B01007D0B01007D0B01007D0B01007D0B01007D0B01007D0B0100F0
S32D0000C0F07D0B0100057801007D0B01007D0B01007D0B01007D0B01007D0B01007D0B01007D0B01007D0B0100D3
S32D0000C1187D0B01007D0B01007D0B01007D0B01007D0B01007D0B01007D0B01007D0B01007D0B01007D0B01009F
S32D0000C1407D0B01007D0B01007D0B01007D0B01001D4001007D0B01007D0B01007D0B01007D0B01007D0B0100A2
S32D0000C1687D0B01007D0B01007D0B01007D0B01007D0B01007D0B01007D0B01007D0B01007D0B01007D0B01004F
S32D0000C1907D0B01007D0B01007D0B01007D3A0100D1380100A5390100CD0B0100553B01007D0B01007D0B0100C9
S32D0000C1B87D0B01007D0B01007D0B01007D0B01007D0B01007D0B01007D0B01007D0B01007D0B01007D0B0100FF
S32D0000C41081F0004102E000BF83F0004330B54FEA41044FEA430594EA050F08BF90EA020F1FBF54EA000C55EAC6
S32D0000C438020C7FEA645C7FEA655C00F0E2804FEA5454D4EB5555B8BF6D420CDD2C4480EA020281EA030382EA0F
S32D0000C460000083EA010180EA020281EA0303362D88BF30BD11F0004F4FEA01314FF4801C4CEA113102D0404263
S32D0000C48861EB410113F0004F4FEA03334CEA133302D0524263EB430394EA050F00F0A780A4F10104D5F1200E8A
S32D0000C4B00DDB02FA0EFC22FA05F2801841F1000103FA0EF2801843FA05F359410EE0A5F120050EF1200E012A2D
S32D0000C4D803FA0EFC28BF4CF0020C43FA05F3C01851EBE37101F0004507D54FF0000EDCF1000C7EEB00006EEB67
S32D0000C5000101B1F5801F1BD3B1F5001F0CD349085FEA30004FEA3C0C04F101044FEA445212F5800F80F09A8000
S32D0000C528BCF1004F08BF5FEA500C50F1000041EB045141EA050130BD5FEA4C0C404141EB010111F4801FA4F114
S32D0000C5500104E9D191F0000F04BF01460020B1FA81F308BF2033A3F10B03B3F120020CDA0C3208DD02F1140C87
S32D0000C578C2F10C0201FA0CF021FA02F10CE002F11402D8BFC2F1200C01FA02F120FA0CFCDCBF41EA0C019040B1
S32D0000C5A0E41AA2BF01EB0451294330BD6FEA04041F3C1CDA0C340EDC04F11404C4F1200220FA04F001FA02F3B6
S32D0000C5C840EA030021FA04F345EA030130BDC4F10C04C4F1200220FA02F001FA04F340EA0300294630BD21FAA8
S32D0000C5F004F0294630BD94F0000F83F4801306BF81F480110134013D4EE77FEA645C18BF7FEA655C29D094EA1C
S32D0000C618050F08BF90EA020F05D054EA000C04BF1946104630BD91EA030F1EBF0021002030BD5FEA545C05D1A3
S32D0000C6404000494128BF41F0004130BD14F580043CBF01F5801130BD01F0004545F0FE4141F470014FF0000031
S32D0000C66830BD7FEA645C1ABF194610467FEA655C1CBF0B46024650EA013406BF52EA033591EA030F41F40021D7
S32D0000C69030BD00BF90F0000F04BF0021704730B54FF4806404F132044FF000054FF0000150E700BF90F0000F66
S32D0000C6B804BF0021704730B54FF4806404F1320410F0004548BF40424FF000013EE700BF42004FEAE2014FEAF9
S32D0000C6E031014FEA02701FBF12F07F4393F07F4F81F06051704792F0000F14BF93F07F4F704730B54FF460741B
S32D0000C70801F0004521F0004120E700BF50EA010208BF704730B54FF000050AE050EA010208BF704730B511F046
S32D0000C730004502D5404261EB41014FF4806404F132045FEA915C3FF4DCAE4FF003025FEADC0C18BF03325FEAA0
S32D0000C758DC0C18BF033202EBDC02C2F1200300FA03FC20FA02F001FA03FE40EA0E0021FA02F11444C1E600BF19
S32D0000C78070B54FF0FF0C4CF4E06C1CEA11541DBF1CEA135594EA0C0F95EA0C0F00F0DEF82C4481EA030621EAF3
S32D0000C7A84C5123EA4C5350EA013518BF52EA033541F4801143F4801338D0A0FB02CE4FF00005E1FB02E506F05F
S32D0000C7D00042E0FB03E54FF00006E1FB03569CF0000F18BF4EF0010EA4F1FF04B6F5007F64F5407404D25FEA0F
S32D0000C7F84E0E6D4146EB060642EAC62141EA55514FEAC52040EA5E504FEACE2EB4F1FD0C88BFBCF5E06F1ED8D2
S32D0000C820BEF1004F08BF5FEA500E50F1000041EB045170BD06F0004646EA010140EA020081EA0301B4EB5C0487
S32D0000C848C2BFD4EB0C0541EA045170BD41F480114FF0000E013C00F3AB8014F1360FDEBF002001F0004170BDF0
S32D0000C870C4F10004203C35DA0C341BDC04F11404C4F1200500FA05F320FA04F001FA05F240EA020001F0004207
S32D0000C89821F0004110EBD37021FA04F642EB06015EEA430E08BF20EAD37070BDC4F10C04C4F1200500FA04F32F
S32D0000C8C020FA05F001FA04F240EA020001F0004110EBD37041F100015EEA430E08BF20EAD37070BDC4F12005C7
S32D0000C8E800FA05F24EEA020E20FA04F301FA05F243EA020321FA04F001F0004121FA04F220EA020000EBD37028
S32D0000C9105EEA430E08BF20EAD37070BD94F0000F0FD101F00046400041EB010111F4801F08BF013CF7D041EA6D
S32D0000C938060195F0000F18BF704703F00046520043EB030313F4801F08BF013DF7D043EA0603704794EA0C0FF1
S32D0000C9600CEA135518BF95EA0C0F0CD050EA410618BF52EA4306D1D181EA030101F000414FF0000070BD50EA38
S32D0000C988410606BF1046194652EA430619D094EA0C0F02D150EA013613D195EA0C0F05D152EA03361CBF10467B
S32D0000C9B019460AD181EA030101F0004141F0FE4141F470014FF0000070BD41F0FE4141F4780170BD70B54FF04D
S32D0000C9D8FF0C4CF4E06C1CEA11541DBF1CEA135594EA0C0F95EA0C0F00F0A7F8A4EB050481EA030E52EA03359B
S32D0000CA004FEA013100F088804FEA03334FF0805545EA131343EA12634FEA022245EA111545EA10654FEA002676
S32D0000CA280EF000419D4208BF964244F1FD0404F5407402D25B084FEA3202B61A65EB03055B084FEA32024FF461
S32D0000CA5080104FF4002CB6EB020E75EB030E22BFB61A754640EA0C005B084FEA3202B6EB020E75EB030E22BF22
S32D0000CA78B61A754640EA5C005B084FEA3202B6EB020E75EB030E22BFB61A754640EA9C005B084FEA3202B6EBEA
S32D0000CAA0020E75EB030E22BFB61A754640EADC0055EA060E18D04FEA051545EA16754FEA06164FEAC30343EAAC
S32D0000CAC852734FEAC2025FEA1C1CC0D111F4801F0BD141EA00014FF000004FF0004CB6E711F4801F04BF0143AE
S32D0000CAF00020B4F1FD0C88BFBCF5E06F3FF6AFAEB5EB030C04BFB6EB020C5FEA500C50F1000041EB045170BDBC
S32D0000CB180EF0004E4EEA113114EB5C04C2BFD4EB0C0541EA045170BD41F480114FF0000E013C90E645EA060EC3
S32D0000CB408DE60CEA135594EA0C0F08BF95EA0C0F3FF43BAF94EA0C0F0AD150EA01347FF434AF95EA0C0F7FF499
S32D0000CB6825AF104619462CE795EA0C0F06D152EA03353FF4FDAE1046194622E750EA410618BF52EA43067FF432
S32D0000CB90C5AE50EA41047FF40DAF52EA43057FF4EBAE12E74FF0FF3C06E000BF4FF0010C02E000BF4FF0010C75
S32D0000CBB84DF804CD4FEA410C7FEA6C5C4FEA430C18BF7FEA6C5C1BD001B050EA410C0CBF52EA430C91EA030FEC
S32D0000CBE002BF90EA020F0020704710F1000F91EA030F58BF994208BF90422CBFD8176FEAE37040F0010070476E
S32D0000CC084FEA410C7FEA6C5C02D150EA013C07D14FEA430C7FEA6C5CD6D152EA033CD3D05DF8040B704700BFCD
S32D0000CC308446104662468C461946634600E000BF01B5FFF7B7FF002848BF10F1000F01BD4DF808EDFFF7F4FF13
S32D0000CC580CBF012000205DF808FB00BF4DF808EDFFF7EAFF34BF012000205DF808FB00BF4DF808EDFFF7E0FF18
S32D0000CC8094BF012000205DF808FB00BF4DF808EDFFF7CEFF94BF012000205DF808FB00BF4DF808EDFFF7C4FF40
S32D0000CCA834BF012000205DF808FB00BF4FEA410212F5001215D211D56FF47873B3EB625212D94FEAC12343F0D6
S32D0000CCD0004343EA505311F0004F23FA02F018BF404270474FF00000704750EA013005D111F0004008BF6FF016
S32D0000CCF8004070474FF00000704700BF4A0011D212F5001211D20DD56FF47873B3EB62520ED44FEAC12343F085
S32D0000CD20004343EA505323FA02F070474FF00000704750EA013002D14FF0FF3070474FF0000070474FEA410241
S32D0000CD48B2F1E04324BFB3F5001CDCF1FE5C0DD901F0004C4FEAC0024CEA5070B2F1004F40EB830008BF20F09E
S32D0000CD700100704711F0804F21D113F13872BCBF01F00040704741F480114FEA5252C2F11802C2F1200C10FAB1
S32D0000CD980CF320FA02F018BF40F001004FEAC1234FEAD32303FA0CFC40EA0C0023FA02F34FEA4303CCE77FEA26
S32D0000CDC0625307D150EA01331EBF4FF0FE4040F44000704701F0004040F0FE4040F40000704700BF80F00040CC
S32D0000CDE802E000BF81F0004142001FBF5FEA410392EA030F7FEA226C7FEA236C6AD04FEA1262D2EB1363C1BF06
S32D0000CE10D218414048404140B8BF5B42192B88BF704710F0004F40F4000020F07F4018BF404211F0004F41F4FA
S32D0000CE38000121F07F4118BF494292EA030F3FD0A2F1010241FA03FC10EB0C00C3F1200301FA03F100F000432B
S32D0000CE6002D5494260EB4000B0F5000F13D3B0F1807F06D340084FEA310102F10102FE2A51D2B1F1004F40EB94
S32D0000CE88C25008BF20F0010040EA03007047490040EB000010F4000FA2F10102EDD1B0FA80FCACF1080CB2EB5F
S32D0000CEB00C0200FA0CF0AABF00EBC25052421843BCBFD0401843704792F0000F81F4000106BF80F400000132EB
S32D0000CED8013BB5E74FEA41037FEA226C18BF7FEA236C21D092EA030F04D092F0000F08BF0846704790EA010FD7
S32D0000CF001CBF0020704712F07F4F04D1400028BF40F00040704712F100723CBF00F50000704700F0004343F0DC
S32D0000CF28FE4040F4000070477FEA226216BF08467FEA23630146420206BF5FEA412390EA010F40F480007047C1
S32D0000CF504FF0000304E000BF10F0004348BF40425FEA000C08BF704743F0964301464FF000001CE050EA010264
S32D0000CF7808BF70474FF000030AE000BF50EA010208BF704711F0004302D5404261EB41015FEA010C02BF84465B
S32D0000CFA00146002043F0B64308BFA3F18053A3F50003BCFA8CF2083AA3EBC25310DB01FA02FC634400FA02FC6B
S32D0000CFC8C2F12002BCF1004F20FA02F243EB020008BF20F00100704702F1200201FA02FCC2F1200250EA4C0034
S32D0000CFF021FA02F243EB020008BF20EADC7070474FF0FF0C1CEAD0521EBF1CEAD15392EA0C0F93EA0C0F6FD019
S32D0000D0181A4480EA010C400218BF5FEA41211ED04FF0006343EA501043EA5111A0FB01310CF00040B1F5000FE7
S32D0000D0403EBF490041EAD3715B0040EA010062F17F02FD2A1DD8B3F1004F40EBC25008BF20F00100704790F058
S32D0000D068000F0CF0004C08BF49024CEA502040EA51207F3AC2BFD2F1FF0340EAC250704740F400004FF0000388
S32D0000D090013A5DDC12F1190FDCBF00F000407047C2F10002410021FA02F1C2F1200200FA02FC5FEA310040F1D5
S32D0000D0B8000053EA4C0308BF20EADC70704792F0000F00F0004C02BF400010F4000F013AF9D040EA0C0093F04C
S32D0000D0E0000F01F0004C02BF490011F4000F013BF9D041EA0C018FE70CEAD15392EA0C0F18BF93EA0C0F0AD00B
S32D0000D10830F0004C18BF31F0004CD8D180EA010000F00040704790F0000F17BF90F0004F084691F0000F91F0BB
S32D0000D130004F14D092EA0C0F01D142020FD193EA0C0F03D14B0218BF084608D180EA010000F0004040F0FE4051
S32D0000D15840F40000704740F0FE4040F4400070474FF0FF0C1CEAD0521EBF1CEAD15392EA0C0F93EA0C0F69D044
S32D0000D180A2EB030280EA010C49024FEA402037D04FF0805343EA111143EA10130CF000408B4238BF5B0042F14E
S32D0000D1A87D024FF4000C8B4224BF5B1A40EA0C00B3EB510F24BFA3EB510340EA5C00B3EB910F24BFA3EB9103A4
S32D0000D1D040EA9C00B3EBD10F24BFA3EBD10340EADC001B0118BF5FEA1C1CE0D1FD2A3FF650AF8B4240EBC25018
S32D0000D1F808BF20F0010070470CF0004C4CEA50207F32C2BFD2F1FF0340EAC250704740F400004FF00003013AF1
S32D0000D22037E792F0000F00F0004C02BF400010F4000F013AF9D040EA0C0093F0000F01F0004C02BF490011F4C9
S32D0000D248000F013BF9D041EA0C0195E70CEAD15392EA0C0F08D142027FF47DAF93EA0C0F7FF470AF084676E7AE
S32D0000D27093EA0C0F04D14B023FF44CAF08466EE730F0004C18BF31F0004CCAD130F000427FF45CAF31F0004376
S32D0000D2987FF43CAF5FE700BF4FF0FF3C06E000BF4FF0010C02E000BF4FF0010C4DF804CD4FEA40024FEA41039F
S32D0000D2C07FEA226C18BF7FEA236C11D001B052EA530C18BF90EA010F58BFB2EB030088BFC81738BF6FEAE1706E
S32D0000D2E818BF40F0010070477FEA226C02D15FEA402C05D17FEA236CE4D15FEA412CE1D05DF8040B704700BF16
S32D0000D310844608466146FFE70FB5FFF7C9FF002848BF10F1000F0FBD4DF808EDFFF7F4FF0CBF012000205DF839
S32D0000D33808FB00BF4DF808EDFFF7EAFF34BF012000205DF808FB00BF4DF808EDFFF7E0FF94BF012000205DF8A9
S32D0000D36008FB00BF4DF808EDFFF7D2FF94BF012000205DF808FB00BF4DF808EDFFF7C8FF34BF012000205DF8B1
S32D0000D38808FB00BF4FEA4002B2F1FE4F0FD34FF09E03B3EB12620DD94FEA002343F0004310F0004F23FA02F060
S32D0000D3B018BF404270474FF00000704712F1610F01D1420205D110F0004008BF6FF0004070474FF00000704797
S32D0000D3D880B483B000AF78607B6823F00043184607F10C07BD4680BC704700BF0000000080B584B000AF7860F2
S32D0000D40078681149FFF7FCFD03461846FFF764F902460B461046194609A3D3E90023FFF7D9FA02460B4610464A
S32D0000D4281946FFF743FC0346FB60FB68184607F11007BD4680BD00BFFFBFECC95C47214000004042AFF30080B4
S32D0000D45080B584B000AF78607868FFF73DF902460B46104619461AA3D3E90023FFF788F902460B461046194603
S32D0000D47817A3D3E90023FFF7A9FA02460B4610461946FFF75BFC0346FB60F868FFF720F902460B461046194658
S32D0000D4A00FA3D3E90023FFF76BF902460B4610461946FFF747FC0346BB60B868FFF79CFF0346184607F1100721
S32D0000D4C8BD4680BDAFF3008044174154FB2109400000000000806640CDCCCCCCCCCC124080B584B000AF78604E
S32D0000D4F0396041F23C10C1F6FF7006F0A7FB41F24010C1F6FF7006F0A1FB3868FFF774FF0346FB607868FFF77A
S32D0000D5181FFD034641F24410C1F6FF70194603F02BFC7B68C3F100031846FFF711FD034641F24C10C1F6FF7060
S32D0000D540194603F01DFC7868FFF706FD034641F25410C1F6FF70194603F012FC7B68C3F100031846FFF7F8FC31
S32D0000D568034641F25C10C1F6FF70194603F004FC61E041F26440C1F6FF7007F019FD41F26440C1F6FF704AF2B1
S32D0000D5900021C0F2010107F0BBFF41F26440C1F6FF70396807F0FCFF41F26440C1F6FF704AF21021C0F2010139
S32D0000D5B808F078F841F26440C1F6FF704AF21821C0F2010107F0A0FF41F26440C1F6FF70F96808F07BF841F225
S32D0000D5E06440C1F6FF704AF23021C0F2010107F08FFF41F24010C1F6FF7006F013FB034641F26440C1F6FF709A
S32D0000D608194608F063F841F26440C1F6FF704AF24421C0F2010107F077FF41F23C10C1F6FF7006F0FBFA0346AA
S32D0000D63041F26440C1F6FF70194608F04BF841F23C10C1F6FF7006F0EDFA0246FB689A4209DB41F24010C1F60E
S32D0000D658FF7006F0E3FA0246FB689A4202DA4FF0010301E04FF00003002B82D141F24410C1F6FF7003F030FB50
S32D0000D68041F24C10C1F6FF7003F02AFB41F25410C1F6FF7003F024FB41F25C10C1F6FF7003F01EFB07F1100700
S32D0000D6A8BD4680BD80B584B000AF7860396041F23C10C1F6FF7006F0C5FA41F24010C1F6FF7006F0BFFA386839
S32D0000D6D0FFF792FE0346FB607B68C3F100031846FFF73AFC034641F24410C1F6FF70194603F046FB7868FFF77F
S32D0000D6F82FFC034641F24C10C1F6FF70194603F03BFB7B68C3F100031846FFF721FC034641F25410C1F6FF7042
S32D0000D720194603F02DFB7868FFF716FC034641F25C10C1F6FF70194603F022FB61E041F26440C1F6FF7007F0C7
S32D0000D74837FC41F26440C1F6FF704AF20021C0F2010107F0D9FE41F26440C1F6FF70396807F01AFF41F264401F
S32D0000D770C1F6FF704AF21021C0F2010107F096FF41F26440C1F6FF704AF21821C0F2010107F0BEFE41F2644008
S32D0000D798C1F6FF70F96807F099FF41F26440C1F6FF704AF23021C0F2010107F0ADFE41F24010C1F6FF7006F0CE
S32D0000D7C031FA034641F26440C1F6FF70194607F081FF41F26440C1F6FF704AF24421C0F2010107F095FE41F2E5
S32D0000D7E83C10C1F6FF7006F019FA034641F26440C1F6FF70194607F069FF41F23C10C1F6FF7006F00BFA0246AC
S32D0000D810FB689A4209DB41F24010C1F6FF7006F001FA0246FB689A4202DA4FF0010301E04FF00003002B82D1E6
S32D0000D83841F24410C1F6FF7003F04EFA41F24C10C1F6FF7003F048FA41F25410C1F6FF7003F042FA41F25C1065
S32D0000D860C1F6FF7003F03CFA07F11007BD4680BD80B584B000AF7860396041F23C10C1F6FF7006F0E3F941F2C9
S32D0000D8884010C1F6FF7006F0DDF93868FFF7DCFD0346FB607B68C3F100031846FFF758FB034641F24410C1F655
S32D0000D8B0FF70194603F064FA7B68C3F100031846FFF74AFB034641F24C10C1F6FF70194603F056FA7B68C3F1C1
S32D0000D8D800031846FFF73CFB034641F25410C1F6FF70194603F048FA7B68C3F100031846FFF72EFB034641F267
S32D0000D9005C10C1F6FF70194603F03AFA61E041F26440C1F6FF7007F04FFB41F26440C1F6FF704AF25821C0F2FE
S32D0000D928010107F0F1FD41F26440C1F6FF70396807F032FE41F26440C1F6FF704AF26821C0F2010107F0AEFE0C
S32D0000D95041F26440C1F6FF704AF21821C0F2010107F0D6FD41F26440C1F6FF70F96807F0B1FE41F26440C1F627
S32D0000D978FF704AF23021C0F2010107F0C5FD41F24010C1F6FF7006F049F9034641F26440C1F6FF70194607F09B
S32D0000D9A099FE41F26440C1F6FF704AF24421C0F2010107F0ADFD41F23C10C1F6FF7006F031F9034641F26440EA
S32D0000D9C8C1F6FF70194607F081FE41F23C10C1F6FF7006F023F90246FB689A4209DB41F24010C1F6FF7006F075
S32D0000D9F019F90246FB689A4202DA4FF0010301E04FF00003002B82D141F24410C1F6FF7003F066F941F24C1022
S32D0000DA18C1F6FF7003F060F941F25410C1F6FF7003F05AF941F25C10C1F6FF7003F054F907F11007BD4680BD17
S32D0000DA4080B584B000AF7860396041F23C10C1F6FF7006F0FBF841F24010C1F6FF7006F0F5F83868FFF7F4FC8F
S32D0000DA680346FB607868FFF773FA034641F24410C1F6FF70194603F07FF97868FFF768FA034641F24C10C1F622
S32D0000DA90FF70194603F074F97868FFF75DFA034641F25410C1F6FF70194603F069F97868FFF752FA034641F2B5
S32D0000DAB85C10C1F6FF70194603F05EF961E041F26440C1F6FF7007F073FA41F26440C1F6FF704AF27421C0F2E3
S32D0000DAE0010107F015FD41F26440C1F6FF70396807F056FD41F26440C1F6FF704AF26821C0F2010107F0D2FDE9
S32D0000DB0841F26440C1F6FF704AF21821C0F2010107F0FAFC41F26440C1F6FF70F96807F0D5FD41F26440C1F627
S32D0000DB30FF704AF23021C0F2010107F0E9FC41F24010C1F6FF7006F06DF8034641F26440C1F6FF70194607F09B
S32D0000DB58BDFD41F26440C1F6FF704AF24421C0F2010107F0D1FC41F23C10C1F6FF7006F055F8034641F26440C7
S32D0000DB80C1F6FF70194607F0A5FD41F23C10C1F6FF7006F047F80246FB689A4209DB41F24010C1F6FF7006F075
S32D0000DBA83DF80246FB689A4202DA4FF0010301E04FF00003002B82D141F24410C1F6FF7003F08AF841F24C1022
S32D0000DBD0C1F6FF7003F084F841F25410C1F6FF7003F07EF841F25C10C1F6FF7003F078F807F11007BD4680BDF5
S32D0000DBF82DE9F04383B000AF786039604FF0640005F0B2FB41F2CC40C1F6FF700BF0B4F803461846FEF75CFD1D
S32D0000DC2004460D467868FEF757FD804689463868FEF752FD02460B46104619468CA3D3E90023FEF7E9FB02461A
S32D0000DC480B4640464946FEF7E5FB02460B464FF001010E4620462946FFF700F80346002B02D14FF000031E4695
S32D0000DC70F3B2002B00F0988041F26440C1F6FF7007F09AF941F26440C1F6FF704AF28421C0F2010107F00AFD97
S32D0000DC9841F24410C1F6FF70754903F06DF841F24C10C1F6FF70734903F066F841F25410C1F6FF706E4903F072
S32D0000DCC05FF841F25C10C1F6FF706C4903F058F835E041F2CC40C1F6FF700BF051F8034641F26440C1F6FF701E
S32D0000DCE819464FF002024FF00C0307F0EDFB41F2CC40C1F6FF700BF04FF8034641F26440C1F6FF7019464FF0B4
S32D0000DD1003024FF00C0307F0DBFB41F2CC40C1F6FF700BF04DF8034641F26440C1F6FF7019464FF004024FF0F7
S32D0000DD380C0307F0C9FB41F2CC40C1F6FF700BF01BF8054678683968FFF74EF803464FF00102144628461946C6
S32D0000DD60FFF7ECFA0346002B02D14FF000031C46E3B2002BADD141F24410C1F6FF7002F0AFFF41F24C10C1F6FD
S32D0000DD88FF7002F0A9FF41F25410C1F6FF7002F0A3FF41F25C10C1F6FF7002F09DFFD5E041F2CC40C1F6FF70A6
S32D0000DDB00AF0E6FF03461846FEF78EFC04460D467868FEF789FC804689463868FEF784FC02460B461046194651
S32D0000DDD825A3D3E90023FEF71DFB02460B4640464946FEF717FB02460B464FF001010E4620462946FEF750FF6D
S32D0000DE000346002B02D14FF000031E46F3B2002B00F0A08041F26440C1F6FF7007F0CCF841F26440C1F6FF7072
S32D0000DE284AF29021C0F2010107F03CFC41F24410C1F6FF700F4902F09FFF41F24C10C1F6FF700B4902F098FFD5
S32D0000DE5041F25410C1F6FF70084902F091FF41F25C10C1F6FF70044902F08AFF3EE000BF9A9999999999C93F0B
S32D0000DE780000F0C10000F04141F2CC40C1F6FF700AF07AFF034641F26440C1F6FF7019464FF002024FF00C038C
S32D0000DEA007F016FB41F2CC40C1F6FF700AF078FF034641F26440C1F6FF7019464FF003024FF00C0307F004FB49
S32D0000DEC841F2CC40C1F6FF700AF076FF034641F26440C1F6FF7019464FF004024FF00C0307F0F2FA41F2CC40FE
S32D0000DEF0C1F6FF700AF044FF054678683968FEF777FF03464FF00102144628461946FFF733FA0346002B02D14E
S32D0000DF184FF000031C46E3B2002BADD141F24410C1F6FF7002F0D8FE41F24C10C1F6FF7002F0D2FE41F2541076
S32D0000DF40C1F6FF7002F0CCFE41F25C10C1F6FF7002F0C6FE4FF0640005F00AFA07F10C07BD46BDE8F08300BFD5
S32D0000DF6890B583B000AF78604FF0C80005F0FCF977E241F2CC40C1F6FF700AF01DFF034678681946FEF72EFF1D
S32D0000DF9003464FF0010214461846DFF85015FFF7EBF90346002B02D14FF000031C46E3B2002B64D041F2644054
S32D0000DFB8C1F6FF7006F0FCFF41F26440C1F6FF704AF29C21C0F2010107F06CFB41F26440C1F6FF704AF2A8211A
S32D0000DFE0C0F2010107F094FA41F2CC40C1F6FF700AF0E6FE034641F26440C1F6FF70194607F0CEFA41F24410AC
S32D0000E008C1F6FF70DFF8E01402F0B6FE41F24C10C1F6FF70DFF8D01402F0AEFE41F25410C1F6FF70DFF8C014DD
S32D0000E03002F0A6FE41F25C10C1F6FF70DFF8B01402F09EFE4FF04B0005F092F941F24410C1F6FF7002F044FE53
S32D0000E05841F24C10C1F6FF7002F03EFE41F25410C1F6FF7002F038FE41F25C10C1F6FF7002F032FEF5E141F2E2
S32D0000E080CC40C1F6FF700AF09BFE034678681946FEF7ACFE03464FF0010214461846DFF85414FFF74BF9034681
S32D0000E0A8002B02D14FF000031C46E3B2002B60D041F26440C1F6FF7006F07AFF41F26440C1F6FF704AF2B02142
S32D0000E0D0C0F2010107F0EAFA41F26440C1F6FF704AF2A821C0F2010107F012FA41F2CC40C1F6FF700AF064FE19
S32D0000E0F8034641F26440C1F6FF70194607F04CFA41F24410C1F6FF70F94902F035FE41F24C10C1F6FF70F64910
S32D0000E12002F02EFE41F25410C1F6FF70F24902F027FE41F25C10C1F6FF70EF4902F020FE4FF04B0005F014F90B
S32D0000E14841F24410C1F6FF7002F0C6FD41F24C10C1F6FF7002F0C0FD41F25410C1F6FF7002F0BAFD41F25C10DE
S32D0000E170C1F6FF7002F0B4FD77E141F2CC40C1F6FF700AF01DFE034678681946FEF72EFE03464FF00102144658
S32D0000E1981846D649FFF7ECF80346002B02D14FF000031C46E3B2002B1ED041F2CC40C1F6FF700AF001FE0346C2
S32D0000E1C078681946FEF712FE03464FF0010214461846CA49FFF7B2F80346002B02D14FF000031C46E3B2002B4C
S32D0000E1E802D04FF0010301E04FF00003002B60D041F26440C1F6FF7006F0DAFE41F26440C1F6FF704AF29C21B5
S32D0000E210C0F2010107F04AFA41F26440C1F6FF704AF2A821C0F2010107F072F941F2CC40C1F6FF700AF0C4FDB9
S32D0000E238034641F26440C1F6FF70194607F0ACF941F24410C1F6FF70A74902F095FD41F24C10C1F6FF70A449B4
S32D0000E26002F08EFD41F25410C1F6FF70A04902F087FD41F25C10C1F6FF709D4902F080FD4FF04B0005F074F8F2
S32D0000E28841F24410C1F6FF7002F026FD41F24C10C1F6FF7002F020FD41F25410C1F6FF7002F01AFD41F25C107D
S32D0000E2B0C1F6FF7002F014FDD7E041F2CC40C1F6FF700AF07DFD034678681946FEF78EFD03464FF0010214469A
S32D0000E2D818468849FFF74CF80346002B02D14FF000031C46E3B2002B1ED041F2CC40C1F6FF700AF061FD034610
S32D0000E30078681946FEF772FD03464FF00102144618467649FFF712F80346002B02D14FF000031C46E3B2002B9F
S32D0000E32802D04FF0010301E04FF00003002B60D041F26440C1F6FF7006F03AFE41F26440C1F6FF704AF2B021FF
S32D0000E350C0F2010107F0AAF941F26440C1F6FF704AF2A821C0F2010107F0D2F841F2CC40C1F6FF700AF024FD5A
S32D0000E378034641F26440C1F6FF70194607F00CF941F24410C1F6FF70594902F0F5FC41F24C10C1F6FF70564950
S32D0000E3A002F0EEFC41F25410C1F6FF70524902F0E7FC41F25C10C1F6FF704F4902F0E0FC4FF04B0004F0D4FFCA
S32D0000E3C841F24410C1F6FF7002F086FC41F24C10C1F6FF7002F080FC41F25410C1F6FF7002F07AFC41F25C101F
S32D0000E3F0C1F6FF7002F074FC37E041F24410C1F6FF703D4902F0BCFC41F24C10C1F6FF70394902F0B5FC41F276
S32D0000E4185410C1F6FF70364902F0AEFC41F25C10C1F6FF70324902F0A7FC4FF04B0004F09BFF41F24410C1F606
S32D0000E440FF7002F04DFC41F24C10C1F6FF7002F047FC41F25410C1F6FF7002F041FC41F25C10C1F6FF7002F077
S32D0000E4683BFC41F2CC40C1F6FF700AF0A5FC034678681946FEF7B6FC03461846FEF7A8FF03464FF001021446F8
S32D0000E49018461B49FEF770FF0346002B02D14FF000031C46E3B2002B7FF467AD41F24410C1F6FF7002F014FC57
S32D0000E4B841F24C10C1F6FF7002F00EFC41F25410C1F6FF7002F008FC41F25C10C1F6FF7002F002FC4FF0C80016
S32D0000E4E004F046FF07F10C07BD4690BD000034430000F041000034C30000F0C1000000000000803F000000006B
S32D0000E508F0B583B000AF78604FF0640004F02CFF41F2CC40C1F6FF700AF02EFC03461846FEF7D6F804460D4634
S32D0000E5307868FEF7D1F802460B4610461946B8A3D3E90023FDF768FF02460B464FF001010E4620462946FEF744
S32D0000E55885FB0346002B02D14FF000031E46F3B2002B00F0938041F26440C1F6FF7006F01FFD41F26440C1F6B8
S32D0000E580FF704AF28421C0F2010107F08FF841F24410C1F6FF70A44902F0F2FB41F24C10C1F6FF70A14902F0E1
S32D0000E5A8EBFB41F25410C1F6FF709D4902F0E4FB41F25C10C1F6FF709A4902F0DDFB35E041F2CC40C1F6FF70FF
S32D0000E5D00AF0D6FB034641F26440C1F6FF7019464FF002024FF00C0306F072FF41F2CC40C1F6FF700AF0D4FB87
S32D0000E5F8034641F26440C1F6FF7019464FF003024FF00C0306F060FF41F2CC40C1F6FF700AF0D2FB034641F2C1
S32D0000E6206440C1F6FF7019464FF004024FF00C0306F04EFF41F2CC40C1F6FF700AF0A0FB03464FF001021446EE
S32D0000E64818467968FEF776FE0346002B02D14FF000031C46E3B2002BB2D141F24410C1F6FF7002F039FB41F2C8
S32D0000E6704C10C1F6FF7002F033FB41F25410C1F6FF7002F02DFB41F25C10C1F6FF7002F027FBBCE041F2CC404F
S32D0000E698C1F6FF700AF070FB03461846FEF718F804460D467868FEF713F802460B461046194659A3D3E9002377
S32D0000E6C0FDF7ACFE02460B464FF001010E4620462946FEF7E5FA0346002B02D14FF000031E46F3B2002B00F00A
S32D0000E6E8928041F26440C1F6FF7006F061FC41F26440C1F6FF704AF29021C0F2010106F0D1FF41F24410C1F600
S32D0000E710FF70464902F034FB41F24C10C1F6FF70414902F02DFB41F25410C1F6FF703F4902F026FB41F25C106C
S32D0000E738C1F6FF703A4902F01FFB35E041F2CC40C1F6FF700AF018FB034641F26440C1F6FF7019464FF002028F
S32D0000E7604FF00C0306F0B4FE41F2CC40C1F6FF700AF016FB034641F26440C1F6FF7019464FF003024FF00C03EE
S32D0000E78806F0A2FE41F2CC40C1F6FF700AF014FB034641F26440C1F6FF7019464FF004024FF00C0306F090FEA3
S32D0000E7B041F2CC40C1F6FF700AF0E2FA03464FF00102144618467968FEF7D6FD0346002B02D14FF000031C4629
S32D0000E7D8E3B2002BB2D141F24410C1F6FF7002F07BFA41F24C10C1F6FF7002F075FA41F25410C1F6FF7002F0F7
S32D0000E8006FFA41F25C10C1F6FF7002F069FA4FF0640004F0ADFD07F10C07BD46F0BD00BF9A9999999999C93F0D
S32D0000E8280000F0410000F0C1F0B583B000AF78604FF0640004F098FD41F2CC40C1F6FF700AF0AAFA03461846AB
S32D0000E850FDF742FF04460D467868FDF73DFF02460B4610461946B8A3D3E90023FDF7D4FD02460B464FF0010191
S32D0000E8780E4620462946FEF7F1F90346002B02D14FF000031E46F3B2002B00F0938041F26440C1F6FF7006F0B7
S32D0000E8A08BFB41F26440C1F6FF704AF28421C0F2010106F0FBFE41F24410C1F6FF70A44902F05EFA41F24C10D0
S32D0000E8C8C1F6FF70A14902F057FA41F25410C1F6FF709D4902F050FA41F25C10C1F6FF709A4902F049FA35E0FE
S32D0000E8F041F2CC40C1F6FF700AF042FA034641F26440C1F6FF7019464FF002024FF00C0306F0DEFD41F2CC4019
S32D0000E918C1F6FF700AF040FA034641F26440C1F6FF7019464FF003024FF00C0306F0CCFD41F2CC40C1F6FF701C
S32D0000E9400AF03EFA034641F26440C1F6FF7019464FF004024FF00C0306F0BAFD41F2CC40C1F6FF700AF01CFA1D
S32D0000E96803464FF00102144618467968FEF7E2FC0346002B02D14FF000031C46E3B2002BB2D141F24410C1F61E
S32D0000E990FF7002F0A5F941F24C10C1F6FF7002F09FF941F25410C1F6FF7002F099F941F25C10C1F6FF7002F023
S32D0000E9B893F9BCE041F2CC40C1F6FF700AF0ECF903461846FDF784FE04460D467868FDF77FFE02460B461046CB
S32D0000E9E0194659A3D3E90023FDF718FD02460B464FF001010E4620462946FEF751F90346002B02D14FF00003FB
S32D0000EA081E46F3B2002B00F0928041F26440C1F6FF7006F0CDFA41F26440C1F6FF704AF29021C0F2010106F05C
S32D0000EA303DFE41F24410C1F6FF70464902F0A0F941F24C10C1F6FF70414902F099F941F25410C1F6FF703F49AE
S32D0000EA5802F092F941F25C10C1F6FF703A4902F08BF935E041F2CC40C1F6FF700AF084F9034641F26440C1F68D
S32D0000EA80FF7019464FF002024FF00C0306F020FD41F2CC40C1F6FF700AF082F9034641F26440C1F6FF70194677
S32D0000EAA84FF003024FF00C0306F00EFD41F2CC40C1F6FF700AF080F9034641F26440C1F6FF7019464FF00402EB
S32D0000EAD04FF00C0306F0FCFC41F2CC40C1F6FF700AF05EF903464FF00102144618467968FEF742FC0346002B5B
S32D0000EAF802D14FF000031C46E3B2002BB2D141F24410C1F6FF7002F0E7F841F24C10C1F6FF7002F0E1F841F205
S32D0000EB205410C1F6FF7002F0DBF841F25C10C1F6FF7002F0D5F84FF0640004F019FC07F10C07BD46F0BD00BFCE
S32D0000EB489A9999999999B93F0000F0410000F0C1F0B583B000AF78604FF0640004F004FC41F2CC40C1F6FF70D3
S32D0000EB700AF016F903461846FDF7AEFD04460D467868FDF7A9FD02460B4610461946B8A3D3E90023FDF740FC59
S32D0000EB9802460B464FF001010E4620462946FEF77BF80346002B02D14FF000031E46F3B2002B00F0938041F2F1
S32D0000EBC06440C1F6FF7006F0F7F941F26440C1F6FF704AF28421C0F2010106F067FD41F24410C1F6FF70A449F1
S32D0000EBE802F0CAF841F24C10C1F6FF70A14902F0C3F841F25410C1F6FF709D4902F0BCF841F25C10C1F6FF70F1
S32D0000EC109A4902F0B5F835E041F2CC40C1F6FF700AF0AEF8034641F26440C1F6FF7019464FF002024FF00C0304
S32D0000EC3806F04AFC41F2CC40C1F6FF700AF0ACF8034641F26440C1F6FF7019464FF003024FF00C0306F038FC0E
S32D0000EC6041F2CC40C1F6FF700AF0AAF8034641F26440C1F6FF7019464FF004024FF00C0306F026FC41F2CC40F6
S32D0000EC88C1F6FF700AF088F803464FF00102144618467968FEF76CFB0346002B02D14FF000031C46E3B2002B93
S32D0000ECB0B2D141F24410C1F6FF7002F011F841F24C10C1F6FF7002F00BF841F25410C1F6FF7002F005F841F282
S32D0000ECD85C10C1F6FF7001F0FFFFBCE041F2CC40C1F6FF700AF058F803461846FDF7F0FC04460D467868FDF74A
S32D0000ED00EBFC02460B461046194659A3D3E90023FDF784FB02460B464FF001010E4620462946FDF79FFF034684
S32D0000ED28002B02D14FF000031E46F3B2002B00F0928041F26440C1F6FF7006F039F941F26440C1F6FF704AF2E9
S32D0000ED509021C0F2010106F0A9FC41F24410C1F6FF70464902F00CF841F24C10C1F6FF70414902F005F841F202
S32D0000ED785410C1F6FF703F4901F0FEFF41F25C10C1F6FF703A4901F0F7FF35E041F2CC40C1F6FF7009F0F0FFDC
S32D0000EDA0034641F26440C1F6FF7019464FF002024FF00C0306F08CFB41F2CC40C1F6FF7009F0EEFF034641F2CB
S32D0000EDC86440C1F6FF7019464FF003024FF00C0306F07AFB41F2CC40C1F6FF7009F0ECFF034641F26440C1F6D7
S32D0000EDF0FF7019464FF004024FF00C0306F068FB41F2CC40C1F6FF7009F0CAFF03464FF00102144618467968F0
S32D0000EE18FEF790FA0346002B02D14FF000031C46E3B2002BB2D141F24410C1F6FF7001F053FF41F24C10C1F6E9
S32D0000EE40FF7001F04DFF41F25410C1F6FF7001F047FF41F25C10C1F6FF7001F041FF4FF0640004F085FA07F100
S32D0000EE680C07BD46F0BD00BF9A9999999999C93F0000F0410000F0C1F0B583B000AF04F0BBFA02460B4610465A
S32D0000EE901946FDF757FF03467B601DE041F26440C1F6FF7006F088F841F26440C1F6FF704AF2BC21C0F201014D
S32D0000EEB806F0F8FB41F26410C1F6FF7004F0E8FE034641F26440C1F6FF70194606F012FC41F26410C1F6FF7026
S32D0000EEE004F0DAFE03461846FDF7F6FB04460D4641F27813C1F6FF731B681846FDF7ECFB02460B46104619461E
S32D0000EF0831A3D3E90023FDF783FA02460B464FF001010E4620462946FDF7BEFE0346002B02D14FF000031E4617
S32D0000EF30F3B2002B27D004F063FA04460D467868FDF7CAFB02460B4620462946FDF764FA02460B464FF00101CB
S32D0000EF580C46104619464FF000024FF0804303F57813FDF77BFE0346002B02D14FF000031C46E3B2002B02D0D4
S32D0000EF804FF0010301E04FF00003002B86D14FF0320004F0EDF941F27813C1F6FF731C6841F26410C1F6FF70F8
S32D0000EFA804F076FE034620461946FDF71BFF03461A4641F27C13C1F6FF731A6007F10C07BD46F0BDAFF30080CC
S32D0000EFD09A9999999999D93FF0B585B000AF78604FF0640004F0C4F97868FDF7B5FF034641F24410C1F6FF7031
S32D0000EFF8194601F0C1FE7B68C3F100031846FDF7A7FF034641F24C10C1F6FF70194601F0B3FE7868FDF79CFFDC
S32D0000F020034641F25410C1F6FF70194601F0A8FE7B68C3F100031846FDF78EFF034641F25C10C1F6FF701946E0
S32D0000F04801F09AFE4FF00003FB734FF00003BB60B6E041F27813C1F6FF731C6841F26410C1F6FF7004F014FE30
S32D0000F070034620461946FDF7B9FE03461846FDF72BFB04460D4641F27C13C1F6FF731B681846FDF721FB024637
S32D0000F0980B46104619464FF000024FF07E5303F5A003FDF7B5F902460B464FF001010E4620462946FDF7E6FDDC
S32D0000F0C00346002B02D14FF000031E46F3B2002B1ED041F24410C1F6FF7001F001FE41F24C10C1F6FF7001F034
S32D0000F0E8FBFD41F25410C1F6FF7001F0F5FD41F25C10C1F6FF7001F0EFFD4FF00103FB734FF00103BB735BE063
S32D0000F11041F27813C1F6FF731C6841F26410C1F6FF7004F0B9FD034620461946FDF75EFE03461846FDF7D0FA2C
S32D0000F13804460D4641F27C13C1F6FF731B681846FDF7C6FA02460B46104619462CA3D3E90023FDF75DF90246FE
S32D0000F1600B464FF001010E4620462946FDF784FD0346002B02D14FF000031E46F3B2002B1ED041F24410C1F668
S32D0000F188FF7001F0A9FD41F24C10C1F6FF7001F0A3FD41F25410C1F6FF7001F09DFD41F25C10C1F6FF7001F00F
S32D0000F1B097FD4FF00103FB734FF00003BB7303E0BB6803F10103BB60FB7B83F00103DBB2002B05D0BB68092B92
S32D0000F1D802DC4FF0010301E04FF00003002B7FF438AFBB680A2B02D14FF00003BB73BB7B184607F11407BD46FB
S32D0000F200F0BD00BFAFF3008052B81E85EB51D03F80B582B000AFB048FEF7A6FE41F26813C1F6FF731B681846FB
S32D0000F228FFF702FB4FF03C00AA49FEF705FCAA48FEF796FE4FF04600A849FEF751F9A848FEF78EFE4FF046003B
S32D0000F250A649FEF749F9A648FEF786FE41F26C13C1F6FF731B681846FFF74EF94FF01400FFF7B2FE0346FB715C
S32D0000F278FB79002B73D041F26440C1F6FF704FF47F0105F0B5FE41F26440C1F6FF7005F08FFE41F26410C1F641
S32D0000F2A0FF7004F0F9FC034641F26440C1F6FF70194606F075F94FF47A7004F059F84FF028008C49FEF7BCFB85
S32D0000F2C84FF046008A49FEF7EDF94FF028008949FEF7B2FB4FF046008749FEF701F94FF028007C49FEF7A8FB02
S32D0000F2F08448FEF739FE4FF046007A49FEF7F4F841F24410C1F6FF707F4901F039FD41F25410C1F6FF707C49B1
S32D0000F31801F032FD41F2446004F026F841F24410C1F6FF7001F0D8FC41F25410C1F6FF7001F0D2FC4FF046004B
S32D0000F3407249FEF7B3F94FF028007149FEF790FA4FF0640004F00CF86E48FEF705FE6E48FFF7D2F884E041F24D
S32D0000F3686440C1F6FF704FF0FF0105F041FE41F26440C1F6FF7005F01BFE41F26410C1F6FF7004F085FC0346A4
S32D0000F39041F26440C1F6FF70194606F001F94FF47A7003F0E5FF4E48FEF7DEFD4FF05A005A49FEF799F84FF098
S32D0000F3B846005949FEF740FB5048FEF7D1FD41F24410C1F6FF704E4901F0D6FC41F24C10C1F6FF70514901F06D
S32D0000F3E0CFFC41F25410C1F6FF70474901F0C8FC41F25C10C1F6FF704A4901F0C1FC41F2707003F0B5FF41F23F
S32D0000F4084410C1F6FF7001F067FC41F24C10C1F6FF7001F061FC41F25410C1F6FF7001F05BFC41F25C10C1F6AA
S32D0000F430FF7001F055FC4FF041003B49FEF736F94FF03C003249FEF713FA4FF0640003F08FFF3048FEF788FDC7
S32D0000F4584FF046003349FEF725F94FF0C80003F083FF2B48FFF74CF81B48FEF779FD41F22410C1F6FF7018498D
S32D0000F48005F00EF841F27C5003F072FF41F22410C1F6FF70264905F003F84FF032001649FEF704F94FF03C00D7
S32D0000F4A81249FEF7E1F91148FEF75AFD4FF032001149FEF715F84FF03C001C49FEF7D4F91B48FEF74DFD07F15E
S32D0000F4D00807BD4680BD00BF000034420000204200000000000040400000B243000060400080AF430000A041C0
S32D0000F4F80000803F0000F0410000C03F0000874300004842666606400000A0420000B3430000F4410000D04074
S32D0000F5200000D442000048C200000040000020400000B442000082420000B0420000000098B500AF41F2CC4016
S32D0000F548C1F6FF7009F018FC024641F21C13C1F6FF731A6041F2CC40C1F6FF7009F01CFC024641F22013C1F63A
S32D0000F570FF731A604FF05000B349FDF7B5FFB348FEF7F2FC4FF04600B149FDF7ADFF4FF0640003F0EDFE41F29D
S32D0000F598CC40C1F6FF7009F0EFFB03461846FDF797F802460B464FF001010C46104619469FA3D3E90023FDF710
S32D0000F5C051FB0346002B02D14FF000031C46E3B2002B03D09F48FEF7C7FC40E041F2CC40C1F6FF7009F0CCFB6F
S32D0000F5E803464FF00102144618469949FDF7C0FE0346002B02D14FF000031C46E3B2002B03D09448FEF7ACFC27
S32D0000F61025E041F2CC40C1F6FF7009F0B1FB03461846FDF759F802460B464FF001010C461046194682A3D3E90F
S32D0000F6380023FDF731FB0346002B02D14FF000031C46E3B2002B03D08348FEF789FC02E07C48FEF785FC4FF043
S32D0000F6605A008049FDF740FF7848FEF77DFC4FF0FA0003F07DFE41F27013C1F6FF731B681846FFF7D5F84FF08F
S32D0000F688640003F071FE6F48FEF76AFC4FF046007349FEF7D1F94FF032007249FEF702F84FF046007049FEF72E
S32D0000F6B0C7F94FF03C006F49FDF716FF4FF046006D49FEF7BDF94FF046006A49FDF70CFF4FF046006949FEF7E7
S32D0000F6D8B3F941F24410C1F6FF70674901F04CFB41F24C10C1F6FF70644901F045FB41F25410C1F6FF706049CA
S32D0000F70001F03EFB41F25C10C1F6FF705D4901F037FB40F2DC5003F02BFE41F24410C1F6FF7001F0DDFA41F201
S32D0000F7284C10C1F6FF7001F0D7FA41F25410C1F6FF7001F0D1FA41F25C10C1F6FF7001F0CBFA4FF032004E4973
S32D0000F750FDF7ACFF41F22410C1F6FF704B4904F09FFE4FF0C80003F003FE41F2CC40C1F6FF7009F005FB024699
S32D0000F77841F21C13C1F6FF731A6041F2CC40C1F6FF7009F009FB024641F22013C1F6FF731A604FF050003C4997
S32D0000F7A0FDF784FF41F22410C1F6FF70274904F077FE4FF0640003F0DBFD3648FEF7D4FB4FF050003449FDF7AE
S32D0000F7C88FFE41F22410C1F6FF702E4904F064FE4FF0C80003F0C8FD4FF050002D49FDF761FF41F22410C1F6F6
S32D0000F7F0FF702B4904F054FE4FF0640003F0B8FD4FF03C002749FDF76FFE4FF0640003F0AFFD41F22410C1F6CB
S32D0000F818FF700C4904F040FE2148FEF7A1FB4FF03C001E49FDF73EFF98BD00BFAFF30080CDCCCCCCCC4C3E40C2
S32D0000F8403333333333B33E400000C8410000B442000040410000B2420000FC410000BA42CDCCB64200004841A3
S32D0000F86800001842333313400000C0410000C03F000070410000204100004842000048C20000003F000028430F
S32D0000F8900000C0400000B343000040400000A040000016430000803F0080B343AFF3008080B500AF4FF03C00E5
S32D0000F8B83249FDF7F7FE4FF028003149FEF7BCF84FF0640003F050FD4FF028002D49FDF7E9FE4FF0640003F003
S32D0000F8E047FD4FF03C002A49FEF7AAF82948FEF73BFB4FF050002849FDF7D8FE41F22410C1F6FF70254904F0DC
S32D0000F908CBFD4FF4FA7003F02FFD41F22410C1F6FF70214904F0C0FD4FF4FA7003F024FD4FF032001D49FDF709
S32D0000F930DBFD4FF046001C49FEF782F84FF05A001A49FDF7D1FD4FF046001949FDF790FF1848FEF709FB4FF0B8
S32D0000F9585A001749FDF7C4FD1448FEF701FB41F27413C1F6FF731B6818461249FDF73CFA03461846FFF7ECF8FB
S32D0000F98080BD00BF9A99D9400000A0419A99993F00003442CD0C99430000B0400000A0400000B442CDCC6C40EF
S32D0000F9A80000F042000050410000E04100008743CDCC0C410000003F80B500AF4FF046004B49FDF76FFE4FF0C1
S32D0000F9D046004A49FEF734F84948FEF7C5FA41F24410C1F6FF70474901F0CAF941F24C10C1F6FF70444901F0A6
S32D0000F9F8C3F941F25410C1F6FF70404901F0BCF941F25C10C1F6FF703D4901F0B5F94FF4C86003F0A9FC41F219
S32D0000FA204410C1F6FF7001F05BF941F24C10C1F6FF7001F055F941F25410C1F6FF7001F04FF941F25C10C1F6B9
S32D0000FA48FF7001F049F941F2CC40C1F6FF7009F093F9024641F21C13C1F6FF731A6041F2CC40C1F6FF7009F059
S32D0000FA7097F9024641F22013C1F6FF731A604FF032002249FDF712FE4FF032002049FDF7D7FF4FF028001F4934
S32D0000FA98FDF708FE4FF032001D49FDF7E5FE1648FEF75EFA4FF050001849FDF7FBFD41F21C13C1F6FF731B6803
S32D0000FAC018461649FEF798F841F23010C1F6FF70134904F0E5FC4FF4FA6003F049FC41F23010C1F6FF700F4946
S32D0000FAE804F0DAFC4FF4FA7003F03EFC80BD00BF0000803F0000C8420000344300004842000048C2000000403C
S32D0000FB100000C8410000204000002041CDCC0C4100002A430000B44280B500AF4FF046001849FDF7D9FC4FF0E2
S32D0000FB383C001749FDF798FE4FF050001549FDF7CFFC1548FEF70CFA4FF064001349FDF7C7FC41F24410C1F681
S32D0000FB60FF70114901F00CF941F24C10C1F6FF700E4901F005F941F25410C1F6FF700A4901F0FEF841F25C1027
S32D0000FB88C1F6FF70074901F0F7F880BD000020410000B8420000A04100008743000000410000C842000070C13A
S32D0000FBB090B587B002AF4FF00103FB600DE107F1080207F1040341F26440C1F6FF7011461A4605F049FB91E00F
S32D0000FBD84FF09603009341F26440C1F6FF704FF037014FF02D024FF0C80306F0A3F941F26440C1F6FF704AF2DD
S32D0000FC00D821C0F201014FF064024FF07E0305F02FFA41F26440C1F6FF704AF2E421C0F201014FF000024FF034
S32D0000FC28D20305F021FA41F2CC40C1F6FF7009F0A3F8034641F26440C1F6FF7019464FF04B024FF0D20305F096
S32D0000FC503BFA41F26440C1F6FF704AF2EC21C0F201014FF082024FF0D20305F001FA41F2CC40C1F6FF7009F032
S32D0000FC7893F8034641F26440C1F6FF7019464FF0C3024FF0D20305F01BFA41F2CC40C1F6FF7009F071F80346FC
S32D0000FCA04FF0010214461846DFF8C417FDF746FB0346002B02D14FF000031C46E3B2002B0ED041F26440C1F63E
S32D0000FCC8FF704FF47F0105F093F941F26440C1F6FF7005F06DF90DE041F26440C1F6FF704FF0000105F084F967
S32D0000FCF041F26440C1F6FF7005F05EF907F1080207F1040341F26440C1F6FF7011461A4605F0AAFA034683F093
S32D0000FD180103DBB2002B7FF45BAF4FF4FA7003F023FB7B684FF0010214461846DFF83C17FDF71EFB0346002B3E
S32D0000FD4002D14FF000031C46E3B2002B45D07B684FF0010214461846DFF81C17FDF7EEFA0346002B02D14FF000
S32D0000FD6800031C46E3B2002B33D0BB684FF0010214461846DFF8FC16FDF7FAFA0346002B02D14FF000031C466C
S32D0000FD90E3B2002B21D0BB684FF0010214461846DFF8DC16FDF7CAFA0346002B02D14FF000031C46E3B2002B4B
S32D0000FDB80FD041F2CC40C1F6FF7008F0EDFF024641F26813C1F6FF731A60FB6803F10103FB60FB68012B14BF44
S32D0000FDE000230123DBB2002B7FF4E9AE0DE107F1080207F1040341F26440C1F6FF7011461A4605F031FA91E0B8
S32D0000FE084FF09603009341F26440C1F6FF704FF037014FF02D024FF0C80306F08BF841F26440C1F6FF704AF2C3
S32D0000FE30F421C0F201014FF064024FF07E0305F017F941F26440C1F6FF704AF2E421C0F201014FF000024FF0FF
S32D0000FE58D20305F009F941F2CC40C1F6FF7008F08BFF034641F26440C1F6FF7019464FF04B024FF0D20305F08F
S32D0000FE8023F941F26440C1F6FF704AF2EC21C0F201014FF082024FF0D20305F0E9F841F2CC40C1F6FF7008F034
S32D0000FEA87BFF034641F26440C1F6FF7019464FF0C3024FF0D20305F003F941F2CC40C1F6FF7008F059FF034606
S32D0000FED04FF0010214461846DFF89415FDF72EFA0346002B02D14FF000031C46E3B2002B0ED041F26440C1F657
S32D0000FEF8FF704FF47F0105F07BF841F26440C1F6FF7005F055F80DE041F26440C1F6FF704FF0000105F06CF880
S32D0000FF2041F26440C1F6FF7005F046F807F1080207F1040341F26440C1F6FF7011461A4605F092F9034683F092
S32D0000FF480103DBB2002B7FF45BAF4FF4FA7003F00BFA7B684FF0010214461846DFF80C15FDF706FA0346002B70
S32D0000FF7002D14FF000031C46E3B2002B45D07B684FF0010214461846DFF8EC14FDF7D6F90346002B02D14FF01A
S32D0000FF9800031C46E3B2002B33D0BB684FF0010214461846DFF8CC14FDF7E2F90346002B02D14FF000031C4685
S32D0000FFC0E3B2002B21D0BB684FF0010214461846DFF8AC14FDF7B2F90346002B02D14FF000031C46E3B2002B64
S32D0000FFE80FD041F2CC40C1F6FF7008F0C5FE024641F26C13C1F6FF731A60FB6803F10103FB60FB68022B14BF36
S32D0001001000230123DBB2002B7FF4E9AE08E107F1080207F1040341F26440C1F6FF7011461A4605F019F990E0A3
S32D000100384FF09603009341F26440C1F6FF704FF037014FF02D024FF0C80305F073FF41F26440C1F6FF704AF2A2
S32D000100600031C0F201014FF064024FF07E0304F0FFFF41F26440C1F6FF704AF2E421C0F201014FF000024FF0C3
S32D00010088D20304F0F1FF41F2CC40C1F6FF7008F073FE034641F26440C1F6FF7019464FF04B024FF0D20305F088
S32D000100B00BF841F26440C1F6FF704AF2EC21C0F201014FF082024FF0D20304F0D1FF41F2CC40C1F6FF7008F02C
S32D000100D863FE034641F26440C1F6FF7019464FF0C3024FF0D20304F0EBFF41F2CC40C1F6FF7008F041FE034618
S32D000101004FF0010214461846D949FDF717F90346002B02D14FF000031C46E3B2002B0ED041F26440C1F6FF702A
S32D000101284FF47F0104F064FF41F26440C1F6FF7004F03EFF0DE041F26440C1F6FF704FF0000104F055FF41F2BB
S32D000101506440C1F6FF7004F02FFF07F1080207F1040341F26440C1F6FF7011461A4605F07BF8034683F00103B7
S32D00010178DBB2002B7FF45CAF4FF4FA7003F0F4F87B684FF0010214461846B849FDF7F0F80346002B02D14FF056
S32D000101A000031C46E3B2002B42D07B684FF0010214461846B049FDF7C1F80346002B02D14FF000031C46E3B2F6
S32D000101C8002B31D0BB684FF0010214461846A949FDF7CEF80346002B02D14FF000031C46E3B2002B20D0BB6855
S32D000101F04FF0010214461846A149FDF79FF80346002B02D14FF000031C46E3B2002B0FD041F2CC40C1F6FF7082
S32D0001021808F0C2FD024641F27013C1F6FF731A60FB6803F10103FB60FB68032B14BF00230123DBB2002B7FF4D3
S32D00010240EEAE08E107F1080207F1040341F26440C1F6FF7011461A4605F006F890E04FF09603009341F26440B0
S32D00010268C1F6FF704FF037014FF02D024FF0C80305F060FE41F26440C1F6FF704AF20C31C0F201014FF0640230
S32D000102904FF07E0304F0ECFE41F26440C1F6FF704AF2E421C0F201014FF000024FF0D20304F0DEFE41F2CC404B
S32D000102B8C1F6FF7008F060FD034641F26440C1F6FF7019464FF04B024FF0D20304F0F8FE41F26440C1F6FF7070
S32D000102E04AF2EC21C0F201014FF082024FF0D20304F0BEFE41F2CC40C1F6FF7008F050FD034641F26440C1F6EA
S32D00010308FF7019464FF0C3024FF0D20304F0D8FE41F2CC40C1F6FF7008F02EFD03464FF00102144618465049B2
S32D00010330FDF704F80346002B02D14FF000031C46E3B2002B0ED041F26440C1F6FF704FF47F0104F051FE41F2EF
S32D000103586440C1F6FF7004F02BFE0DE041F26440C1F6FF704FF0000104F042FE41F26440C1F6FF7004F01CFE26
S32D0001038007F1080207F1040341F26440C1F6FF7011461A4604F068FF034683F00103DBB2002B7FF45CAF4FF405
S32D000103A8FA7002F0E1FF7B684FF00102144618462E49FCF7DDFF0346002B02D14FF000031C46E3B2002B42D00A
S32D000103D07B684FF00102144618462749FCF7AEFF0346002B02D14FF000031C46E3B2002B31D0BB684FF0010200
S32D000103F8144618461F49FCF7BBFF0346002B02D14FF000031C46E3B2002B20D0BB684FF00102144618461849F0
S32D00010420FCF78CFF0346002B02D14FF000031C46E3B2002B0FD041F2CC40C1F6FF7008F0AFFC024641F274139B
S32D00010448C1F6FF731A60FB6803F10103FB60FB68042B14BF00230123DBB2002B7FF4EEAE07F11407BD4690BD56
S32D0001047000000000000034420000434300005C4200007F430000000090B585B000AF41F26440C1F6FF704FF09C
S32D00010498000104F077FD41F26440C1F6FF706FF07F4104F0CDFD41F26440C1F6FF704AF21831C0F2010105F0C7
S32D000104C0F5F840F2EE2002F053FF71E04FF00003FB6041F26440C1F6FF7004F06DFD41F26440C1F6FF704AF21A
S32D000104E82831C0F2010105F00FF841F26410C1F6FF7003F0CDFB034641F26440C1F6FF70194605F0F7F841F298
S32D000105106440C1F6FF704AF23831C0F2010104F0F7FF41F2B040C1F6FF7006F0C7FF034641F26440C1F6FF7064
S32D00010538194605F0DFF84FF00A0002F015FF41F26410C1F6FF7003F0A3FB03461846FCF7BFF802460B464FF093
S32D0001056001010C46104619465DA3D3E90023FCF797FB0346002B02D14FF000031C46E3B2002B03D0FB6803F12A
S32D000105880103FB60FB68312B0EDD41F26440C1F6FF704AF24831C0F201014FF000024FF0280304F061FD12E0E6
S32D000105B007F1080207F1040341F26440C1F6FF7011461A4604F050FE034683F00103DBB2002B7FF47BAF41F2DD
S32D000105D8CC40C1F6FF7007F0FFFE41F22410C1F6FF7040F2D52103F019FF41F22410C1F6FF7040F6A41103F0A3
S32D000106002FFF41F23010C1F6FF7040F2022103F009FF41F23010C1F6FF7040F67E1103F01FFF4FF4FA7002F0A6
S32D00010628A3FE41F22410C1F6FF702D4903F034FF41F23010C1F6FF702A4903F02DFF4FF47A7002F091FE41F2CD
S32D000106506440C1F6FF7004F0AFFC41F26440C1F6FF704AF26C31C0F2010105F01FF8FFF79FFA4FF4FA7002F04E
S32D000106787BFE41F26440C1F6FF7004F099FC41F26440C1F6FF704AF28031C0F2010104F03BFF00BF07F10802C7
S32D000106A007F1040341F26440C1F6FF7011461A4604F0DAFD034683F00103DBB2002BEDD141F26410C1F6FF70AA
S32D000106C803F0E6FA024641F27813C1F6FF731A6007F11407BD4690BD9A999999999909400000B4420000AA4262
S32D000106F080B500AFFFF7C8FEFEF7C2FBFEF788FDFEF71EFFFFF7D4F8FFF75AF9FFF70CFA4FF00003184680BD19
S32D0001071880B582B000AF786039607B68012B50D13A684FF6FF739A424BD141F22410C1F6FF704FF0060103F0E4
S32D0001074053FE41F23010C1F6FF704FF0000103F04BFE41F23C10C1F6FF704FF0090102F0A9FE41F24010C1F663
S32D00010768FF704FF0100102F0A1FE41F24410C1F6FF704FF00001154A00F056FA41F24C10C1F6FF704FF003018E
S32D00010790104A00F04DFA41F25410C1F6FF704FF001010C4A00F044FA41F25C10C1F6FF704FF00201074A00F0DF
S32D000107B83BFA41F26410C1F6FF704FF0040103F055FA07F10807BD4680BD00BF0000A04080B500AF4FF0010080
S32D000107E04FF6FF71FFF798FF80BD00BF80B500AF41F23072C1F6FF7241F21C13C1F6FF73D31A194641F21C1392
S32D00010808C1F6FF731A460B4610464FF000011A4608F067FC80BD00BF09F0DCFC00F0B0F9FFF7E0FF09F0AEFCB8
S32D0001083009F04AFC09F0E2FC00F00CF84FF0000041F28011C1F6FF71FFF752FF0346184608F026FC80B500AF79
S32D000108584FF4E043C4F204034FF4E042C4F2040202F5805202F13802126842F4785203F5805303F138031A6049
S32D0001088000F02EF900F094F841F2B033C1F6FF734FF058021A6041F2B033C1F6FF731B684FF47A7202FB03F281
S32D000108A841F2AC33C1F6FF731A6041F2AC33C1F6FF731B681A464FF4E043C4F2040303F5825303F104031B68E0
S32D000108D003F070634FEA136303F10103B2FBF3F31A4641F2B433C1F6FF731A604FF4E043C4F204034FF4E04254
S32D000108F8C4F2040202F5805202F13C02126842F0225203F5805303F13C031A604FF4E043C4F204034FF4E042FB
S32D00010920C4F2040202F5805202F13002126842F0006203F5805303F130031A604FF45043C4F203034FF48072BD
S32D000109481A614FF0640002F0A3FB4FF45043C4F203034FF45042C4F20302526922F010025A614FF45043C4F28A
S32D0001097003034FF000021A604FF45043C4F203034FF010025A6103F0B9FA03F061FB41F2A830C1F6FF7002F0E1
S32D0001099803FC41F26440C1F6FF7004F041F941F2883002F0E1FC80BD80B400AF4FF48043C4F206034FF0000226
S32D000109C05A704FF48043C4F206034FF098021A704FF48043C4F206039B79DBB203F01003002B0CBF002301236D
S32D000109E8DBB2002BF0D14FF48043C4F206039B79DBB203F00C034FEA9303022B0CBF00230123DBB2002BEED17A
S32D00010A104FF48043C4F206034FF018021A714FF48043C4F206034FF000025A714FF4E043C4F2040303F582534D
S32D00010A3803F104034FF00002C0F213121A604FF48043C4F206034FF054025A7100BF4FF48043C4F206039B7945
S32D00010A60DBB203F02003002B14BF00230123DBB2002BF0D100BF4FF48043C4F206039B79DBB203F04003002B80
S32D00010A8814BF00230123DBB2002BF0D14FF48043C4F206034FF48042C4F206021278D2B202F03F02D2B21A70D5
S32D00010AB04FF48043C4F206039B79DBB203F00C034FEA9303032B0CBF00230123DBB2002BEED14FF00003184689
S32D00010AD8BD4680BC704700BF80B400AF4FF44043C4F204034FF480725A634FF2C003C4F20F034FF2C002C4F25D
S32D00010B000F02526942F400525A614FF2C003C4F20F034FF2C002C4F20F02126842F400521A604FF44043C4F229
S32D00010B28040340F20312C0F20A021A634FF46143CEF200034FF46142CEF20002D2F8882142F08062C3F88821D8
S32D00010B504FF46143CEF200034FF46142CEF20002926842F080629A60BD4680BC704700BF80B483B000AF786079
S32D00010B78FEE700BF80B400AF00BEBD4680BC704780B400AF4FF0E0224CF20003C0F20003C2F8083D4FF4005364
S32D00010BA0C4F205034CF22052DA814FF40053C4F205034DF62812DA814FF40053C4F205034FF0D2021A80BD462D
S32D00010BC880BC704780B500AF4FF44043C4F20403D3F8A03003F48053002B0CBF00230123DBB2002B1FD04FF418
S32D00010BF04043C4F204034FF44042C4F20402D2F8A02022F48052C3F8A02041F2EC40C1F6FF7008F0CBF94FF2A6
S32D00010C18C003C4F20F034FF2C002C4F20F02126822F400521A6080BD90B585B000AFF8600B467A60FB72FB6843
S32D00010C40FA7A1A71FB684FF000025A714FF001031C4678682049FCF78FFB0346002B02D14FF000031C46E3B22C
S32D00010C68002B02D01A4B7B6011E04FF001031C4678681849FCF768FB0346002B02D14FF000031C46E3B2002B48
S32D00010C9001D0124B7B607868FBF71EFD02460B46104619460AA3D3E90023FBF769FD02460B4610461946FCF7CC
S32D00010CB845F80246FB681A60FB68184607F11407BD4690BDAFF30080ABAAAAAAAAAA2040000040410000803FC8
S32D00010CE080B582B000AF78607B685B79002B10D07B684FF000025A717B681B7941F2A830C1F6FF7019464FF000
S32D00010D0800024FF01E0302F091FA07F10807BD4680BD00BF80B584B000AF786039603B687F2B03DD4FF07F0360
S32D00010D30FB7309E03B6813F1800F03DA4FF08003FB7301E03B68FB737B685B79FA7B9A420FD07B68FA7B5A71FE
S32D00010D587B681A79FB7B41F2A830C1F6FF7011461A464FF01E0302F061FA07F11007BD4680BD00BF00000000DD
S32D00010D80B0B584B000AF786039604FF001031C4638684D49FCF7D2FA0346002B02D14FF000031C46E3B2002B46
S32D00010DA802D0474B3B6011E04FF001031C4638684449FCF7DDFA0346002B02D14FF000031C46E3B2002B01D014
S32D00010DD03E4B3B603868FBF77FFC04460D467B681B681846FBF778FC02460B46104619464FF000024FF080436B
S32D00010DF803F5B203FBF7EAFD02460B4620462946FBF7BAFC02460B4610461946FBF796FF03463B604FF0010334
S32D00010E201C4638682A49FCF79DFA0346002B02D14FF000031C46E3B2002B14D03868FBF74BFC02460B4610464D
S32D00010E4819461DA3D3E90023FBF796FC02460B4610461946FBF72AFF0346FB6022E03868FBF736FC02460B468D
S32D00010E70104619464FF000024FF0804303F5C003FBF77EFC02460B46104619464FF000024FF0804303F5B203F6
S32D00010E98FBF79CFD02460B4610461946FBF706FF0346FB607868F968FFF734FF07F11007BD46B0BDAFF30080AC
S32D00010EC052B81E85EB51F43F0000C8C20000C84200000000AFF3008080B485B000AF02460B46FA71BB71BB79B5
S32D00010EE8002B07D141F28413C1F6FF734FF000021A7006E041F28413C1F6FF734FF001021A704FF03803FB738D
S32D00010F1041F28413C1F6FF731A78FB7B1343FB734FF4C043C4F206034FF4C042C4F206029278D2B242F0100219
S32D00010F38D2B29A704FF4C043C4F206034FF4C042C4F206029278D2B242F02002D2B29A704FF4C043C4F206037F
S32D00010F60FA7B1A7107F11407BD4680BC704700BF80B483B000AF4FF001037B6004E000BF7B6803F101037B600D
S32D00010F887B68312BCCBF00230123DBB2002BF2D107F10C07BD4680BC704700BF80B582B000AF02460B46FA71D4
S32D00010FB0BB7141F28513C1F6FF731B7818464FF00001FFF789FF4FF4C043C4F20603DB78DBB203F00203002B3B
S32D00010FD814BF00230123DBB2002BF0D14FF4C043C4F206034FF4C042C4F20602D278D2B242F00202D2B2DA707D
S32D000110004FF4C043C4F20603FA791A714FF4C043C4F20603DB78DBB203F00203002B14BF00230123DBB2002BE4
S32D00011028F0D14FF4C043C4F206034FF4C042C4F20602D278D2B242F00202D2B2DA704FF4C043C4F20603BA79C6
S32D000110501A714FF4C043C4F20603DB78DBB203F00203002B14BF00230123DBB2002BF0D14FF4C043C4F2060346
S32D000110784FF4C042C4F20602D278D2B242F00202D2B2DA704FF4C043C4F206034FF4C042C4F206029278D2B2DE
S32D000110A022F02002D2B29A704FF4C043C4F206034FF4C042C4F206029278D2B222F01002D2B29A70FFF754FFCE
S32D000110C807F10807BD4680BD80B582B000AF0346FB71FB79184600F06BF807F10807BD4680BD00BF80B582B055
S32D000110F000AF02460B46FA71BB7100F039F8FB794FEA4303DBB21846FFF7E2FFBB791846FFF7DEFF00F03EF891
S32D0001111807F10807BD4680BD80B500AF4FF0FF0000F046F80346184680BD00BF80B584B000AF0346FB7100F0B1
S32D0001114017F8FB794FEA4303DBB243F00103DBB2DBB21846FFF7BCFFFFF7E2FF0346FB7300F018F8FB7B18462F
S32D0001116807F11007BD4680BD80B400AF4FF24003C4F20F034FF24002C4F20F02926842F480129A60BD4680BC95
S32D00011190704700BF80B400AF4FF24003C4F20F034FF24002C4F20F02526842F480125A60BD4680BC704700BF50
S32D000111B880B485B000AF0346FB714FF00003BB7303E0FB7B03F10103FB734FF44043C4F20A03DB6A4FF00003FC
S32D000111E0002BF2D14FF44043C4F20A034FF44042C4F20A02D26A42F00042DA624FF44043C4F20A03FA795A633D
S32D0001120800BF4FF44043C4F20A03DB6A03F40033002B14BF00230123DBB2002BF1D14FF44043C4F20A039B6BB2
S32D00011230BB73BB7B184607F11407BD4680BC704780B582B000AF4FF4E043C4F204034FF4E042C4F2040202F573
S32D00011258805202F13002126842F4805203F5805303F130031A604FF42043C4F204034FF480721A654FF24003E7
S32D00011280C4F20F034FF24002C4F20F02526942F480125A61FFF77EFF4FF42043C4F204034FF400725A654FF462
S32D000112A82043C4F204034FF400729A654FF42043C4F204034FF40072DA654FF44043C4F20A034FF44062C8F2C4
S32D000112D000021A604FF44043C4F20A034FF00502C3F60062DA604FF000037B6007E04FF0FF00FFF7EDFE7B6849
S32D000112F803F101037B607B68092BCCBF00230123DBB2002BEFD104A1D1E9000102F048F807F10807BD4680BDBA
S32D000113209A9999999999B93F90B486B000AFF860B9607A60FA684FF42043C4F206039A4214D14FF4E043C4F2F7
S32D0001134804034FF4E042C4F2040202F5805202F13402126842F4806203F5805303F134031A6083E0FA684FF452
S32D000113703043C4F206039A4214D14FF4E043C4F204034FF4E042C4F2040202F5805202F13402126842F4006213
S32D0001139803F5805303F134031A6067E0FA684FF44043C4F206039A4214D14FF4E043C4F204034FF4E042C4F289
S32D000113C0040202F5805202F13402126842F4805203F5805303F134031A604BE0FA684FF45043C4F206039A4216
S32D000113E814D14FF4E043C4F204034FF4E042C4F2040202F5805202F13402126842F4005203F5805303F13403C3
S32D000114101A602FE0FA684FF42043C4F20E039A4214D14FF4E043C4F204034FF4E042C4F2040202F5805202F194
S32D000114382802126842F4806203F5805303F128031A6013E04FF4E043C4F204034FF4E042C4F2040202F5805265
S32D0001146002F12802126842F4006203F5805303F128031A60FB68DB78DBB223F00C03DAB2FB68DA70FB684FF08A
S32D0001148800029A70BB684FF47A7202FB03F27B684FEA031392FBF3F39CB2FB681B78DBB223F01F03FB75234661
S32D000114B003F4F8534FEA2323DBB203F01F03DAB2FB7D1343DAB2FB681A70E2B2FB685A70BB684FF4FA4202FB77
S32D000114D803F27B684FEA031392FBF3F39AB2234619464FEAC121CB1A4FEA43139BB2D3189CB2FB689B7ADBB21D
S32D0001150023F01F03FB75E3B203F01F03DAB2FB7D1343DAB2FB689A72FB68DB78DBB243F00C03DAB2FB68DA705A
S32D0001152807F11807BD4690BC704700BF80B483B000AF786000BF7B681B79DBB203F02003002B14BF00230123AC
S32D00011550DBB2002BF3D17B68DB79DBB2184607F10C07BD4680BC704780B483B000AF78600B46FB7000BF7B6881
S32D000115781B79DBB2DBB26FEA0303DBB24FEAD313DBB2002BF3D17B68FA78DA7107F10C07BD4680BC704700BFAF
S32D000115A080B487B000AFF860B9607A60FB687B6107E0BB68DAB27B691A707B6903F101037B617B68002B0CBFE3
S32D000115C800230123DBB27A6802F1FF327A60002BEBD107F11C07BD4680BC704780B584B000AF786039607B68DC
S32D000115F01B6BFB60FA683B689A4264D07B681B79002B43D07B685A787B6803F1340310461946FA684FF0010304
S32D0001161801F0ACFB0346002B0CBF00230123DBB2002B02D04FF001034BE07B684FF000021A717B685A6A7B6854
S32D000116401B6AD218FB689A4220D97B68DB78FB7214E07B681B6AFA68D318FB607B685A787B6803F13403104614
S32D000116681946FA684FF0010301F080FBFB7A03F1FF33FB72FB7A012B94BF00230123DBB2002BE2D13B68002B67
S32D0001169019D07B685A787B6803F13403104619463A684FF0010301F057FA0346002B0CBF00230123DBB2002B65
S32D000116B802D04FF0010304E07B683A681A634FF00003184607F11007BD4680BD80B584B000AF786078684FF00A
S32D000116E00001FFF77FFF0346FB73FB7B002B40F0AE807B681B78032B40F095807B685B79002B00F090807B6802
S32D000117084FF000021A637B6803F1340318464FF000014FF40072FFF73FFF7B684FF0550283F832227B684FF0F5
S32D00011730AA0283F833227B684FF0520283F834207B684FF0520283F835207B684FF0610283F836207B684FF00B
S32D00011758410283F837207B684FF0720283F818227B684FF0720283F819227B684FF0410283F81A227B684FF078
S32D00011780610283F81B227B681B69DAB27B6883F81C227B681B699BB24FEA2323DAB27B6883F81D227B681B69CD
S32D000117A84FEA1343DAB27B6883F81E227B681B694FEA1363DAB27B6883F81F227B68DB68DAB27B6883F82022C6
S32D000117D07B68DB689BB24FEA2323DAB27B6883F821227B68DB684FEA1343DAB27B6883F822227B68DB684FEA89
S32D000117F81363DAB27B6883F823227B6859787B6803F134027B685B69084611461A464FF0010301F0ABFA7B68F4
S32D000118204FF000025A717B685B7818464FF000014FF0000201F084FB0346002B0CBF00230123DBB2002B02D078
S32D000118484FF00103FB73FB7B184607F11007BD4680BD00BF80B582B000AF78600B467B807B68002B08D07B68DB
S32D000118701B78002B04D07B68DB887A889A4202D04FF009030FE07B685B78184601F0ECFB034603F00103DBB2CE
S32D00011898002B02D04FF0030301E04FF00003184607F10807BD4680BD80B586B000AF78607B681A687B689B88BA
S32D000118C010461946FFF7CAFF0346FB75FB7D002B40F0C8807B689B7903F02003002B00F0C1807B689B7903F05E
S32D000118E84003002B20D07B681B6859787B6803F128027B689B69084611461A464FF0010301F034FA0346002B79
S32D000119100CBF00230123DBB2002B02D04FF00103A1E07B689B7923F04003DAB27B689A717B681A687B68DB69F5
S32D0001193810461946FFF752FE0346FB75FB7D002B40F08C807B681B6A3B613B6903F10B033A6902F10B02127816
S32D0001196042F02002D2B21A703B6903F11C037A68D268D2B21A703B6903F11D037A68D26892B24FEA2222D2B2FC
S32D000119881A703B6903F11E037A68D2684FEA1242D2B21A703B6903F11F037A68D2684FEA1262D2B21A703B6901
S32D000119B003F11A037A681269D2B21A703B6903F11B037A68126992B24FEA2222D2B21A703B6903F114037A6819
S32D000119D812694FEA1242D2B21A703B6903F115037A6812694FEA124292B24FEA2222D2B21A704FF00003FB60C4
S32D00011A003B6903F11603FA68D2B21A703B6903F11703FA6892B24FEA2222D2B21A703B6903F11803FA684FEA65
S32D00011A281242D2B21A703B6903F11903FA684FEA1262D2B21A707B689B7923F02003DAB27B689A717B681B684F
S32D00011A504FF001021A717B681B681846FFF73AFE0346FB75FB7D184607F11807BD4680BD80B584B000AF7860D2
S32D00011A787868FFF719FF0346FB73FB7B002B03D17B684FF000021A60FB7B184607F11007BD4680BD80B588B0F7
S32D00011AA000AF786039604FF080033B614FF00F03FB604FF0FF337B614FF00203FB612AE04FF00103BB611AE09D
S32D00011AC8FB69BA6902FB03F33A6802FB03F27B68D31ABB60BB68002B09DBBA687B699A4205D2BB687B61FB69A8
S32D00011AF03B61BB69FB60BB6903F10103BB61BB69102B8CBF00230123DBB2002BDCD1FB694FEA4303FB61FB697B
S32D00011B18B3F5807F8CBF00230123DBB2002BCBD14FF48053C4F20B034FF48052C4F20B02D26A22F00802DA62CB
S32D00011B404FF48053C4F20B03DB6A1A464FF00F03CFF6F0731340BB614FF48053C4F20B033A694FEA52024FEACC
S32D00011B6802224FEA02424FEA1242F96801F1FF314FEA0111C9B21143BA690A4342F46022DA6203E04FF00A00F3
S32D00011B9001F0EEFB4FF48053C4F20B035B6A03F00803002B14BF00230123DBB2002BEDD14FF48053C4F20B031A
S32D00011BB84FF48052C4F20B02D26A42F00802DA624FF48053C4F20B034FF48052C4F20B02126B42F480121A63FE
S32D00011BE007F12007BD4680BD80B582B000AF786039607B684FF000021A604FF48053C4F20B034FF40042C0F241
S32D00011C080012DA624FF48053C4F20B03DB6A03F08073002B0CBF00230123DBB2002BF1D14FF48053C4F20B03C9
S32D00011C304FF00002C3F8C0204FF48053C4F20B034FF481325A604FF48053C4F20B034FF028029A624FF48053CA
S32D00011C58C4F20B034FF001125A643B689B6818464CF66041C0F20501FFF714FF4FF48053C4F20B035B6A03F04F
S32D00011C800303002B0CBF00230123DBB2002BF1D14FF45043C4F2040340F243421A604FF45043C4F2040340F2EF
S32D00011CA843425A604FF45043C4F204034FF488629A604FF45043C4F2040340F24342DA604FF45043C4F20403FD
S32D00011CD040F243421A614FF45043C4F2040340F243425A614FF4E043C4F204034FF4E042C4F2040202F58052A1
S32D00011CF802F13002126842F4003203F5805303F130031A604FF48053C4F20B034FF6FF721A634FF48053C4F271
S32D00011D200B034FF0B302C0F27F025A634FF48053C4F20B034FF48052C4F20B02D26A42F00062DA624FF48053CE
S32D00011D48C4F20B03DB6A03F00063002B0CBF00230123DBB2002BF1D14FF48053C4F20B035B6A03F48033002BE2
S32D00011D700CBF00230123DBB2002B03D07B684FF001021A604FF48053C4F20B034FF48052C4F20B02126B42F0A7
S32D00011D9880021A634FF00003184607F10807BD4680BD00BF80B400AF4FF48053C4F20B035B6A1A4640F2073329
S32D00011DC01340002B0CBF00230123DBB21846BD4680BC704780B485B000AF78604FF48053C4F20B031B6B1A46D3
S32D00011DE87B681340FB60FB68002B14BF00230123DBB2002BEED1FB68184607F11407BD4680BC704780B584B0E9
S32D00011E1000AF78607B681B7803F03F024AF28863C0F2010353F82230FB60FB68002B06D17B681B78002B02D0C5
S32D00011E384FF0010330E14FF48053C4F20B034FF48052C4F20B02126B42F080021A634FF48053C4F20B035B6A28
S32D00011E6003F00103DBB2002BF5D14FF48053C4F20B037A6852689A60FB6823F44003FB607B685B784FEA835391
S32D00011E8803F44003FA681343FB607B685B78022B03D1FB6843F40013FB607B685B78042B16D1FB6803F4403386
S32D00011EB0B3F5003F08D1FB6823F44033FB60FB6843F44033FB6007E0FB6823F44033FB60FB6843F40033FB603C
S32D00011ED84FF48053C4F20B034FF48052C4F20B0252684FEA02424FEA12425A607B68DB68002B32D0FB6803F4FE
S32D00011F004033B3F5403F03D0FB6843F40013FB607B681B7A002B03D0FB6843F01003FB607B68DB68012B03D995
S32D00011F28FB6843F02003FB607B68DB68B3F1FF3F13D04FF48053C4F20B034FF48052C4F20B02526811467A68E6
S32D00011F50D2684FEA02420A435A60FB6843F00203FB604FF48053C4F20B034FF000021A604FF48053C4F20B033F
S32D00011F78FA68DA604FF00100C0F20E00FFF726FF0346012B0CBF00230123DBB2002B10D04FF48053C4F20B038A
S32D00011FA04FF48052C4F20B02126B42F4702242F001021A634FF0010372E04FF48053C4F20B031B6B03F08003D8
S32D00011FC8002B0CBF00230123DBB2002B0ED04FF48053C4F20B034FF48052C4F20B02126B42F001121A634FF0E7
S32D00011FF0010355E04FF48053C4F20B031B6B03F48033002B0CBF00230123DBB2002B0ED04FF48053C4F20B03D2
S32D000120184FF48052C4F20B02126B42F001121A634FF0FF3338E0FB6803F44033002B25D04FF48053C4F20B0332
S32D000120401B691A467B681A61FB6803F44033B3F5803F17D14FF48053C4F20B035B691A467B685A614FF4805361
S32D00012068C4F20B039B691A467B689A614FF48053C4F20B03DB691A467B68DA614FF48053C4F20B034FF48052B8
S32D00012090C4F20B02126B42F001021A634FF00003184607F11007BD4680BD00BF80B592B000AF786039604FF0AB
S32D000120B80003FB633B68BB6341F29C13C1F6FF737B637B6B002B03D140F6012300F0A0BC41F2A033C1F6FF7334
S32D000120E03B633B6B002B03D140F60B2300F094BC3B6B1B68FB62FB6A002B03D140F60B2300F08ABC7B6841F250
S32D000121080432934200F0388241F2043293421BD841F20132934238D041F20132934207D8032B00F03D84092B52
S32D0001213000F0298400F066BC41F20232934200F0128241F20332934200F0BE8300F05ABC41F20732934200F06C
S32D000121584B8341F2073293420BD841F20532934200F0348241F20632934200F0108300F045BC41F2083293428B
S32D0001218000F0B68241F20932934200F0C48200F039BC786B4AF27C61C0F20101FFF724FD0346FB63FB6B002BAB
S32D000121A840F030844FF0000387F847304FF0000387F82B304FF0000387F82A304FF0000387F829304FF0000359
S32D000121D087F846304FF0000387F828304FF000033B724FF000037B724FF00003FB604FF000033B744FF00003E4
S32D000121F87B6107F108031846FFF704FE0346002B0CBF00230123DBB2002B03D04FF00103FB63FCE340F24C4034
S32D0001222001F0A6F84FF008033B724FF000037B724FF4D573FB604FF000033B744FF000037B6107F10803184684
S32D00012248FFF7E0FD03463B643B6C002B0BD1BA69FB689A4203D04FF00103FB63D7E34FF0010387F846304FF0F7
S32D00012270010387F8283097F82830002B00F0C6804FF037033B724FF000037B724FF00003FB604FF000033B7439
S32D000122984FF000037B6107F108031846FFF7B2FD03463B643B6C002B03D04FF00103FB63ADE34FF069033B72DD
S32D000122C04FF000037B724FF00003FB604FF000033B744FF000037B6107F108031846FFF795FD0346002B0CBFEC
S32D000122E800230123DBB2002B03D04FF00103FB638DE3BB6903F44013002B00F083804FF000033B644FF00A002E
S32D0001231001F02EF83B6C03F101033B644FF037033B724FF000037B724FF00003FB604FF000033B744FF0000324
S32D000123387B6107F108031846FFF764FD0346002B0CBF00230123DBB2002B03D04FF00103FB6336E04FF069036F
S32D000123603B724FF000037B7297F84630002B05D04FF00003C4F23003FB6002E04FF44013FB604FF000033B7423
S32D000123884FF000037B6107F108031846FFF73AFD0346002B0CBF00230123DBB2002B03D04FF00103FB630CE0DC
S32D000123B0BB69002B05DB3B6C632B02D84FF0010301E04FF00003002BA0D1FB6B002B40F01F833B6C632B04D949
S32D000123D84FF0000387F8463014E04FF0010387F8473097F84630002B0CD04FF0000387F84630BB6903F0804355
S32D00012400002B03D04FF0010387F8463097F82A30002B03D07B6B4FF007021A6097F82930002B03D07B6B4FF0DD
S32D0001242808021A6097F82B30002B03D07B6B4FF004021A6097F84730002B0BD07B6B4FF002021A6097F84630C0
S32D00012450002B03D07B6B4FF003021A6097F82B30002B0FD097F84730002B0BD07B6B4FF005021A6097F8463010
S32D00012478002B03D07B6B4FF006021A604FF45043C4F204034FF000021A604FF45043C4F204034FF000025A60B4
S32D000124A04FF45043C4F204034FF000029A604FF45043C4F204034FF00002DA604FF45043C4F204034FF000025D
S32D000124C81A614FF45043C4F204034FF000025A61FB6A9A68FB6A5B6810461946FFF7DAFA4FF45043C4F204033A
S32D000124F040F243421A604FF45043C4F2040340F243425A604FF45043C4F204034FF488629A604FF45043C4F242
S32D00012518040340F24342DA604FF45043C4F2040340F243421A614FF45043C4F2040340F243425A614FF4E0436C
S32D00012540C4F204034FF4E042C4F2040202F5805202F13002126842F4003203F5805303F130031A6057E2B86BF6
S32D00012568FFF750FC03463B643B6C002B00F04E824FF00203FB6349E2BB6B002B03D14FF00C03FB6343E24FF482
S32D000125908053C4F20B03DB6A03F47F434FEA13234FEA43033B644FF48053C4F20B03DB6A03F0F0034FEA131396
S32D000125B803F101023B6C02FB03F33B64FB6A9A683B6CB2FBF3F2BB6B1A6020E2BB6B002B03D14FF00C03FB63B1
S32D000125E019E2BB6B1B68002B03D14FF00C03FB6311E2FFF7DBFB0346002B14BF00230123DBB2002B70D04FF4F5
S32D000126085043C4F204034FF000021A604FF45043C4F204034FF000025A604FF45043C4F204034FF000029A603C
S32D000126304FF45043C4F204034FF00002DA604FF45043C4F204034FF000021A614FF45043C4F204034FF000024A
S32D000126585A61FB6A9A68BB6B1B6810461946FFF719FA4FF45043C4F2040340F243421A604FF45043C4F2040373
S32D0001268040F243425A604FF45043C4F204034FF488629A604FF45043C4F2040340F24342DA604FF45043C4F2F0
S32D000126A8040340F243421A614FF45043C4F2040340F243425A614FF4E043C4F204034FF4E042C4F2040202F58A
S32D000126D0805202F13002126842F4003203F5805303F130031A6096E140F60A23FB6392E1BB6B002B03D14FF087
S32D000126F80C03FB638BE14FF48053C4F20B035B684FEAC3434FEAD343BA6B13607FE1BB6B002B03D14FF00C0344
S32D00012720FB6378E1FFF742FB0346002B14BF00230123DBB2002B2AD0BB6B1A6840F6FF739A4203D94FF00C030A
S32D00012748FB6364E14FF48053C4F20B034FF48052C4F20B02526822F4FE5222F03F025A604FF48053C4F20B0306
S32D000127704FF48052C4F20B0252681146BA6B12684FEAC2424FEAD2420A435A6043E140F60A23FB633FE1BB6BF6
S32D00012798002B03D14FF00C03FB6338E14FF48053C4F20B039B6A03F006034FEA53033B643B6C002B04D1BB6B78
S32D000127C04FF000021A6026E13B6C012B04D1BB6B4FF001021A601EE13B6C102B04D1BB6B4FF002021A6016E10E
S32D000127E84FF00503FB6312E1BB6B002B03D14FF00C03FB630BE1FFF7D5FA0346002B14BF00230123DBB2002B62
S32D0001281056D0BB6B1B68002B16D14FF48053C4F20B034FF48052C4F20B02926A22F006029A624FF48053C4F228
S32D000128380B034FF48052C4F20B02926A9A62E6E0BB6B1B68012B18D14FF48053C4F20B034FF48052C4F20B025D
S32D00012860926A22F006029A624FF48053C4F20B034FF48052C4F20B02926A42F002029A62C9E0BB6B1B68022BD8
S32D0001288816D14FF48053C4F20B034FF48052C4F20B02926A22F006029A624FF48053C4F20B034FF48052C4F2D1
S32D000128B00B02926A9A62AEE04FF00503FB63AAE040F60A23FB63A6E0BB6B002B03D14FF00C03FB639FE04FF45D
S32D000128D88053C4F20B034FF48052C4F20B02D26A42F00062DA624FF48053C4F20B03DB6A03F00063002B0CBFEB
S32D0001290000230123DBB2002BF1D14FF48053C4F20B031B6B03F08003002B0CBF00230123DBB2002B0FD04FF4FA
S32D000129288053C4F20B034FF48052C4F20B02126B42F080021A637B6B4FF000021A604FF48053C4F20B035B6A23
S32D0001295003F48033002B0CBF00230123DBB2002B08D07B6B1B68002B08D17B6B4FF001021A6003E07B6B4FF0CA
S32D0001297800021A607B6B1A68BB6B1A6047E0BB6B4FF01C021A60BB6B03F104034FF004021A60BB6B03F1080383
S32D000129A04FF41E721A6036E04FF00200FFF712FA4FF48053C4F20B031B6B03F4E003002B0CBF00230123DBB25E
S32D000129C8002B0ED04FF48053C4F20B034FF48052C4F20B02126B42F4E0021A634FF00403FB634FF48053C4F2A3
S32D000129F00B034FF48052C4F20B02126B42F032021A6308E040F60923FB6304E000BF02E000BF00E000BFFB6B81
S32D00012A18184607F14807BD4680BD00BF80B489B000AF786039607B687B6141F29C13C1F6FF733B613B69002B29
S32D00012A4002D14FF0000381E03B691B68022B0BD03B691B68032B07D03B691B68072B03D03B691B68082B0DD132
S32D00012A684FF48053C4F20B035B6A03F00403002B0CBF00230123DBB2002BF1D13B68FB6156E0FB69B3F5007F2F
S32D00012A9028BF4FF40073FB60FB6803F103034FEA9303BB613CE04FF48053C4F20B031B6B03F4E003002B0CBF8B
S32D00012AB800230123DBB2002B10D04FF48053C4F20B034FF48052C4F20B02126B42F4E00242F020021A634FF0B9
S32D00012AE0000333E04FF48053C4F20B035B6A03F40063002B14BF00230123DBB2002BF1D14FF48053C4F20B031F
S32D00012B081B6A1A467B691A607B6903F104037B61BB6903F1FF33BB61BB69002B0CBF00230123DBB2002BBAD196
S32D00012B30FA69FB68D31AFB61FB69002B0CBF00230123DBB2002BA0D14FF00103184607F12407BD4680BC7047E3
