S01300002E2E2F46696E616C436F64652E733139F1
S32D0000C00000000020C10301001D0701001D0701001D0701001D0701001D07010000000000000000000000000074
S32D0000C028000000001D0701001D070100000000001D0701001D0701001D0701001D0701001D0701001D070100C2
S32D0000C0501D0701001D0701001D0701001D0701001D0701001D0701001D0701001D0701001D0701001D07010050
S32D0000C0781D0701001D0701001D0701001D0701001D0701001D0701001D0701001D0701001D0701001D07010028
S32D0000C0A01D0701001D0701001D0701001D0701001D0701001D0701001D0701001D0701001D0701001D07010000
S32D0000C0C81D0701001D0701001D0701001D0701001D0701001D0701001D0701001D0701001D0701001D070100D8
S32D0000C0F01D0701006D7301001D0701001D0701001D0701001D0701001D0701001D0701001D0701001D070100F4
S32D0000C1181D0701001D0701001D0701001D0701001D0701001D0701001D0701001D0701001D0701001D07010087
S32D0000C1401D0701001D0701001D0701001D070100BD3B01001D0701001D0701001D0701001D0701001D0701008B
S32D0000C1681D0701001D0701001D0701001D0701001D0701001D0701001D0701001D0701001D0701001D07010037
S32D0000C1901D0701001D0701001D0701001D36010071340100453501006D070100F53601001D0701001D070100B2
S32D0000C1B81D0701001D0701001D0701001D0701001D0701001D0701001D0701001D0701001D0701001D070100E7
S32D0000C41081F0004102E000BF83F0004330B54FEA41044FEA430594EA050F08BF90EA020F1FBF54EA000C55EAC6
S32D0000C438020C7FEA645C7FEA655C00F0E2804FEA5454D4EB5555B8BF6D420CDD2C4480EA020281EA030382EA0F
S32D0000C460000083EA010180EA020281EA0303362D88BF30BD11F0004F4FEA01314FF4801C4CEA113102D0404263
S32D0000C48861EB410113F0004F4FEA03334CEA133302D0524263EB430394EA050F00F0A780A4F10104D5F1200E8A
S32D0000C4B00DDB02FA0EFC22FA05F2801841F1000103FA0EF2801843FA05F359410EE0A5F120050EF1200E012A2D
S32D0000C4D803FA0EFC28BF4CF0020C43FA05F3C01851EBE37101F0004507D54FF0000EDCF1000C7EEB00006EEB67
S32D0000C5000101B1F5801F1BD3B1F5001F0CD349085FEA30004FEA3C0C04F101044FEA445212F5800F80F09A8000
S32D0000C528BCF1004F08BF5FEA500C50F1000041EB045141EA050130BD5FEA4C0C404141EB010111F4801FA4F114
S32D0000C5500104E9D191F0000F04BF01460020B1FA81F308BF2033A3F10B03B3F120020CDA0C3208DD02F1140C87
S32D0000C578C2F10C0201FA0CF021FA02F10CE002F11402D8BFC2F1200C01FA02F120FA0CFCDCBF41EA0C019040B1
S32D0000C5A0E41AA2BF01EB0451294330BD6FEA04041F3C1CDA0C340EDC04F11404C4F1200220FA04F001FA02F3B6
S32D0000C5C840EA030021FA04F345EA030130BDC4F10C04C4F1200220FA02F001FA04F340EA0300294630BD21FAA8
S32D0000C5F004F0294630BD94F0000F83F4801306BF81F480110134013D4EE77FEA645C18BF7FEA655C29D094EA1C
S32D0000C618050F08BF90EA020F05D054EA000C04BF1946104630BD91EA030F1EBF0021002030BD5FEA545C05D1A3
S32D0000C6404000494128BF41F0004130BD14F580043CBF01F5801130BD01F0004545F0FE4141F470014FF0000031
S32D0000C66830BD7FEA645C1ABF194610467FEA655C1CBF0B46024650EA013406BF52EA033591EA030F41F40021D7
S32D0000C69030BD00BF90F0000F04BF0021704730B54FF4806404F132044FF000054FF0000150E700BF90F0000F66
S32D0000C6B804BF0021704730B54FF4806404F1320410F0004548BF40424FF000013EE700BF42004FEAE2014FEAF9
S32D0000C6E031014FEA02701FBF12F07F4393F07F4F81F06051704792F0000F14BF93F07F4F704730B54FF460741B
S32D0000C70801F0004521F0004120E700BF50EA010208BF704730B54FF000050AE050EA010208BF704730B511F046
S32D0000C730004502D5404261EB41014FF4806404F132045FEA915C3FF4DCAE4FF003025FEADC0C18BF03325FEAA0
S32D0000C758DC0C18BF033202EBDC02C2F1200300FA03FC20FA02F001FA03FE40EA0E0021FA02F11444C1E600BF19
S32D0000C78070B54FF0FF0C4CF4E06C1CEA11541DBF1CEA135594EA0C0F95EA0C0F00F0DEF82C4481EA030621EAF3
S32D0000C7A84C5123EA4C5350EA013518BF52EA033541F4801143F4801338D0A0FB02CE4FF00005E1FB02E506F05F
S32D0000C7D00042E0FB03E54FF00006E1FB03569CF0000F18BF4EF0010EA4F1FF04B6F5007F64F5407404D25FEA0F
S32D0000C7F84E0E6D4146EB060642EAC62141EA55514FEAC52040EA5E504FEACE2EB4F1FD0C88BFBCF5E06F1ED8D2
S32D0000C820BEF1004F08BF5FEA500E50F1000041EB045170BD06F0004646EA010140EA020081EA0301B4EB5C0487
S32D0000C848C2BFD4EB0C0541EA045170BD41F480114FF0000E013C00F3AB8014F1360FDEBF002001F0004170BDF0
S32D0000C870C4F10004203C35DA0C341BDC04F11404C4F1200500FA05F320FA04F001FA05F240EA020001F0004207
S32D0000C89821F0004110EBD37021FA04F642EB06015EEA430E08BF20EAD37070BDC4F10C04C4F1200500FA04F32F
S32D0000C8C020FA05F001FA04F240EA020001F0004110EBD37041F100015EEA430E08BF20EAD37070BDC4F12005C7
S32D0000C8E800FA05F24EEA020E20FA04F301FA05F243EA020321FA04F001F0004121FA04F220EA020000EBD37028
S32D0000C9105EEA430E08BF20EAD37070BD94F0000F0FD101F00046400041EB010111F4801F08BF013CF7D041EA6D
S32D0000C938060195F0000F18BF704703F00046520043EB030313F4801F08BF013DF7D043EA0603704794EA0C0FF1
S32D0000C9600CEA135518BF95EA0C0F0CD050EA410618BF52EA4306D1D181EA030101F000414FF0000070BD50EA38
S32D0000C988410606BF1046194652EA430619D094EA0C0F02D150EA013613D195EA0C0F05D152EA03361CBF10467B
S32D0000C9B019460AD181EA030101F0004141F0FE4141F470014FF0000070BD41F0FE4141F4780170BD70B54FF04D
S32D0000C9D8FF0C4CF4E06C1CEA11541DBF1CEA135594EA0C0F95EA0C0F00F0A7F8A4EB050481EA030E52EA03359B
S32D0000CA004FEA013100F088804FEA03334FF0805545EA131343EA12634FEA022245EA111545EA10654FEA002676
S32D0000CA280EF000419D4208BF964244F1FD0404F5407402D25B084FEA3202B61A65EB03055B084FEA32024FF461
S32D0000CA5080104FF4002CB6EB020E75EB030E22BFB61A754640EA0C005B084FEA3202B6EB020E75EB030E22BF22
S32D0000CA78B61A754640EA5C005B084FEA3202B6EB020E75EB030E22BFB61A754640EA9C005B084FEA3202B6EBEA
S32D0000CAA0020E75EB030E22BFB61A754640EADC0055EA060E18D04FEA051545EA16754FEA06164FEAC30343EAAC
S32D0000CAC852734FEAC2025FEA1C1CC0D111F4801F0BD141EA00014FF000004FF0004CB6E711F4801F04BF0143AE
S32D0000CAF00020B4F1FD0C88BFBCF5E06F3FF6AFAEB5EB030C04BFB6EB020C5FEA500C50F1000041EB045170BDBC
S32D0000CB180EF0004E4EEA113114EB5C04C2BFD4EB0C0541EA045170BD41F480114FF0000E013C90E645EA060EC3
S32D0000CB408DE60CEA135594EA0C0F08BF95EA0C0F3FF43BAF94EA0C0F0AD150EA01347FF434AF95EA0C0F7FF499
S32D0000CB6825AF104619462CE795EA0C0F06D152EA03353FF4FDAE1046194622E750EA410618BF52EA43067FF432
S32D0000CB90C5AE50EA41047FF40DAF52EA43057FF4EBAE12E74FF0FF3C06E000BF4FF0010C02E000BF4FF0010C75
S32D0000CBB84DF804CD4FEA410C7FEA6C5C4FEA430C18BF7FEA6C5C1BD001B050EA410C0CBF52EA430C91EA030FEC
S32D0000CBE002BF90EA020F0020704710F1000F91EA030F58BF994208BF90422CBFD8176FEAE37040F0010070476E
S32D0000CC084FEA410C7FEA6C5C02D150EA013C07D14FEA430C7FEA6C5CD6D152EA033CD3D05DF8040B704700BFCD
S32D0000CC308446104662468C461946634600E000BF01B5FFF7B7FF002848BF10F1000F01BD4DF808EDFFF7F4FF13
S32D0000CC580CBF012000205DF808FB00BF4DF808EDFFF7EAFF34BF012000205DF808FB00BF4DF808EDFFF7E0FF18
S32D0000CC8094BF012000205DF808FB00BF4DF808EDFFF7CEFF94BF012000205DF808FB00BF4DF808EDFFF7C4FF40
S32D0000CCA834BF012000205DF808FB00BF4FEA410212F5001215D211D56FF47873B3EB625212D94FEAC12343F0D6
S32D0000CCD0004343EA505311F0004F23FA02F018BF404270474FF00000704750EA013005D111F0004008BF6FF016
S32D0000CCF8004070474FF00000704700BF4A0011D212F5001211D20DD56FF47873B3EB62520ED44FEAC12343F085
S32D0000CD20004343EA505323FA02F070474FF00000704750EA013002D14FF0FF3070474FF0000070474FEA410241
S32D0000CD48B2F1E04324BFB3F5001CDCF1FE5C0DD901F0004C4FEAC0024CEA5070B2F1004F40EB830008BF20F09E
S32D0000CD700100704711F0804F21D113F13872BCBF01F00040704741F480114FEA5252C2F11802C2F1200C10FAB1
S32D0000CD980CF320FA02F018BF40F001004FEAC1234FEAD32303FA0CFC40EA0C0023FA02F34FEA4303CCE77FEA26
S32D0000CDC0625307D150EA01331EBF4FF0FE4040F44000704701F0004040F0FE4040F40000704700BF80F00040CC
S32D0000CDE802E000BF81F0004142001FBF5FEA410392EA030F7FEA226C7FEA236C6AD04FEA1262D2EB1363C1BF06
S32D0000CE10D218414048404140B8BF5B42192B88BF704710F0004F40F4000020F07F4018BF404211F0004F41F4FA
S32D0000CE38000121F07F4118BF494292EA030F3FD0A2F1010241FA03FC10EB0C00C3F1200301FA03F100F000432B
S32D0000CE6002D5494260EB4000B0F5000F13D3B0F1807F06D340084FEA310102F10102FE2A51D2B1F1004F40EB94
S32D0000CE88C25008BF20F0010040EA03007047490040EB000010F4000FA2F10102EDD1B0FA80FCACF1080CB2EB5F
S32D0000CEB00C0200FA0CF0AABF00EBC25052421843BCBFD0401843704792F0000F81F4000106BF80F400000132EB
S32D0000CED8013BB5E74FEA41037FEA226C18BF7FEA236C21D092EA030F04D092F0000F08BF0846704790EA010FD7
S32D0000CF001CBF0020704712F07F4F04D1400028BF40F00040704712F100723CBF00F50000704700F0004343F0DC
S32D0000CF28FE4040F4000070477FEA226216BF08467FEA23630146420206BF5FEA412390EA010F40F480007047C1
S32D0000CF504FF0000304E000BF10F0004348BF40425FEA000C08BF704743F0964301464FF000001CE050EA010264
S32D0000CF7808BF70474FF000030AE000BF50EA010208BF704711F0004302D5404261EB41015FEA010C02BF84465B
S32D0000CFA00146002043F0B64308BFA3F18053A3F50003BCFA8CF2083AA3EBC25310DB01FA02FC634400FA02FC6B
S32D0000CFC8C2F12002BCF1004F20FA02F243EB020008BF20F00100704702F1200201FA02FCC2F1200250EA4C0034
S32D0000CFF021FA02F243EB020008BF20EADC7070474FF0FF0C1CEAD0521EBF1CEAD15392EA0C0F93EA0C0F6FD019
S32D0000D0181A4480EA010C400218BF5FEA41211ED04FF0006343EA501043EA5111A0FB01310CF00040B1F5000FE7
S32D0000D0403EBF490041EAD3715B0040EA010062F17F02FD2A1DD8B3F1004F40EBC25008BF20F00100704790F058
S32D0000D068000F0CF0004C08BF49024CEA502040EA51207F3AC2BFD2F1FF0340EAC250704740F400004FF0000388
S32D0000D090013A5DDC12F1190FDCBF00F000407047C2F10002410021FA02F1C2F1200200FA02FC5FEA310040F1D5
S32D0000D0B8000053EA4C0308BF20EADC70704792F0000F00F0004C02BF400010F4000F013AF9D040EA0C0093F04C
S32D0000D0E0000F01F0004C02BF490011F4000F013BF9D041EA0C018FE70CEAD15392EA0C0F18BF93EA0C0F0AD00B
S32D0000D10830F0004C18BF31F0004CD8D180EA010000F00040704790F0000F17BF90F0004F084691F0000F91F0BB
S32D0000D130004F14D092EA0C0F01D142020FD193EA0C0F03D14B0218BF084608D180EA010000F0004040F0FE4051
S32D0000D15840F40000704740F0FE4040F4400070474FF0FF0C1CEAD0521EBF1CEAD15392EA0C0F93EA0C0F69D044
S32D0000D180A2EB030280EA010C49024FEA402037D04FF0805343EA111143EA10130CF000408B4238BF5B0042F14E
S32D0000D1A87D024FF4000C8B4224BF5B1A40EA0C00B3EB510F24BFA3EB510340EA5C00B3EB910F24BFA3EB9103A4
S32D0000D1D040EA9C00B3EBD10F24BFA3EBD10340EADC001B0118BF5FEA1C1CE0D1FD2A3FF650AF8B4240EBC25018
S32D0000D1F808BF20F0010070470CF0004C4CEA50207F32C2BFD2F1FF0340EAC250704740F400004FF00003013AF1
S32D0000D22037E792F0000F00F0004C02BF400010F4000F013AF9D040EA0C0093F0000F01F0004C02BF490011F4C9
S32D0000D248000F013BF9D041EA0C0195E70CEAD15392EA0C0F08D142027FF47DAF93EA0C0F7FF470AF084676E7AE
S32D0000D27093EA0C0F04D14B023FF44CAF08466EE730F0004C18BF31F0004CCAD130F000427FF45CAF31F0004376
S32D0000D2987FF43CAF5FE700BF4FF0FF3C06E000BF4FF0010C02E000BF4FF0010C4DF804CD4FEA40024FEA41039F
S32D0000D2C07FEA226C18BF7FEA236C11D001B052EA530C18BF90EA010F58BFB2EB030088BFC81738BF6FEAE1706E
S32D0000D2E818BF40F0010070477FEA226C02D15FEA402C05D17FEA236CE4D15FEA412CE1D05DF8040B704700BF16
S32D0000D310844608466146FFE70FB5FFF7C9FF002848BF10F1000F0FBD4DF808EDFFF7F4FF0CBF012000205DF839
S32D0000D33808FB00BF4DF808EDFFF7EAFF34BF012000205DF808FB00BF4DF808EDFFF7E0FF94BF012000205DF8A9
S32D0000D36008FB00BF4DF808EDFFF7D2FF94BF012000205DF808FB00BF4DF808EDFFF7C8FF34BF012000205DF8B1
S32D0000D38808FB00BF4FEA4002B2F1FE4F0FD34FF09E03B3EB12620DD94FEA002343F0004310F0004F23FA02F060
S32D0000D3B018BF404270474FF00000704712F1610F01D1420205D110F0004008BF6FF0004070474FF00000704797
S32D0000D3D880B483B000AF78607B6823F00043184607F10C07BD4680BC704700BF0000000080B584B000AF7860F2
S32D0000D40078681149FFF7FCFD03461846FFF764F902460B461046194609A3D3E90023FFF7D9FA02460B4610464A
S32D0000D4281946FFF743FC0346FB60FB68184607F11007BD4680BD00BFFFBFECC95C47214000004042AFF30080B4
S32D0000D45080B584B000AF78607868FFF73DF902460B46104619461AA3D3E90023FFF788F902460B461046194603
S32D0000D47817A3D3E90023FFF7A9FA02460B4610461946FFF75BFC0346FB60F868FFF720F902460B461046194658
S32D0000D4A00FA3D3E90023FFF76BF902460B4610461946FFF747FC0346BB60B868FFF79CFF0346184607F1100721
S32D0000D4C8BD4680BDAFF3008044174154FB2109400000000000806640CDCCCCCCCCCC124080B584B000AF78604E
S32D0000D4F0396041F23C10C1F6FF7006F077F941F24010C1F6FF7006F071F93868FFF774FF0346FB607868FFF7DE
S32D0000D5181FFD034641F24410C1F6FF70194603F0FBF97B68C3F100031846FFF711FD034641F24C10C1F6FF7093
S32D0000D540194603F0EDF97868FFF706FD034641F25410C1F6FF70194603F0E2F97B68C3F100031846FFF7F8FC97
S32D0000D568034641F25C10C1F6FF70194603F0D4F961E041F26440C1F6FF7007F0E9FA41F26440C1F6FF7049F614
S32D0000D5906851C0F2010107F08BFD41F26440C1F6FF70396807F0CCFD41F26440C1F6FF7049F67851C0F201016A
S32D0000D5B807F048FE41F26440C1F6FF7049F68051C0F2010107F070FD41F26440C1F6FF70F96807F04BFE41F212
S32D0000D5E06440C1F6FF7049F69851C0F2010107F05FFD41F24010C1F6FF7006F0E3F8034641F26440C1F6FF7064
S32D0000D608194607F033FE41F26440C1F6FF7049F6AC51C0F2010107F047FD41F23C10C1F6FF7006F0CBF803469E
S32D0000D63041F26440C1F6FF70194607F01BFE41F23C10C1F6FF7006F0BDF80246FB689A4209DB41F24010C1F66B
S32D0000D658FF7006F0B3F80246FB689A4202DA4FF0010301E04FF00003002B82D141F24410C1F6FF7003F000F9B4
S32D0000D68041F24C10C1F6FF7003F0FAF841F25410C1F6FF7003F0F4F841F25C10C1F6FF7003F0EEF807F1100799
S32D0000D6A8BD4680BD80B584B000AF7860396041F23C10C1F6FF7006F095F841F24010C1F6FF7006F08FF838689D
S32D0000D6D0FFF792FE0346FB607B68C3F100031846FFF73AFC034641F24410C1F6FF70194603F016F97868FFF7B1
S32D0000D6F82FFC034641F24C10C1F6FF70194603F00BF97B68C3F100031846FFF721FC034641F25410C1F6FF7074
S32D0000D720194603F0FDF87868FFF716FC034641F25C10C1F6FF70194603F0F2F861E041F26440C1F6FF7007F02D
S32D0000D74807FA41F26440C1F6FF7049F66851C0F2010107F0A9FC41F26440C1F6FF70396807F0EAFC41F264401B
S32D0000D770C1F6FF7049F67851C0F2010107F066FD41F26440C1F6FF7049F68051C0F2010107F08EFC41F2644036
S32D0000D798C1F6FF70F96807F069FD41F26440C1F6FF7049F69851C0F2010107F07DFC41F24010C1F6FF7006F097
S32D0000D7C001F8034641F26440C1F6FF70194607F051FD41F26440C1F6FF7049F6AC51C0F2010107F065FC41F2E0
S32D0000D7E83C10C1F6FF7005F0E9FF034641F26440C1F6FF70194607F039FD41F23C10C1F6FF7005F0DBFF024636
S32D0000D810FB689A4209DB41F24010C1F6FF7005F0D1FF0246FB689A4202DA4FF0010301E04FF00003002B82D112
S32D0000D83841F24410C1F6FF7003F01EF841F24C10C1F6FF7003F018F841F25410C1F6FF7003F012F841F25C10FB
S32D0000D860C1F6FF7003F00CF807F11007BD4680BD80B584B000AF7860396041F23C10C1F6FF7005F0B3FF41F226
S32D0000D8884010C1F6FF7005F0ADFF3868FFF7DCFD0346FB607B68C3F100031846FFF758FB034641F24410C1F680
S32D0000D8B0FF70194603F034F87B68C3F100031846FFF74AFB034641F24C10C1F6FF70194603F026F87B68C3F125
S32D0000D8D800031846FFF73CFB034641F25410C1F6FF70194603F018F87B68C3F100031846FFF72EFB034641F299
S32D0000D9005C10C1F6FF70194603F00AF861E041F26440C1F6FF7007F01FF941F26440C1F6FF7049F6C051C0F2C7
S32D0000D928010107F0C1FB41F26440C1F6FF70396807F002FC41F26440C1F6FF7049F6D051C0F2010107F07EFC07
S32D0000D95041F26440C1F6FF7049F68051C0F2010107F0A6FB41F26440C1F6FF70F96807F081FC41F26440C1F6F0
S32D0000D978FF7049F69851C0F2010107F095FB41F24010C1F6FF7005F019FF034641F26440C1F6FF70194607F05D
S32D0000D9A069FC41F26440C1F6FF7049F6AC51C0F2010107F07DFB41F23C10C1F6FF7005F001FF034641F26440DE
S32D0000D9C8C1F6FF70194607F051FC41F23C10C1F6FF7005F0F3FE0246FB689A4209DB41F24010C1F6FF7005F0D4
S32D0000D9F0E9FE0246FB689A4202DA4FF0010301E04FF00003002B82D141F24410C1F6FF7002F036FF41F24C1078
S32D0000DA18C1F6FF7002F030FF41F25410C1F6FF7002F02AFF41F25C10C1F6FF7002F024FF07F11007BD4680BD98
S32D0000DA4080B584B000AF7860396041F23C10C1F6FF7005F0CBFE41F24010C1F6FF7005F0C5FE3868FFF7F4FCE5
S32D0000DA680346FB607868FFF773FA034641F24410C1F6FF70194602F04FFF7868FFF768FA034641F24C10C1F64D
S32D0000DA90FF70194602F044FF7868FFF75DFA034641F25410C1F6FF70194602F039FF7868FFF752FA034641F20B
S32D0000DAB85C10C1F6FF70194602F02EFF61E041F26440C1F6FF7007F043F841F26440C1F6FF7049F6DC51C0F2A5
S32D0000DAE0010107F0E5FA41F26440C1F6FF70396807F026FB41F26440C1F6FF7049F6D051C0F2010107F0A2FBE5
S32D0000DB0841F26440C1F6FF7049F68051C0F2010107F0CAFA41F26440C1F6FF70F96807F0A5FB41F26440C1F6F0
S32D0000DB30FF7049F69851C0F2010107F0B9FA41F24010C1F6FF7005F03DFE034641F26440C1F6FF70194607F05D
S32D0000DB588DFB41F26440C1F6FF7049F6AC51C0F2010107F0A1FA41F23C10C1F6FF7005F025FE034641F26440BB
S32D0000DB80C1F6FF70194607F075FB41F23C10C1F6FF7005F017FE0246FB689A4209DB41F24010C1F6FF7005F0D3
S32D0000DBA80DFE0246FB689A4202DA4FF0010301E04FF00003002B82D141F24410C1F6FF7002F05AFE41F24C1077
S32D0000DBD0C1F6FF7002F054FE41F25410C1F6FF7002F04EFE41F25C10C1F6FF7002F048FE07F11007BD4680BD76
S32D0000DBF82DE9F04383B000AF786039604FF0640005F082F941F2CC40C1F6FF700AF068FE03461846FEF75CFD96
S32D0000DC2004460D467868FEF757FD804689463868FEF752FD02460B46104619468CA3D3E90023FEF7E9FB02461A
S32D0000DC480B4640464946FEF7E5FB02460B464FF001010E4620462946FFF700F80346002B02D14FF000031E4695
S32D0000DC70F3B2002B00F0988041F26440C1F6FF7006F06AFF41F26440C1F6FF7049F6EC51C0F2010107F0DAFA5A
S32D0000DC9841F24410C1F6FF70754902F03DFE41F24C10C1F6FF70734902F036FE41F25410C1F6FF706E4902F0C9
S32D0000DCC02FFE41F25C10C1F6FF706C4902F028FE35E041F2CC40C1F6FF700AF005FE034641F26440C1F6FF70BA
S32D0000DCE819464FF002024FF00C0307F0BDF941F2CC40C1F6FF700AF003FE034641F26440C1F6FF7019464FF02D
S32D0000DD1003024FF00C0307F0ABF941F2CC40C1F6FF700AF001FE034641F26440C1F6FF7019464FF004024FF070
S32D0000DD380C0307F099F941F2CC40C1F6FF700AF0CFFD054678683968FFF74EF803464FF0010214462846194640
S32D0000DD60FFF7ECFA0346002B02D14FF000031C46E3B2002BADD141F24410C1F6FF7002F07FFD41F24C10C1F62F
S32D0000DD88FF7002F079FD41F25410C1F6FF7002F073FD41F25C10C1F6FF7002F06DFDD5E041F2CC40C1F6FF703C
S32D0000DDB00AF09AFD03461846FEF78EFC04460D467868FEF789FC804689463868FEF784FC02460B46104619469F
S32D0000DDD825A3D3E90023FEF71DFB02460B4640464946FEF717FB02460B464FF001010E4620462946FEF750FF6D
S32D0000DE000346002B02D14FF000031E46F3B2002B00F0A08041F26440C1F6FF7006F09CFE41F26440C1F6FF709D
S32D0000DE2849F6F851C0F2010107F00CFA41F24410C1F6FF700F4902F06FFD41F24C10C1F6FF700B4902F068FDD0
S32D0000DE5041F25410C1F6FF70084902F061FD41F25C10C1F6FF70044902F05AFD3EE000BF9A9999999999C93F6F
S32D0000DE780000F0C10000F04141F2CC40C1F6FF700AF02EFD034641F26440C1F6FF7019464FF002024FF00C03DA
S32D0000DEA007F0E6F841F2CC40C1F6FF700AF02CFD034641F26440C1F6FF7019464FF003024FF00C0307F0D4F8FD
S32D0000DEC841F2CC40C1F6FF700AF02AFD034641F26440C1F6FF7019464FF004024FF00C0307F0C2F841F2CC407E
S32D0000DEF0C1F6FF700AF0F8FC054678683968FEF777FF03464FF00102144628461946FFF733FA0346002B02D19D
S32D0000DF184FF000031C46E3B2002BADD141F24410C1F6FF7002F0A8FC41F24C10C1F6FF7002F0A2FC41F25410DA
S32D0000DF40C1F6FF7002F09CFC41F25C10C1F6FF7002F096FC4FF0640004F0DAFF07F10C07BD46BDE8F08300BF65
S32D0000DF6890B583B000AF78604FF0C80004F0CCFF77E241F2CC40C1F6FF700AF0D1FC034678681946FEF72EFF97
S32D0000DF9003464FF0010214461846DFF85015FFF7EBF90346002B02D14FF000031C46E3B2002B64D041F2644054
S32D0000DFB8C1F6FF7006F0CCFD41F26440C1F6FF7049F60461C0F2010107F03CF941F26440C1F6FF7049F6106128
S32D0000DFE0C0F2010107F064F841F2CC40C1F6FF700AF09AFC034641F26440C1F6FF70194607F09EF841F244105E
S32D0000E008C1F6FF70DFF8E01402F086FC41F24C10C1F6FF70DFF8D01402F07EFC41F25410C1F6FF70DFF8C01441
S32D0000E03002F076FC41F25C10C1F6FF70DFF8B01402F06EFC4FF04B0004F062FF41F24410C1F6FF7002F014FC14
S32D0000E05841F24C10C1F6FF7002F00EFC41F25410C1F6FF7002F008FC41F25C10C1F6FF7002F002FCF5E141F278
S32D0000E080CC40C1F6FF700AF04FFC034678681946FEF7ACFE03464FF0010214461846DFF85414FFF74BF90346CF
S32D0000E0A8002B02D14FF000031C46E3B2002B60D041F26440C1F6FF7006F04AFD41F26440C1F6FF7049F61861C9
S32D0000E0D0C0F2010107F0BAF841F26440C1F6FF7049F61061C0F2010106F0E2FF41F2CC40C1F6FF700AF018FC1A
S32D0000E0F8034641F26440C1F6FF70194607F01CF841F24410C1F6FF70F94902F005FC41F24C10C1F6FF70F64974
S32D0000E12002F0FEFB41F25410C1F6FF70F24902F0F7FB41F25C10C1F6FF70EF4902F0F0FB4FF04B0004F0E4FED0
S32D0000E14841F24410C1F6FF7002F096FB41F24C10C1F6FF7002F090FB41F25410C1F6FF7002F08AFB41F25C1074
S32D0000E170C1F6FF7002F084FB77E141F2CC40C1F6FF700AF0D1FB034678681946FEF72EFE03464FF001021446D9
S32D0000E1981846D649FFF7ECF80346002B02D14FF000031C46E3B2002B1ED041F2CC40C1F6FF700AF0B5FB034611
S32D0000E1C078681946FEF712FE03464FF0010214461846CA49FFF7B2F80346002B02D14FF000031C46E3B2002B4C
S32D0000E1E802D04FF0010301E04FF00003002B60D041F26440C1F6FF7006F0AAFC41F26440C1F6FF7049F604613C
S32D0000E210C0F2010107F01AF841F26440C1F6FF7049F61061C0F2010106F042FF41F2CC40C1F6FF700AF078FBB9
S32D0000E238034641F26440C1F6FF70194606F07CFF41F24410C1F6FF70A74902F065FB41F24C10C1F6FF70A44911
S32D0000E26002F05EFB41F25410C1F6FF70A04902F057FB41F25C10C1F6FF709D4902F050FB4FF04B0004F044FEB3
S32D0000E28841F24410C1F6FF7002F0F6FA41F24C10C1F6FF7002F0F0FA41F25410C1F6FF7002F0EAFA41F25C1016
S32D0000E2B0C1F6FF7002F0E4FAD7E041F2CC40C1F6FF700AF031FB034678681946FEF78EFD03464FF0010214461B
S32D0000E2D818468849FFF74CF80346002B02D14FF000031C46E3B2002B1ED041F2CC40C1F6FF700AF015FB03465E
S32D0000E30078681946FEF772FD03464FF00102144618467649FFF712F80346002B02D14FF000031C46E3B2002B9F
S32D0000E32802D04FF0010301E04FF00003002B60D041F26440C1F6FF7006F00AFC41F26440C1F6FF7049F6186186
S32D0000E350C0F2010106F07AFF41F26440C1F6FF7049F61061C0F2010106F0A2FE41F2CC40C1F6FF700AF0D8FA54
S32D0000E378034641F26440C1F6FF70194606F0DCFE41F24410C1F6FF70594902F0C5FA41F24C10C1F6FF705649AE
S32D0000E3A002F0BEFA41F25410C1F6FF70524902F0B7FA41F25C10C1F6FF704F4902F0B0FA4FF04B0004F0A4FD92
S32D0000E3C841F24410C1F6FF7002F056FA41F24C10C1F6FF7002F050FA41F25410C1F6FF7002F04AFA41F25C10B5
S32D0000E3F0C1F6FF7002F044FA37E041F24410C1F6FF703D4902F08CFA41F24C10C1F6FF70394902F085FA41F20C
S32D0000E4185410C1F6FF70364902F07EFA41F25C10C1F6FF70324902F077FA4FF04B0004F06BFD41F24410C1F69C
S32D0000E440FF7002F01DFA41F24C10C1F6FF7002F017FA41F25410C1F6FF7002F011FA41F25C10C1F6FF7002F00D
S32D0000E4680BFA41F2CC40C1F6FF700AF059FA034678681946FEF7B6FC03461846FEF7A8FF03464FF00102144678
S32D0000E49018461B49FEF770FF0346002B02D14FF000031C46E3B2002B7FF467AD41F24410C1F6FF7002F0E4F98A
S32D0000E4B841F24C10C1F6FF7002F0DEF941F25410C1F6FF7002F0D8F941F25C10C1F6FF7002F0D2F94FF0C800AF
S32D0000E4E004F016FD07F10C07BD4690BD000034430000F041000034C30000F0C1000000000000803F000000009D
S32D0000E508F0B583B000AF78604FF0640004F0FCFC41F2CC40C1F6FF700AF0E2F903461846FEF7D6F804460D46B6
S32D0000E5307868FEF7D1F802460B4610461946B8A3D3E90023FDF768FF02460B464FF001010E4620462946FEF744
S32D0000E55885FB0346002B02D14FF000031E46F3B2002B00F0938041F26440C1F6FF7006F0EFFA41F26440C1F6EB
S32D0000E580FF7049F6EC51C0F2010106F05FFE41F24410C1F6FF70A44902F0C2F941F24C10C1F6FF70A14902F0A3
S32D0000E5A8BBF941F25410C1F6FF709D4902F0B4F941F25C10C1F6FF709A4902F0ADF935E041F2CC40C1F6FF7095
S32D0000E5D00AF08AF9034641F26440C1F6FF7019464FF002024FF00C0306F042FD41F2CC40C1F6FF700AF088F955
S32D0000E5F8034641F26440C1F6FF7019464FF003024FF00C0306F030FD41F2CC40C1F6FF700AF086F9034641F241
S32D0000E6206440C1F6FF7019464FF004024FF00C0306F01EFD41F2CC40C1F6FF700AF054F903464FF0010214466E
S32D0000E64818467968FEF776FE0346002B02D14FF000031C46E3B2002BB2D141F24410C1F6FF7002F009F941F2FA
S32D0000E6704C10C1F6FF7002F003F941F25410C1F6FF7002F0FDF841F25C10C1F6FF7002F0F7F8BCE041F2CC40E7
S32D0000E698C1F6FF700AF024F903461846FEF718F804460D467868FEF713F802460B461046194659A3D3E90023C5
S32D0000E6C0FDF7ACFE02460B464FF001010E4620462946FEF7E5FA0346002B02D14FF000031E46F3B2002B00F00A
S32D0000E6E8928041F26440C1F6FF7006F031FA41F26440C1F6FF7049F6F851C0F2010106F0A1FD41F24410C1F6C9
S32D0000E710FF70464902F004F941F24C10C1F6FF70414902F0FDF841F25410C1F6FF703F4902F0F6F841F25C1004
S32D0000E738C1F6FF703A4902F0EFF835E041F2CC40C1F6FF700AF0CCF8034641F26440C1F6FF7019464FF0020211
S32D0000E7604FF00C0306F084FC41F2CC40C1F6FF700AF0CAF8034641F26440C1F6FF7019464FF003024FF00C036F
S32D0000E78806F072FC41F2CC40C1F6FF700AF0C8F8034641F26440C1F6FF7019464FF004024FF00C0306F060FC56
S32D0000E7B041F2CC40C1F6FF700AF096F803464FF00102144618467968FEF7D6FD0346002B02D14FF000031C4677
S32D0000E7D8E3B2002BB2D141F24410C1F6FF7002F04BF841F24C10C1F6FF7002F045F841F25410C1F6FF7002F05B
S32D0000E8003FF841F25C10C1F6FF7002F039F84FF0640004F07DFB07F10C07BD46F0BD00BF9A9999999999C93FA3
S32D0000E8280000F0410000F0C1F0B583B000AF78604FF0640004F068FB41F2CC40C1F6FF700AF05EF8034618462B
S32D0000E850FDF742FF04460D467868FDF73DFF02460B4610461946B8A3D3E90023FDF7D4FD02460B464FF0010191
S32D0000E8780E4620462946FEF7F1F90346002B02D14FF000031E46F3B2002B00F0938041F26440C1F6FF7006F0B7
S32D0000E8A05BF941F26440C1F6FF7049F6EC51C0F2010106F0CBFC41F24410C1F6FF70A44902F02EF841F24C10CB
S32D0000E8C8C1F6FF70A14902F027F841F25410C1F6FF709D4902F020F841F25C10C1F6FF709A4902F019F835E094
S32D0000E8F041F2CC40C1F6FF7009F0F6FF034641F26440C1F6FF7019464FF002024FF00C0306F0AEFB41F2CC4093
S32D0000E918C1F6FF7009F0F4FF034641F26440C1F6FF7019464FF003024FF00C0306F09CFB41F2CC40C1F6FF7096
S32D0000E94009F0F2FF034641F26440C1F6FF7019464FF004024FF00C0306F08AFB41F2CC40C1F6FF7009F0D0FFDF
S32D0000E96803464FF00102144618467968FEF7E2FC0346002B02D14FF000031C46E3B2002BB2D141F24410C1F61E
S32D0000E990FF7001F075FF41F24C10C1F6FF7001F06FFF41F25410C1F6FF7001F069FF41F25C10C1F6FF7001F0A5
S32D0000E9B863FFBCE041F2CC40C1F6FF7009F0A0FF03461846FDF784FE04460D467868FDF77FFE02460B4610463C
S32D0000E9E0194659A3D3E90023FDF718FD02460B464FF001010E4620462946FEF751F90346002B02D14FF00003FB
S32D0000EA081E46F3B2002B00F0928041F26440C1F6FF7006F09DF841F26440C1F6FF7049F6F851C0F2010106F0F3
S32D0000EA300DFC41F24410C1F6FF70464901F070FF41F24C10C1F6FF70414901F069FF41F25410C1F6FF703F4936
S32D0000EA5801F062FF41F25C10C1F6FF703A4901F05BFF35E041F2CC40C1F6FF7009F038FF034641F26440C1F62A
S32D0000EA80FF7019464FF002024FF00C0306F0F0FA41F2CC40C1F6FF7009F036FF034641F26440C1F6FF701946F1
S32D0000EAA84FF003024FF00C0306F0DEFA41F2CC40C1F6FF7009F034FF034641F26440C1F6FF7019464FF0040265
S32D0000EAD04FF00C0306F0CCFA41F2CC40C1F6FF7009F012FF03464FF00102144618467968FEF742FC0346002BD4
S32D0000EAF802D14FF000031C46E3B2002BB2D141F24410C1F6FF7001F0B7FE41F24C10C1F6FF7001F0B1FE41F25B
S32D0000EB205410C1F6FF7001F0ABFE41F25C10C1F6FF7001F0A5FE4FF0640004F0E9F907F10C07BD46F0BD00BF57
S32D0000EB489A9999999999C93F0000F0410000F0C1F0B583B000AF78604FF0640004F0D4F941F2CC40C1F6FF70F6
S32D0000EB7009F0CAFE03461846FDF7AEFD04460D467868FDF7A9FD02460B4610461946B8A3D3E90023FDF740FCA1
S32D0000EB9802460B464FF001010E4620462946FEF77BF80346002B02D14FF000031E46F3B2002B00F0938041F2F1
S32D0000EBC06440C1F6FF7005F0C7FF41F26440C1F6FF7049F6EC51C0F2010106F037FB41F24410C1F6FF70A449B3
S32D0000EBE801F09AFE41F24C10C1F6FF70A14901F093FE41F25410C1F6FF709D4901F08CFE41F25C10C1F6FF7072
S32D0000EC109A4901F085FE35E041F2CC40C1F6FF7009F062FE034641F26440C1F6FF7019464FF002024FF00C0376
S32D0000EC3806F01AFA41F2CC40C1F6FF7009F060FE034641F26440C1F6FF7019464FF003024FF00C0306F008FAB9
S32D0000EC6041F2CC40C1F6FF7009F05EFE034641F26440C1F6FF7019464FF004024FF00C0306F0F6F941F2CC4070
S32D0000EC88C1F6FF7009F03CFE03464FF00102144618467968FEF76CFB0346002B02D14FF000031C46E3B2002BDA
S32D0000ECB0B2D141F24410C1F6FF7001F0E1FD41F24C10C1F6FF7001F0DBFD41F25410C1F6FF7001F0D5FD41F206
S32D0000ECD85C10C1F6FF7001F0CFFDBCE041F2CC40C1F6FF7009F00CFE03461846FDF7F0FC04460D467868FDF7C3
S32D0000ED00EBFC02460B461046194659A3D3E90023FDF784FB02460B464FF001010E4620462946FDF79FFF034684
S32D0000ED28002B02D14FF000031E46F3B2002B00F0928041F26440C1F6FF7005F009FF41F26440C1F6FF7049F611
S32D0000ED50F851C0F2010106F079FA41F24410C1F6FF70464901F0DCFD41F24C10C1F6FF70414901F0D5FD41F2F4
S32D0000ED785410C1F6FF703F4901F0CEFD41F25C10C1F6FF703A4901F0C7FD35E041F2CC40C1F6FF7009F0A4FD8E
S32D0000EDA0034641F26440C1F6FF7019464FF002024FF00C0306F05CF941F2CC40C1F6FF7009F0A2FD034641F24B
S32D0000EDC86440C1F6FF7019464FF003024FF00C0306F04AF941F2CC40C1F6FF7009F0A0FD034641F26440C1F657
S32D0000EDF0FF7019464FF004024FF00C0306F038F941F2CC40C1F6FF7009F07EFD03464FF0010214461846796870
S32D0000EE18FEF790FA0346002B02D14FF000031C46E3B2002BB2D141F24410C1F6FF7001F023FD41F24C10C1F61B
S32D0000EE40FF7001F01DFD41F25410C1F6FF7001F017FD41F25C10C1F6FF7001F011FD4FF0640004F055F807F1C8
S32D0000EE680C07BD46F0BD00BF9A9999999999C93F0000F0410000F0C1F0B583B000AF04F08BF802460B4610468C
S32D0000EE901946FDF757FF03467B601DE041F26440C1F6FF7005F058FE41F26440C1F6FF7049F62461C0F20101CD
S32D0000EEB806F0C8F941F26410C1F6FF7004F0B8FC034641F26440C1F6FF70194606F0E2F941F26410C1F6FF70BD
S32D0000EEE004F0AAFC03461846FDF7F6FB04460D4641F27813C1F6FF731B681846FDF7ECFB02460B461046194650
S32D0000EF084FF000024FF07E5303F5C003FDF780FA02460B464FF001010E4620462946FDF7BBFE0346002B02D16A
S32D0000EF304FF000031E46F3B2002B27D004F030F804460D467868FDF7C7FB02460B4620462946FDF761FA0246F2
S32D0000EF580B464FF001010C46104619464FF000024FF0804303F57813FDF778FE0346002B02D14FF000031C46D7
S32D0000EF80E3B2002B02D04FF0010301E04FF00003002B83D14FF0320003F0BAFF41F27813C1F6FF731C6841F231
S32D0000EFA86410C1F6FF7004F043FC034620461946FDF718FF03461A4641F27C13C1F6FF731A6007F10C07BD4639
S32D0000EFD0F0BD00BF00000000F0B585B000AF78604FF0640003F094FF7868FDF7B5FF034641F24410C1F6FF709F
S32D0000EFF8194601F091FC7B68C3F100031846FDF7A7FF034641F24C10C1F6FF70194601F083FC7868FDF79CFF40
S32D0000F020034641F25410C1F6FF70194601F078FC7B68C3F100031846FDF78EFF034641F25C10C1F6FF70194612
S32D0000F04801F06AFC4FF00003FB734FF00003BB60B3E041F27813C1F6FF731C6841F26410C1F6FF7004F0E4FB98
S32D0000F070034620461946FDF7B9FE03461846FDF72BFB04460D4641F27C13C1F6FF731B681846FDF721FB024637
S32D0000F0980B461046194658A3D3E90023FDF7B8F902460B464FF001010E4620462946FDF7E9FD0346002B02D1A1
S32D0000F0C04FF000031E46F3B2002B1ED041F24410C1F6FF7001F0D4FB41F24C10C1F6FF7001F0CEFB41F254104B
S32D0000F0E8C1F6FF7001F0C8FB41F25C10C1F6FF7001F0C2FB4FF00103FB734FF00103BB735BE041F27813C1F6DB
S32D0000F110FF731C6841F26410C1F6FF7004F08CFB034620461946FDF761FE03461846FDF7D3FA04460D4641F2FA
S32D0000F1387C13C1F6FF731B681846FDF7C9FA02460B46104619462EA3D3E90023FDF760F902460B464FF0010134
S32D0000F1600E4620462946FDF787FD0346002B02D14FF000031E46F3B2002B1ED041F24410C1F6FF7001F07CFB20
S32D0000F18841F24C10C1F6FF7001F076FB41F25410C1F6FF7001F070FB41F25C10C1F6FF7001F06AFB4FF00103CB
S32D0000F1B0FB734FF00003BB7303E0BB6803F10103BB60FB7B83F00103DBB2002B05D0BB68092B02DC4FF0010348
S32D0000F1D801E04FF00003002B7FF43BAFBB680A2B02D14FF00003BB73BB7B184607F11407BD46F0BDAFF300804A
S32D0000F2009A9999999999C93F3D0AD7A3703DCA3F80B582B000AFAE48FEF7A6FE41F26813C1F6FF731B6818466D
S32D0000F228FFF702FB4FF02800A849FEF705FCA848FEF796FE4FF04600A649FEF751F9A648FEF78EFE4FF0460057
S32D0000F250A449FEF749F9A448FEF786FE41F26C13C1F6FF731B681846FFF74EF94FF01400FFF7B2FE0346FB7160
S32D0000F278FB79002B73D041F26440C1F6FF704FF47F0105F085FC41F26440C1F6FF7005F05FFC41F26410C1F6A5
S32D0000F2A0FF7004F0C9FA034641F26440C1F6FF70194605F045FF4FF47A7003F029FE4FF028008A49FEF7BCFB0F
S32D0000F2C84FF046008849FEF7EDF94FF028008749FEF7B2FB4FF046008549FEF701F94FF028007A49FEF7A8FB0A
S32D0000F2F08248FEF739FE4FF046007849FEF7F4F841F24410C1F6FF707D4901F009FB41F25410C1F6FF707A49EB
S32D0000F31801F002FB41F6641003F0F6FD41F24410C1F6FF7001F0A8FA41F25410C1F6FF7001F0A2FA4FF0460039
S32D0000F3407049FEF7B3F94FF028006F49FEF790FA4FF0640003F0DCFD6C48FEF705FE6C48FFF7D2F880E041F285
S32D0000F3686440C1F6FF704FF0FF0105F011FC41F26440C1F6FF7005F0EBFB41F26410C1F6FF7004F055FA03463B
S32D0000F39041F26440C1F6FF70194605F0D1FE4FF47A7003F0B5FD4C48FEF7DEFD4FF046005849FEF799F84FF00E
S32D0000F3B828005749FEF740FB4E48FEF7D1FD41F24410C1F6FF704C4901F0A6FA41F24C10C1F6FF704F4901F0C5
S32D0000F3E09FFA41F25410C1F6FF70454901F098FA41F25C10C1F6FF70484901F091FA41F6641003F085FD41F273
S32D0000F4084410C1F6FF7001F037FA41F24C10C1F6FF7001F031FA41F25410C1F6FF7001F02BFA41F25C10C1F640
S32D0000F430FF7001F025FA4FF046003249FEF736F94FF028003049FEF713FA4FF0640003F05FFD2E48FEF788FD47
S32D0000F4584FF046003049FEF725F92B48FFF750F81B48FEF77DFD41F22410C1F6FF70184904F0E2FD41F27C5032
S32D0000F48003F046FD41F22410C1F6FF70254904F0D7FD4FF032001649FEF708F94FF028001249FEF7E5F91148B1
S32D0000F4A8FEF75EFD4FF032001149FEF719F84FF028001B49FEF7D8F91A48FEF751FD07F10807BD4680BD00BFD9
S32D0000F4D0000034420000204200000000000040400000B243000060400080AF430000A0410000803F0000F041DE
S32D0000F4F80000C03F0000874300004842000020400000A042000000400000F4410000E0400000C842000048C2A8
S32D0000F520000080400000B442000082420000B04280B500AF41F2CC40C1F6FF7009F0D4F9024641F21C13C1F6E1
S32D0000F548FF731A6041F2CC40C1F6FF7009F0D8F9024641F22013C1F6FF731A604FF050007049FDF7BDFF704879
S32D0000F570FEF7FAFC4FF046006E49FDF7B5FF6E48FEF7F2FC4FF046006C49FDF7ADFF41F27013C1F6FF731B68C9
S32D0000F5981846FFF749F96448FEF7E2FC4FF032006549FEF749FA4FF028006449FEF77AF84FF032005B49FEF754
S32D0000F5C03FFA4FF01E006049FDF78EFF4FF032005E49FEF735FA4FF032005B49FDF784FF4FF032005A49FEF78C
S32D0000F5E82BFA41F24410C1F6FF70584901F094F941F24C10C1F6FF70554901F08DF941F25410C1F6FF705149E3
S32D0000F61001F086F941F25C10C1F6FF704E4901F07FF940F2DC5003F073FC41F24410C1F6FF7001F025F941F2E8
S32D0000F6384C10C1F6FF7001F01FF941F25410C1F6FF7001F019F941F25C10C1F6FF7001F013F94FF032003F499E
S32D0000F660FEF724F841F22410C1F6FF703C4904F0E7FC41F2CC40C1F6FF7009F035F9024641F21C13C1F6FF7323
S32D0000F6881A6041F2CC40C1F6FF7009F039F9024641F22013C1F6FF731A604FF01E002F49FEF700F841F22410D0
S32D0000F6B0C1F6FF701E4904F0C3FC2B48FEF754FC4FF032001F49FDF70FFF41F22410C1F6FF70234904F0B4FCBC
S32D0000F6D84FF028002149FDF7E5FF41F22410C1F6FF70204904F0A8FC4FF0C80003F00CFC4FF032001C49FDF701
S32D0000F700F3FE4FF0C80003F003FC41F22410C1F6FF70074904F094FC1648FEF725FC4FF032001349FDF7C2FF9A
S32D0000F72880BD00BF0000C8410000B442000040410000B0420000484100002042000020400000C03F000070414A
S32D0000F7500000204100004842000048C20000003F000028430000C0400000B343000016430000803F00000000DE
S32D0000F77880B500AF4FF032002549FDF793FF4FF028002449FEF758F92348FEF7E9FB4FF050002249FDF786FF49
S32D0000F7A041F22410C1F6FF701F4904F049FC4FF4FA7003F0ADFB41F22410C1F6FF701B4904F03EFC4FF4FA70F9
S32D0000F7C803F0A2FB4FF032001749FDF789FE4FF032001649FEF730F94FF046001449FDF77FFE4FF02800134933
S32D0000F7F0FEF73EF81248FEF7B7FB4FF046001149FDF772FE41F27413C1F6FF731B681846FFF7A2F980BD00BF2B
S32D0000F8189A99D9400000824200809D430000B0400000A0400000B442CDCC6C400000F042000070410000C8415B
S32D0000F840000087430000104180B500AF4FF046004B49FDF72BFF4FF028004A49FEF7F0F84948FEF781FB41F258
S32D0000F8684410C1F6FF70474901F056F841F24C10C1F6FF70444901F04FF841F25410C1F6FF70404901F048F838
S32D0000F89041F25C10C1F6FF703D4901F041F84FF4FA6003F035FB41F24410C1F6FF7000F0E7FF41F24C10C1F64C
S32D0000F8B8FF7000F0E1FF41F25410C1F6FF7000F0DBFF41F25C10C1F6FF7000F0D5FF41F2CC40C1F6FF7009F075
S32D0000F8E003F8024641F21C13C1F6FF731A6041F2CC40C1F6FF7009F007F8024641F22013C1F6FF731A604FF0C5
S32D0000F90832002249FDF7CEFE4FF028002049FEF793F84FF028001F49FDF7C4FE4FF028001B49FDF7A1FF1648E2
S32D0000F930FEF71AFB4FF032001849FDF7B7FE41F21C13C1F6FF731B6818461549FEF754F941F23010C1F6FF707F
S32D0000F958124904F071FB4FF4FA6003F0D5FA41F23010C1F6FF700E4904F066FB4FF4FA7003F0CAFA80BD00BFC2
S32D0000F9800000803F0000C8420000344300004842000048C2000000400000C841000020400000104100002A431E
S32D0000F9A80000B44280B500AF4FF046001649FDF797FD4FF028001549FDF756FF4FF050001349FDF78DFD134819
S32D0000F9D0FEF7CAFA41F24410C1F6FF700D4900F09FFF41F24C10C1F6FF700D4900F098FF41F25410C1F6FF7070
S32D0000F9F8064900F091FF41F25C10C1F6FF70064900F08AFF80BD00BF000020410000B4420000A0410000874387
S32D0000FA200000B4C290B587B002AF4FF00103FB60D7E04FF09603009341F26440C1F6FF704FF037014FF02D0273
S32D0000FA484FF0C80306F046F841F26440C1F6FF7049F64061C0F201014FF064024FF07E0305F0D2F807F108029B
S32D0000FA7007F1040341F26440C1F6FF7011461A4605F0C2F93FE041F26440C1F6FF7049F64C61C0F201014FF00A
S32D0000FA980A024FF0D20305F0B7F841F2CC40C1F6FF7008F01DFF034641F26440C1F6FF7019464FF046024FF098
S32D0000FAC0D20305F0D1F841F26440C1F6FF7049F65461C0F201014FF082024FF0D20305F097F841F2CC40C1F68F
S32D0000FAE8FF7008F00DFF034641F26440C1F6FF7019464FF0BE024FF0D20305F0B1F807F1080207F1040341F2F3
S32D0000FB106440C1F6FF7011461A4605F075F9034683F00103DBB2002BADD14FF4FA7003F0EFF97B684FF0010240
S32D0000FB3814461846DFF8F415FDF71AFC0346002B02D14FF000031C46E3B2002B45D07B684FF001021446184660
S32D0000FB60DFF8D415FDF7EAFB0346002B02D14FF000031C46E3B2002B33D0BB684FF0010214461846DFF8B41573
S32D0000FB88FDF7F6FB0346002B02D14FF000031C46E3B2002B21D0BB684FF0010214461846DFF89415FDF7C6FB7C
S32D0000FBB00346002B02D14FF000031C46E3B2002B0FD041F2CC40C1F6FF7008F09DFE024641F26813C1F6FF7386
S32D0000FBD81A60FB6803F10103FB60FB68012B14BF00230123DBB2002B7FF41FAFD5E04FF09603009341F2644036
S32D0000FC00C1F6FF704FF037014FF02D024FF0C80305F064FF41F26440C1F6FF7049F65C61C0F201014FF0640217
S32D0000FC284FF07E0304F0F0FF07F1080207F1040341F26440C1F6FF7011461A4605F0E0F83FE041F26440C1F6DC
S32D0000FC50FF7049F64C61C0F201014FF00A024FF0D20304F0D5FF41F2CC40C1F6FF7008F03BFE034641F264409A
S32D0000FC78C1F6FF7019464FF046024FF0D20304F0EFFF41F26440C1F6FF7049F65461C0F201014FF082024FF0B5
S32D0000FCA0D20304F0B5FF41F2CC40C1F6FF7008F02BFE034641F26440C1F6FF7019464FF0BE024FF0D20304F087
S32D0000FCC8CFFF07F1080207F1040341F26440C1F6FF7011461A4605F093F8034683F00103DBB2002BADD14FF4D2
S32D0000FCF0FA7003F00DF97B684FF0010214461846DFF83014FDF738FB0346002B02D14FF000031C46E3B2002BB9
S32D0000FD1843D07B684FF0010214461846DFF81014FDF708FB0346002B02D14FF000031C46E3B2002B31D0BB680C
S32D0000FD404FF0010214461846FC49FDF715FB0346002B02D14FF000031C46E3B2002B20D0BB684FF001021446F8
S32D0000FD681846F549FDF7E6FA0346002B02D14FF000031C46E3B2002B0FD041F2CC40C1F6FF7008F0ADFD024624
S32D0000FD9041F26C13C1F6FF731A60FB6803F10103FB60FB68022B14BF00230123DBB2002B7FF421AFD3E04FF0A3
S32D0000FDB89603009341F26440C1F6FF704FF037014FF02D024FF0C80305F084FE41F26440C1F6FF7049F6686189
S32D0000FDE0C0F201014FF064024FF07E0304F010FF07F1080207F1040341F26440C1F6FF7011461A4605F000F837
S32D0000FE083FE041F26440C1F6FF7049F64C61C0F201014FF00A024FF0D20304F0F5FE41F2CC40C1F6FF7008F06D
S32D0000FE305BFD034641F26440C1F6FF7019464FF046024FF0D20304F00FFF41F26440C1F6FF7049F65461C0F267
S32D0000FE5801014FF082024FF0D20304F0D5FE41F2CC40C1F6FF7008F04BFD034641F26440C1F6FF7019464FF053
S32D0000FE80BE024FF0D20304F0EFFE07F1080207F1040341F26440C1F6FF7011461A4604F0B3FF034683F0010384
S32D0000FEA8DBB2002BADD14FF4FA7003F02DF87B684FF00102144618469C49FDF759FA0346002B02D14FF000039F
S32D0000FED01C46E3B2002B42D07B684FF00102144618469549FDF72AFA0346002B02D14FF000031C46E3B2002B52
S32D0000FEF831D0BB684FF00102144618468D49FDF737FA0346002B02D14FF000031C46E3B2002B20D0BB684FF0C6
S32D0000FF200102144618468649FDF708FA0346002B02D14FF000031C46E3B2002B0FD041F2CC40C1F6FF7008F04C
S32D0000FF48DFFC024641F27013C1F6FF731A60FB6803F10103FB60FB68032B14BF00230123DBB2002B7FF423AFB1
S32D0000FF70D3E04FF09603009341F26440C1F6FF704FF037014FF02D024FF0C80305F0A6FD41F26440C1F6FF70C4
S32D0000FF9849F67461C0F201014FF064024FF07E0304F032FE07F1080207F1040341F26440C1F6FF7011461A4635
S32D0000FFC004F022FF3FE041F26440C1F6FF7049F64C61C0F201014FF00A024FF0D20304F017FE41F2CC40C1F6E4
S32D0000FFE8FF7008F07DFC034641F26440C1F6FF7019464FF046024FF0D20304F031FE41F26440C1F6FF7049F66C
S32D000100105461C0F201014FF082024FF0D20304F0F7FD41F2CC40C1F6FF7008F06DFC034641F26440C1F6FF708D
S32D0001003819464FF0BE024FF0D20304F011FE07F1080207F1040341F26440C1F6FF7011461A4604F0D5FE03465F
S32D0001006083F00103DBB2002BADD14FF4FA7002F04FFF7B684FF00102144618462D49FDF77BF90346002B02D1D5
S32D000100884FF000031C46E3B2002B42D07B684FF00102144618462649FDF74CF90346002B02D14FF000031C4663
S32D000100B0E3B2002B31D0BB684FF00102144618461E49FDF759F90346002B02D14FF000031C46E3B2002B20D0FB
S32D000100D8BB684FF00102144618461749FDF72AF90346002B02D14FF000031C46E3B2002B0FD041F2CC40C1F6E5
S32D00010100FF7008F001FC024641F27413C1F6FF731A60FB6803F10103FB60FB68042B14BF00230123DBB2002BAD
S32D000101287FF423AF07F11407BD4690BD000034420000434300005C4200007F4380B582B000AF41F2CC40C1F698
S32D00010150FF7007F0F9FE41F26440C1F6FF704FF0000104F0E3FC41F26440C1F6FF706FF07F4104F039FD41F29A
S32D000101786440C1F6FF7049F68061C0F2010105F061F841F22410C1F6FF7040F2D52103F015FF41F22410C1F692
S32D000101A0FF7040F6A41103F02BFF41F23010C1F6FF7040F2022103F005FF41F23010C1F6FF7040F67E1103F083
S32D000101C81BFF4FF4FA7002F09FFE41F22410C1F6FF702B4903F030FF41F23010C1F6FF70284903F029FF4FF427
S32D000101F07A7002F08DFE41F26440C1F6FF7004F0ABFC41F26440C1F6FF7049F69061C0F2010105F01BF8FFF702
S32D0001021805FC4FF4FA7002F077FE41F26440C1F6FF7004F095FC41F26440C1F6FF7049F6A461C0F2010104F037
S32D0001024037FF00BF07F104023B4641F26440C1F6FF7011461A4604F0D7FD034683F00103DBB2002BEED141F235
S32D000102686410C1F6FF7003F0E3FA024641F27813C1F6FF731A6007F10807BD4680BD00BF0000B4420000AA426C
S32D0001029080B500AFFFF756FFFEF7F2FDFEF7B8FFFFF746F9FFF768FAFFF7CEFAFFF77EFB4FF00003184680BDE9
S32D000102B880B582B000AF786039607B68012B50D13A684FF6FF739A424BD141F22410C1F6FF704FF0060103F049
S32D000102E053FE41F23010C1F6FF704FF0000103F04BFE41F23C10C1F6FF704FF0090102F0A9FE41F24010C1F6C8
S32D00010308FF704FF0100102F0A1FE41F24410C1F6FF704FF00001154A00F056FA41F24C10C1F6FF704FF00301F2
S32D00010330104A00F04DFA41F25410C1F6FF704FF001010C4A00F044FA41F25C10C1F6FF704FF00201074A00F043
S32D000103583BFA41F26410C1F6FF704FF0040103F055FA07F10807BD4680BD00BF0000A04080B500AF4FF00100E4
S32D000103804FF6FF71FFF798FF80BD00BF80B500AF41F23072C1F6FF7241F21C13C1F6FF73D31A194641F21C13F6
S32D000103A8C1F6FF731A460B4610464FF000011A4608F04BFC80BD00BF09F0C0FC00F0B0F9FFF7E0FF09F092FC71
S32D000103D009F02EFC09F0C6FC00F00CF84FF0000041F28011C1F6FF71FFF752FF0346184608F00AFC80B500AF32
S32D000103F84FF4E043C4F204034FF4E042C4F2040202F5805202F13802126842F4785203F5805303F138031A60AE
S32D0001042000F02EF900F094F841F2B033C1F6FF734FF058021A6041F2B033C1F6FF731B684FF47A7202FB03F2E5
S32D0001044841F2AC33C1F6FF731A6041F2AC33C1F6FF731B681A464FF4E043C4F2040303F5825303F104031B6844
S32D0001047003F070634FEA136303F10103B2FBF3F31A4641F2B433C1F6FF731A604FF4E043C4F204034FF4E042B8
S32D00010498C4F2040202F5805202F13C02126842F0225203F5805303F13C031A604FF4E043C4F204034FF4E0425F
S32D000104C0C4F2040202F5805202F13002126842F0006203F5805303F130031A604FF45043C4F203034FF4807222
S32D000104E81A614FF0640002F0A3FB4FF45043C4F203034FF45042C4F20302526922F010025A614FF45043C4F2EF
S32D0001051003034FF000021A604FF45043C4F203034FF010025A6103F0B9FA03F061FB41F2A830C1F6FF7002F045
S32D0001053803FC41F26440C1F6FF7004F041F941F2883002F0E1FC80BD80B400AF4FF48043C4F206034FF000028A
S32D000105605A704FF48043C4F206034FF098021A704FF48043C4F206039B79DBB203F01003002B0CBF00230123D1
S32D00010588DBB2002BF0D14FF48043C4F206039B79DBB203F00C034FEA9303022B0CBF00230123DBB2002BEED1DE
S32D000105B04FF48043C4F206034FF018021A714FF48043C4F206034FF000025A714FF4E043C4F2040303F58253B2
S32D000105D803F104034FF00002C0F213121A604FF48043C4F206034FF054025A7100BF4FF48043C4F206039B79AA
S32D00010600DBB203F02003002B14BF00230123DBB2002BF0D100BF4FF48043C4F206039B79DBB203F04003002BE4
S32D0001062814BF00230123DBB2002BF0D14FF48043C4F206034FF48042C4F206021278D2B202F03F02D2B21A7039
S32D000106504FF48043C4F206039B79DBB203F00C034FEA9303032B0CBF00230123DBB2002BEED14FF000031846ED
S32D00010678BD4680BC704700BF80B400AF4FF44043C4F204034FF480725A634FF2C003C4F20F034FF2C002C4F2C1
S32D000106A00F02526942F400525A614FF2C003C4F20F034FF2C002C4F20F02126842F400521A604FF44043C4F28E
S32D000106C8040340F20312C0F20A021A634FF46143CEF200034FF46142CEF20002D2F8882142F08062C3F888213D
S32D000106F04FF46143CEF200034FF46142CEF20002926842F080629A60BD4680BC704700BF80B483B000AF7860DE
S32D00010718FEE700BF80B400AF00BEBD4680BC704780B400AF4FF0E0224CF20003C0F20003C2F8083D4FF40053C8
S32D00010740C4F205034CF22052DA814FF40053C4F205034DF62812DA814FF40053C4F205034FF0D2021A80BD4691
S32D0001076880BC704780B500AF4FF44043C4F20403D3F8A03003F48053002B0CBF00230123DBB2002B1FD04FF47C
S32D000107904043C4F204034FF44042C4F20402D2F8A02022F48052C3F8A02041F2EC40C1F6FF7008F0AFF94FF226
S32D000107B8C003C4F20F034FF2C002C4F20F02126822F400521A6080BD90B585B000AFF8600B467A60FB72FB68A8
S32D000107E0FA7A1A71FB684FF000025A714FF001031C4678682049FCF7BFFD0346002B02D14FF000031C46E3B25F
S32D00010808002B02D01A4B7B6011E04FF001031C4678681849FCF798FD0346002B02D14FF000031C46E3B2002B7A
S32D0001083001D0124B7B607868FBF74EFF02460B46104619460AA3D3E90023FBF799FF02460B4610461946FCF7CC
S32D0001085875FA0246FB681A60FB68184607F11407BD4690BDAFF30080ABAAAAAAAAAA2040000040410000803FFA
S32D0001088080B582B000AF78607B685B79002B10D07B684FF000025A717B681B7941F2A830C1F6FF7019464FF064
S32D000108A800024FF01E0302F091FA07F10807BD4680BD00BF80B584B000AF786039603B687F2B03DD4FF07F03C5
S32D000108D0FB7309E03B6813F1800F03DA4FF08003FB7301E03B68FB737B685B79FA7B9A420FD07B68FA7B5A7163
S32D000108F87B681A79FB7B41F2A830C1F6FF7011461A464FF01E0302F061FA07F11007BD4680BD00BF0000000042
S32D00010920B0B584B000AF786039604FF001031C4638684D49FCF702FD0346002B02D14FF000031C46E3B2002B77
S32D0001094802D0474B3B6011E04FF001031C4638684449FCF70DFD0346002B02D14FF000031C46E3B2002B01D045
S32D000109703E4B3B603868FBF7AFFE04460D467B681B681846FBF7A8FE02460B46104619464FF000024FF080436B
S32D0001099803F5B203FCF71AF802460B4620462946FBF7EAFE02460B4610461946FCF7C6F903463B604FF001030F
S32D000109C01C4638682A49FCF7CDFC0346002B02D14FF000031C46E3B2002B14D03868FBF77BFE02460B4610464E
S32D000109E819461DA3D3E90023FBF7C6FE02460B4610461946FCF75AF90346FB6022E03868FBF766FE02460B4663
S32D00010A10104619464FF000024FF0804303F5C003FBF7AEFE02460B46104619464FF000024FF0804303F5B20328
S32D00010A38FBF7CCFF02460B4610461946FCF736F90346FB607868F968FFF734FF07F11007BD46B0BDAFF30080B3
S32D00010A6052B81E85EB51F43F0000C8C20000C84200000000AFF3008080B485B000AF02460B46FA71BB71BB7919
S32D00010A88002B07D141F28413C1F6FF734FF000021A7006E041F28413C1F6FF734FF001021A704FF03803FB73F1
S32D00010AB041F28413C1F6FF731A78FB7B1343FB734FF4C043C4F206034FF4C042C4F206029278D2B242F010027E
S32D00010AD8D2B29A704FF4C043C4F206034FF4C042C4F206029278D2B242F02002D2B29A704FF4C043C4F20603E4
S32D00010B00FA7B1A7107F11407BD4680BC704700BF80B483B000AF4FF001037B6004E000BF7B6803F101037B6071
S32D00010B287B68312BCCBF00230123DBB2002BF2D107F10C07BD4680BC704700BF80B582B000AF02460B46FA7138
S32D00010B50BB7141F28513C1F6FF731B7818464FF00001FFF789FF4FF4C043C4F20603DB78DBB203F00203002B9F
S32D00010B7814BF00230123DBB2002BF0D14FF4C043C4F206034FF4C042C4F20602D278D2B242F00202D2B2DA70E1
S32D00010BA04FF4C043C4F20603FA791A714FF4C043C4F20603DB78DBB203F00203002B14BF00230123DBB2002B49
S32D00010BC8F0D14FF4C043C4F206034FF4C042C4F20602D278D2B242F00202D2B2DA704FF4C043C4F20603BA792B
S32D00010BF01A714FF4C043C4F20603DB78DBB203F00203002B14BF00230123DBB2002BF0D14FF4C043C4F20603AB
S32D00010C184FF4C042C4F20602D278D2B242F00202D2B2DA704FF4C043C4F206034FF4C042C4F206029278D2B242
S32D00010C4022F02002D2B29A704FF4C043C4F206034FF4C042C4F206029278D2B222F01002D2B29A70FFF754FF32
S32D00010C6807F10807BD4680BD80B582B000AF0346FB71FB79184600F06BF807F10807BD4680BD00BF80B582B0B9
S32D00010C9000AF02460B46FA71BB7100F039F8FB794FEA4303DBB21846FFF7E2FFBB791846FFF7DEFF00F03EF8F5
S32D00010CB807F10807BD4680BD80B500AF4FF0FF0000F046F80346184680BD00BF80B584B000AF0346FB7100F016
S32D00010CE017F8FB794FEA4303DBB243F00103DBB2DBB21846FFF7BCFFFFF7E2FF0346FB7300F018F8FB7B184694
S32D00010D0807F11007BD4680BD80B400AF4FF24003C4F20F034FF24002C4F20F02926842F480129A60BD4680BCF9
S32D00010D30704700BF80B400AF4FF24003C4F20F034FF24002C4F20F02526842F480125A60BD4680BC704700BFB4
S32D00010D5880B485B000AF0346FB714FF00003BB7303E0FB7B03F10103FB734FF44043C4F20A03DB6A4FF0000360
S32D00010D80002BF2D14FF44043C4F20A034FF44042C4F20A02D26A42F00042DA624FF44043C4F20A03FA795A63A1
S32D00010DA800BF4FF44043C4F20A03DB6A03F40033002B14BF00230123DBB2002BF1D14FF44043C4F20A039B6B17
S32D00010DD0BB73BB7B184607F11407BD4680BC704780B582B000AF4FF4E043C4F204034FF4E042C4F2040202F5D8
S32D00010DF8805202F13002126842F4805203F5805303F130031A604FF42043C4F204034FF480721A654FF240034C
S32D00010E20C4F20F034FF24002C4F20F02526942F480125A61FFF77EFF4FF42043C4F204034FF400725A654FF4C6
S32D00010E482043C4F204034FF400729A654FF42043C4F204034FF40072DA654FF44043C4F20A034FF44062C8F228
S32D00010E7000021A604FF44043C4F20A034FF00502C3F60062DA604FF000037B6007E04FF0FF00FFF7EDFE7B68AD
S32D00010E9803F101037B607B68092BCCBF00230123DBB2002BEFD104A1D1E9000102F048F807F10807BD4680BD1E
S32D00010EC09A9999999999B93F90B486B000AFF860B9607A60FA684FF42043C4F206039A4214D14FF4E043C4F25C
S32D00010EE804034FF4E042C4F2040202F5805202F13402126842F4806203F5805303F134031A6083E0FA684FF4B7
S32D00010F103043C4F206039A4214D14FF4E043C4F204034FF4E042C4F2040202F5805202F13402126842F4006277
S32D00010F3803F5805303F134031A6067E0FA684FF44043C4F206039A4214D14FF4E043C4F204034FF4E042C4F2ED
S32D00010F60040202F5805202F13402126842F4805203F5805303F134031A604BE0FA684FF45043C4F206039A427A
S32D00010F8814D14FF4E043C4F204034FF4E042C4F2040202F5805202F13402126842F4005203F5805303F1340327
S32D00010FB01A602FE0FA684FF42043C4F20E039A4214D14FF4E043C4F204034FF4E042C4F2040202F5805202F1F9
S32D00010FD82802126842F4806203F5805303F128031A6013E04FF4E043C4F204034FF4E042C4F2040202F58052CA
S32D0001100002F12802126842F4006203F5805303F128031A60FB68DB78DBB223F00C03DAB2FB68DA70FB684FF0EE
S32D0001102800029A70BB684FF47A7202FB03F27B684FEA031392FBF3F39CB2FB681B78DBB223F01F03FB752346C5
S32D0001105003F4F8534FEA2323DBB203F01F03DAB2FB7D1343DAB2FB681A70E2B2FB685A70BB684FF4FA4202FBDB
S32D0001107803F27B684FEA031392FBF3F39AB2234619464FEAC121CB1A4FEA43139BB2D3189CB2FB689B7ADBB281
S32D000110A023F01F03FB75E3B203F01F03DAB2FB7D1343DAB2FB689A72FB68DB78DBB243F00C03DAB2FB68DA70BF
S32D000110C807F11807BD4690BC704700BF80B483B000AF786000BF7B681B79DBB203F02003002B14BF0023012311
S32D000110F0DBB2002BF3D17B68DB79DBB2184607F10C07BD4680BC704780B483B000AF78600B46FB7000BF7B68E6
S32D000111181B79DBB2DBB26FEA0303DBB24FEAD313DBB2002BF3D17B68FA78DA7107F10C07BD4680BC704700BF13
S32D0001114080B487B000AFF860B9607A60FB687B6107E0BB68DAB27B691A707B6903F101037B617B68002B0CBF47
S32D0001116800230123DBB27A6802F1FF327A60002BEBD107F11C07BD4680BC704780B584B000AF786039607B6840
S32D000111901B6BFB60FA683B689A4264D07B681B79002B43D07B685A787B6803F1340310461946FA684FF0010368
S32D000111B801F0ACFB0346002B0CBF00230123DBB2002B02D04FF001034BE07B684FF000021A717B685A6A7B68B9
S32D000111E01B6AD218FB689A4220D97B68DB78FB7214E07B681B6AFA68D318FB607B685A787B6803F13403104679
S32D000112081946FA684FF0010301F080FBFB7A03F1FF33FB72FB7A012B94BF00230123DBB2002BE2D13B68002BCB
S32D0001123019D07B685A787B6803F13403104619463A684FF0010301F057FA0346002B0CBF00230123DBB2002BC9
S32D0001125802D04FF0010304E07B683A681A634FF00003184607F11007BD4680BD80B584B000AF786078684FF06E
S32D000112800001FFF77FFF0346FB73FB7B002B40F0AE807B681B78032B40F095807B685B79002B00F090807B6866
S32D000112A84FF000021A637B6803F1340318464FF000014FF40072FFF73FFF7B684FF0550283F832227B684FF05A
S32D000112D0AA0283F833227B684FF0520283F834207B684FF0520283F835207B684FF0610283F836207B684FF070
S32D000112F8410283F837207B684FF0720283F818227B684FF0720283F819227B684FF0410283F81A227B684FF0DD
S32D00011320610283F81B227B681B69DAB27B6883F81C227B681B699BB24FEA2323DAB27B6883F81D227B681B6931
S32D000113484FEA1343DAB27B6883F81E227B681B694FEA1363DAB27B6883F81F227B68DB68DAB27B6883F820222A
S32D000113707B68DB689BB24FEA2323DAB27B6883F821227B68DB684FEA1343DAB27B6883F822227B68DB684FEAED
S32D000113981363DAB27B6883F823227B6859787B6803F134027B685B69084611461A464FF0010301F0ABFA7B6858
S32D000113C04FF000025A717B685B7818464FF000014FF0000201F084FB0346002B0CBF00230123DBB2002B02D0DD
S32D000113E84FF00103FB73FB7B184607F11007BD4680BD00BF80B582B000AF78600B467B807B68002B08D07B6840
S32D000114101B78002B04D07B68DB887A889A4202D04FF009030FE07B685B78184601F0ECFB034603F00103DBB232
S32D00011438002B02D04FF0030301E04FF00003184607F10807BD4680BD80B586B000AF78607B681A687B689B881E
S32D0001146010461946FFF7CAFF0346FB75FB7D002B40F0C8807B689B7903F02003002B00F0C1807B689B7903F0C2
S32D000114884003002B20D07B681B6859787B6803F128027B689B69084611461A464FF0010301F034FA0346002BDD
S32D000114B00CBF00230123DBB2002B02D04FF00103A1E07B689B7923F04003DAB27B689A717B681A687B68DB695A
S32D000114D810461946FFF752FE0346FB75FB7D002B40F08C807B681B6A3B613B6903F10B033A6902F10B0212787B
S32D0001150042F02002D2B21A703B6903F11C037A68D268D2B21A703B6903F11D037A68D26892B24FEA2222D2B260
S32D000115281A703B6903F11E037A68D2684FEA1242D2B21A703B6903F11F037A68D2684FEA1262D2B21A703B6965
S32D0001155003F11A037A681269D2B21A703B6903F11B037A68126992B24FEA2222D2B21A703B6903F114037A687D
S32D0001157812694FEA1242D2B21A703B6903F115037A6812694FEA124292B24FEA2222D2B21A704FF00003FB6028
S32D000115A03B6903F11603FA68D2B21A703B6903F11703FA6892B24FEA2222D2B21A703B6903F11803FA684FEACA
S32D000115C81242D2B21A703B6903F11903FA684FEA1262D2B21A707B689B7923F02003DAB27B689A717B681B68B4
S32D000115F04FF001021A717B681B681846FFF73AFE0346FB75FB7D184607F11807BD4680BD80B584B000AF786037
S32D000116187868FFF719FF0346FB73FB7B002B03D17B684FF000021A60FB7B184607F11007BD4680BD80B588B05B
S32D0001164000AF786039604FF080033B614FF00F03FB604FF0FF337B614FF00203FB612AE04FF00103BB611AE001
S32D00011668FB69BA6902FB03F33A6802FB03F27B68D31ABB60BB68002B09DBBA687B699A4205D2BB687B61FB690C
S32D000116903B61BB69FB60BB6903F10103BB61BB69102B8CBF00230123DBB2002BDCD1FB694FEA4303FB61FB69DF
S32D000116B8B3F5807F8CBF00230123DBB2002BCBD14FF48053C4F20B034FF48052C4F20B02D26A22F00802DA6230
S32D000116E04FF48053C4F20B03DB6A1A464FF00F03CFF6F0731340BB614FF48053C4F20B033A694FEA52024FEA31
S32D0001170802224FEA02424FEA1242F96801F1FF314FEA0111C9B21143BA690A4342F46022DA6203E04FF00A0057
S32D0001173001F0EEFB4FF48053C4F20B035B6A03F00803002B14BF00230123DBB2002BEDD14FF48053C4F20B037E
S32D000117584FF48052C4F20B02D26A42F00802DA624FF48053C4F20B034FF48052C4F20B02126B42F480121A6362
S32D0001178007F12007BD4680BD80B582B000AF786039607B684FF000021A604FF48053C4F20B034FF40042C0F2A5
S32D000117A80012DA624FF48053C4F20B03DB6A03F08073002B0CBF00230123DBB2002BF1D14FF48053C4F20B032E
S32D000117D04FF00002C3F8C0204FF48053C4F20B034FF481325A604FF48053C4F20B034FF028029A624FF480532F
S32D000117F8C4F20B034FF001125A643B689B6818464CF66041C0F20501FFF714FF4FF48053C4F20B035B6A03F0B4
S32D000118200303002B0CBF00230123DBB2002BF1D14FF45043C4F2040340F243421A604FF45043C4F2040340F253
S32D0001184843425A604FF45043C4F204034FF488629A604FF45043C4F2040340F24342DA604FF45043C4F2040361
S32D0001187040F243421A614FF45043C4F2040340F243425A614FF4E043C4F204034FF4E042C4F2040202F5805205
S32D0001189802F13002126842F4003203F5805303F130031A604FF48053C4F20B034FF6FF721A634FF48053C4F2D5
S32D000118C00B034FF0B302C0F27F025A634FF48053C4F20B034FF48052C4F20B02D26A42F00062DA624FF4805333
S32D000118E8C4F20B03DB6A03F00063002B0CBF00230123DBB2002BF1D14FF48053C4F20B035B6A03F48033002B47
S32D000119100CBF00230123DBB2002B03D07B684FF001021A604FF48053C4F20B034FF48052C4F20B02126B42F00B
S32D0001193880021A634FF00003184607F10807BD4680BD00BF80B400AF4FF48053C4F20B035B6A1A4640F207338D
S32D000119601340002B0CBF00230123DBB21846BD4680BC704780B485B000AF78604FF48053C4F20B031B6B1A4637
S32D000119887B681340FB60FB68002B14BF00230123DBB2002BEED1FB68184607F11407BD4680BC704780B584B04D
S32D000119B000AF78607B681B7803F03F024AF2AC13C0F2010353F82230FB60FB68002B06D17B681B78002B02D056
S32D000119D84FF0010330E14FF48053C4F20B034FF48052C4F20B02126B42F080021A634FF48053C4F20B035B6A8D
S32D00011A0003F00103DBB2002BF5D14FF48053C4F20B037A6852689A60FB6823F44003FB607B685B784FEA8353F5
S32D00011A2803F44003FA681343FB607B685B78022B03D1FB6843F40013FB607B685B78042B16D1FB6803F44033EA
S32D00011A50B3F5003F08D1FB6823F44033FB60FB6843F44033FB6007E0FB6823F44033FB60FB6843F40033FB60A0
S32D00011A784FF48053C4F20B034FF48052C4F20B0252684FEA02424FEA12425A607B68DB68002B32D0FB6803F462
S32D00011AA04033B3F5403F03D0FB6843F40013FB607B681B7A002B03D0FB6843F01003FB607B68DB68012B03D9FA
S32D00011AC8FB6843F02003FB607B68DB68B3F1FF3F13D04FF48053C4F20B034FF48052C4F20B02526811467A684B
S32D00011AF0D2684FEA02420A435A60FB6843F00203FB604FF48053C4F20B034FF000021A604FF48053C4F20B03A4
S32D00011B18FA68DA604FF00100C0F20E00FFF726FF0346012B0CBF00230123DBB2002B10D04FF48053C4F20B03EE
S32D00011B404FF48052C4F20B02126B42F4702242F001021A634FF0010372E04FF48053C4F20B031B6B03F080033C
S32D00011B68002B0CBF00230123DBB2002B0ED04FF48053C4F20B034FF48052C4F20B02126B42F001121A634FF04B
S32D00011B90010355E04FF48053C4F20B031B6B03F48033002B0CBF00230123DBB2002B0ED04FF48053C4F20B0336
S32D00011BB84FF48052C4F20B02126B42F001121A634FF0FF3338E0FB6803F44033002B25D04FF48053C4F20B0397
S32D00011BE01B691A467B681A61FB6803F44033B3F5803F17D14FF48053C4F20B035B691A467B685A614FF48053C6
S32D00011C08C4F20B039B691A467B689A614FF48053C4F20B03DB691A467B68DA614FF48053C4F20B034FF480521C
S32D00011C30C4F20B02126B42F001021A634FF00003184607F11007BD4680BD00BF80B592B000AF786039604FF00F
S32D00011C580003FB633B68BB6341F29C13C1F6FF737B637B6B002B03D140F6012300F0A0BC41F2A033C1F6FF7398
S32D00011C803B633B6B002B03D140F60B2300F094BC3B6B1B68FB62FB6A002B03D140F60B2300F08ABC7B6841F2B4
S32D00011CA80432934200F0388241F2043293421BD841F20132934238D041F20132934207D8032B00F03D84092BB7
S32D00011CD000F0298400F066BC41F20232934200F0128241F20332934200F0BE8300F05ABC41F20732934200F0D1
S32D00011CF84B8341F2073293420BD841F20532934200F0348241F20632934200F0108300F045BC41F208329342F0
S32D00011D2000F0B68241F20932934200F0C48200F039BC786B4AF2A011C0F20101FFF724FD0346FB63FB6B002B3B
S32D00011D4840F030844FF0000387F847304FF0000387F82B304FF0000387F82A304FF0000387F829304FF00003BD
S32D00011D7087F846304FF0000387F828304FF000033B724FF000037B724FF00003FB604FF000033B744FF0000348
S32D00011D987B6107F108031846FFF704FE0346002B0CBF00230123DBB2002B03D04FF00103FB63FCE340F24C4098
S32D00011DC001F0A6F84FF008033B724FF000037B724FF4D573FB604FF000033B744FF000037B6107F108031846E9
S32D00011DE8FFF7E0FD03463B643B6C002B0BD1BA69FB689A4203D04FF00103FB63D7E34FF0010387F846304FF05C
S32D00011E10010387F8283097F82830002B00F0C6804FF037033B724FF000037B724FF00003FB604FF000033B749D
S32D00011E384FF000037B6107F108031846FFF7B2FD03463B643B6C002B03D04FF00103FB63ADE34FF069033B7241
S32D00011E604FF000037B724FF00003FB604FF000033B744FF000037B6107F108031846FFF795FD0346002B0CBF50
S32D00011E8800230123DBB2002B03D04FF00103FB638DE3BB6903F44013002B00F083804FF000033B644FF00A0092
S32D00011EB001F02EF83B6C03F101033B644FF037033B724FF000037B724FF00003FB604FF000033B744FF0000389
S32D00011ED87B6107F108031846FFF764FD0346002B0CBF00230123DBB2002B03D04FF00103FB6336E04FF06903D4
S32D00011F003B724FF000037B7297F84630002B05D04FF00003C4F23003FB6002E04FF44013FB604FF000033B7487
S32D00011F284FF000037B6107F108031846FFF73AFD0346002B0CBF00230123DBB2002B03D04FF00103FB630CE040
S32D00011F50BB69002B05DB3B6C632B02D84FF0010301E04FF00003002BA0D1FB6B002B40F01F833B6C632B04D9AD
S32D00011F784FF0000387F8463014E04FF0010387F8473097F84630002B0CD04FF0000387F84630BB6903F08043B9
S32D00011FA0002B03D04FF0010387F8463097F82A30002B03D07B6B4FF007021A6097F82930002B03D07B6B4FF042
S32D00011FC808021A6097F82B30002B03D07B6B4FF004021A6097F84730002B0BD07B6B4FF002021A6097F8463025
S32D00011FF0002B03D07B6B4FF003021A6097F82B30002B0FD097F84730002B0BD07B6B4FF005021A6097F8463075
S32D00012018002B03D07B6B4FF006021A604FF45043C4F204034FF000021A604FF45043C4F204034FF000025A6018
S32D000120404FF45043C4F204034FF000029A604FF45043C4F204034FF00002DA604FF45043C4F204034FF00002C1
S32D000120681A614FF45043C4F204034FF000025A61FB6A9A68FB6A5B6810461946FFF7DAFA4FF45043C4F204039E
S32D0001209040F243421A604FF45043C4F2040340F243425A604FF45043C4F204034FF488629A604FF45043C4F2A6
S32D000120B8040340F24342DA604FF45043C4F2040340F243421A614FF45043C4F2040340F243425A614FF4E043D1
S32D000120E0C4F204034FF4E042C4F2040202F5805202F13002126842F4003203F5805303F130031A6057E2B86B5B
S32D00012108FFF750FC03463B643B6C002B00F04E824FF00203FB6349E2BB6B002B03D14FF00C03FB6343E24FF4E6
S32D000121308053C4F20B03DB6A03F47F434FEA13234FEA43033B644FF48053C4F20B03DB6A03F0F0034FEA1313FA
S32D0001215803F101023B6C02FB03F33B64FB6A9A683B6CB2FBF3F2BB6B1A6020E2BB6B002B03D14FF00C03FB6315
S32D0001218019E2BB6B1B68002B03D14FF00C03FB6311E2FFF7DBFB0346002B14BF00230123DBB2002B70D04FF459
S32D000121A85043C4F204034FF000021A604FF45043C4F204034FF000025A604FF45043C4F204034FF000029A60A1
S32D000121D04FF45043C4F204034FF00002DA604FF45043C4F204034FF000021A614FF45043C4F204034FF00002AF
S32D000121F85A61FB6A9A68BB6B1B6810461946FFF719FA4FF45043C4F2040340F243421A604FF45043C4F20403D8
S32D0001222040F243425A604FF45043C4F204034FF488629A604FF45043C4F2040340F24342DA604FF45043C4F254
S32D00012248040340F243421A614FF45043C4F2040340F243425A614FF4E043C4F204034FF4E042C4F2040202F5EE
S32D00012270805202F13002126842F4003203F5805303F130031A6096E140F60A23FB6392E1BB6B002B03D14FF0EB
S32D000122980C03FB638BE14FF48053C4F20B035B684FEAC3434FEAD343BA6B13607FE1BB6B002B03D14FF00C03A8
S32D000122C0FB6378E1FFF742FB0346002B14BF00230123DBB2002B2AD0BB6B1A6840F6FF739A4203D94FF00C036F
S32D000122E8FB6364E14FF48053C4F20B034FF48052C4F20B02526822F4FE5222F03F025A604FF48053C4F20B036B
S32D000123104FF48052C4F20B0252681146BA6B12684FEAC2424FEAD2420A435A6043E140F60A23FB633FE1BB6B5A
S32D00012338002B03D14FF00C03FB6338E14FF48053C4F20B039B6A03F006034FEA53033B643B6C002B04D1BB6BDC
S32D000123604FF000021A6026E13B6C012B04D1BB6B4FF001021A601EE13B6C102B04D1BB6B4FF002021A6016E172
S32D000123884FF00503FB6312E1BB6B002B03D14FF00C03FB630BE1FFF7D5FA0346002B14BF00230123DBB2002BC6
S32D000123B056D0BB6B1B68002B16D14FF48053C4F20B034FF48052C4F20B02926A22F006029A624FF48053C4F28D
S32D000123D80B034FF48052C4F20B02926A9A62E6E0BB6B1B68012B18D14FF48053C4F20B034FF48052C4F20B02C2
S32D00012400926A22F006029A624FF48053C4F20B034FF48052C4F20B02926A42F002029A62C9E0BB6B1B68022B3C
S32D0001242816D14FF48053C4F20B034FF48052C4F20B02926A22F006029A624FF48053C4F20B034FF48052C4F235
S32D000124500B02926A9A62AEE04FF00503FB63AAE040F60A23FB63A6E0BB6B002B03D14FF00C03FB639FE04FF4C1
S32D000124788053C4F20B034FF48052C4F20B02D26A42F00062DA624FF48053C4F20B03DB6A03F00063002B0CBF4F
S32D000124A000230123DBB2002BF1D14FF48053C4F20B031B6B03F08003002B0CBF00230123DBB2002B0FD04FF45F
S32D000124C88053C4F20B034FF48052C4F20B02126B42F080021A637B6B4FF000021A604FF48053C4F20B035B6A88
S32D000124F003F48033002B0CBF00230123DBB2002B08D07B6B1B68002B08D17B6B4FF001021A6003E07B6B4FF02F
S32D0001251800021A607B6B1A68BB6B1A6047E0BB6B4FF01C021A60BB6B03F104034FF004021A60BB6B03F10803E7
S32D000125404FF41E721A6036E04FF00200FFF712FA4FF48053C4F20B031B6B03F4E003002B0CBF00230123DBB2C2
S32D00012568002B0ED04FF48053C4F20B034FF48052C4F20B02126B42F4E0021A634FF00403FB634FF48053C4F207
S32D000125900B034FF48052C4F20B02126B42F032021A6308E040F60923FB6304E000BF02E000BF00E000BFFB6BE5
S32D000125B8184607F14807BD4680BD00BF80B489B000AF786039607B687B6141F29C13C1F6FF733B613B69002B8E
S32D000125E002D14FF0000381E03B691B68022B0BD03B691B68032B07D03B691B68072B03D03B691B68082B0DD197
S32D000126084FF48053C4F20B035B6A03F00403002B0CBF00230123DBB2002BF1D13B68FB6156E0FB69B3F5007F93
S32D0001263028BF4FF40073FB60FB6803F103034FEA9303BB613CE04FF48053C4F20B031B6B03F4E003002B0CBFEF
S32D0001265800230123DBB2002B10D04FF48053C4F20B034FF48052C4F20B02126B42F4E00242F020021A634FF01D
S32D00012680000333E04FF48053C4F20B035B6A03F40063002B14BF00230123DBB2002BF1D14FF48053C4F20B0383
S32D000126A81B6A1A467B691A607B6903F104037B61BB6903F1FF33BB61BB69002B0CBF00230123DBB2002BBAD1FB
S32D000126D0FA69FB68D31AFB61FB69002B0CBF00230123DBB2002BA0D14FF00103184607F12407BD4680BC704748
S32D000126F880B58EB000AFB9607A600246FA73BB7341F28813C1F6FF737B63FB7B002B02D1BB7B002B02D14FF0FF
S32D00012720040381E040F20043C1F6FF731B78DBB203F00103DBB2002B02D04FF0030373E0BB68002B02D14FF0EB
S32D0001274800036DE07B6B1B7B002B03D17B684FEA43237B60BB7B012B2CD14FF011033B754FF000037B757B68C3
S32D00012770BB614FF001033B77BB7B3B6207F1140341F202301946FFF761FA0346002B14BF00230123DBB2002BEC
S32D000127983ED0B8684FF40071FFF710FF0346002B0CBF00230123DBB2002B31D04FF00003BB732DE04FF012031B
S32D000127C03B754FF000037B757B68BB614FF001033B77BB7B3B6207F1140341F202301946FFF734FA0346002BD6
S32D000127E814BF00230123DBB2002B11D0BB7B4FEA4323B8681946FFF7E1FE0346002B0CBF00230123DBB2002BA8
S32D0001281002D04FF00003BB73BB7B002B02D04FF0010301E04FF00003184607F13807BD4680BD00BF80B487B0BF
S32D0001283800AF786039607B68FB603B687B6155E07B69B3F5007F28BF4FF400733B617A693B69D31A7B613B6927
S32D0001286003F103034FEA93033B613BE04FF48053C4F20B031B6B03F4E003002B0CBF00230123DBB2002B10D0BA
S32D000128884FF48053C4F20B034FF48052C4F20B02126B42F4E00242F010021A634FF0FF332EE04FF48053C4F2CE
S32D000128B00B035B6A03F48063002B14BF00230123DBB2002BF1D14FF48053C4F20B03FA6812681A62FB6803F104
S32D000128D80403FB603B6903F1FF333B613B69002B0CBF00230123DBB2002BBBD17B69002B0CBF00230123DBB236
S32D00012900002BA1D14FF00103184607F11C07BD4680BC704780B58EB000AFB9607A600246FA73BB7341F2881393
S32D00012928C1F6FF737B63FB7B002B02D1BB7B002B02D14FF00403CAE040F20043C1F6FF731B78DBB203F001032C
S32D00012950DBB2002B02D04FF00303BCE040F20043C1F6FF731B78DBB203F00403002B0CBF00230123DBB2002B40
S32D0001297802D04FF00203AAE0BB68002B02D14FF00003A4E07B6B1B7B002B03D17B684FEA43237B60BB7B012B6F
S32D000129A02CD14FF018033B754FF000037B757B68BB614FF000033B77BB7B3B6207F1140341F202301946FFF740
S32D000129C841F90346002B14BF00230123DBB2002B3ED0B8684FF40071FFF728FF0346002B0CBF00230123DBB24E
S32D000129F0002B31D04FF00003BB732DE04FF019033B754FF000037B757B68BB614FF000033B77BB7B3B6207F114
S32D00012A18140341F202301946FFF714F90346002B14BF00230123DBB2002B11D0BB7B4FEA4323B8681946FFF740
S32D00012A40F9FE0346002B0CBF00230123DBB2002B02D04FF00003BB734FF00D033B754FF000037B757B6B1B6955
S32D00012A68BB614FF000033B774FF000033B6207F1140341F202301946FFF7E4F80346002B0CBF00230123DBB298
S32D00012A90002B02D04FF001031DE07A6A48F20803CFF6D9731340002B02D04FF0010312E07B6A03F4F853B3F54C
S32D00012AB8106F0CBF00230123DBB2002BC8D1BB7B002B02D04FF0010301E04FF00003184607F13807BD4680BD9F
S32D00012AE080B58CB000AF0B463A600246FA71BB7141F28813C1F6FF73BB62FB79002B02D04FF004037AE04FF079
S32D00012B08010387F82F3040F20043C1F6FF731B78DBB203F00103DBB2002B02D04FF0030368E0BB79032B5FD857
S32D00012B3001A252F823F000BF492B0100532B0100652B0100772B01004FF0000387F82F3052E0BB6A9A683B6873
